:100000000C94E5030C9416040C9416040C9416043A
:100010000C9416040C9416040C9416040C941604F8
:100020000C9416040C9418310C9440310C946831E3
:100030000C9416040C94164F0C9416040C9416048D
:100040000C9416040C9416040C9416040C941604C8
:100050000C9416040C9416040C9416040C946F4320
:100060000C9416040C94F8460C942E470C94160429
:100070000C9416040C9416040C9416040C94160498
:100080000C9416040C9416040C9416040C94160488
:100090000C94A5470C94DB470C9416040C94FC18A4
:1000A0000C9416040C9416040C9416040C94160468
:1000B0000C9416040C9416040C9416040C94160458
:1000C0000C9416040C9416040C9416040C94160448
:1000D0000C9416040C9416040C9452480C94884802
:1000E0000C9416049544984487448B449144CF441F
:1000F0009C44A044A644AA44AE44B444B844BC447E
:10010000CF44C244C644CA440C941A180C942E28F6
:100110000C94D4330C94B8440C94E32C0C943E24EB
:100120000C945A490C940A2F0C94F92E0C945F39B4
:100130000C94CA440C94E7230C94C0390C94D72B2C
:100140000C94D52C0C9463390C940B290C949B2B98
:100150000C9471170C94F1280C948F260C94AB24FA
:100160000C94F7280C943F260C940B2D0C94AA4465
:100170000C947B330C94D92C0C94EE260C94A6375B
:100180000C94BC440C942D1A0C946C380C9483245D
:100190000C9487440C9440240C94FC2E0C948145C0
:1001A0000C9430250C94CB240C9479490C94C938C8
:1001B0000C9416240C94B42A0C940E290C946845C3
:1001C0000C9410250C945B240C94A4280C94AF3749
:1001D0000C9495450C94F2230C945E240C94F42614
:1001E0000C94C2440C948B390C9450330C949D2C79
:1001F0000C943D2B0C94851C0C9458470C94C228ED
:100200000C945B390C94A6440C9415460C94632E04
:100210000C9446370C9433240C9425240C946337A7
:100220000C94A8390C9498440C9488240C94393973
:100230000C94FA2D0C9447170C94C42C0C94F62EA5
:100240000C9416260C94C9370C94362A0C947939E0
:100250000C94332A0C94FF480C94F1260C946124DE
:100260000C94F4280C9479370C9444390C9481370D
:100270000C944C3A0C94C72C0C94DB280C944F171C
:100280000C946B2F0C94FF260C94C8260C94AC395C
:100290000C9472170C9462470C94BB060C94C42EF9
:1002A0000C941D2C0C94F0370C949C440C94E22E6E
:1002B0000C940A270C9495240C9490310C94593783
:1002C0000C943B070C94C6440C94B2480C9405481B
:1002D0000C9400240C94B2290C94CF440C94DC2C84
:1002E0000C94122F0C94A0390C94F4370C94392AE6
:1002F0000C94CD370C942E390C9462170C948224F4
:100300000C94A8280C94E6280C949F170C941F3A80
:100310000C940F480C94DB290C9491440C94A04449
:100320000C9401290C9495440C944D2A0C9492241D
:100330000C94E9390C940F3B0C940B240C94B444AA
:100340000C94063A0C94AE440C9473450C945737B5
:100350000C944B390C948C370C94501F0C94F3452F
:100360000C9484240C9487240C94A0240C940A39B3
:100370000C94FC2B0C94DD260C94C5280C94DC11F9
:100380000C94C2290C9454370C94B13A0C948B44BD
:100390000C943C2A0C94BC480C94D02846494E47F7
:1003A00045525052494E54004E554C4C0046696ED1
:1003B0006765722049440046494E474552505249AC
:1003C0004E5400524649440023232323232323234E
:1003D00023232323232323232323232323230043F0
:1003E0006F6E6E656374696F6E3A20636C6F7365D0
:1003F00000486F73743A200020485454502F312E17
:100400003100474554202F6361732F636865636B28
:100410002E7068703F00646174655F54494D4520DB
:100420003A004441544554494D453D004D455448DA
:100430004F443D002144657669636520494420733B
:10044000657420746F2000434C4F53454400415461
:100450002B5149434C4F534500434F4E4E45435457
:100460000D0A0041542B51494F50454E3D00415417
:100470002B5149444E5349503D00434F4E4E454346
:10048000540D0A00434C4F5345440D0A0041542B70
:1004900051495345525645520041542B51494C50F5
:1004A0004F52543D22544350222C0041542B514969
:1004B0004C4F4349500041542B434D47443D00416C
:1004C000542B434D474C3D2252454320554E5245F7
:1004D0004144222C310041542B434D47533D2200CF
:1004E0002B434C49503A0042555359004E4F20433C
:1004F000415252494552002B434F4C503A00524909
:100500004E4700415448004154410041542B434C54
:100510004343004154440000030205000305010465
:100520000602041F1C1F1E1F1E1F1F1E1F1E1F0052
:10053000000A0B02090C0D0E08070304010000005D
:1005400000000000000000000000000000000000AB
:100550000000000000000000000000121110000068
:10056000000000000000000000000000000000008B
:100570000000000000010210202008081020401098
:100580002040800201020108040201010204081057
:100590002040808040201008040201800402018075
:1005A000402010080402010804020101020408109E
:1005B0002040800102040810204080050505050741
:1005C0000508080808020202020A0A0808040404CE
:1005D00004010101010101010103030303030303FA
:1005E00003040707070C0C0C0C0C0C0C0C02020289
:1005F0000206060606060606060B0B0B0B0B0B0B7C
:100600000B000020002300260029002C002F0032C0
:10061000000001000003010601090100002200257D
:100620000028002B002E00310034000201000005DC
:100630000108010B0100002100240027002A002DE1
:10064000003000330001010000040107010A01022B
:100650004E414E494E495459494E46CDCCCC3D0AA7
:10066000D7233C17B7D13877CC2B329595E6241F8A
:10067000B14F0A000020410000C84200401C462043
:10068000BCBE4CCA1B0E5AAEC59D7400407A10F316
:100690005A00A0724E18090010A5D4E80000E876B0
:1006A00048170000E40B54020000CA9A3B00000007
:1006B000E1F505000080969800000040420F000020
:1006C00000A08601000000102700000000E80300E1
:1006D0000000006400000000000A000000000001AB
:1006E00000000000002C76D888DC674F0823DFC1AB
:1006F000DFAE59E1B1B796E5E3E453C63AE6519966
:100700007696E8E6C28426EB898C9B62ED407C6F8E
:10071000FCEFBC9C9F40F2BAA56FA5F490055A2A45
:10072000F75C936B6CF9676DC11BFCE0E40D47FE51
:10073000F520E6B500D0ED902E0300943577050046
:1007400080841E080000204E0A000000C80C3333CD
:1007500033330F986E12831141EF8D2114893BE6DC
:100760005516CFFEE6DB18D1844B381BF77C1D9065
:100770001DA4BBE424203284725E228100C9F124CE
:10078000ECA1E53D2700BB06DC111A182D1A851CCB
:10079000E723F22300240B241624252433244024A9
:1007A0003025F426FF26A428C528D028DB28E628F3
:1007B000FC2E90317B33D43346372E3939390F3BF9
:1007C00062470F48BC485A493B0711241FBECFEF70
:1007D000D1E2DEBFCDBF00E00CBF16E0A0E0B2E08A
:1007E000E0EBF7EB00E00BBF02C007900D92A234E4
:1007F000B107D9F72DE0A2E4B6E001C01D92AE3CEE
:10080000B207E1F717E0C8ECD7E000E006C0229796
:100810000109FE010BBF0E94D954C638D10780E000
:100820000807A9F70E946A490C94C65B0C94000063
:100830001F93CF93DF9300D000D0CDB7DEB761E038
:100840008AE00E94D04461E084E00E94D04461E0EC
:1008500085E30E94D04426E040E855E260E070E085
:1008600081EC9BE00E947A4668EC70E080E090E0CA
:100870000E94E84361E084E00E94094569E172E07A
:10088000CE0101960E94E44FBE016F5F7F4F88E664
:1008900096E00E948A0B182FCE0101960E94764F97
:1008A000112319F065E272E002C062E372E081ECAC
:1008B0009BE00E94354A64E872E081EC9BE00E9474
:1008C000EA490E9472144AE050E0BC0181EC9BE0CE
:1008D0000E94044B81EC96E00E94BA0F80E896E0FB
:1008E0000E947F0988EA96E00E94924120E042E05F
:1008F00060E18FEC96E00E946F3263E472E08FEC6F
:1009000096E00E94EA496FE472E081EC9BE00E946D
:10091000354A8FEC96E00E944E326BE572E08FEC28
:1009200096E00E94EA4969E672E081EC9BE00E9451
:10093000354A62E872E081EC9BE00E94EA490E943D
:1009400072144AE050E0BC0181EC9BE00E94044B31
:1009500062E070E081EC96E00E94861262E872E04C
:10096000882301F181EC9BE00E94EA490E94721405
:100970004AE050E0BC0181EC9BE00E94044B63E93B
:1009800072E081EC9BE00E94354A8FEC96E00E9479
:100990004E3260EA72E08FEC96E00E94EA491092D3
:1009A000620637C081EC9BE00E94EA490E94721403
:1009B0004AE050E0BC0181EC9BE00E94044B6DEAF0
:1009C00072E081EC9BE00E94354A6EEB72E081ECB4
:1009D0009BE00E94354A8FEC96E00E944E326DEA11
:1009E00072E08FEC96E00E94EA4981E08093620613
:1009F00069EC72E0CE0101960E94E44FBE016F5F88
:100A00007F4F8DE896E00E94C008CE0101960E94BB
:100A1000764F64E872E081EC9BE00E94EA490E9414
:100A200072144AE050E0BC0181EC9BE00E94044B50
:100A30000E94B943609363067093640680936506D1
:100A40009093660626960FB6F894DEBF0FBECDBF14
:100A5000DF91CF911F9108958F929F92AF92BF9295
:100A6000CF92DF92EF92FF920F931F93CF93DF937A
:100A7000CDB7DEB7EC970FB6F894DEBF0FBECDBF93
:100A80006FEC72E081EC9BE00E94EA490E947214D4
:100A90004AE050E0BC0181EC9BE00E94FC4A6FED13
:100AA00072E081EC9BE00E94EA490E94B943AB01ED
:100AB000BC012AE030E081EC9BE00E945D4B61E0EC
:100AC00084E00E94094528EC30E040E050E065E514
:100AD00076E080E896E00E94450B10924E0662E4B4
:100AE00076E088E696E00E94C20B68EA73E0CE01E9
:100AF00007960E94FE50BE01695F7F4F82E496E038
:100B00000E94A4518823B1F06CE973E0CE010196F4
:100B10000E94FE50BE016F5F7F4F88E496E00E9406
:100B2000A45111E0811101C010E0CE0101960E9494
:100B3000764F01C010E0CE0107960E94764F112338
:100B4000A1F068EE72E08FEC96E00E94EA4982EA3A
:100B500096E00E94D60D80EA96E00E94A30764E624
:100B600075E082E496E00E943B5080914E06882317
:100B700009F4E2C080EA96E00E94F70764E675E0B7
:100B8000CE01C7960E94E44F64E675E0CE01C1969F
:100B90000E94E44FAE014F5C5F4FBE01695C7F4F26
:100BA0008FE996E00E94820E6BE576E0CE01019619
:100BB0000E94325065E576E0CE0107960E943250E1
:100BC000BE01695C7F4FCE010D960E943250BE017E
:100BD0006F5C7F4FCE0143960E9432506DE876E005
:100BE000CE0185960E94010862E476E0CE01499626
:100BF0000E94325068E476E0CE014F960E94325057
:100C00006DE876E0CE018B960E94C208CE01019677
:100C10004C0106965C0106966C0106967C018E01DD
:100C20000B5D1F4F9E01275E3F4FAE01415E5F4F40
:100C3000BE01655D7F4F81EC96E00E9452138C01EE
:100C4000CE018B960E94764FCE014F960E94764F32
:100C5000CE0149960E94764FCE0185960E94764F2E
:100C6000C7010E94764FC6010E94764FC5010E94BF
:100C7000764FC4010E94764F8FEC96E01016110655
:100C800064F50E94473240E061E08FEC96E00E94FC
:100C9000553281EC96E00E948011019779F46AEF59
:100CA00072E08FEC96E00E94EA4982EA96E00E94A8
:100CB000D10D80EA96E00E9479072FC068EE72E0BD
:100CC0008FEC96E00E94EA4982EA96E00E94D60DF7
:100CD00080EA96E00E94A30720C00E9447328FEC72
:100CE00096E00E944E3269E073E08FEC96E00E943D
:100CF000EA4941E061E08FEC96E00E94553268E1FC
:100D000073E08FEC96E00E94EA4982EA96E00E9446
:100D1000DB0D80EA96E00E946F0768EE73E080E0EA
:100D200090E00E94E843CE01C1960E94764FCE012A
:100D3000C7960E94764F0CC08FEC96E00E94473217
:100D400082EA96E00E94E00D8FEC96E00E94E20CB1
:100D5000EC960FB6F894DEBF0FBECDBFDF91CF91FA
:100D60001F910F91FF90EF90DF90CF90BF90AF90C9
:100D70009F908F900895AF92CF92EF920F9300E0E3
:100D800020E040E060E087EE96E00E9443498CE17D
:100D9000A82E9BE1C92E2AE1E22E09E128E147E1D4
:100DA00066E18FEC96E00E942A3382E293E0909312
:100DB000D0068093CF0681EC96E00E94394964E624
:100DC00075E089EC96E00E94E44F84EB96E00E9487
:100DD000523827E030E046E050E065E070E082EA1B
:100DE00096E00E94970D6BE070E080EA96E00E942A
:100DF0006B0764E675E08DE896E00E94E44F64E6D8
:100E000075E083E996E00E94E44F64E675E089E9C5
:100E100096E00E94E44F80E896E00E9470096EE53B
:100E20007CE080E796E00E948F1488E696E00E94BE
:100E3000620B64E675E085E596E00E94E44F64E6A7
:100E400075E08BE596E00E94E44F64E675E08FE480
:100E500096E00E94E44F64E675E082E496E00E942A
:100E6000E44F64E675E088E496E00F91EF90CF9050
:100E7000AF900C94E44F88E496E00E94764F82E4B1
:100E800096E00E94764F8FE496E00E94764F8BE5C5
:100E900096E00E94764F85E596E00E94764F88E6C0
:100EA00096E00E94764F86E896E00E94764F80E8B2
:100EB00096E00E94764F89E996E00E94764F83E99A
:100EC00096E00E94764F8DE896E00E94764F89EC7E
:100ED00096E00C94764FFC0171836083089528EEB0
:100EE00033E040E050E068EE73E0FC0180810C9458
:100EF000E54BCF93DF93EC0120E030E0A90160EAFD
:100F00007FE088810E94E54B6CE271E080E090E038
:100F10000E94E84320E030E0A90160ED77E088819D
:100F20000E94E54B6CE271E080E090E00E94E843B3
:100F300028EC30E040E050E060EA7FE08881DF911B
:100F4000CF910C94E54BCF93DF93EC0120E030E0A0
:100F5000A90168EC70E088810E94E54B68EC70E0C4
:100F600080E090E00E94E84320E030E0A90160EAE0
:100F70007FE088810E94E54B68EC70E080E090E0C3
:100F80000E94E84320E030E0A90160ED77E088812D
:100F90000E94E54B68EC70E080E090E00E94E8433E
:100FA00020E030E0A90160EA7FE088810E94E54B03
:100FB00068EC70E080E090E00E94E84320E030E0E0
:100FC000A90168EE73E088810E94E54B68EC70E04F
:100FD00080E090E00E94E84328EC30E040E050E000
:100FE00060EA7FE08881DF91CF910C94E54B24EF9C
:100FF00031E040E050E060EA7FE0FC0180810C9449
:10100000E54BEF92FF920F931F93CF93DF93CDB7F2
:10101000DEB72C970FB6F894DEBF0FBECDBF7C01B4
:1010200066E273E0CE0107960E94E44F00E010E014
:10103000B8018BE097E00E944017482FB801CE011D
:1010400007960E94D6510F5F1F4F0630110581F79A
:101050006AEB73E0CE0101960E94E44FBE016F5F20
:101060007F4FCE0107960E9413528C01CE0101964C
:101070000E94764F012B59F426E030E042E050E028
:10108000BE01695F7F4FC7010E94175205C06DE224
:1010900073E0C7010E94E44FCE0107960E94764F8D
:1010A000C7012C960FB6F894DEBF0FBECDBFDF91FF
:1010B000CF911F910F91FF90EF900895CF93DF9301
:1010C000C0E0D0E04FEFBE018BE097E00E944317F5
:1010D0002196C730D105B1F7DF91CF910895EF92F6
:1010E000FF920F931F93CF93DF93CDB7DEB72C976B
:1010F0000FB6F894DEBF0FBECDBF8C017B016AEB4B
:1011000073E0CE0101960E94E44FB701CE01019633
:101110000E944751BC01CE0107960E943250CE0179
:1011200001960E94764FC8010E945E0800E010E020
:10113000B801CE0107960E94F551482FB8018BE007
:1011400097E00E9443170F5F1F4F0630110581F78C
:1011500040E066E070E08BE097E00E944317CE012C
:1011600007960E94764F2C960FB6F894DEBF0FBEFE
:10117000CDBFDF91CF911F910F91FF90EF90089518
:101180000C941B50CF93DF93EC010E943250CE01A0
:10119000DF91CF91089506960C941B50DF92EF9249
:1011A000FF920F931F93CF93DF93CDB7DEB72C97AA
:1011B0000FB6F894DEBF0FBECDBF7C018B0126E0D9
:1011C00040E051EE60E070E08EE59CE00E947A46DF
:1011D00042E350E060E070E08EE59CE00E949D4BB1
:1011E000F801148669E172E0C80106960E943B503E
:1011F000C7010E944B16D82E68E873E081EC9BE093
:101200000E94354AD11052C061E0C7010E94931676
:10121000D82E61E973E081EC9BE00E94354AD11041
:1012200045C0C7010E94DC16D82E6AE973E081EC44
:101230009BE00E94354ADD2031F06BEA73E0C80183
:101240000E943B5033C06DEA73E081EC9BE00E944A
:10125000B749F701608171814AE050E081EC9BE081
:101260000E94474BF701608171814AE0CE010796E9
:101270000E9480506AEB73E0CE0101960E94E44F19
:10128000BE01695F7F4FCE0101960E944751BC01AC
:10129000C8010E941B50CE0101960E94764FCE01DC
:1012A00007960E94764F81E0F80184872C960FB64E
:1012B000F894DEBF0FBECDBFDF91CF911F910F918C
:1012C000FF90EF90DF900895CF93DF93EC0160E003
:1012D00071EE0E949F14CE01DF91CF910C94FA150C
:1012E000CF93DF93EC0164E675E00E94E44F64E67F
:1012F00075E0CE010696DF91CF910C94E44F81E02A
:1013000008952F923F924F925F926F927F928F92A9
:101310009F92AF92BF92CF92DF92EF92FF920F9384
:101320001F93CF93DF93CDB7DEB7A7970FB6F8948F
:10133000DEBF0FBECDBF8C016A017B0126E040E815
:1013400055E260E070E08BEF9CE00E947A468BEF04
:101350009CE00E94F3450E94B9432B013C0164E6E6
:1013600075E0CE014F960E94E44F44E650E060E005
:1013700070E08BEF9CE00E949D4B180186E0280EE8
:10138000311C0E94B94364197509860997096C15C7
:101390007D058E059F0508F057C14AE06BEF7CE0A4
:1013A000CE0101960E94BD4BBE016F5F7F4FCE0103
:1013B0004F960E941B50CE0101960E94764F60EB23
:1013C00073E0CE0101960E94E44FBE016F5F7F4F34
:1013D000CE014F960E9413525C01CE0101960E94ED
:1013E000764FB7FCCECFA12CB12C812C912CEFEFF6
:1013F0008E1A9E0A66EB73E0CE0101960E94E44FBE
:10140000A401BE016F5F7F4FCE014F960E94F7513E
:101410004C01CE0101960E94764FF1E0AF16B10467
:1014200049F4B4016F5F7F4FCE014F960E94F55192
:101430008FA33CC082E0A816B104B1F1E4E0AE167F
:10144000B104B9F44DA15EA14F5F5F4F9401BE019D
:10145000615E7F4FCE0101960E941752BE016F5F01
:101460007F4FC8010E941B50CE0101960E94764F0B
:101470001BC0F6E0AF16B104C9F494014DA15EA102
:101480004F5F5F4FBE01615E7F4FCE0101960E94AC
:101490001752BE016F5F7F4FC1010E941B50CE01EA
:1014A00001960E94764F02C09EA28DA28FEFA81ACD
:1014B000B80AEAE0AE16B10409F099CFFFA1F13401
:1014C00021F481E0F801848702C0F80114862BE042
:1014D00030E04AE050E0B801CE0107960E94175272
:1014E00022E030E040E050E0B801CE0149960E9491
:1014F0001752CE0149960E9467524B015C0129E0C8
:1015000030E042E050E0B801CE0143960E9417520D
:10151000CE0143960E94675220E030E040E752E45B
:101520000E94DB529B01AC01C501B4010E947352C1
:10153000AB01BC0126E0CE010D960E94AC50BE016D
:10154000635F7F4FCE0101960E943250BE01695FFA
:101550007F4FCE0101960E944751BC01C8010E94F5
:101560001B50CE0101960E94764FCE010D960E942F
:10157000764FCE0143960E94764FCE0149960E9447
:10158000764FCE0107960E94764F2CE030E04BE07C
:1015900050E0B101CE0107960E94175223E030E0DF
:1015A00040E050E0B101CE0149960E941752CE01B1
:1015B00049960E9467524B015C012AE030E043E00B
:1015C00050E0B101CE0143960E941752CE014396DE
:1015D0000E94675220E030E040E752E40E94DB5274
:1015E0009B01AC01C501B4010E947352AB01BC0167
:1015F00026E0CE010D960E94AC50BE01635F7F4F86
:10160000CE0101960E943250BE01695F7F4FCE012C
:1016100001960E944751BC01C1010E941B50CE019E
:1016200001960E94764FCE010D960E94764FCE0114
:1016300043960E94764FCE0149960E94764FCE0186
:1016400007960E94764F9DCE8BEF9CE00E94DC4671
:10165000CE014F960E94764FA7960FB6F894DEBF44
:101660000FBECDBFDF91CF911F910F91FF90EF90F3
:10167000DF90CF90BF90AF909F908F907F906F90B2
:101680005F904F903F902F9008950F931F93CF93AB
:10169000DF93EC018B01BA01A9010E948109BE010F
:1016A000C8010E941B50BE016A5F7F4FC8010696A9
:1016B0000E941B508C85F8018487DF91CF911F9188
:1016C0000F910895CF93DF93EC0164E675E00E94DB
:1016D000E44F8DE190E09F838E83DF91CF91089559
:1016E000CF93DF93EC0160E08E810E94094560E0BA
:1016F0008E810E94D0448E810E943F45019719F44B
:1017000068EB73E002C069E172E0CE01DF91CF9136
:101710000C943B500F931F93CF93DF9300D000D0D6
:10172000CDB7DEB78C01CE0101960E943250BE01CA
:101730006F5F7F4FC8010E941B50CE0101960E942F
:10174000764F68EB73E0C8010E94B75181110CC05D
:1017500069E172E0C8010E94B751882339F080E73F
:1017600096E00E94640903C081E001C080E02696F3
:101770000FB6F894DEBF0FBECDBFDF91CF911F91A2
:101780000F910895DF92EF92FF920F931F93CF93E3
:10179000DF9300D000D0CDB7DEB78C017B010E9473
:1017A000700B63EC73E0CE0101960E94FE50BE0107
:1017B0006F5F7F4FC8010E94A451D82ECE010196C1
:1017C0000E94764FDD2031F0B70187E696E00E9457
:1017D0001D0D18C067EB73E0CE0101960E94FE500C
:1017E000BE016F5F7F4FC8010E94A451182FCE0128
:1017F00001960E94764F112329F0B70180E796E009
:101800000E94CE0826960FB6F894DEBF0FBECDBF5D
:10181000DF91CF911F910F91FF90EF90DF9008958E
:10182000AF92BF92CF92DF92EF92FF920F931F93EE
:10183000CF93DF93CDB7DEB7E0970FB6F894DEBF56
:101840000FBECDBF5C01CDA2DEA2EFA2F8A609A714
:101850001AA72BA740E060E00E9455328DA19EA1FF
:1018600064E670E00E9464544AE0BC01CE01019637
:101870000E9480504AE06FA1CE0107960E9453500B
:101880004AE068A5CE0143960E945350BE016D5EAA
:101890007F4FCE010D960E9432506DEB73E0CE016A
:1018A0000D960E945A51BE01695F7F4F0E944751B9
:1018B0006DEB73E00E945A51BE016F5F7F4F0E9433
:1018C0004751BC01CE014F960E943250CE010D9679
:1018D0000E94764FCE0143960E94764FCE01079626
:1018E0000E94764FCE0101960E94764FBE01615E46
:1018F0007F4FC5010E94DC4940E068E0C5010E94BD
:1019000055324AE06BA5CE0101960E9453504AE041
:101910006AA5CE0107960E9453504AE069A5CE0100
:1019200043960E945350BE016D5E7F4FCE010D96CF
:101930000E94325061E972E0CE010D960E945A5128
:10194000BE01695F7F4F0E94475161E972E00E94CA
:101950005A51BE016F5F7F4F0E944751BC01CE01BB
:1019600049960E943250CE010D960E94764FCE01CC
:1019700043960E94764FCE0107960E94764FCE0185
:1019800001960E94764FBE01675E7F4FC5010E949F
:10199000DC49CE0149960E94764FCE014F960E94B7
:1019A000764FE0960FB6F894DEBF0FBECDBFDF9145
:1019B000CF911F910F91FF90EF90DF90CF90BF904C
:1019C000AF900895AF92BF92CF92DF92EF92FF92C5
:1019D0000F931F93CF93DF93CDB7DEB72C970FB63E
:1019E000F894DEBF0FBECDBF5C010E94473268EAAB
:1019F00076E0CE0101960E94D942C980DA80EB8060
:101A0000FC800D811E812F81388549855A856B8523
:101A10007C85C5010E94100C2C960FB6F894DEBF91
:101A20000FBECDBFDF91CF911F910F91FF90EF902F
:101A3000DF90CF90BF90AF900895FF920F931F93C8
:101A4000CF93DF9300D000D0CDB7DEB78B0168EB2A
:101A500073E0C80106960E943B5026E040E855E23C
:101A600060E070E08EE59CE00E947A4642E350E040
:101A700060E070E08EE59CE00E949D4B6EE57CE0AE
:101A8000CE0101960E94A34BBE016F5F7F4FC8013C
:101A90000E941B50CE0101960E94764FF80184816E
:101AA00095810C9791F5FF24F394F4866FEB73E026
:101AB00081EC9BE00E94354A60ED73E081EC9BE095
:101AC0000E94354A67ED73E081EC9BE00E94EA4991
:101AD000F801648175814AE050E081EC9BE00E944E
:101AE000474B66EE73E081EC9BE00E94EA49B80147
:101AF00081EC9BE00E94234A6FEB73E081EC9BE05A
:101B00000E94354AF801F48602C0F80114868EE579
:101B10009CE00E94DC4626960FB6F894DEBF0FBE0E
:101B2000CDBFDF91CF911F910F91FF900895CF937B
:101B3000DF93EC01862F688379835B834A833D833F
:101B40002C8361E00E94D04461E08A810E94D044ED
:101B500061E08C81DF91CF910C94D0440F931F935F
:101B6000CF93DF93EC01042F122F662311F061E075
:101B700001C060E088810E940945002311F061E006
:101B800001C060E08A810E940945112311F061E0E3
:101B900001C060E08C81DF91CF911F910F910C9477
:101BA000094520E041E060E00C94AE0D20E040E00B
:101BB00061E00C94AE0D21E040E060E00C94AE0DCD
:101BC00020E040E060E00C94AE0D8F929F92AF92C7
:101BD000BF92CF92DF92EF92FF920F931F93CF931A
:101BE000DF9300D000D0CDB7DEB76B0124E030E04A
:101BF00040E050E0CE0101960E941752CE010196BE
:101C00000E945C524B015C01CE0101960E94764F0E
:101C100026E030E044E050E0B601CE0101960E949B
:101C20001752CE0101960E945C52162FCE010196EA
:101C30000E94764F28E030E046E050E0B601CE0149
:101C400001960E941752CE0101960E945C52F62E18
:101C5000CE0101960E94764F2AE030E048E050E045
:101C6000B601CE0101960E941752CE0101960E9444
:101C70005C52062FCE0101960E94764F2CE030E098
:101C80004AE050E0B601CE0101960E941752CE0103
:101C900001960E945C52E62ECE0101960E94764F7C
:101CA0002EE030E04CE050E0B601CE0101960E94FB
:101CB0001752CE0101960E945C52C62ECE010196AB
:101CC0000E94764F2F2D412FB40188EA96E00E94A2
:101CD00047426DEE73E081EC9BE00E94354A269608
:101CE0000FB6F894DEBF0FBECDBFDF91CF911F912D
:101CF0000F91FF90EF90DF90CF90BF90AF909F90AB
:101D00008F900895EF92FF920F931F93CF93DF93DD
:101D1000CDB7DEB7A4970FB6F894DEBF0FBECDBF28
:101D20008B017A0168EA76E0CE0101960E94D942E1
:101D300069817A814AE0CE010D960E9480504AE086
:101D40006B81CE0143960E9453504AE06C81CE01D4
:101D50004F960E945350BE01615E7F4FCE0149965F
:101D60000E94325067E672E0CE0149960E945A51B5
:101D7000BE016D5E7F4F0E94475167E672E00E9490
:101D80005A51BE01635F7F4F0E944751BC01C80199
:101D90000E941B50CE0149960E94764FCE014F966D
:101DA0000E94764FCE0143960E94764FCE010D964B
:101DB0000E94764F4AE06F81CE010D960E945350EB
:101DC0004AE06E81CE0143960E9453504AE06D81F5
:101DD000CE014F960E945350BE01615E7F4FCE01EF
:101DE00049960E94325067E672E0CE0149960E9401
:101DF0005A51BE016D5E7F4F0E94475167E672E007
:101E00000E945A51BE01635F7F4F0E944751BC013F
:101E1000C7010E941B50CE0149960E94764FCE0109
:101E20004F960E94764FCE0143960E94764FCE0188
:101E30000D960E94764FA4960FB6F894DEBF0FBEA3
:101E4000CDBFDF91CF911F910F91FF90EF9008953B
:101E5000FF920F931F93CF93DF93EB018B01F12C34
:101E6000F80161918F0140E150E081EC9BE00E941C
:101E7000294B61E972E081EC9BE00E94EA49F3940E
:101E8000F5E0FF12EDCF40E150E06D8181EC9BE089
:101E9000DF91CF911F910F91FF900C94304B0F93D6
:101EA0001F93CF93DF9300D000D0CDB7DEB78C0166
:101EB0006EEF73E081EC9BE00E94EA496AE072E019
:101EC000C8010E94280F65E074E081EC9BE00E944D
:101ED000EA496EE77BE0CE0101960E94EE36BE0134
:101EE0006F5F7F4F81EC9BE00E94474A6BE074E09C
:101EF00081EC9BE00E94EA496EE77BE0CE0101960F
:101F00000E943637BE016F5F7F4F81EC9BE00E94DD
:101F1000474A62E174E081EC9BE00E94EA496EE787
:101F20007BE0CE0101960E941E37BE016F5F7F4F9E
:101F300081EC9BE00E94474A6DE174E081EC9BE0FC
:101F40000E94EA496EE77BE0CE0101960E940637C7
:101F5000BE016F5F7F4F81EC9BE00E94474A26964F
:101F60000FB6F894DEBF0FBECDBFDF91CF911F91AA
:101F70000F910895CF92DF92EF92FF920F931F93EC
:101F8000CF93DF93CDB7DEB76E970FB6F894DEBF71
:101F90000FBECDBF6C010EE420EC43E06AE0CE0141
:101FA00049960E9443498B8D9C8DAD8DBE8DF60167
:101FB00082839383A483B58380E99FE1978386839B
:101FC00067E274E081EC9BE00E94354A20E436E051
:101FD0003A8329838091EF069091F006A091F10653
:101FE000B091F2068B839C83AD83BE8338872F83A9
:101FF0008091F5069091F606A091F706B091F8064B
:1020000089879A87AB87BC873E872D878091FB069F
:102010009091FC06A091FD06B091FE068F87988BEB
:10202000A98BBA8B3C8B2B8B4091010750910207F7
:1020300060910307709104074D8B5E8B6F8B788FD7
:10204000CE0101967C018E01095F1F4F9E01235F27
:102050003F4FAE014D5E5F4F6AE072E08EE79BE05E
:102060000E94A236C6010E944F0F6E960FB6F894DA
:10207000DEBF0FBECDBFDF91CF911F910F91FF90BB
:10208000EF90DF90CF900895CF92DF92EF92FF9282
:102090000F931F93CF93DF93CDB7DEB72C970FB677
:1020A000F894DEBF0FBECDBF8C0164EB74E0CE01AF
:1020B00001960E94E44F085F1F4FBE016F5F7F4F84
:1020C000C8010E9413527C01CE0101960E94764FF6
:1020D000F7FC2EC09701265F3F4FA7014A5F5F4F75
:1020E000B801CE0107960E941752BE01695F7F4F6B
:1020F000CE0101960E943250BE016F5F7F4F8DE886
:1021000096E00E946F08CE0101960E94764F64E32C
:1021100074E081EC9BE00E94B749BE01695F7F4F8C
:1021200081EC9BE00E94234ACE0107960E94764FE5
:102130006CE274E0CE0101960E94FE50BE016F5F1A
:102140007F4FC8010E9413527C01CE0101960E946C
:10215000764FF7FC31C066E675E0CE0101960E942D
:10216000E44FA701BE016F5F7F4FC8010E94F75186
:102170006C01CE0101960E94764FA701495F5F4F27
:102180009601B801CE0107960E941752BE01695F01
:102190007F4FCE0101960E943250BE016F5F7F4F8C
:1021A0008DE896E00E94C008CE0101960E94764F0D
:1021B000CE0107960E94764F60E474E0CE0101964E
:1021C0000E94E44FBE016F5F7F4FC8010E9413520F
:1021D0007C01CE0101960E94764FF7FC31C066E685
:1021E00075E0CE0101960E94E44FA701BE016F5F2A
:1021F0007F4FC8010E94F7516C01CE0101960E94E9
:10220000764FA701485F5F4F9601B801CE01079650
:102210000E941752BE01695F7F4FCE0101960E9456
:102220003250BE016F5F7F4F8DE896E00E94CB0871
:10223000CE0101960E94764FCE0107960E94764FFE
:1022400062E274E0CE0101960E94FE50BE016F5F13
:102250007F4FC8010E9413527C01CE0101960E945B
:10226000764FF7FC3EC066E675E0CE0101960E940F
:10227000E44FA701BE016F5F7F4FC8010E94F75175
:102280006C01CE0101960E94764FA701475F5F4F18
:102290009601B801CE0107960E94175266E174E0DC
:1022A00081EC9BE00E94B749BE01695F7F4F81ECE2
:1022B0009BE00E94234ABE01695F7F4FCE010196D9
:1022C0000E943250BE016F5F7F4F8FE996E00E94FF
:1022D000E50DCE0101960E94764FCE0107960E9431
:1022E000764F2C960FB6F894DEBF0FBECDBFDF91B0
:1022F000CF911F910F91FF90EF90DF90CF900895B5
:10230000EF92FF920F931F93CF93DF9300D000D0F3
:10231000CDB7DEB78C0168EC73E081EC9BE00E94E6
:10232000114A085F1F4FB80181EC9BE00E94234ACD
:102330000E9472144AE050E0BC0181EC9BE00E94D4
:10234000044B69E474E0CE0101960E94E44FBE01A3
:102350006F5F7F4FC8010E9413527C01CE0101962E
:102360000E94764FF7FE16C066E574E0CE01019636
:102370000E94E44FBE016F5F7F4FC8010E9413525D
:102380008C01CE0101960E94764F17FD06C081E0B8
:1023900090E005C080E090E002C08FEF9FEF2696AE
:1023A0000FB6F894DEBF0FBECDBFDF91CF911F9166
:1023B0000F91FF90EF9008950F9300E020E040E030
:1023C00060E085E097E00E94434901EB20EC43E0A8
:1023D0006AE08FEF96E00E9443490BE021E048EC71
:1023E0006AE089EF96E00E9443490AEF28EC43E057
:1023F0006AE083EF96E00E94434900E020EE4FEF51
:102400006FEF8DEE96E00E9443490F9108954F9231
:102410005F926F927F928F929F92AF92BF92CF9274
:10242000DF92EF92FF920F931F93CF93DF9300D031
:1024300000D0CDB7DEB75C018B010E94B9436B01C0
:102440007C0188EE93E0089F2001099F500C189FA3
:10245000500C1124612C712C00E010E080E4882ED7
:1024600086E0982E0E94B9436C197D098E099F0958
:10247000641575058605970550F084EB96E00E947B
:10248000C93881E00130110551F180E028C0F50123
:10249000468157819A82898282819381A481B58104
:1024A0008B839C83AD83BE83BE016F5F7F4F84EBC4
:1024B00096E00E946C388C0162E872E081EC9BE04F
:1024C0000E94EA490E9472144AE050E0BC0181EC8B
:1024D0009BE00E94044B0130110579F2C3CF269690
:1024E0000FB6F894DEBF0FBECDBFDF91CF911F9125
:1024F0000F91FF90EF90DF90CF90BF90AF909F90A3
:102500008F907F906F905F904F9008954F925F9261
:102510006F927F928F929F92AF92BF92CF92DF92F3
:10252000EF92FF920F931F93CF93DF9300D000D0D1
:10253000CDB7DEB78C017B010E94B9432B013C0172
:10254000B701C8010E940712882309F494C088EEDD
:1025500093E0E89E6001E99ED00CF89ED00C112417
:10256000E12CF12CA12CB12C90E4892E96E0992E2F
:102570000E94B94364197509860997096C157D0590
:102580008E059F0508F06BC0F801468157819A823D
:10259000898282819381A481B5818B839C83AD8361
:1025A000BE83BE016F5F7F4F84EB96E00E946C3864
:1025B0005C0181309105E1F66FE574E084EB96E013
:1025C0000E94EA496DE876E0CE0101960E9401087A
:1025D000BE016F5F7F4F84EB96E00E94DC49CE0125
:1025E00001960E94764F6BE774E084EB96E00E94C0
:1025F000354A65E874E084EB96E00E94EA49B80148
:1026000084EB96E00E94474A6CE874E084EB96E025
:102610000E94354A84EB96E00E94FD49780188E0EB
:10262000E80EF11C84EB96E00E940A398823B9F089
:1026300084EB96E00E94A637892BA1F364EB76E049
:10264000CE0101960E94A34BBE016F5F7F4FC70171
:102650000E941B50CE0101960E94764FE3CF84EB7F
:1026600096E00E94C938C8010E94441081E0AA94F3
:10267000AB2809F080E026960FB6F894DEBF0FBEB7
:10268000CDBFDF91CF911F910F91FF90EF90DF9021
:10269000CF90BF90AF909F908F907F906F905F9002
:1026A0004F9008952F923F924F925F926F927F9238
:1026B0008F929F92AF92BF92CF92DF92EF92FF9252
:1026C0000F931F93CF93DF93CDB7DEB764970FB609
:1026D000F894DEBF0FBECDBF3C012B011A013C8B2D
:1026E0002B8B64E675E0CE010D960E94E44FF3015A
:1026F0004681578180E496E09A8389838281938121
:10270000A481B5818B839C83AD83BE83BE016F5F43
:102710007F4F84EB96E00E946C38892B09F4C2C08D
:102720006EE974E0CE0101960E94E44FB201CE0141
:1027300001960E94475166EA74E00E945A51B10125
:102740000E9447516DEA74E00E945A516B897C895E
:102750000E94475163EB74E00E945A51B8010E94F5
:1027600047516BEB74E00E945A51B7010E944751E8
:1027700062EC74E00E945A51B6010E94475169EC24
:1027800074E00E945A51B5010E9447516FEC74E009
:102790000E945A51B4010E944751BC01CE010D96CE
:1027A0000E941B50CE0101960E94764F62E074E0B9
:1027B00084EB96E00E94B749BE01635F7F4F84EBD4
:1027C00096E00E94DC4968EF73E084EB96E00E949B
:1027D000114A61EF73E084EB96E00E94B749B301C0
:1027E00084EB96E00E94474A6FED73E084EB96E03D
:1027F0000E94114A84EB96E00E94FD49F8E06F0EBA
:10280000711C84EB96E00E940A39882309F43FC0CA
:1028100084EB96E00E94A637892B99F364E675E075
:10282000CE0107960E94E44F4DE064EB76E0CE01C6
:1028300001960E94BD4BBE016F5F7F4FCE01079690
:102840000E941B50CE0101960E94764F8B859C857D
:10285000019751F760E070E0CE0107960E94F551B4
:102860008A3011F764EB76E0CE0101960E94A34B0B
:10287000BE016F5F7F4FC3010E941B50CE010196C6
:102880000E94764FCE0107960E94764FBACF84EB16
:1028900096E00E94C93884EB96E00E94F03701E090
:1028A00010E002C00FEF1FEFCE010D960E94764F91
:1028B000C80164960FB6F894DEBF0FBECDBFDF919E
:1028C000CF911F910F91FF90EF90DF90CF90BF902D
:1028D000AF909F908F907F906F905F904F903F90C0
:1028E0002F900895CF93DF931F921F92CDB7DEB73D
:1028F0008091C80D9091C90D9E012F5F3F4F0097A9
:1029000019F42E5C3D4002C0281B390B3A83298301
:1029100089819A810F900F90DF91CF910895FC01EA
:10292000CB0116821782108611864FEF5FEFBA0136
:1029300042875387648775879787868708950F93A3
:102940001F93CF93DF93EC018B0142E350E060E0F3
:1029500070E08E859F850E949D4BA80160E070E02D
:1029600026E08E859F85DF91CF911F910F910C946A
:102970007A468F929F92AF92BF92DF92EF92FF9230
:102980000F931F93CF93DF93EC014A015B01D22E8B
:102990008E859F85DC01ED91FC910190F081E02D09
:1029A0006FEE19958E859F85DC01ED91FC9101906C
:1029B000F081E02D61E01995AE85BF85ED91FC9128
:1029C00011976B2D7727882799270190F081E02DAB
:1029D000CD011995AE85BF85ED91FC911197B5019B
:1029E000882799270190F081E02DCD011995AE85BA
:1029F000BF85ED91FC91119799278B2D7A2D692D2B
:102A00000190F081E02DCD0119958E859F85DC0127
:102A1000ED91FC910190F081E02D682D19958E8546
:102A20009F85DC01ED91FC910190F081E02D6D2DF1
:102A300019958E859F85A12EBB24DC01ED91FC911B
:102A40000190F081E02D6A2D19958E859F85DC011E
:102A5000ED91FC910190F081E02D602F1995A00E71
:102A6000B11CAD0CB11CD12C025011098D2C912C34
:102A70008E859F858016910688F48E0C9F1CDC0144
:102A8000ED91FC910190F081E02DD4016C911995AC
:102A9000F4018081A80EB11CD394E8CFDC01ED9144
:102AA000FC910190F081E02D6B2D19958E859F850D
:102AB000DC01ED91FC910190F081E02D6A2DDF9118
:102AC000CF911F910F91FF90EF90DF90BF90AF904B
:102AD0009F908F9019949F92AF92BF92CF92DF9266
:102AE000EF92FF920F931F93CF93DF93CDB7DEB793
:102AF00064970FB6F894DEBF0FBECDBF6C017B01AB
:102B00005A0100E010E0912CD6011E968D919C9107
:102B10001F97DC01ED91FC910480F581E02D199562
:102B2000892B69F461E070E080E090E00E94E84366
:102B30000F5F1F4F0A151B0538F38FEF49C0F601D1
:102B400086859785DC01ED91FC910680F781E02D6B
:102B50001995E1E0F0E0EC0FFD1FE90DF11D808318
:102B6000911003C089818F3E79F69394B8E0B9152E
:102B700058F689818F3E59F58A81813041F56F8100
:102B8000288530E0322F22278985282B492D50E0D7
:102B9000C90108968417950708F0B6CF225031096D
:102BA000F701608380E0482F50E04217530768F434
:102BB000F701E40FF51FAAE0B0E0AC0FBD1FA40FB2
:102BC000B51F9C9191838F5FEECF822F01C08EEF56
:102BD00064960FB6F894DEBF0FBECDBFDF91CF91E4
:102BE0001F910F91FF90EF90DF90CF90BF90AF902B
:102BF0009F900895AF92BF92CF92DF92EF92FF9293
:102C00000F931F93CF93DF93CDB7DEB764970FB6C3
:102C1000F894DEBF0FBECDBF6C01CE0101965C0102
:102C200084E1F50111928A95E9F783E18983F60140
:102C300086819781208531853A832B839C838D8380
:102C40004285538564857585750107E010E021E0B4
:102C5000C6010E94B91448E853E1B501C6010E94BB
:102C60006B15813031F48981873019F481E09A81C4
:102C7000911180E064960FB6F894DEBF0FBECDBF11
:102C8000DF91CF911F910F91FF90EF90DF90CF9048
:102C9000BF90AF900895AF92BF92CF92DF92EF9224
:102CA000FF920F931F93CF93DF93CDB7DEB7649757
:102CB0000FB6F894DEBF0FBECDBF6C01CE010196FA
:102CC0005C0184E1F50111928A95E9F781E089833D
:102CD000F6014285538564857585750103E010E032
:102CE00021E0C6010E94B91448E853E1B501C601CC
:102CF0000E946B15813019F08981873011F48A8127
:102D000001C08FEF64960FB6F894DEBF0FBECDBF43
:102D1000DF91CF911F910F91FF90EF90DF90CF90B7
:102D2000BF90AF900895AF92BF92CF92DF92EF9293
:102D3000FF920F931F93CF93DF93CDB7DEB76497C6
:102D40000FB6F894DEBF0FBECDBF6C01CE01019669
:102D50005C0184E1F50111928A95E9F782E08983AB
:102D60006A83F6014285538564857585750106E1A0
:102D700010E021E0C6010E94B91448E853E1B50112
:102D8000C6010E946B15813019F08981873011F4DA
:102D90008A8101C08FEF64960FB6F894DEBF0FBE34
:102DA000CDBFDF91CF911F910F91FF90EF90DF90FA
:102DB000CF90BF90AF900895AF92BF92CF92DF9225
:102DC000EF92FF920F931F93CF93DF93CDB7DEB7B0
:102DD00064970FB6F894DEBF0FBECDBF6C018FEFC6
:102DE0009FEFF6019183808393838283CE010196C6
:102DF0005C0184E1F50111928A95E9F78BE1898301
:102E000081E08A8383EA8E83F60142855385648557
:102E10007585750106E110E021E0C6010E94B91434
:102E200048E853E1B501C6010E946B15813019F0E5
:102E30008981873099F48B8190E0982F88272C81A5
:102E4000822BF601918380838D8190E0982F8827D3
:102E50002E81822B938382838A8101C08FEF6496B7
:102E60000FB6F894DEBF0FBECDBFDF91CF911F919B
:102E70000F91FF90EF90DF90CF90BF90AF900895AB
:102E8000CB010C94BE57CB01642F0C94C657809194
:102E90003C0790E020913D07821B91090895209105
:102EA0003D0780913C07281750F4E22FF0E0E25CE8
:102EB000F84F808190E02F5F20933D0708958FEFBA
:102EC0009FEF0895E0913D0780913C07E81730F4AB
:102ED000F0E0E25CF84F808190E008958FEF9FEF83
:102EE00008950895CF92DF92EF92FF920F931F9370
:102EF000CF93DF937C01CB018A0120911807222315
:102F000089F0EB016B01C40ED51ECC15DD0569F00F
:102F10006991D701ED91FC910190F081E02DC701FD
:102F20001995F3CF642F0E94D318C801DF91CF9178
:102F30001F910F91FF90EF90DF90CF900895CF9366
:102F4000DF931F92CDB7DEB7698320911807222344
:102F5000D1F020911907203240F021E030E0FC014F
:102F60003383228380E090E015C080911A07E82F18
:102F7000F0E0E55EF84F998190838F5F80931A07A8
:102F80008093190705C061E0CE0101960E94D31815
:102F900081E090E00F90DF91CF910895FC011382C2
:102FA000128248EE53E060E070E04483558366830C
:102FB000778389ED94E091838083089510923D0793
:102FC00010923C0710921A07109219070C941E18C1
:102FD000862F413208F040E26EE377E00E943C1811
:102FE00010923D0780933C07089521E00C94E81768
:102FF00081E08093180760933B0710921A071092A4
:10300000190708950C94F8170F93062F21E04091AB
:1030100019076BE177E080913B070E9480181092BE
:103020001A0710921907109218070F91089561E07E
:103030000C9404188CE097E00C94CE171092CB07F8
:1030400081E08093C9071092C80761E084E10E9483
:10305000094561E085E10E940945E9EBF0E08081E6
:103060008E7F808380818D7F808388E48093B80009
:1030700085E48093BC000895413208F03FC09091F0
:10308000CB079111FCCF91E09093CB072093C90718
:103090002FEF20935E071092A307240F2093A2071F
:1030A0009093CA079091CA07880F892B8093CA070B
:1030B0008091C807813041F41092C8078091CA07F7
:1030C0008093BB0085EC01C085EE8093BC008091AD
:1030D000CB078130E1F38091A307841710F440916E
:1030E000A30724EA37E0FB01D9018A2F821B84174A
:1030F00018F48D918193F9CF842F089580E008957D
:103100000F93413208F046C09091CB079111FCCF4C
:1031100092E09093CB070093C9079FEF90935E07CF
:103120001092A3074093A207FB0164EA77E0DB015A
:103130009A2F961B941718F491919D93F9CF1092A2
:10314000CA079091CA07880F892B8093CA0780917C
:10315000C807813041F41092C8078091CA07809354
:10316000BB0085EC01C085EE8093BC00222321F0DA
:103170008091CB078230E1F380915E078F3F61F051
:1031800080915E07803251F080915E07803341F478
:1031900083E007C081E005C080E003C082E001C099
:1031A00084E00F910895613298F42091CB07243088
:1031B00089F460938007FC0182E897E0DC012A2F04
:1031C000281B261718F421912D93F9CF80E008953C
:1031D00081E0089582E0089585ED8093BC008091A0
:1031E000BC0084FDFCCF1092CB07089585EC809342
:1031F000BC001092CB0708951F920F920FB60F924A
:1032000011240BB60F922F933F934F935F936F93BD
:103210007F938F939F93AF93BF93EF93FF9380918F
:10322000B900887F803609F49CC068F5883209F4BB
:103230005BC090F4803109F454C038F4882309F459
:10324000F5C0883009F44DC0F5C0883109F44CC090
:10325000803209F45DC0EEC0803409F468C048F4DF
:10326000803309F455C0883309F0E4C080935E07C9
:10327000A8C0803509F44FC0883509F45DC0883492
:1032800009F0D8C0D5C0883909F4C6C0A8F4883779
:1032900009F467C038F4883609F463C0803709F44C
:1032A00060C0C8C0883809F4B7C0803909F45FC06D
:1032B000803809F0BFC05BC0803B09F485C038F49A
:1032C000803A09F466C0883A09F47EC0B3C0803CF5
:1032D00009F4A6C0883C09F4A3C0883B09F489C05E
:1032E000A9C08091CA0710C09091A3078091A2073E
:1032F000981770F5E091A30781E08E0F8093A307E4
:10330000F0E0EC55F84F80818093BB0085EC85C0E0
:1033100080935E078DC0E091A30781E08E0F8093BC
:10332000A3078091BB00F0E0EC55F84F80839091AB
:10333000A3078091A2076DC0E091A30781E08E0FE3
:103340008093A3078091BB00F0E0EC55F84F808399
:103350008091C90781116CC081E08093C80784EA1D
:1033600060C083E08093CB0710925F07CFCF80913E
:103370005F07803208F050C0E0915F0781E08E0F58
:1033800080935F078091BB00F0E0E05AF84F8083A4
:10339000BDCF80915F07803230F4E0915F07F0E0AD
:1033A000E05AF84F10820E94EC1860915F0770E0BD
:1033B000E091C407F091C50780E697E01995109257
:1033C0005F070E94F61836C084E08093CB07109206
:1033D000810710928007E091C607F091C707199501
:1033E00080918007811105C081E080938007109251
:1033F0008207E091810781E08E0F80938107F0E0E2
:10340000EE57F84F80818093BB00909181078091A7
:103410008007981708F47ACF85E88093BC000AC02B
:1034200085EC8093BC001092CB0704C010925E071D
:103430000E94EC18FF91EF91BF91AF919F918F91F6
:103440007F916F915F914F913F912F910F900BBEA4
:103450000F900FBE0F901F9018951092D1071092E9
:10346000D2071092D5071092D70782E090E0A0E033
:10347000B0E08093D8079093D907A093DA07B09370
:10348000DB071092EF071092F9071092F80789EE08
:1034900094E09093F7078093F6071092FB07089546
:1034A0009FB7F8942091700B80916E0B213019F426
:1034B0008DBB9FBF08958FBF08952091700B22236D
:1034C00099F03FB7F8942091700B213059F42DB347
:1034D00020936E0B4DB320916F0B209524232DBBB1
:1034E0003FBF02C030936E0B8CBD9DBD08958EBD55
:1034F00000000DB407FEFDCF8EB508958FEF0C943C
:10350000771A61E0FC0184810E94094580911508C9
:10351000882339F0109215088091700B81110C945A
:10352000501A0895CF93DF93EC0180911508811113
:1035300009C081E0809315088091160890911708C2
:103540000E945D1A60E08C81DF91CF910C94094557
:10355000CF93DF93EC018E81882389F08F8198854A
:103560009C012F5F3F4F38872F838230924018F4A1
:103570000E947E1AF3CFCE010E94811A1E82DF9133
:10358000CF9108950F931F93CF93DF93EB010E9488
:10359000B9438B010E947E1A8F3F49F00E94B943C4
:1035A000601B710B6C177D07A8F380E001C081E000
:1035B000DF91CF911F910F910895CF92DF92FF92EB
:1035C0000F931F93CF93DF9300D01F92CDB7DEB739
:1035D0006C01F62E29833A834B835C830E94A81AE0
:1035E000C6010E94921A6CE271E0C6010E94C21AE2
:1035F0008F2D80640E94771A08E110E05C814B8176
:103600003A812981DA01C901002E04C0B695A79537
:10361000979587950A94D2F729833A834B835C83E5
:103620000E94771A0850110929813A814B815C81E7
:10363000083F8FEF180731F7FF2029F0E8E0FE166A
:1036400021F08FEF03C085E901C087E80E94771A57
:1036500010E00E947E1AF601828787FF04C01F3F98
:1036600011F01F5FF6CF0F900F900F900F90DF912A
:10367000CF911F910F91FF90DF90CF9008950F93FE
:103680001F93CF93DF93EC010E94B9438B010E94FB
:103690007E1A8A878F3F49F40E94B943601B710BE1
:1036A0006D327140A0F38FE003C08E3F39F08DE0A2
:1036B0008D83CE010E94811A80E001C081E0DF91FC
:1036C000CF911F910F910895CF92DF92EF92FF92C9
:1036D0000F931F93CF93DF93EC016901011511053F
:1036E00009F462C0C801820F931F8130924008F034
:1036F0005DC08E81882371F088819981AA81BB8108
:10370000481759076A077B0729F48F819885C816DF
:10371000D90610F5488359836A837B838B85833070
:1037200039F039E0440F551F661F771F3A95D1F7DE
:103730009A01AB0161E1CE010E94DD1A882319F0E4
:1037400083E08D8333C0CE010E943F1B882371F13B
:1037500018861F8281E08E838F8198858C159D0548
:1037600040F40E947E1A8F819885019698878F83F6
:10377000F3CF6701E00EF11ECE14DF0431F00E949A
:103780007E1AF60181936F01F7CF8F819885800FA4
:10379000911F98878F832985222319F081159240E4
:1037A00018F0CE010E94A81A81E004C0CE010E9448
:1037B000811A80E0DF91CF911F910F91FF90EF90E0
:1037C000DF90CF900895EF92FF920F931F937901AE
:1037D00000E012E020E030E00E94641B1F910F9196
:1037E000FF90EF900895CF92DF92EF92FF920F93A8
:1037F0001F93CF93DF931F921F92CDB7DEB78C013B
:10380000862F49835A830E94771A4981C42E5A8190
:10381000D52EE12CF12CF60181916F010E94771ACF
:10382000FFEFEF1AFF0AE11482E0F806A1F78FEF2D
:103830000E94771A8FEF0E94771A0E947E1AF80171
:1038400082878F71853039F081E18583C8010E94BC
:10385000811A80E001C081E00F900F90DF91CF913D
:103860001F910F91FF90EF90DF90CF9008950F93ED
:103870001F93CF93DF93EC01890141155105610539
:10388000710511F482E132C08B85833039F089E013
:10389000440F551F661F771F8A95D1F79A01AB0118
:1038A00068E1CE010E94DD1A882311F084E01EC079
:1038B000A8016EEFCE010E94F31B8823C1F068E5DA
:1038C00072E0CE010E94C21A811102C085E10EC0D1
:1038D00020E030E0A9016DE0CE010E94DD1A8111E7
:1038E00004C00E947E1A882339F084E18D83CE01C2
:1038F0000E94811A80E004C0CE010E94811A81E0FA
:10390000DF91CF911F910F91089580E58093160864
:10391000109217080895CF93DF93EC019C012A5F62
:103920003F4F41E050E060E070E08B8D9C8D0E9445
:10393000FC208823A1F04F89588D698D7A8D452B05
:10394000462B472B71F44E815F81688579854F8BBB
:10395000588F698F7A8F8C8180688C8302C080E059
:1039600001C081E0DF91CF910895CF93DF93EC0107
:10397000462F6E857F85888999890E949C1F8823A0
:1039800041F08A8920E2829FC00111248F5D974F08
:1039900002C080E090E0DF91CF9108954F925F9256
:1039A0006F927F92AF92BF92CF92DF92EF92FF928F
:1039B0000F931F93CF93DF93EC016A017B012D815D
:1039C000222309F457C08B899C89AD89BE8984174D
:1039D0009507A607B70708F44DC04EC08A859B859A
:1039E000AC85BD85EB8DFC8DE585F0E03996AC01AD
:1039F000BD0141505109610971090E2E04C076952F
:103A00006795579547950A94D2F79701860101501B
:103A100011092109310904C0369527951795079595
:103A2000EA95D2F70417150726073707B0F58F89EF
:103A3000988DA98DBA8D8E839F83A887B987280119
:103A400039015E0186E0A80EB11C411451046104E5
:103A5000710461F14E815F816885798595018B8D57
:103A60009C8D0E94D71F91E0491A51086108710886
:103A70008111EBCF80E01FC02230C1F0C114D1040E
:103A8000E104F10409F0AACF1E821F82188619866C
:103A90001A861B861C861D860DC0892B8A2B8B2BB4
:103AA00031F2041B150B260B370BC9CFCA86DB86F8
:103AB000EC86FD8681E0DF91CF911F910F91FF9001
:103AC000EF90DF90CF90BF90AF907F906F905F901E
:103AD0004F9008950F931F93CF93DF93EC018D8147
:103AE0008823C9F18C8187FF30C061E0CE010E943C
:103AF000B51C8C01009779F18D81823048F44B8997
:103B00005C896D897E89F801448F558F668F778F28
:103B10004F89588D698D7A8DF801538F428F758B3F
:103B2000648BE0911808F0911908309759F0B801AA
:103B30006A5E7F4FC80148961995F801808D918D76
:103B4000938B828B8C818F778C83DF91CF911F91A8
:103B50000F910C94611F80E0DF91CF911F910F9125
:103B600008952F923F924F925F926F927F928F9221
:103B70009F92AF92BF92CF92DF92EF92FF920F93FC
:103B80001F93CF93DF9300D01F921F92CDB7DEB764
:103B90008C017B013A01DC0115968C9115978130DF
:103BA000C9F414968C9181FF15C082FF1BC0F801E7
:103BB000438954896589768982859385A485B585ED
:103BC00084179507A607B70769F0C8010E94CE1CA5
:103BD000811108C081E090E0F8019383828380E046
:103BE00090E046C1630180C0D8015B968D919C91A5
:103BF0005C97FC01F481F150B501A40129E07695B0
:103C00006795579547952A95D1F7F423FD8321E0D1
:103C10009222FF2309F474C080E092E08819990988
:103C200056018C159D0508F45C01D8015B96ED9159
:103C3000FC915C9716962D903D904D905C90199755
:103C4000B2E02B1A310841085108058404C0220C47
:103C5000331C441C551C0A94D2F786859785A0898D
:103C6000B189280E391E4A1E5B1EED812E0E311CB5
:103C7000411C511CA114F2E0BF0609F088C08091DC
:103C8000100290911102A0911202B09113028215BC
:103C90009305A405B50559F48FEF9FEFDC018093E0
:103CA000100290931102A0931202B0931302970195
:103CB000B201A10180911F08909120080E94371C39
:103CC000882309F487CF9EEFF91ACA18DB08F80198
:103CD00082859385A485B5858A0D9B1DA11DB11D87
:103CE00082879387A487B587D8011A968D909D9077
:103CF000AD90BC901D97C114D10409F075CF8AC056
:103D00008114910409F088CF16964D915D916D91C3
:103D10007C911997411551056105710559F4579624
:103D20008D919D910D90BC91A02D0097A105B1059D
:103D300041F521C09E012F5F3F4F0E94D71F88236E
:103D400009F44ECF89819A81AB81BC81F801238D22
:103D5000348DF9012789203129F448EF5FEF60E0C5
:103D600070E004C048EF5FEF6FEF7FE084179507C6
:103D7000A607B70730F0C8010E948B1C81114CCFF9
:103D800029CFF80186839783A087B18745CF811417
:103D9000910429F5D8011A964D915D916D917C9110
:103DA0001D9753968D919D910D90BC91A02D481714
:103DB00059076A077B0798F00E94611F882309F45E
:103DC00009CF2092100230921102409212025092BA
:103DD000130280911E08816080931E0808C041E094
:103DE000C201B1010E949C1F882309F4F3CEC401D3
:103DF0008F5D974FD7019C012A0D3B1DFC01E217F7
:103E0000F30719F04D914193FACFE81BF90BEE0E31
:103E1000FF1E5BCF53968D919D910D90BC91A02D6F
:103E2000F801248188159905AA05BB0538F4838A11
:103E3000948AA58AB68A206824830CC080911808C9
:103E400090911908892B31F06114710419F02068E0
:103E5000F8012483D80114968C9183FD02C0C3011C
:103E600007C0C8010E946A1D882309F4B3CEF7CFAA
:103E70000F900F900F900F900F90DF91CF911F91A7
:103E80000F91FF90EF90DF90CF90BF90AF909F90F9
:103E90008F907F906F905F904F903F902F900895FC
:103EA000CF93DF931F92CDB7DEB7698341E050E037
:103EB000BE016F5F7F4F0E94B11D0F90DF91CF91C8
:103EC000089580911E08882399F140911002509125
:103ED0001102609112027091130221E238E0809188
:103EE0001F08909120080E94371C882319F14091E7
:103EF0001A0850911B0860911C0870911D0841150B
:103F000051056105710591F021E238E080911F08AB
:103F1000909120080E94371C882361F010921A08A3
:103F200010921B0810921C0810921D0810921E0877
:103F300081E0089580E00895CF92DF92EF92FF92A2
:103F4000CF936B017C01C42F8091100290911102DC
:103F5000A0911202B09113028C159D05AE05BF050C
:103F6000D1F00E94611F811102C080E01AC021E2DD
:103F700038E0B701A60180911F08909120080E94A7
:103F8000E31B882391F3C0921002D0921102E092B9
:103F90001202F092130280911E088C2B80931E084F
:103FA00081E0CF91FF90EF90DF90CF9008958F92B6
:103FB0009F92AF92BF92CF92DF92EF92FF920F93B8
:103FC0001F93CF93DF938C016A017B01E901FC0110
:103FD00081859285A385B4850196A11DB11D8417A5
:103FE0009507A607B70710F480E058C0F801438989
:103FF0005489658976898789803129F4BB27AF2D5B
:104000009E2D8D2D09C0D701C60127E0B695A79535
:10401000979587952A95D1F74C015D01840E951EE1
:10402000A61EB71EC501B401809010029090110227
:10403000A0901202B0901302681579058A059B05BD
:1040400089F4F8018789803199F4DD24EE24FF2476
:10405000F601EE0FFF1FEF5DF74F80819181A0E029
:10406000B0E017C040E00E949C1F8111EACFBCCF96
:10407000E894C7F8DD24EE24FF24F601EE0FFF1FBD
:10408000EE0FFF1FEF5DF74F80819181A281B38119
:10409000BF7088839983AA83BB8381E0DF91CF912E
:1040A0001F910F91FF90EF90DF90CF90BF90AF9056
:1040B0009F908F9008954F925F926F927F928F9210
:1040C0009F92AF92BF92CF92DF92EF92FF920F93A7
:1040D0001F93CF93DF93EC016A017B012801390123
:1040E000423051056105710508F474C049855A854F
:1040F0006B857C854F5F5F4F6F4F7F4F4C155D0524
:104100006E057F0508F466C08B889C88AD88BE88E4
:104110008F89803129F477276F2D5E2D4D2D09C0B1
:10412000B701A601E7E07695679557954795EA951B
:10413000D1F7840E951EA61EB71E40911002509115
:104140001102609112027091130284169506A60660
:10415000B70671F48F89803199F4DD24EE24FF24B1
:10416000F601EE0FFF1FEF5DF74F5182408218C03E
:1041700040E0C501B4010E949C1F8111EBCF2AC011
:10418000E894C7F8DD24EE24FF24F601EE0FFF1FAC
:10419000EE0FFF1FEF5DF74F408251826282738204
:1041A00080911E08816080931E088A89823080F089
:1041B0008D819E81AF81B885880D991DAA1DBB1D7B
:1041C00080931A0890931B08A0931C08B0931D08B5
:1041D00081E001C080E0DF91CF911F910F91FF90AE
:1041E000EF90DF90CF90BF90AF909F908F907F9097
:1041F0006F905F904F9008952F923F924F925F92F1
:104200006F927F929F92AF92BF92CF92DF92EF9286
:10421000FF920F931F93CF93DF93CDB7DEB76097D5
:104220000FB6F894DEBF0FBECDBF5C014D875E8731
:104230006F87788B1901D9014D905D906D907C90BE
:10424000411451046104710431F0BFEF4B1A5B0A51
:104250006B0A7B0A10C0FC01408051806280738031
:10426000992493940D851E852F8538890130110579
:104270002105310509F0912CD50119962D913D911B
:104280004D915C911C972F5F3F4F4F4F5F4F298798
:104290003A874B875C87730162011D821E821F82F1
:1042A0001886F50181859285A385B4850D811E81CF
:1042B0002F813885081719072A073B0708F056C0D1
:1042C00029853A854B855C852C153D054E055F0596
:1042D00050F4A2E0CA2ED12CE12CF12CB2E04B2EEE
:1042E000512C612C712C9E012F5F3F4FB701A6010D
:1042F000C5010E94D71F8823C9F149815A816B816A
:104300007C81D701C6010196A11DB11D452B462B0D
:10431000472B19F02C013D010FC0AC01BD01441920
:104320005509660977090D851E852F85388940173F
:1043300051076207730779F02D813E814F815885BF
:104340002F5F3F4F4F4F5F4F2D833E834F835887E3
:104350006C017D01A6CF0FEF1FEF2FEF3FE0B701FC
:10436000A601C5010E945B20811118C080E041C0F8
:10437000D701C6010197A109B1098D839E83AF833F
:10438000B88797018601AC01BD01C5010E945B2081
:10439000882361F3CD80DE80EF80F8844C145D04C7
:1043A0006E047F0428F3D1014D915D916D917C9154
:1043B000411551056105710599F4F1014082518261
:1043C000628273829920A1F0FFEF4F1A5F0A6F0A91
:1043D0007F0AD5014D925D926D927C92139708C031
:1043E00093018201C5010E945B208111E6CFBECFFF
:1043F00081E060960FB6F894DEBF0FBECDBFDF91AF
:10440000CF911F910F91FF90EF90DF90CF90BF90D1
:10441000AF909F907F906F905F904F903F902F90C4
:104420000895FC0110821182738362830895FC0158
:1044300081818F5F8F779081891779F09181DF017A
:10444000A90FB11D14966C93DF01A80FB11D14962E
:104450001C92818381E090E0089580E090E00895CF
:10446000FC0190818181981759F08081DF01A80FAC
:10447000B11D14968C9190819F5F9F7790830895D2
:1044800080E00895FC0191818081891718F4818171
:10449000908103C0818190818058891B90E06817CA
:1044A00079072CF48081E80FF11D8481089580E064
:1044B0000895FC01218120830895DF92EF92FF92FD
:1044C0000F931F93CF93DF93FB0150815523A1F1ED
:1044D000D12CE0E0F0E034C0DD20D1F1A0E0D12C1F
:1044E000E0E0F0E05F5F5F77AA2341F1521731F11E
:1044F000DC01A50FB11D1496CC91D0E0DB01AE0F0D
:10450000BF1FAC91BB27A7FDB095CA17DB0721F7EA
:10451000D11001C0352F3196DB01AE0FBF1FAC911A
:10452000A11112C00115110511F0F8013083E11439
:10453000F10411F0F701508381E00DC04F5F4F7718
:10454000421741F0542FD4CFA1E0DD24D394CACF39
:10455000A1E0C8CF80E0DF91CF911F910F91FF9034
:10456000EF90DF900895EF92FF920F931F93FC015D
:1045700021814081E12CF12C00E010E00E945D22BD
:104580001F910F91FF90EF900895AF92BF92CF923D
:10459000DF92EF92FF920F931F93CF93DF931F92BF
:1045A0001F92CDB7DEB76C01B42EA22EFC01218183
:1045B0004081CE0101967C018E010E5F1F4FC60126
:1045C0000E945D228823B9F0AA2051F0BB2021F07F
:1045D00089818F5F8F7701C08A81F601808307C050
:1045E000BB2039F089818F5F8F77F601818381E06D
:1045F00003C08A81FACF80E00F900F90DF91CF91B6
:104600001F910F91FF90EF90DF90CF90BF90AF90F0
:1046100008958F929F92AF92BF92CF92DF92EF92C6
:10462000FF920F931F93CF93DF931F921F92CDB7EB
:10463000DEB76C014A015901FC0121814081CE01A4
:1046400002967C0100E010E0C6010E945D2281110B
:1046500002C080E02AC04A814F5F4A83F60121816F
:10466000E12CF12C8E010F5F1F4FB401C6010E9497
:104670005D22882371F39A8169816F7770E0F5017B
:10468000AF014A195B09292F30E02617370749F097
:10469000D601A20FB31F14962C9121939F5F9F7791
:1046A000EFCFF501E40FF51F10820F900F90DF910F
:1046B000CF911F910F91FF90EF90DF90CF90BF901F
:1046C000AF909F908F900895FC0120812F5F50E064
:1046D00030E080E090E06AE04181241709F1DF01D9
:1046E000A20FB11D14964C91403219F4311105C03E
:1046F00014C04D3211F4332371F030ED340F3A30E1
:1047000078F4DC016A9FC0016B9F900D1124840F27
:10471000911DC09701C051E031E02F5F2F77DCCFB2
:10472000552319F09195819591090895CF93C82F3C
:1047300080EE8C0F8F3510F46C2F0DC065E281EC8C
:104740009BE00E94EC494AE050E06C2F81EC9BE03A
:104750000E94294B65E281EC9BE0CF910C94EC49DF
:104760000F931F93CF93DF93EC011881098181ECA4
:104770009BE00E94FD494AE050E0612F81EC9BE004
:104780000E94294B6BEA72E081EC9BE00E94EA49AF
:104790004AE050E0602F81EC9BE00E94294B6EE3E1
:1047A00081EC9BE00E94EC49101749F0FE01E10FFB
:1047B000F11D84810E9496231F5F1F77F5CF81EC46
:1047C0009BE0DF91CF911F910F910C94FD490F93C6
:1047D00000E020E040E060E083E29AE00E9443498C
:1047E0000F9108950F9300E020E040E060E088E33F
:1047F0009AE00E94434989E29AE00F910C941A25AD
:104800000F9300E020E040E060E08EE39AE00E9439
:1048100043490F9108950F9300E020E040E060E0ED
:1048200084E49AE00E9443490F9108950F9300E0B9
:1048300020E040E060E08CE49AE00E94434910925E
:104840004B0A10924A0A0F9108950F9300E020E05E
:1048500040E060E088E59AE00E94434984E59AE000
:104860000F910C9411290F9300E020E040E060E0EC
:1048700082E69AE00E9443490F91089580E00895EE
:104880000F9300E020E040E060E088E69AE00E94BC
:1048900043490F91089580E89AE00E94372880915B
:1048A0008A0A90E00895FB01DA0184918D93319694
:1048B0008111FBCF089580E090E0089580E090E0C2
:1048C00008950F931F93CF93DF93D901EB010A81D2
:1048D0001B812C813D81FC0101871287238734874E
:1048E0001092870A1092860A0190F081E02D0484CC
:1048F000F585E02D9D0160E070E0DF91CF911F9183
:104900000F9119940895089580E090E00895089516
:1049100081E02091910A3091920A2530310509F009
:1049200080E0089503960C944B248091910A909115
:10493000920A059721F482E89AE00C94EC490895D4
:104940008091910A9091920A059721F482E89AE069
:104950000C94EA4908958091910A9091920A0597E2
:1049600031F064E070E080E89AE00E94A92780912D
:10497000B30A9091B20A891B8F7719F061E070E059
:1049800002C064E070E080E89AE00E94A92780916C
:104990008A0A90E00895FF920F931F93CF93DF93BD
:1049A000CDB7DEB72C970FB6F894DEBF0FBECDBFE4
:1049B0008C010D5F1F4FAE014F5F5F4F67E474E0E6
:1049C000C8010E945324FF24F3942091910A30914E
:1049D000920A2530310509F0F12C20E040E0BE01BB
:1049E0006F5F7F4F82EB9AE00E94C522F82259F058
:1049F00024E030E03093920A2093910AB80180E8D5
:104A00009AE00E945B278F2D2C960FB6F894DEBF9C
:104A10000FBECDBFDF91CF911F910F91FF900895F1
:104A200060E070E082EB9AE00E944222992787FDC5
:104A300090950895CF93DF93EC018DEF94E09983E7
:104A4000888387E295E09C838B83CE0107960E9442
:104A50003949D093220AC093210ADF91CF9108955A
:104A60000F9300E020E040E060E08EE69AE00E94D4
:104A700043490F9108950F931F93CF93DF93CDB7C1
:104A8000DEB72D970FB6F894DEBF0FBECDBF8C01F9
:104A900080918B0A823001F118F4813041F0BBC063
:104AA000833009F467C0843009F479C0B4C040E0B1
:104AB0006EE674E080E89AE00E94C127E091860AE1
:104AC000F091870A309709F49AC0808180538A3028
:104AD00008F495C061E394C020E030E040E050E08D
:104AE000BE01635F7F4F80E89AE00E947C278823A5
:104AF00009F491C08D858823D1F140E063E674E02C
:104B000080E89AE00E94C1276DEE74E082E89AE0A6
:104B10000E94EA496091860A7091870A61157105C1
:104B200029F082E89AE00E94EA4906C062E87AE049
:104B3000C80107960E94FF4862E282E89AE00E945C
:104B4000EC496CE282E89AE00E94EC496091880AA4
:104B50007091890A4AE050E082E89AE00E94FC4A9B
:104B60006DE082E89AE00E94EC4983E015C063E0C2
:104B700070E040C020E030E040E050E0BE01635F04
:104B80007F4F80E89AE00E947C27882309F443C085
:104B90008D85882361F384E080938B0A3CC0AE014D
:104BA0004F5F5F4F69E574E0C80103960E9453248C
:104BB00020E030E0AE014F5F5F4FBE01635F7F4F8B
:104BC00080E89AE00E947C27882329F18D8588233C
:104BD00071F285E090E09093920A8093910A21E02F
:104BE00041E0BE016F5F7F4F82EB9AE00E94C522D9
:104BF00061E070E080E89AE00E94A9270CC060E3C1
:104C000082E89AE00E94EC496DE082E89AE00E9416
:104C1000EC4982E0C1CF2D960FB6F894DEBF0FBEEF
:104C2000CDBFDF91CF911F910F9108950F931F93E7
:104C3000CF93DF93EC015093890A4093880A3E8713
:104C40002D877093870A6093860A8C010D5F1F4F32
:104C50004EE050E0B80180E89AE00E944F28B80189
:104C600080E89AE00E943D27CE010E943B2580917A
:104C70008A0A90E0DF91CF911F910F910895CF9311
:104C8000DF93EC0123964FE050E0BE0180E89AE00C
:104C90000E944F2868EE73E080E090E00E94E843B5
:104CA00065EF74E082E89AE00E94EA4968EE73E0FA
:104CB00080E090E00E94E84341E06EE474E080E828
:104CC0009AE00E94C12784E090E09093920A80933A
:104CD000910A82EB9AE00E9459228FE99AE00E94A1
:104CE0000A2F64E670E080E090E00E94E84361E013
:104CF00070E080E89AE00E94A9278091B30A909121
:104D0000B20A891B8F7729F7BE0180E89AE00E94DA
:104D10005B2780918A0A90E0DF91CF910895CF932D
:104D20008091B20A9091B30A8150891B8F77B9F0B4
:104D300082EB9AE00E943022C82F9091B20A8091B3
:104D4000B30A9150981B9F77943621F48FE99AE02B
:104D50000E940A2F8C2F992787FD909502C080E032
:104D600090E0CF9108958091B30A9091B20A891B87
:104D70008F7741F082EB9AE00E9459228FE99AE006
:104D80000C940A2F61E070E080E89AE00C94A92767
:104D900020918C0A30918D0A2E30310549F0233153
:104DA000310541F02130310539F46093B30A08959B
:104DB0000C943B250C94B3260895CF93DF93EC011C
:104DC000BC016D5F7F4F43E150E080E89AE00E94B4
:104DD0004F28CE01DF91CF910C94B32603970C940A
:104DE000CB2403970C94C8260F9300E020E040E00A
:104DF00060E084E79AE00E9443490F9108950F9381
:104E000000E020E040E060E08AE79AE00E94434949
:104E10000F910895CF92DF92FF920F931F93CF933C
:104E2000DF931F92CDB7DEB78C016B01F601F490D2
:104E3000FF2059F0D801ED91FC910280F381E02D23
:104E40006F2DC801498319954981BFEFCB1ADB0A41
:104E5000F110ECCF442331F066E675E0C80102960C
:104E60000E94EA4981E090E00F90DF91CF911F917D
:104E70000F91FF90DF90CF900895FC018389948972
:104E8000892B59F085899689892B51F08789908DD6
:104E9000892B81F4A2E0B0E005C0A0E0B0E002C040
:104EA000A1E0B0E0AA0FBB1FAE0FBF1F54967C93CA
:104EB0006E9353970895FC01838994898617970709
:104EC00069F0858996898617970759F08789908DAB
:104ED0008617970781F4A2E0B0E005C0A0E0B0E03B
:104EE00002C0A1E0B0E0AA0FBB1FAE0FBF1F5496D7
:104EF0001C921E9253970895EF92FF920F931F9367
:104F0000CF93DF938B01E9014115510531F42097CF
:104F100021F440911402509115027C0122E3E20E2B
:104F2000F11CBA01C7010E94B322F80180838111EC
:104F300008C0209731F0BE01C7010E94B322F801DA
:104F4000808381E0DF91CF911F910F91FF90EF90CF
:104F50000895FC016130710531F080918C0A9091C7
:104F60008D0A029749F0628781E090E095878487F7
:104F7000128E118E838708951092920A1092910AD0
:104F8000F2CF0F931F93CF93DF9300D0CDB7DEB74F
:104F90008C01C2964B8369837A830E945922D8017F
:104FA000ED91FC910480F581E02D4B8169817A813E
:104FB000C8010F900F900F90DF91CF911F910F912B
:104FC0001994CF92DF92FF920F931F93CF93DF93A9
:104FD0001F92CDB7DEB78C01F62EC12CD12CF80173
:104FE000EC0DFD1D83899489009759F0DC01ED914A
:104FF000FC910280F381E02D6F2D49831995498141
:1050000001C080E0B4E0CB16D10431F0E2E0CE0E76
:10501000D11C882321F319C0811117C0D8015996DA
:105020008D919C915A97009781F0DC01ED91FC9154
:105030000190F081E02D6F2D0F90DF91CF911F91A6
:105040000F91FF90DF90CF9019940F90DF91CF9147
:105050001F910F91FF90DF90CF900895FC0126855E
:10506000222319F06787408B08950C94E127CF9392
:10507000DF93EC018E85882379F09F8588899817C6
:1050800059F0CE01C2960E94B02348896F85CE01A7
:105090000E94E1271F86188ADF91CF910895FC01B5
:1050A000728F618F128681E08387558744871786C8
:1050B000108A0895CF92DF92EF92FF920F931F9381
:1050C000CF93DF93EC010E94B9436B017C010B8D00
:1050D0001C8D2D8D3E8D601B710B820B930BCB8E27
:1050E000DC8EED8EFE8EDF91CF911F910F91FF90A0
:1050F000EF90DF90CF900895CF93DF93EC011D8266
:105100001C828FE295E09983888389E395E09B83F5
:105110008A83CE014F960E94E32FD8A7CFA31F8684
:10512000188A81E08A871B8681E090E09D878C87C2
:10513000CE010E945A281C8A1B8A1E8A1D8A188E3C
:105140001F8ADF91CF91089580E89AE00C947C2823
:105150000F931F93CF93DF931F92CDB7DEB78C01D0
:10516000FC018685882329F0862F69830E94962377
:105170006981C8014F960F90DF91CF911F910F91D8
:105180000C94122F02970C94A8280F9300E020E0B3
:1051900040E060E086E39BE00E9443490F91089560
:1051A0000F9300E020E040E060E08CE39BE00E9491
:1051B00043490F9108950F9300E020E040E060E044
:1051C00082E49BE00E9443490F9108950F9300E011
:1051D00020E040E060E088E49BE00E9443490F91BA
:1051E000089580E090E0089580E090E0089581E0E7
:1051F0002091910A3091920A2530310509F080E022
:10520000089581E02091910A3091920A253031056C
:1052100009F080E0089580E090E0089502960C94F3
:105220004B2421E435E0FC013183208327E535E080
:10523000338322839093530A8093520A08950F93E5
:105240001F93CF93DF9300D01F92CDB7DEB78C01B1
:1052500080918B0A823099F060F4813009F079C036
:1052600041E06BEA74E080E89AE00E94C12782E0A6
:1052700034C08330C1F1843009F44EC06AC08DE07F
:1052800089838AE08A831B8220E030E0AE014F5F91
:105290005F4FBE016C5F7F4F80E89AE00E947C27E1
:1052A000882309F456C08C818823D1F040E069E955
:1052B00074E080E89AE00E94C1276091880A7091AA
:1052C000890A4AE050E082E89AE00E94FC4A6DE0D8
:1052D00082E89AE00E94EC4983E080938B0A39C00F
:1052E00063E070E032C020E030E040E050E0BE011A
:1052F0006C5F7F4F80E89AE00E947C27882349F109
:105300008C81882369F341E06DE874E080E89AE0DD
:105310000E94C12784E0E1CF20E030E040E050E08F
:10532000BE016C5F7F4F80E89AE00E947C27882353
:1053300081F08C818823A1F2B8016E5F7F4F80E8F5
:105340009AE00E943D2761E070E080E89AE00E94C8
:10535000A9270F900F900F900F90DF91CF911F9181
:105360000F91089520918C0A30918D0A21303105DA
:1053700021F02431310521F008956093B30A089596
:105380000C941F29CF93DF93EC017093890A6093EB
:10539000880ABC016E5F7F4F44E150E080E89AE0EC
:1053A0000E944F28CE010E941F2980918A0A90E016
:1053B000DF91CF9108950F931F93CF93DF93CDB7D4
:1053C000DEB72F970FB6F894DEBF0FBECDBF8C01AE
:1053D0000E5F1F4FAE014F5F5F4F64E874E0C8017E
:1053E0000E945324BE016F5F7F4F82EB9AE00E94C0
:1053F000B322882331F084E090E09093920A809366
:10540000910AAE014F5F5F4F6AE774E0C8010E94E6
:105410005324BE016F5F7F4F82EB9AE00E94B3225C
:105420008823A9F021E041E0BE016F5F7F4F82EB4E
:105430009AE00E94C5228FE99AE00E940A2F85E037
:1054400090E09093920A8093910A81E001C080E0FD
:105450002F960FB6F894DEBF0FBECDBFDF91CF9170
:105460001F910F91089502970C94B22902970C9402
:10547000DB2902960C944B240F931F939B018A0106
:1054800041E655E06BE575E082EB9AE00E94092366
:1054900081E090E01F910F910895FC012681211178
:1054A00009C021E0268341E063E675E082EB9AE0E3
:1054B0000E94C52260E070E082EB9AE00E944222E6
:1054C000992787FD9095089520E835E0FC01318308
:1054D000208328E935E03383228390935F0A809309
:1054E0005E0A0895CF93DF931F92CDB7DEB7809108
:1054F0008B0A813019F08230D1F032C082E0809383
:105500008B0A40E066ED74E080E89AE00E94C127D3
:105510006091860A7091870A82E89AE00E94EA49BF
:1055200065E675E082E89AE00E94EA4919C020E049
:1055300030E04EE952E0BE016F5F7F4F80E89AE0B5
:105540000E947C27882361F08981882319F061E01B
:1055500070E002C063E070E080E89AE00E94A92752
:105560000F90DF91CF910895CF93DF93EC012091BD
:10557000910A3091920A235031092230310518F0F6
:1055800082E090E013C07093870A6093860ABC01A2
:105590006E5F7F4F44E050E080E89AE00E944F2821
:1055A000CE010E94722A80918A0A90E0DF91CF9109
:1055B00008950F931F93CF93DF93EC018B0180919C
:1055C000B20A9091B30A8150891B8F7791E08530A0
:1055D00008F090E09F8321E041E068E675E082EB0F
:1055E0009AE00E94C522811103C0F801108203C015
:1055F00081E0F801808382EB9AE00E9464239D831E
:105600008C836FE675E082EB9AE00E94B322888774
:10561000198681E0DF91CF911F910F910895CF936B
:10562000DF931F92CDB7DEB720918B0A213019F09E
:10563000223061F01EC041E06FEB74E080E89AE038
:105640000E94C12782E080938B0A13C0BE016F5F66
:105650007F4F0E94D92A882361F08981811103C07C
:1056600064E070E002C061E070E080E89AE00E94CF
:10567000A9270F90DF91CF910895CF93DF93EC018D
:105680001E82BC016E5F7F4F46E050E080E89AE0EA
:105690000E944F28CE010E940F2B80918A0A90E031
:1056A000DF91CF9108950F931F93CF93DF931F92B4
:1056B000CDB7DEB78C0180918B0A813019F0823032
:1056C000D9F033C082E080938B0A40E066EB74E04F
:1056D00080E89AE00E94C127F801648175814AE060
:1056E00050E082E89AE00E94FC4A66E675E082E8B3
:1056F0009AE00E94EA4919C020E030E040E050E022
:10570000BE016F5F7F4F80E89AE00E947C2788236C
:1057100061F08981882319F061E070E002C063E0E4
:1057200070E080E89AE00E94A9270F90DF91CF9166
:105730001F910F91089580E89AE00C94A828CF93C8
:10574000DF931F92CDB7DEB780918B0A813019F0BD
:10575000823081F028C082E080938B0A6AE180E881
:105760009AE00E94A82866E675E082E89AE00E9426
:10577000EA4919C020E030E040E050E0BE016F5F30
:105780007F4F80E89AE00E947C27882361F089811E
:10579000882319F061E070E002C063E070E080E807
:1057A0009AE00E94A9270F90DF91CF910895CF939F
:1057B000DF93EC01BC016E5F7F4F45E050E080E875
:1057C0009AE00E944F28CE010E949F2BE881F98128
:1057D0000088F189E02DCE011995892B39F464E612
:1057E00070E080E090E00E94E843F0CF80918A0A68
:1057F00090E0DF91CF91089520918C0A30918D0A2D
:1058000025303105A1F03CF42130310559F0243028
:10581000310559F008952630310559F0273031050A
:1058200051F008956093B30A08950C94722A0C9471
:105830009F2B0C940F2B0C94532B0F931F93CF93F0
:10584000DF93EC018E8181110AC081E08E8321E01B
:1058500041E063E675E082EB9AE00E94C52282EBAC
:105860009AE00E943022082F8985882341F019860A
:105870006FE675E082EB9AE00E94B3228887888504
:1058800081112BC08F81882359F19091B20A8091A8
:10589000B30A9150981B9F77112707FD10959F37EA
:1058A00009F045C082EB9AE00E9459221F8281E0F4
:1058B0008987BE016E5F7F4F40E050E080E89AE04C
:1058C0000E944F288FE99AE00E940A2F6AE070E058
:1058D00080E090E00E94E8432AC06FE675E002C0D5
:1058E00065E775E082EB9AE00E94B32281111AC04D
:1058F00082EB9AE00E945922BE016E5F7F4F40E02A
:1059000050E080E89AE00E944F288FE99AE00E94D8
:105910000A2F6AE070E080E090E00E94E84380E0B7
:1059200090E006C0802F992787FD909501C0C8019F
:10593000DF91CF911F910F9108950F931F93CF93F4
:10594000DF938C01C5E0D0E082EB9AE00E945922FF
:105950008FE99AE00E940A2F6AE070E080E090E010
:105960000E94E843219781F7B8016E5F7F4F47E0BF
:1059700050E080E89AE00E944F28C801DF91CF9163
:105980001F910F910C94532B02970C94FC2BCF93E7
:10599000DF93EC01E881F9810684F785E02D199504
:1059A0008E819F81DF91CF910895FC01778366837B
:1059B000089502960C944B24BC016E5F7F4F80E8E3
:1059C0009AE00C943D270F931F93CF93DF93EC0144
:1059D0008B0140E063E175E080E89AE00E94C12716
:1059E000B80182E89AE00E94EA496CE975E082E831
:1059F0009AE00E94EA49E881F9810484F585E02D66
:105A000061E070E0CE01199581E090E0DF91CF91E7
:105A10001F910F910895EF92FF920F931F93CF93D1
:105A2000DF93CDB7DEB72F970FB6F894DEBF0FBE6A
:105A3000CDBF8C017C0182E0E80EF11CAE014F5F0E
:105A40005F4F6EEF74E0C7010E945324BE016F5F89
:105A50007F4F82EB9AE00E94B322882349F0D8015D
:105A6000ED91FC910484F585E02D62E070E044C086
:105A7000AE014F5F5F4F67EF74E0C7010E94532490
:105A8000BE016F5F7F4F82EB9AE00E94B3228823B2
:105A900049F0D801ED91FC910484F585E02D63E097
:105AA00070E02AC0AE014F5F5F4F6CEE74E0C7013B
:105AB0000E945324BE016F5F7F4F82EB9AE00E94E9
:105AC000B322811111C0AE014F5F5F4F67EE74E0EA
:105AD000C7010E945324BE016F5F7F4F82EB9AE0A3
