:100000000C94A1030C94D2030C94D2030C94D2034D
:100010000C94D2030C94D2030C94D2030C94D2030C
:100020000C94D2030C9445310C946D310C949531A1
:100030000C94D2030C94164E0C94D2030C94D2035D
:100040000C94D2030C94D2030C94D2030C94D203DC
:100050000C94D2030C94D2030C94D2030C94D4428B
:100060000C94D2030C9434460C946A460C94D2033C
:100070000C94D2030C94D2030C94D2030C94D203AC
:100080000C94D2030C94D2030C94D2030C94D2039C
:100090000C94E1460C9417470C94D2030C943F1037
:1000A0000C94D2030C94D2030C94D2030C94D2037C
:1000B0000C94D2030C94D2030C94D2030C94D2036C
:1000C0000C94D2030C94D2030C94D2030C94D2035C
:1000D0000C94D2030C94D2030C948E470C94C44716
:1000E0000C94D203FA43FD43EC43F043F64334440B
:1000F000014405440B440F44134419441D44214456
:10010000344427442B442F440C9488390C942429DC
:100110000C94692A0C94D5280C944A2C0C946D24C8
:100120000C943D250C944C3A0C943C3B0C940B44A1
:100130000C9413290C94961E0C94C82B0C94944682
:100140000C94F5260C945B390C94092D0C940F2F0C
:100150000C94632A0C94C0110C9405440C94F8245C
:100160000C9451450C9408290C9481170C941D385B
:100170000C9443240C94D1280C94082A0C941D440C
:100180000C94333A0C94272E0C94163A0C942C278A
:100190000C941F240C94EE470C94B50E0C944B4712
:1001A0000C94B8390C9452240C94630D0C94DC37E5
:1001B0000C9421440C94FD280C942D240C943B4861
:1001C0000C9481370C94E20E0C946A2B0C94292C1D
:1001D0000C94EF280C9401440C94D5390C94B5245C
:1001E0000C94793A0C9473370C94F6370C941944A8
:1001F0000C9421290C94F6380C9441470C94022D50
:100200000C94D8240C9490370C94292F0C943829F2
:100210000C94B0240C94982F0C9486110C943824D0
:100220000C946C260C943B290C9421380C94662A6F
:100230000C94A2120C94A50E0C947A2A0C94663994
:100240000C94B9370C94CF120C94D9390C942E29F4
:100250000C9460240C94FA370C94DE3A0C946B24C2
:100260000C94CD390C94CA110C94F8470C94A1113C
:100270000C94EF290C94A6370C94A8330C94BC264C
:100280000C94EC430C94262F0C94B1240C94AF44A2
:100290000C94F6430C945D0F0C94FD430C94344481
:1002A0000C94A4440C947D330C941B270C948E2442
:1002B0000C9488240C94602A0C9414240C945D25CE
:1002C0000C949E050C94CA2C0C94E12A0C941344B3
:1002D0000C94C2240C9496480C94F42C0C94F12C9D
:1002E0000C9437390C943F2F0C94BF240C94062D9A
:1002F0000C942B440C94D3370C9470110C949E46A0
:100300000C940A270C9443260C948C390C94B42436
:100310000C9478390C940F440C94920E0C949039F0
:100320000C94F2280C9421270C94F0430C945B2835
:100330000C94102D0C94BD440C94042C0C94B40E0D
:100340000C94BD310C94DF290C94372F0C948B2422
:100350000C94AF240C9401340C948A0E0C942F440A
:100360000C9499380C94D1440C94232F0C9471392B
:100370000C94A6390C9486370C94FA430C94B54827
:100380000C941E270C9437270C941E290C94902E45
:100390000C94CD240C9408060C9427440C948437B8
:1003A0000C94F12E0C94382D0C94AE370C94291526
:1003B0000C9461120C942F450C94ED397C3C3E5EFC
:1003C0002B3D3F2F5B5D3B2C2A225C00434C4F535F
:1003D00045440041542B5149434C4F534500434F32
:1003E0004E4E4543540D0A0041542B51494F504540
:1003F0004E3D0041542B5149444E5349503D00431A
:100400004F4E4E4543540D0A00434C4F5345440D47
:100410000A0041542B51495345525645520041540C
:100420002B51494C504F52543D22544350222C00E2
:1004300041542B51494C4F4349500041542B434D9B
:1004400047443D0041542B434D474C3D22524543C8
:1004500020554E52454144222C310041542B434DEE
:1004600047533D22002B434C49503A0042555359C3
:10047000004E4F2043415252494552002B434F4CAE
:10048000503A0052494E47004154480041544100FF
:1004900041542B434C434300415444001F1C1F1E36
:1004A0001F1E1F1F1E1F1E1F00000A0B02090C0D1E
:1004B0000E08070304010000000000000000000017
:1004C000000000000000000000000000000000002C
:1004D00000000000121110000000000000000000E9
:1004E0000000000000000000000000000000010209
:1004F0001020200808102040102040800201020136
:1005000008040201010204081020408080402010ED
:100510000804020180040201804020100804020146
:1005200008040201010204081020408001020408AE
:100530001020408005050505070508080808020287
:1005400002020A0A0808040404040101010101016D
:1005500001010303030303030303040707070C0C50
:100560000C0C0C0C0C0C0202020206060606060617
:1005700006060B0B0B0B0B0B0B0B000020002300D4
:10058000260029002C002F0032000001000003018A
:100590000601090100002200250028002B002E0082
:1005A0003100340002010000050108010B010000C8
:1005B0002100240027002A002D0030003300010113
:1005C0000000040107010A01024E414E494E495400
:1005D00059494E46CDCCCC3D0AD7233C17B7D1382C
:1005E00077CC2B329595E6241FB14F0A00002041AD
:1005F0000000C84200401C4620BCBE4CCA1B0E5A1C
:10060000AEC59D7400407A10F35A00A0724E1809CE
:100610000010A5D4E80000E87648170000E40B5469
:10062000020000CA9A3B000000E1F5050000809638
:100630009800000040420F000000A086010000006A
:10064000102700000000E803000000006400000024
:1006500000000A00000000000100000000002C76ED
:10066000D888DC674F0823DFC1DFAE59E1B1B79608
:10067000E5E3E453C63AE651997696E8E6C2842665
:10068000EB898C9B62ED407C6FFCEFBC9C9F40F241
:10069000BAA56FA5F490055A2AF75C936B6CF967BD
:1006A0006DC11BFCE0E40D47FEF520E6B500D0ED82
:1006B000902E0300943577050080841E08000020EA
:1006C0004E0A000000C80C333333330F986E128388
:1006D0001141EF8D2114893BE65516CFFEE6DB185C
:1006E000D1844B381BF77C1D901DA4BBE424203221
:1006F00084725E228100C9F124ECA1E53D279E05AC
:10070000630D5D0F2915811714241F242D2438240F
:100710004324522460246D245D2521272C27D128D1
:10072000F228FD2808291329292FBD31A8330134C7
:1007300073375B3966393C3B9E464B47F8479648D2
:10074000080611241FBECFEFD1E2DEBFCDBF00E00F
:100750000CBF15E0A0E0B2E0E6E2F4EB00E00BBF76
:1007600002C007900D92A637B107D9F72DE0A6E792
:10077000B5E001C01D92A132B207E1F716E0C0E476
:10078000D7E000E006C022970109FE010BBF0E94DE
:100790001153CE3FD10780E00807A9F70E94A64871
:1007A0000C94015A0C940000CF93DF93EC0166E99E
:1007B00074E00E94E44E66E974E0CE0106960E9461
:1007C000E44E66E974E0CE010C960E94E44E66E9C0
:1007D00074E0CE0142960E94E44E66E974E0CE01D8
:1007E00048960E94E44E66E974E0CE014E960E945F
:1007F000E44E66E974E0CE0184960E94E44E66E918
:1008000074E0CE018A960E94E44ECE01C0960E940A
:10081000754866E974E0CE01C8960E94E44E66E928
:1008200074E0CE01CE96DF91CF910C94E44E61E05E
:100830008AE00E94354461E084E00E94354426E06D
:1008400040E855E260E070E084E19BE00E94B6453C
:1008500061E084E00E946E440E94B50A8FED95E04D
:100860000E948F0C8CE995E00E94110786EC95E0C0
:100870000E94BF4120E042E060E183E296E00E94F6
:100880009C32FFCF8F929F92AF92BF92CF92DF9216
:10089000EF92FF920F931F93CF93DF93CDB7DEB705
:1008A000EC970FB6F894DEBF0FBECDBF61E084E0D9
:1008B0000E946E4486E795E00E94B70A20ED37E07B
:1008C00040E050E06AE875E08CE995E00E94D708C6
:1008D00080918305882309F4F1C08EEB95E00E9496
:1008E000F80666E974E0CE01C7960E94E44E66E918
:1008F00074E0CE01C1960E94E44EAE014F5C5F4FA2
:10090000BE01695C7F4F8BEB95E00E94570B60E95D
:1009100075E0CE0101960E94114F6AE875E0CE01A4
:1009200007960E94114F6DE272E0CE010D960E9473
:10093000E44E6DE272E0CE0143960E94E44E67E819
:1009400073E0CE0149960E94E44E66E775E0CE0161
:100950004F960E94E44E62E372E0CE0185960E94BB
:10096000E44E67E372E0CE018B960E94E44ECE0126
:1009700001964C0106965C0106966C0106967C0178
:100980008E01075E1F4F9E01215E3F4FAE014B5D02
:100990005F4FBE01655D7F4F8FED95E00E948E0D2C
:1009A0008C01CE018B960E94764ECE0185960E94D8
:1009B000764ECE014F960E94764ECE0149960E9409
:1009C000764EC7010E94764EC6010E94764EC50142
:1009D0000E94764EC4010E94764E83E296E0101685
:1009E000110664F50E94743240E061E083E296E013
:1009F0000E9482328FED95E00E94190D019779F4E3
:100A00006DE372E083E296E00E94014980EC95E09C
:100A10000E94430B8EEB95E00E945E0640C06CE4A2
:100A200072E083E296E00E94014980EC95E00E942A
:100A3000480B8EEB95E00E94880631C00E9474320C
:100A400083E296E00E947B326EE572E083E296E0FC
:100A50000E94014941E061E083E296E00E94823217
:100A60006DE672E083E296E00E94014980EC95E039
:100A70000E944D0B8EEB95E00E9454066FED75E0E1
:100A8000CE0101960E94580DBE016F5F7F4F8CEB27
:100A900095E00E94050ACE0101960E94764E68EE0E
:100AA00073E080E090E00E944D43CE01C1960E9429
:100AB000764ECE01C7960E94764E0CC083E296E039
:100AC0000E94743280EC95E00E94520B83E296E023
:100AD0000E94C6090E941E43009198051091990535
:100AE00020919A0530919B05601B710B820B930B33
:100AF00061367A4E8105910570F0809197058823C3
:100B000051F00E941E43609398057093990580935D
:100B10009A0590939B05EC960FB6F894DEBF0FBE36
:100B2000CDBFDF91CF911F910F91FF90EF90DF909C
:100B3000CF90BF90AF909F908F900895AF92CF923B
:100B4000EF920F9300E020E040E060E08BE396E05E
:100B50000E947F488CE1A82E9BE1C92E2AE1E22E5B
:100B600009E128E147E166E183E296E00E9457331C
:100B700087E792E090932406809323068FED95E01B
:100B80000E94D40382ED95E00E947F3827E030E098
:100B900046E050E065E070E080EC95E00E94090BD3
:100BA00068E070E08EEB95E00E94500664E070E033
:100BB0008CEB95E00E94010A66E974E089EA95E011
:100BC0000E94E44E66E974E08FEA95E00E94E44EEC
:100BD00066E974E085EB95E00E94E44E8CE995E0CF
:100BE0000E94020766E974E08AE895E00E94E44EFC
:100BF00066E974E080E995E00E94E44E66E974E0FD
:100C000084E895E00F91EF90CF90AF900C94E44E74
:100C100084E895E00E94764E80E995E00E94764E49
:100C20008AE895E00E94764E82EA95E00E94764E30
:100C30008CE995E00E94764E85EB95E00E94764E19
:100C40008FEA95E00E94764E89EA95E00E94764E02
:100C50008DE196E00E94764E87E196E00E94764E06
:100C600089E096E00E94764E83E096E00E94764E00
:100C70008DEF95E00E94764E87EF95E00E94764ECC
:100C800081EF95E00E94764E8BEE95E00E94764EC5
:100C900085EE95E00E94764E8FED95E00C94764EB1
:100CA000FC0171836083089528EE33E040E050E05A
:100CB00068EE73E0FC0180810C94E54ACF93DF93EA
:100CC000EC0120E030E0A90160EA7FE088810E9429
:100CD000E54A6CE271E080E090E00E944D4320E044
:100CE00030E0A90160ED77E088810E94E54A6CE27E
:100CF00071E080E090E00E944D4328EC30E040E05D
:100D000050E060EA7FE08881DF91CF910C94E54A62
:100D1000CF93DF93EC0120E030E0A90168EC70E0B4
:100D200088810E94E54A68EC70E080E090E00E94D3
:100D30004D4320E030E0A90160EA7FE088810E9415
:100D4000E54A68EC70E080E090E00E944D4320E0CE
:100D500030E0A90160ED77E088810E94E54A68EC07
:100D600070E080E090E00E944D4320E030E0A90177
:100D700060EA7FE088810E94E54A68EC70E080E0EC
:100D800090E00E944D4320E030E0A90168EE73E05E
:100D900088810E94E54A68EC70E080E090E00E9463
:100DA0004D4320E030E0A90160EA7FE088810E94A5
:100DB000E54A68EC70E080E090E00E944D4320E05E
:100DC00030E0A90160ED77E088810E94E54A68EC97
:100DD00070E080E090E00E944D4328EC30E040E07D
:100DE00050E060EA7FE08881DF91CF910C94E54A82
:100DF00020E233E040E050E060EA7FE0FC018081E7
:100E00000C94E54ACF93DF93EC0166E974E00E940D
:100E1000E44E66E974E0CE010696DF91CF910C9422
:100E2000E44E81E008952F923F924F925F926F922D
:100E30007F928F929F92AF92BF92CF92DF92EF926A
:100E4000FF920F931F93CF93DF93CDB7DEB7A79792
:100E50000FB6F894DEBF0FBECDBF8C016A017B01D7
:100E600026E040E855E260E070E08EE49CE00E94FD
:100E7000B6458EE49CE00E942F450E941E432B0144
:100E80003C0166E974E0CE014F960E94E44E1801E1
:100E900086E0280E311C0E941E43641975098609DC
:100EA00097096C157D058E059F0508F05FC14AE026
:100EB0006EE47CE0CE0101960E94BD4ABE016F5FE8
:100EC0007F4FCE014F960E94FA4ECE0101960E94AE
:100ED000764E6BE772E0CE0101960E94E44EBE01B1
:100EE0006F5F7F4FCE014F960E9457505C01CE013D
:100EF00001960E94764EB7FCCECFA12CB12C812C4E
:100F0000912CEFEF8E1A9E0A61E872E0CE010196F5
:100F10000E94E44EA401BE016F5F7F4FCE014F9649
:100F20000E943B504C01CE0101960E94764EF1E0AA
:100F3000AF16B10449F4B4016F5F7F4FCE014F96F5
:100F40000E9439508FA33CC082E0A816B104B1F1D1
:100F5000E4E0AE16B104B9F44DA15EA14F5F5F4F5E
:100F60009401BE01615E7F4FCE0101960E945B50ED
:100F7000BE016F5F7F4FC8010E94FA4ECE010196FD
:100F80000E94764E1BC0F6E0AF16B104C9F494017E
:100F90004DA15EA14F5F5F4FBE01615E7F4FCE01ED
:100FA00001960E945B50BE016F5F7F4FC1010E949E
:100FB000FA4ECE0101960E94764E02C09EA28DA2EC
:100FC0008FEFA81AB80AEAE0AE16B10409F099CF7B
:100FD000FFA1F13421F481E0F801848702C0F80117
:100FE00014862BE030E04AE050E0B801CE010196D3
:100FF0000E945B5022E030E040E050E0B801CE01BA
:1010000049960E945B50CE0149960E94AB504B011D
:101010005C0129E030E042E050E0B801CE014396A7
:101020000E945B50CE0143960E94AB5020E030E01E
:1010300040E752E40E941F519B01AC01C501B4017D
:101040000E94B750AB01BC0126E0CE010D960E9474
:101050008B4FBE01635F7F4FCE0107960E94114FF9
:101060006BEC72E0CE0107960E940E50BE016F5FDE
:101070007F4F0E94FB4FBC01C8010E94FA4ECE0177
:1010800007960E94764ECE010D960E94764ECE01B6
:1010900043960E94764ECE0149960E94764ECE012E
:1010A00001960E94764E2CE030E04BE050E0B1011A
:1010B000CE0101960E945B5023E030E040E050E01A
:1010C000B101CE0149960E945B50CE0149960E9423
:1010D000AB504B015C012AE030E043E050E0B1014D
:1010E000CE0143960E945B50CE0143960E94AB50C6
:1010F00020E030E040E752E40E941F519B01AC0128
:10110000C501B4010E94B750AB01BC0126E0CE017D
:101110000D960E948B4FBE01635F7F4FCE010796F5
:101120000E94114F6BEC72E0CE0107960E940E50A8
:10113000BE016F5F7F4F0E94FB4FBC01C1010E9447
:10114000FA4ECE0107960E94764ECE010D960E9471
:10115000764ECE0143960E94764ECE0149960E946D
:10116000764ECE0101960E94764E95CE8EE49CE09E
:101170000E941846CE014F960E94764EA7960FB653
:10118000F894DEBF0FBECDBFDF91CF911F910F91BD
:10119000FF90EF90DF90CF90BF90AF909F908F9097
:1011A0007F906F905F904F903F902F9008950F9396
:1011B0001F93CF93DF93EC018B01BA01A9010E9429
:1011C0001307BE01C8010E94FA4EBE016A5F7F4F3D
:1011D000C80106960E94FA4E8C85F8018487DF913B
:1011E000CF911F910F910895AF92BF92CF92DF924E
:1011F000EF92FF920F931F93CF93DF93CDB7DEB79C
:10120000E0970FB6F894DEBF0FBECDBF5C01CDA254
:10121000DEA2EFA2F8A609A71AA72BA740E060E07C
:101220000E9482328DA19EA164E670E00E949C52D1
:101230004AE0BC01CE0101960E945F4F4AE06FA1D7
:10124000CE0107960E94324F4AE068A5CE01439630
:101250000E94324FBE016D5E7F4FCE010D960E94FF
:10126000114F63E872E0CE010D960E940E50BE0150
:10127000695F7F4F0E94FB4F63E872E00E940E504F
:10128000BE016F5F7F4F0E94FB4FBC01CE014F96A6
:101290000E94114FCE010D960E94764ECE014396CC
:1012A0000E94764ECE0107960E94764ECE010196A0
:1012B0000E94764EBE01615E7F4FC5010E94F348D9
:1012C00040E068E0C5010E9482324AE06BA5CE0191
:1012D00001960E94324F4AE06AA5CE0107960E940D
:1012E000324F4AE069A5CE0143960E94324FBE01BB
:1012F0006D5E7F4FCE010D960E94114F60E473E04A
:10130000CE010D960E940E50BE01695F7F4F0E9474
:10131000FB4F60E473E00E940E50BE016F5F7F4F91
:101320000E94FB4FBC01CE0149960E94114FCE0195
:101330000D960E94764ECE0143960E94764ECE01C7
:1013400007960E94764ECE0101960E94764EBE010F
:10135000675E7F4FC5010E94F348CE0149960E9407
:10136000764ECE014F960E94764EE0960FB6F894D8
:10137000DEBF0FBECDBFDF91CF911F910F91FF90C8
:10138000EF90DF90CF90BF90AF900895AF92BF9253
:10139000CF92DF92EF92FF920F931F93CF93DF9341
:1013A000CDB7DEB72C970FB6F894DEBF0FBECDBF1A
:1013B0005C010E94743266EC75E0CE0101960E94D9
:1013C0003E42C980DA80EB80FC800D811E812F8136
:1013D000388549855A856B857C85C5010E94F4084E
:1013E0002C960FB6F894DEBF0FBECDBFDF91CF9124
:1013F0001F910F91FF90EF90DF90CF90BF90AF9033
:101400000895FC01718360830895EF92FF920F931A
:101410001F93CF93DF93CDB7DEB7CE55D1090FB66B
:10142000F894DEBF0FBECDBF7B0161E08AE00E9471
:101430006E448EE0E9E1F2E0DE01A55BBF4F019072
:101440000D928A95E1F7EBE4F0E0EC0FFD1F3E967C
:1014500086E0DF011D928A95E9F7BE01655B7F4F4B
:101460008FE197E00E9413158823F9F021E0AE0187
:10147000455B5F4F6FE177E0CE0101960E948D14CE
:10148000BE016F5F7F4FCE014C960E94A34ACE01F2
:101490004C960E94A0508B01CE014C960E94764E35
:1014A000CE0101960E94901202C000E010E023E1FC
:1014B000AE01455B5F4F6FE177E0CE0101960E9480
:1014C0008D1465E872E0CE0101960E940149CE01BB
:1014D00001960E9490120F5F1F4F4AE0BE01695CA7
:1014E0007F4FC8010E94CA5523E1AE01495C5F4F9E
:1014F0006FE177E0CE014C960E948D14B701CE01CA
:101500004C960E94F348CE014C960E949012BE0168
:10151000655B7F4F8FE197E00E941E1523E1AE01CE
:10152000455B5F4F6FE177E0CE0101960E948D141D
:101530004AE050E0B801CE0101960E94014ACE0176
:1015400001960E94901261E084E00E946E44C25AAB
:10155000DF4F0FB6F894DEBF0FBECDBFDF91CF9146
:101560001F910F91FF90EF90089581E00895CF9320
:10157000DF93EC0126E040E855E260E070E081EBAB
:101580009BE00E94B64544E150E060E070E081EBF2
:101590009BE00E947A4A4CE050E0BE0181EB9BE068
:1015A0000E94804A1D860C9779F581E08D8767E857
:1015B00072E084E19BE00E943A4968E972E084E1CC
:1015C0009BE00E943A496FE972E084E19BE00E944F
:1015D00001494AE050E06CE070E084E19BE00E9449
:1015E000094A6EEA72E084E19BE00E940149BE0173
:1015F00084E19BE00E943A4967E872E084E19BE065
:101600000E943A4981E002C01D8680E0DF91CF91BF
:101610000895CF93DF93EC01862F688379835B83F2
:101620004A833D832C8361E00E94354461E08A81D6
:101630000E94354461E08C81DF91CF910C94354458
:101640000F931F93CF93DF93EC01042F122F662388
:1016500011F061E001C060E088810E946E440023C7
:1016600011F061E001C060E08A810E946E441123A4
:1016700011F061E001C060E08C81DF91CF911F919A
:101680000F910C946E4420E041E060E00C94200B3C
:1016900020E040E061E00C94200B21E040E060E0BD
:1016A0000C94200B20E040E060E00C94200BEF92C3
:1016B000FF920F931F93CF93DF93CDB7DEB7A4971D
:1016C0000FB6F894DEBF0FBECDBF8B017A0166EC7A
:1016D00075E0CE0101960E943E4269817A814AE01E
:1016E000CE010D960E945F4F4AE06B81CE0143967A
:1016F0000E94324F4AE06C81CE014F960E94324FD9
:10170000BE01615E7F4FCE0149960E94114F63E892
:1017100072E0CE0149960E940E50BE016D5E7F4F71
:101720000E94FB4F63E872E00E940E50BE01635FAF
:101730007F4F0E94FB4FBC01C8010E94FA4ECE01B0
:1017400049960E94764ECE014F960E94764ECE016B
:1017500043960E94764ECE010D960E94764E4AE048
:101760006F81CE010D960E94324F4AE06E81CE010C
:1017700043960E94324F4AE06D81CE014F960E94FF
:10178000324FBE01615E7F4FCE0149960E94114FDC
:1017900060E473E0CE0149960E940E50BE016D5E7A
:1017A0007F4F0E94FB4F60E473E00E940E50BE0129
:1017B000635F7F4F0E94FB4FBC01C7010E94FA4E3E
:1017C000CE0149960E94764ECE014F960E94764EEB
:1017D000CE0143960E94764ECE010D960E94764E23
:1017E000A4960FB6F894DEBF0FBECDBFDF91CF91A8
:1017F0001F910F91FF90EF900895FF920F931F9309
:10180000CF93DF93EB018B01F12CF80161918F01F4
:1018100040E150E084E19BE00E942E4A60E473E0E6
:1018200084E19BE00E940149F394F5E0FF12EDCFC3
:1018300040E150E06D8184E19BE0DF91CF911F9109
:101840000F91FF900C94354A0F931F93CF93DF9322
:1018500000D000D0CDB7DEB78C0166EC72E084E139
:101860009BE00E9401496AE072E0C8010E94FD0B02
:101870006DEC72E084E19BE00E94014961ED7AE049
:10188000CE0101960E941B37BE016F5F7F4F84E13E
:101890009BE00E944C4963ED72E084E19BE00E9472
:1018A000014961ED7AE0CE0101960E946337BE01E5
:1018B0006F5F7F4F84E19BE00E944C496AED72E0CC
:1018C00084E19BE00E94014961ED7AE0CE0101963E
:1018D0000E944B37BE016F5F7F4F84E19BE00E9407
:1018E0004C4965EE72E084E19BE00E94014961EDA4
:1018F0007AE0CE0101960E943337BE016F5F7F4FC1
:1019000084E19BE00E944C4926960FB6F894DEBF16
:101910000FBECDBFDF91CF911F910F910895CF9250
:10192000DF92EF92FF920F931F93CF93DF93CDB788
:10193000DEB76E970FB6F894DEBF0FBECDBF6C0159
:101940000EE420EC43E06AE0CE0149960E947F4815
:101950008B8D9C8DAD8DBE8DF60182AB93ABA4AB10
:10196000B5AB80E99FE197AB86AB6FEE72E084E1A7
:101970009BE00E943A4924E735E03A83298380912D
:10198000430690914406A0914506B09146068B838C
:101990009C83AD83BE8338872F83809149069091C5
:1019A0004A06A0914B06B0914C0689879A87AB876F
:1019B000BC873E872D8780914F0690915006A0915D
:1019C0005106B09152068F87988BA98BBA8B3C8BAE
:1019D0002B8B409155065091560660915706709199
:1019E00058064D8B5E8B6F8B788FCE0101967C01F4
:1019F0008E01095F1F4F9E01235F3F4FAE014D5E79
:101A00005F4F6AE072E081ED9AE00E94CF36C60136
:101A10000E94240C6E960FB6F894DEBF0FBECDBFA9
:101A2000DF91CF911F910F91FF90EF90DF90CF90BA
:101A300008950F931F93CF93DF9300D000D0CDB7BD
:101A4000DEB78C0162E473E084E19BE00E943A49D6
:101A5000085C1F4FB80184E19BE00E94284962E4C2
:101A600073E084E19BE00E943A4969E573E0CE01AE
:101A700001960E94E44EBE016F5F7F4FC8010E9435
:101A800057508C01CE0101960E94764E81E090E085
:101A90001016110614F480E090E026960FB6F89424
:101AA000DEBF0FBECDBFDF91CF911F910F91089583
:101AB000CF93DF93EC01625C7F4F0E94114FCE0108
:101AC000DF91CF9108950F9300E020E040E060E0C7
:101AD00089E596E00E947F4801EB20EC43E06AE054
:101AE00083E596E00E947F480BE021E048EC6AE045
:101AF0008DE496E00E947F480AEF28EC43E06AE01C
:101B000087E496E00E947F4800E020EE4FEF6FEF01
:101B100081E496E00E947F480F9108952F923F92B2
:101B20004F925F926F927F928F929F92AF92BF92ED
:101B3000CF92DF92EF92FF920F931F93CF93DF9399
:101B4000CDB7DEB72E970FB6F894DEBF0FBECDBF70
:101B50003C012B011A013E872D8766E974E0CE0116
:101B600007960E94E44EF30146A957A984E795E041
:101B70009A83898382A993A9A4A9B5A98B839C83FD
:101B8000AD83BE83BE016F5F7F4F82ED95E00E9403
:101B90009938892B09F497C06BE173E0CE01019667
:101BA0000E94E44EB201CE0101960E94FB4F62EA10
:101BB00073E00E940E50B1010E94FB4F69EA73E08E
:101BC0000E940E506D857E850E94FB4F6FEA73E088
:101BD0000E940E50B8010E94FB4F67EB73E00E9419
:101BE0000E50B7010E94FB4F6EEB73E00E940E5047
:101BF000B6010E94FB4F65EC73E00E940E50B501E8
:101C00000E94FB4F6BEC73E00E940E50B4010E94E7
:101C1000FB4FBC01CE0107960E94FA4ECE01019601
:101C20000E94764E61ED73E082ED95E00E940149DD
:101C3000BE01695F7F4F82ED95E00E94F3486FE738
:101C400073E082ED95E00E943A4969E873E082ED25
:101C500095E00E940149B301605D7F4F82ED95E000
:101C60000E944C4965EE73E082ED95E00E943A498E
:101C700082ED95E00E941449F8E36F0E711C82ED2D
:101C800095E00E9437398823B9F082ED95E00E94F3
:101C9000D337892BA1F362ED75E0CE0101960E9446
:101CA000A34ABE016F5F7F4FC3010E94FA4ECE016F
:101CB00001960E94764EE3CF82ED95E00E94F638C1
:101CC00001E010E009C0BE01695F7F4FC301CE96FD
:101CD0000E94FA4E0FEF1FEFCE0107960E94764E3C
:101CE000C8012E960FB6F894DEBF0FBECDBFDF91B0
:101CF000CF911F910F91FF90EF90DF90CF90BF9009
:101D0000AF909F908F907F906F905F904F903F909B
:101D10002F90089580918F0690E020919006821B6D
:101D2000910908952091900680918F06281750F40C
:101D3000E22FF0E0EF56F94F808190E02F5F209383
:101D4000900608958FEF9FEF0895E091900680919F
:101D50008F06E81730F4F0E0EF56F94F808190E0FD
:101D600008958FEF9FEF08950895CF92DF92EF923D
:101D7000FF920F931F93CF93DF937C01CB018A01D6
:101D800020916B06222389F0EB016B01C40ED51E56
:101D9000CC15DD0569F06991D701ED91FC910190B9
:101DA000F081E02DC7011995F3CF642F0E94161022
:101DB000C801DF91CF911F910F91FF90EF90DF90BD
:101DC000CF900895CF93DF931F92CDB7DEB769838D
:101DD00020916B062223D1F020916C06203240F036
:101DE00021E030E0FC013383228380E090E015C0E5
:101DF00080916D06E82FF0E0E259F94F99819083C8
:101E00008F5F80936D0680936C0605C061E0CE0104
:101E100001960E94161081E090E00F90DF91CF9123
:101E20000895FC011382128248EE53E060E070E0F6
:101E300044835583668377838BEF93E0918380831C
:101E400008951092900610928F0610926D061092CF
:101E50006C060C94610F862F413208F040E261E974
:101E600076E00E947F0F1092900680938F0608956F
:101E700021E00C942B0F81E080936B0660938E061B
:101E800010926D0610926C0608950C943B0F0F9300
:101E9000062F21E040916C066EE676E080918E067A
:101EA0000E94C30F10926D0610926C0610926B0682
:101EB0000F91089561E00C94470F8FE596E00C9424
:101EC000110F10921E0781E080931C0710921B07D0
:101ED00061E084E10E946E4461E085E10E946E440D
:101EE000E9EBF0E080818E7F808380818D7F80832D
:101EF00088E48093B80085E48093BC000895413263
:101F000008F03FC090911E079111FCCF91E0909393
:101F10001E0720931C072FEF2093B1061092F606A0
:101F2000240F2093F50690931D0790911D07880FAD
:101F3000892B80931D0780911B07813041F41092FB
:101F40001B0780911D078093BB0085EC01C085EEC7
:101F50008093BC0080911E078130E1F38091F606EA
:101F6000841710F44091F60627EF36E0FB01D90103
:101F70008A2F821B841718F48D918193F9CF842FB7
:101F8000089580E008950F93413208F046C0909183
:101F90001E079111FCCF92E090931E0700931C073F
:101FA0009FEF9093B1061092F6064093F506FB0161
:101FB00067EF76E0DB019A2F961B941718F4919146
:101FC0009D93F9CF10921D0790911D07880F892BC3
:101FD00080931D0780911B07813041F410921B07ED
:101FE00080911D078093BB0085EC01C085EE809336
:101FF000BC00222321F080911E078230E1F3809102
:10200000B1068F3F61F08091B106803251F080912E
:10201000B106803341F483E007C081E005C080E071
:1020200003C082E001C084E00F910895613298F40A
:1020300020911E07243089F46093D306FC0185EDBE
:1020400096E0DC012A2F281B261718F421912D93E6
:10205000F9CF80E0089581E0089582E0089585ED4C
:102060008093BC008091BC0084FDFCCF10921E07C1
:10207000089585EC8093BC0010921E0708951F926E
:102080000F920FB60F9211240BB60F922F933F931E
:102090004F935F936F937F938F939F93AF93BF9370
:1020A000EF93FF938091B900887F803609F49CC03C
:1020B00068F5883209F45BC090F4803109F454C0AB
:1020C00038F4882309F4F5C0883009F44DC0F5C010
:1020D000883109F44CC0803209F45DC0EEC0803410
:1020E00009F468C048F4803309F455C0883309F016
:1020F000E4C08093B106A8C0803509F44FC088358C
:1021000009F45DC0883409F0D8C0D5C0883909F415
:10211000C6C0A8F4883709F467C038F4883609F4D3
:1021200063C0803709F460C0C8C0883809F4B7C0FC
:10213000803909F45FC0803809F0BFC05BC0803BC4
:1021400009F485C038F4803A09F466C0883A09F485
:102150007EC0B3C0803C09F4A6C0883C09F4A3C08B
:10216000883B09F489C0A9C080911D0710C09091D7
:10217000F6068091F506981770F5E091F60681E075
:102180008E0F8093F606F0E0E950F94F808180933E
:10219000BB0085EC85C08093B1068DC0E091F6064A
:1021A00081E08E0F8093F6068091BB00F0E0E9504D
:1021B000F94F80839091F6068091F5066DC0E0910D
:1021C000F60681E08E0F8093F6068091BB00F0E06A
:1021D000E950F94F808380911C0781116CC081E028
:1021E00080931B0784EA60C083E080931E071092EF
:1021F000B206CFCF8091B206803208F050C0E09195
:10220000B20681E08E0F8093B2068091BB00F0E0B1
:10221000ED54F94F8083BDCF8091B206803230F407
:10222000E091B206F0E0ED54F94F10820E942F10B9
:102230006091B20670E0E0911707F091180783EB08
:1022400096E019951092B2060E94391036C084E0CB
:1022500080931E071092D4061092D306E0911907BE
:10226000F0911A0719958091D306811105C081E07C
:102270008093D3061092D506E091D40681E08E0FAC
:102280008093D406F0E0EB52F94F80818093BB003D
:102290009091D4068091D306981708F47ACF85E8F8
:1022A0008093BC000AC085EC8093BC0010921E078E
:1022B00004C01092B1060E942F10FF91EF91BF91C0
:1022C000AF919F918F917F916F915F914F913F91CE
:1022D0002F910F900BBE0F900FBE0F901F9018956F
:1022E000CF93DF931F92CDB7DEB76983DC01ED9109
:1022F000FC910280F381E02D41E050E0BE016F5F70
:102300007F4F19950F90DF91CF910895CF93DF9371
:10231000EC01898D9A8D009759F0FC01138212828D
:102320000E94F71CE98DFA8D22813381232B31F035
:1023300081E090E09B838A8380E090E0DF91CF9101
:102340000895FC01818D928D009711F00C94521A22
:102350000895CF93DF931F92CDB7DEB741E050E0F1
:10236000BE016F5F7F4F0E946318019719F4898146
:1023700090E002C08FEF9FEF0F90DF91CF91089513
:10238000FC01818D928D009711F00C94A9118FEFB3
:102390009FEF08950F931F93CF93DF938C01FC0160
:1023A000818D928D0097B9F00E94A911EC018F3FA9
:1023B000FFEF9F0799F0F801818D928DFC01428516
:1023C00053856485758541505109610971090E94E1
:1023D000B619CE0105C080E090E002C08FEF9FEFFC
:1023E000DF91CF911F910F910895CF92DF92EF92DD
:1023F000FF920F931F93CF93DF93EC017B016A0150
:102400001B821A8208EE13E020E030E00C831D836B
:102410002E833F838BE094E0998388838DE190E065
:102420000E9436539A8F898F009779F02DE1F7013A
:10243000DC0101900D922A95E1F74CE050E0B601E5
:10244000CE010C960E94A155188EDF91CF911F915D
:102450000F91FF90EF90DF90CF900895FC011382D1
:10246000128248EE53E060E070E044835583668357
:1024700077838BE094E091838083128E118E148693
:102480000895DC015996ED91FC915A97309729F007
:10249000628573858485958508956FEF7FEFCB0105
:1024A0000895DC015996ED91FC915A97309729F0E7
:1024B0006389748985899689089560E070E0CB010D
:1024C0000895CF92DF92EF92FF92CF93DF93EC01CA
:1024D000898D9A8D892BD9F0CE010E9451126B0102
:1024E0007C01CE010E944112A7019601261B370BE9
:1024F000480B590BDA01C901811530E89307A10592
:10250000B10538F08FEF9FE7A0E0B0E002C080E0B7
:1025100090E0DF91CF91FF90EF90DF90CF90089502
:10252000CF93DF93EC01898D9A8D009741F00E9443
:10253000991A898D9A8D0E94CE531A8E198EDF9129
:10254000CF9108951F93CF93DF93CDB7DEB76D97EB
:102550000FB6F894DEBF0FBECDBFAB011C821B824D
:102560002BE134E03A8329831E8221E0BC01CE01B5
:1025700001960E94CD1B11E0811102C010E004C041
:10258000CE0101960E94991A812F6D960FB6F8948C
:10259000DEBF0FBECDBFDF91CF911F9108954423C1
:1025A00039F00E94CE1C91E0811103C090E001C07F
:1025B00091E0892F0895CF93DF93FB012081318132
:1025C000FC01E20FF31FE081EF3211F42F5F3F4F68
:1025D000DA01E0E0F0E0EC01C20FD31FC881CF3296
:1025E00049F0CC2339F031962F5F3F4FCD93EC303B
:1025F000F10589F7E40FF51F1082FC01E20FF31FCC
:1026000040814F3211F42F5F3F4FFB013183208314
:10261000FC01E20FF31F81E09081911101C080E085
:10262000DF91CF9108954F925F926F927F928F9238
:102630009F92AF92BF92CF92DF92EF92FF920F9351
:102640001F93CF93DF93CDB7DEB7C954D1090FB62F
:10265000F894DEBF0FBECDBF5C016B013A014901AA
:1026600019A218A28BE194E09F8F8E8F1BA21C826F
:102670001B829A8389831E822A961FAE1EAE2A97DA
:102680008B017E018EE1E80EF11C44244394AE01DF
:10269000455C5F4FBE01685B7F4FC5010E94DB1246
:1026A000582E482F44259401BE01655C7F4FC80118
:1026B000F3011995811108C00C151D0519F0C80109
:1026C0000E94991A80E027C05520B9F021E0AE01A0
:1026D000455C5F4FB801C7010E94CD1B582E0C15F9
:1026E0001D0599F0C8010E94991A552059F3902FA1
:1026F000812F8701E92EF82ECACF0C151D0519F080
:10270000C8010E94991A81E006C08823D9F28E017F
:102710000F5F1F4FECCFC75BDF4F0FB6F894DEBFE4
:102720000FBECDBFDF91CF911F910F91FF90EF9022
:10273000DF90CF90BF90AF909F908F907F906F90E1
:102740005F904F900895FC01DB0112968D919C9152
:102750001397938382838BE194E091838083149613
:102760008C911497848315968C9115978583169672
:102770004D915D916D917C91199746835783608748
:1027800071871A964D915D916D917C911D9742874D
:102790005387648775871E964D915D916D917C91ED
:1027A000519746875787608B718B52968C915297C1
:1027B000828B53964D915D916D917C915697438B91
:1027C000548B658B768B57964D915D916D917C9175
:1027D0005A97478B508F618F728F5B968D919C912A
:1027E0005C97948F838F08954F925F926F927F9240
:1027F0008F929F92AF92BF92CF92DF92EF92FF9211
:102800000F931F93CF93DF93CDB7DEB7C754D10992
:102810000FB6F894DEBF0FBECDBF6C014A0139017F
:10282000665D7F4F5E018EE1A80EB11CC5010E945E
:10283000A3131C821B828BE194E09A8389831E82FE
:102840008401FE0131967F015A2C4B2C6FE270E01F
:10285000C8010E948F550097E9F1F80120812F32BD
:1028600019F40F5F1F4FF2CF801B8D3008F08CE002
:10287000A82EB12CA501B801CE01CB960E94A1557E
:10288000EBE3F0E0EC0FFD1FEA0DFB1D1082C7012A
:102890000E94991A21E0AE01455C5F4F652D742DB1
:1028A000C7010E94CD1B811109C0F601138212825B
:1028B0008BE194E091838083158216C00A0D1B1D65
:1028C000852D942D0E94991AC2015E2C4F2CE92E61
:1028D000F82EBCCF08191909F30111830083652D67
:1028E000742DC6010E94A313C601C95BDF4F0FB64A
:1028F000F894DEBF0FBECDBFDF91CF911F910F9136
:10290000FF90EF90DF90CF90BF90AF909F908F900F
:102910007F906F905F904F900895BF92CF92DF921B
:10292000EF92FF920F931F93CF93DF93CDB7DEB754
:10293000C955D1090FB6F894DEBF0FBECDBF7C01DB
:102940006A01B22E9E01285A3F4FCE01CB960E94BB
:10295000F4136A960EAD1FAD6A970C0D1D1DF8019C
:10296000808181110AC0BE01655C7F4FCE01019656
:102970000E94A31343E852E03EC019A218A28BE1C3
:1029800094E09F8F8E8F1BA221968FAD219781118E
:1029900004C0C7010E942E1234C082502B2DA80102
:1029A000823048F469E477E0CE014E960E94CD1B58
:1029B00081110EC0EECFBE01655C7F4FCE014E96F9
:1029C0000E94CD1B882329F3CE01CB960E94991A31
:1029D0008B2D867041F049A95AA96BA97CA9CE011B
:1029E0004E960E94B619BE01625E7F4FCE010196DF
:1029F0000E94A313A801BE016F5F7F4FC7010E9411
:102A0000F511C701C75ADF4F0FB6F894DEBF0FBEEE
:102A1000CDBFDF91CF911F910F91FF90EF90DF908D
:102A2000CF90BF900895FB01BC01665D7F4F20E011
:102A300030E042EA52E1CF010C941313FB01BC01D8
:102A4000665D7F4F20E030E04FEC52E1CF010C9407
:102A50001313109224071092250710922807109242
:102A60002A0782E090E0A0E0B0E080932B079093EB
:102A70002C07A0932D07B0932E07109242071092B7
:102A80004C0710924B078BE194E090934A07809398
:102A9000490710924E0708959FB7F8942091C30AF2
:102AA0008091C10A213019F48DBB9FBF08958FBF5B
:102AB00008952091C30A222399F03FB7F8942091FA
:102AC000C30A213059F42DB32093C10A4DB320918C
:102AD000C20A209524232DBB3FBF02C03093C10AF8
:102AE0008CBD9DBD08958EBD00000DB407FEFDCFC9
:102AF0008EB508958FEF0C94731561E0FC0184810D
:102B00000E946E4480916807882339F0109268070C
:102B10008091C30A81110C944C150895CF93DF93D3
:102B2000EC0180916807811109C081E080936807FA
:102B30008091690790916A070E94591560E08C8125
:102B4000DF91CF910C946E44CF93DF93EC018E8193
:102B5000882389F08F8198859C012F5F3F4F3887AC
:102B60002F838230924018F40E947A15F3CFCE0161
:102B70000E947D151E82DF91CF9108950F931F93C0
:102B8000CF93DF93EB010E941E438B010E947A15C5
:102B90008F3F49F00E941E43601B710B6C177D072D
:102BA000A8F380E001C081E0DF91CF911F910F91E8
:102BB0000895CF92DF92FF920F931F93CF93DF93ED
:102BC00000D01F92CDB7DEB76C01F62E29833A8371
:102BD0004B835C830E94A415C6010E948E156CE293
:102BE00071E0C6010E94BE158F2D80640E9473158E
:102BF00008E110E05C814B813A812981DA01C90149
:102C0000002E04C0B695A795979587950A94D2F79C
:102C100029833A834B835C830E9473150850110902
:102C200029813A814B815C81083F8FEF180731F78A
:102C3000FF2029F0E8E0FE1621F08FEF03C085E9C0
:102C400001C087E80E94731510E00E947A15F60112
:102C5000828787FF04C01F3F11F01F5FF6CF0F90E0
:102C60000F900F900F90DF91CF911F910F91FF90D8
:102C7000DF90CF9008950F931F93CF93DF93EC01D4
:102C80000E941E438B010E947A158A878F3F49F468
:102C90000E941E43601B710B6D327140A0F38FE0E8
:102CA00003C08E3F39F08DE08D83CE010E947D15EB
:102CB00080E001C081E0DF91CF911F910F910895D5
:102CC000CF92DF92EF92FF920F931F93CF93DF93F8
:102CD000EC0169010115110509F462C0C801820FF8
:102CE000931F8130924008F05DC08E81882371F07F
:102CF00088819981AA81BB81481759076A077B0798
:102D000029F48F819885C816D90610F54883598310
:102D10006A837B838B85833039F039E0440F551FFC
:102D2000661F771F3A95D1F79A01AB0161E1CE0199
:102D30000E94D915882319F083E08D8333C0CE011A
:102D40000E943B16882371F118861F8281E08E83D2
:102D50008F8198858C159D0540F40E947A158F818E
:102D60009885019698878F83F3CF6701E00EF11E57
:102D7000CE14DF0431F00E947A15F60181936F01C1
:102D8000F7CF8F819885800F911F98878F83298532
:102D9000222319F08115924018F0CE010E94A4154B
:102DA00081E004C0CE010E947D1580E0DF91CF91CB
:102DB0001F910F91FF90EF90DF90CF900895EF92C9
:102DC000FF920F931F93790100E012E020E030E0C2
:102DD0000E9460161F910F91FF90EF900895CF927F
:102DE000DF92EF92FF920F931F93CF93DF931F9287
:102DF0001F92CDB7DEB78C01862F49835A830E947C
:102E000073154981C42E5A81D52EE12CF12CF6017F
:102E100081916F010E947315FFEFEF1AFF0AE11411
:102E200082E0F806A1F78FEF0E9473158FEF0E94E2
:102E300073150E947A15F80182878F71853039F0F9
:102E400081E18583C8010E947D1580E001C081E099
:102E50000F900F90DF91CF911F910F91FF90EF9006
:102E6000DF90CF9008950F931F93CF93DF93EC01E2
:102E70008901411551056105710511F482E132C0E6
:102E80008B85833039F089E0440F551F661F771F0B
:102E90008A95D1F79A01AB0168E1CE010E94D9155C
:102EA000882311F084E01EC0A8016EEFCE010E94BD
:102EB000EF168823C1F068E572E0CE010E94BE15CE
:102EC000811102C085E10EC020E030E0A9016DE073
:102ED000CE010E94D915811104C00E947A15882361
:102EE00039F084E18D83CE010E947D1580E004C01D
:102EF000CE010E947D1581E0DF91CF911F910F914E
:102F0000089580E58093690710926A070895CF932A
:102F1000DF93EC019C012A5F3F4F41E050E060E00D
:102F200070E08B8D9C8D0E94D3208823A1F04F8967
:102F3000588D698D7A8D452B462B472B71F44E8128
:102F40005F81688579854F8B588F698F7A8F8C81E7
:102F500080688C8302C080E001C081E0DF91CF9166
:102F60000895CF92DF92EF92FF921F93CF93DF935A
:102F7000EC010E948717811102C080E04BC0EB8DED
:102F8000FC8DCE80DF80E884F98482E0C81AD10805
:102F9000E108F108058404C0CC0CDD1CEE1CFF1C0C
:102FA0000A94D2F74685578560897189C40ED51E6B
:102FB000E61EF71E148181E0C81AD108E108F10865
:102FC000112361F0C701B601610F711D811D911DB3
:102FD0000E941D1F882389F21150F2CFEB8DFC8DCA
:102FE000C12C82E0D82EE12CF12C058404C0CC0C3D
:102FF000DD1CEE1CFF1C0A94D2F74B895C896D899D
:103000007E894C0D5D1D6E1D7F1D4B8B5C8B6D8B0A
:103010007E8B81E0DF91CF911F91FF90EF90DF9049
:10302000CF900895CF93DF93EC01462F6E857F8577
:10303000888999890E94E21E882341F08A8920E2CA
:10304000829FC00111248C58984F02C080E090E00C
:10305000DF91CF910895282FFB018BE030E231936F
:103060008150E9F7A22FB92F20E037E09D919923F5
:1030700019F19E3219F0ECEBF3E008C03A3011F18F
:1030800028E03AE0F3CF31964917E1F0449141113D
:10309000FACF3217B8F04FED490F4E3598F441E0B2
:1030A000420FFB01E20FF11D2FE9290F2A3108F42D
:1030B00090529083242FDACF81E0FB0190819032EF
:1030C00009F480E008952F923F924F925F926F92A1
:1030D0007F928F929F92AF92BF92CF92DF92EF92A8
:1030E000FF920F931F93CF93DF93EC016B015A0173
:1030F0008D81811103C08FEF9FEFDAC08C8180FF3B
:10310000FACF4B895C896D897E898A859B85AC85E0
:10311000BD852501612C712C8A019B01081B190BAF
:103120002A0B3B0B041515052605370518F45A0123
:10313000A81AB90A25011E0126E0220E311C4114ED
:10314000510409F47BC04A855B856C857D854A0105
:1031500081E09822ED818A019B01F9E0369527955F
:1031600017950795FA95D1F78B8D9C8DE23051F428
:10317000FC01628D738D848D958D600F711F821F90
:10318000931F3EC0FC0174807A94702281149104D4
:10319000C9F4711017C0452B462B472B49F48F8972
:1031A000988DA98DBA8D8E839F83A887B9870AC011
:1031B0004E815F816885798591010E94431F882334
:1031C00009F499CFEB8DFC8D6E817F81888599857F
:1031D0006250710981099109058404C0660F771F47
:1031E000881F991F0A94D2F706851785208931898F
:1031F000600F711F821F931F670D711D811D911D2F
:1032000020E032E02819390932012415350508F487
:1032100039012C8126FD04C06114F2E07F06A1F57E
:1032200000911002109111022091120230911302AC
:10323000601771078207930719F426C0C50138C0CB
:10324000760183019401AB01BC01809172079091DA
:1032500073070E946016882309F44DCFC60CD71C53
:1032600004C0E81BF90BCE0EDF1E8A859B85AC855A
:10327000BD85860D971DA11DB11D8A879B87AC87D3
:10328000BD87461857085BCF40E00E94E21E8823A6
:1032900009F431CFC4018C58984FD6019C01260DFA
:1032A000371DFC01E217F307E1F241914D93FACF8C
:1032B000DF91CF911F910F91FF90EF90DF90CF9012
:1032C000BF90AF909F908F907F906F905F904F9046
:1032D0003F902F900895FF920F931F93CF93DF930A
:1032E0001F92CDB7DEB78C01FC018581823018F4C6
:1032F00080E090E034C0F80142855385648575858F
:10330000A5E07695679557954795AA95D1F7F42F3F
:10331000FF70FF2E41E050E0BE016F5F7F4FC8019C
:103320000E946318019719F4298130E002C02FEF41
:103330003FEF2F3F3F4FE1F2F8014285538564850F
:103340007585415E5F4F6F4F7F4F4287538764871C
:103350007587F0E2FF9EC00111248C58984F0F90A2
:10336000DF91CF911F910F91FF9008954F925F923F
:103370006F927F92AF92BF92CF92DF92EF92FF92C5
:103380000F931F93CF93DF93EC016A017B012D8193
:10339000222309F457C08B899C89AD89BE89841783
:1033A0009507A607B70708F44DC04EC08A859B85D0
:1033B000AC85BD85EB8DFC8DE585F0E03996AC01E3
:1033C000BD0141505109610971090E2E04C0769565
:1033D0006795579547950A94D2F797018601015052
:1033E00011092109310904C03695279517950795CC
:1033F000EA95D2F70417150726073707B0F58F8926
:10340000988DA98DBA8D8E839F83A887B98728014F
:1034100039015E0186E0A80EB11C4114510461041B
:10342000710461F14E815F816885798595018B8D8D
:103430009C8D0E94431F91E0491A51086108710850
:103440008111EBCF80E01FC02230C1F0C114D10444
:10345000E104F10409F0AACF1E821F8218861986A2
:103460001A861B861C861D860DC0892B8A2B8B2BEA
:1034700031F2041B150B260B370BC9CFCA86DB862E
:10348000EC86FD8681E0DF91CF911F910F91FF9037
:10349000EF90DF90CF90BF90AF907F906F905F9054
:1034A0004F9008950F931F93CF93DF93EC018D817D
:1034B0008823C9F18C8187FF30C061E0CE010E9472
:1034C00012188C01009779F18D81823048F44B8974
:1034D0005C896D897E89F801448F558F668F778F5F
:1034E0004F89588D698D7A8DF801538F428F758B76
:1034F000648BE0916B07F0916C07309759F0B8013D
:103500006A5E7F4FC80148961995F801808D918DAC
:10351000938B828B8C818F778C83DF91CF911F91DE
:103520000F910C94A71E80E0DF91CF911F910F9116
:103530000895CF93DF93EC010E94521A882319F06B
:103540001D8281E001C080E0DF91CF9108954F920C
:103550005F926F927F92AF92BF92CF92DF92EF9283
:10356000FF920F931F93CF93DF9300D01F92CDB79D
:10357000DEB75C016A017B01FC0185818130F1F4D9
:10358000848181FF1BC0F50183899489A589B6894F
:1035900084179507A607B70788F0892B8A2B8B2BF2
:1035A00009F479C0F5014284538464847584B701B9
:1035B000A601C5010E94B619811102C080E06CC04D
:1035C000F501838D948DC114D104E104F10471F4EB
:1035D0004789508D618D728D0E94E821882371F397
:1035E000F501178A108E118E128E3AC0F5014681B0
:1035F0005781608571859E012F5F3F4F0E94431F59
:103600008823E1F249815A816B817C81F501838DA8
:10361000948DFC012789203129F408EF1FEF20E069
:1036200030E004C008EF1FEF2FEF3FE040175107D5
:1036300062077307A8F40E94E821882309F4BECF2B
:10364000F50146815781608571850FEF1FEF2FEFE0
:103650003FE0838D948D0E943220882309F4AECF01
:10366000F501C38AD48AE58AF68A848180688483D6
:10367000C5010E94521A882309F4A0CFB701A60100
:103680004C145D046E047F0410F4B301A201C50163
:103690000E94B61901C081E00F900F900F900F901B
:1036A000DF91CF911F910F91FF90EF90DF90CF901E
:1036B000BF90AF907F906F905F904F900895FF9272
:1036C0000F931F93CF93DF93EC01F42E80E2689F5A
:1036D000F0011124EC58F84F8385817129F0842F73
:1036E000827411F080E053C06A8B80911002909137
:1036F0001102A0911202B09113028E879F87A88BAE
:10370000B98B4489558960E070E0BA015527442798
:10371000028D138D20E030E0402B512B622B732B58
:103720004F8B588F698F7A8F8385887151F4048D00
:10373000158D268D378D0B8B1C8B2D8B3E8B81E051
:103740000CC0803179F69E012D5E3F4F8B8D9C8D94
:103750000E94C71F882331F284E08D838F2D8F70E4
:103760008C831E821F82188619861A861B861C86E9
:103770001D86F6FE0BC040E050E0BA01CE01DF919D
:10378000CF911F910F91FF900C94A71A81E0DF91C8
:10379000CF911F910F91FF900895AF92BF92CF925A
:1037A000DF92EF92FF920F931F93CF93DF93CDB7EA
:1037B000DEB72B970FB6F894DEBF0FBECDBF7C01EE
:1037C0006B01CA01B22EF70125812111B9C0BE01DA
:1037D0006F5F7F4F0E942B18882309F4B1C0F60158
:1037E000838D948DF701948F838FF6011682178253
:1037F000108611861286138614861586A12CF60172
:10380000028513852485358583899489A589B689A0
:10381000081719072A073B07E8F545E0369527956D
:10382000179507954A95D1F70F70C6010E946B193D
:10383000009709F485C0FC012081222311F0253E68
:10384000B9F4A1100EC0F701028B40911002509103
:103850001102609112027091130246875787608BA4
:10386000718BFC018081AA24A3948111C8CF12C05E
:103870004BE050E0BC01CE0101960E947955892BA6
:1038800009F0BDCF8B2D8073803309F459C04B2DC7
:10389000602F52C08B2D8271823109F051C0AA2055
:1038A00041F061E0C7010E9412188C01009779F481
:1038B00047C0F6018581823009F442C0C6010E94EA
:1038C000B1178823E9F1F701128A04E717E080E2D3
:1038D000F80111928A95E9F78BE0FE013196D80143
:1038E00001900D928A95E1F7E0916B07F0916C07DA
:1038F000309739F0B801625F7F4FC8014096199543
:1039000009C081E298E2F801918B808B80E098E019
:1039100097878687F80180899189938B828B918F15
:10392000808F86859785978B868B0E94A71E88231C
:1039300039F04B2DF7016289C7010E945F1B01C05E
:1039400080E02B960FB6F894DEBF0FBECDBFDF919F
:10395000CF911F910F91FF90EF90DF90CF90BF908C
:10396000AF900895CF93DF93EC0140E050E0BA01AF
:103970000E94A71A882371F061E0CE010E941218FC
:10398000009741F025EEFC0120831D82DF91CF914D
:103990000C94A71E80E0DF91CF910895CF93DF9321
:1039A000CDB7DEB76D970FB6F894DEBF0FBECDBFB3
:1039B000AB011C821B822BE134E03A8329831E82F7
:1039C00022E0BC01CE0101960E94CD1B882329F084
:1039D000CE0101960E94B21C01C080E06D960FB628
:1039E000F894DEBF0FBECDBFDF91CF9108952F9227
:1039F0003F924F925F926F927F928F929F92AF927F
:103A0000BF92CF92DF92EF92FF920F931F93CF93CB
:103A1000DF9300D01F921F92CDB7DEB78C017B01E0
:103A20003A01DC0115968C9115978130C9F41496F2
:103A30008C9181FF15C082FF1BC0F8014389548916
:103A40006589768982859385A485B58584179507D0
:103A5000A607B70769F0C8010E94B619811108C00E
:103A600081E090E0F8019383828380E090E046C19A
:103A7000630180C0D8015B968D919C915C97FC019D
:103A8000F481F150B501A40129E076956795579529
:103A900047952A95D1F7F423FD8321E09222FF2355
:103AA00009F474C080E092E08819990956018C15D8
:103AB0009D0508F45C01D8015B96ED91FC915C9743
:103AC00016962D903D904D905C901997B2E02B1A70
:103AD000310841085108058404C0220C331C441CE1
:103AE000551C0A94D2F786859785A089B189280E3E
:103AF000391E4A1E5B1EED812E0E311C411C511CCD
:103B0000A114F2E0BF0609F088C0809110029091E4
:103B10001102A0911202B091130282159305A4051F
:103B2000B50559F48FEF9FEFDC018093100290935D
:103B30001102A0931202B09313029701B201A101E6
:103B400080917207909173070E943317882309F4BC
:103B500087CF9EEFF91ACA18DB08F8018285938592
:103B6000A485B5858A0D9B1DA11DB11D82879387F4
:103B7000A487B587D8011A968D909D90AD90BC9082
:103B80001D97C114D10409F075CF8AC08114910426
:103B900009F088CF16964D915D916D917C911997A2
:103BA000411551056105710559F457968D919D9107
:103BB0000D90BC91A02D0097A105B10541F521C044
:103BC0009E012F5F3F4F0E94431F882309F44ECF71
:103BD00089819A81AB81BC81F801238D348DF901F3
:103BE0002789203129F448EF5FEF60E070E004C0DE
:103BF00048EF5FEF6FEF7FE084179507A607B707E1
:103C000030F0C8010E94871781114CCF29CFF801ED
:103C100086839783A087B18745CF8114910429F5C6
:103C2000D8011A964D915D916D917C911D97539697
:103C30008D919D910D90BC91A02D481759076A0751
:103C40007B0798F00E94A71E882309F409CF2092D1
:103C5000100230921102409212025092130280918F
:103C6000710781608093710708C041E0C201B10112
:103C70000E94E21E882309F4F3CEC4018C58984FA9
:103C8000D7019C012A0D3B1DFC01E217F30719F037
:103C90004D914193FACFE81BF90BEE0EFF1E5BCF5F
:103CA00053968D919D910D90BC91A02DF80124818A
:103CB00088159905AA05BB0538F4838A948AA58AD4
:103CC000B68A206824830CC080916B0790916C07A2
:103CD000892B31F06114710419F02068F8012483F4
:103CE000D80114968C9183FD02C0C30107C0C8019E
:103CF0000E94521A882309F4B3CEF7CF0F900F9089
:103D00000F900F900F90DF91CF911F910F91FF9027
:103D1000EF90DF90CF90BF90AF909F908F907F906B
:103D20006F905F904F903F902F900895CF93DF93C7
:103D30001F92CDB7DEB7698341E050E0BE016F5FEF
:103D40007F4F0E94F71C0F90DF91CF9108958091D3
:103D50007107882399F140911002509111026091EE
:103D600012027091130224E737E08091720790915C
:103D700073070E943317882319F140916D07509102
:103D80006E0760916F0770917007411551056105CD
:103D9000710591F024E737E08091720790917307E5
:103DA0000E943317882361F010926D0710926E07FE
:103DB00010926F07109270071092710781E00895BA
:103DC00080E00895CF92DF92EF92FF92CF936B0144
:103DD0007C01C42F8091100290911102A0911202D7
:103DE000B09113028C159D05AE05BF05D1F00E9460
:103DF000A71E811102C080E01AC024E737E0B70196
:103E0000A60180917207909173070E94DF168823A4
:103E100091F3C0921002D0921102E0921202F0923D
:103E20001302809171078C2B8093710781E0CF91F1
:103E3000FF90EF90DF90CF900895CF92DF92EF92B6
:103E4000FF926B017C010E94A71E8823B1F0E4E77A
:103E5000F7E0119289E0E437F807D9F7C092100231
:103E6000D0921102E0921202F09213028091710737
:103E700081608093710781E001C080E0FF90EF9046
:103E8000DF90CF9008958F929F92AF92BF92CF9282
:103E9000DF92EF92FF920F931F93CF93DF938C01EA
:103EA0006A017B01E901FC0181859285A385B485C6
:103EB0000196A11DB11D84179507A607B70710F439
:103EC00080E058C0F80143895489658976898789DB
:103ED000803129F4BB27AF2D9E2D8D2D09C0D70130
:103EE000C60127E0B695A795979587952A95D1F7AE
:103EF0004C015D01840E951EA61EB71EC501B401BE
:103F00008090100290901102A0901202B0901302C3
:103F1000681579058A059B0589F4F8018789803140
:103F200099F4DD24EE24FF24F601EE0FFF1FEC5878
:103F3000F84F80819181A0E0B0E017C040E00E947E
:103F4000E21E8111EACFBCCFE894C7F8DD24EE244D
:103F5000FF24F601EE0FFF1FEE0FFF1FEC58F84F86
:103F600080819181A281B381BF7088839983AA8364
:103F7000BB8381E0DF91CF911F910F91FF90EF9074
:103F8000DF90CF90BF90AF909F908F9008954F9209
:103F90005F926F927F92AF92BF92CF92DF92EF9239
:103FA000FF920F931F93CF93DF9300D01F92CDB753
:103FB000DEB78C0149835A836B837C835901C12C02
:103FC000D12C7601412C42E0542E612C712C498178
:103FD0005A816B817C819E012F5F3F4FC8010E94F7
:103FE000431F882359F1D301C201F801058404C09D
:103FF000880F991FAA1FBB1F0A94D2F7C80ED91E9B
:10400000EA1EFB1E49815A816B817C818789803140
:1040100029F488EF9FEFA0E0B0E004C088EF9FEFA5
:10402000AFEFBFE0481759076A077B0780F2F50139
:10403000C082D182E282F38281E001C080E00F90F1
:104040000F900F900F90DF91CF911F910F91FF90E4
:10405000EF90DF90CF90BF90AF907F906F905F9088
:104060004F9008954F925F926F927F928F929F929E
:10407000AF92BF92CF92DF92EF92FF920F931F9376
:10408000CF93DF93EC016A017B01280139014230B3
:1040900051056105710508F474C049855A856B8521
:1040A0007C854F5F5F4F6F4F7F4F4C155D056E05F1
:1040B0007F0508F466C08B889C88AD88BE888F8990
:1040C000803129F477276F2D5E2D4D2D09C0B70162
:1040D000A601E7E07695679557954795EA95D1F75C
:1040E000840E951EA61EB71E40911002509111021B
:1040F000609112027091130284169506A606B70607
:1041000071F48F89803199F4DD24EE24FF24F601C7
:10411000EE0FFF1FEC58F84F5182408218C040E06C
:10412000C501B4010E94E21E8111EBCF2AC0E894C0
:10413000C7F8DD24EE24FF24F601EE0FFF1FEE0F7B
:10414000FF1FEC58F84F4082518262827382809147
:1041500071078160809371078A89823080F08D8138
:104160009E81AF81B885880D991DAA1DBB1D8093C6
:104170006D0790936E07A0936F07B093700781E06F
:1041800001C080E0DF91CF911F910F91FF90EF90E0
:10419000DF90CF90BF90AF909F908F907F906F9067
:1041A0005F904F9008952F923F924F925F926F923F
:1041B0007F929F92AF92BF92CF92DF92EF92FF9247
:1041C0000F931F93CF93DF93CDB7DEB760970FB6F2
:1041D000F894DEBF0FBECDBF5C014D875E876F8751
:1041E000788B1901D9014D905D906D907C904114B0
:1041F00051046104710431F0BFEF4B1A5B0A6B0A82
:104200007B0A10C0FC014080518062807380992439
:1042100093940D851E852F85388901301105210560
:10422000310509F0912CD50119962D913D914D91B3
:104230005C911C972F5F3F4F4F4F5F4F29873A8705
:104240004B875C87730162011D821E821F82188664
:10425000F50181859285A385B4850D811E812F810D
:104260003885081719072A073B0708F056C0298523
:104270003A854B855C852C153D054E055F0550F450
:10428000A2E0CA2ED12CE12CF12CB2E04B2E512C05
:10429000612C712C9E012F5F3F4FB701A601C50114
:1042A0000E94431F8823C9F149815A816B817C8117
:1042B000D701C6010196A11DB11D452B462B472BE9
:1042C00019F02C013D010FC0AC01BD014419550985
:1042D000660977090D851E852F8538894017510796
:1042E0006207730779F02D813E814F8158852F5FDA
:1042F0003F4F4F4F5F4F2D833E834F8358876C0155
:104300007D01A6CF0FEF1FEF2FEF3FE0B701A60112
:10431000C5010E943220811118C080E041C0D70140
:10432000C6010197A109B1098D839E83AF83B88728
:1043300097018601AC01BD01C5010E94322088238E
:1043400061F3CD80DE80EF80F8844C145D046E0450
:104350007F0428F3D1014D915D916D917C914115C0
:1043600051056105710599F4F10140825182628223
:1043700073829920A1F0FFEF4F1A5F0A6F0A7F0A3C
:10438000D5014D925D926D927C92139708C0930176
:104390008201C5010E9432208111E6CFBECF81E0AB
:1043A00060960FB6F894DEBF0FBECDBFDF91CF9100
:1043B0001F910F91FF90EF90DF90CF90BF90AF9043
:1043C0009F907F906F905F904F903F902F900895B7
:1043D000AF92BF92CF92DF92EF92FF920F931F9313
:1043E000CF93DF9300D01F92CDB7DEB75C016A0197
:1043F0007B0182E090E0A0E0B0E0F5018083918352
:10440000A283B3839E012F5F3F4FB701A601C50171
:104410000E94431F882311F100E010E09801B701CA
:10442000A601C5010E9432208823C1F0C980DA802C
:10443000EB80FC80F5018789803129F488EF9FEFBC
:10444000A0E0B0E004C088EF9FEFAFEFBFE0C81678
:10445000D906EA06FB06B0F281E001C080E00F90C9
:104460000F900F900F90DF91CF911F910F91FF90C0
:10447000EF90DF90CF90BF90AF900895FC01108235
:104480001182738362830895FC0181818F5F8F772E
:104490009081891779F09181DF01A90FB11D1496E0
:1044A0006C93DF01A80FB11D14961C92818381E0EB
:1044B00090E0089580E090E00895FC019081818172
:1044C000981759F08081DF01A80FB11D14968C91C7
:1044D00090819F5F9F779083089580E00895FC010D
:1044E00091818081891718F48181908103C0818135
:1044F00090818058891B90E0681779072CF480819F
:10450000E80FF11D8481089580E00895FC01218168
:1045100020830895DF92EF92FF920F931F93CF9322
:10452000DF93FB0150815523A1F1D12CE0E0F0E0B5
:1045300034C0DD20D1F1A0E0D12CE0E0F0E05F5FFD
:104540005F77AA2341F1521731F1DC01A50FB11DAC
:104550001496CC91D0E0DB01AE0FBF1FAC91BB270E
:10456000A7FDB095CA17DB0721F7D11001C0352F81
:104570003196DB01AE0FBF1FAC91A11112C0011526
:10458000110511F0F8013083E114F10411F0F70185
:10459000508381E00DC04F5F4F77421741F0542F99
:1045A000D4CFA1E0DD24D394CACFA1E0C8CF80E06E
:1045B000DF91CF911F910F91FF90EF90DF900895C1
:1045C000EF92FF920F931F93FC0121814081E12C18
:1045D000F12C00E010E00E948A221F910F91FF90C1
:1045E000EF900895AF92BF92CF92DF92EF92FF9239
:1045F0000F931F93CF93DF931F921F92CDB7DEB718
:104600006C01B42EA22EFC0121814081CE010196C5
:104610007C018E010E5F1F4FC6010E948A228823F3
:10462000B9F0AA2051F0BB2021F089818F5F8F77EC
:1046300001C08A81F601808307C0BB2039F08981DF
:104640008F5F8F77F601818381E003C08A81FACF83
:1046500080E00F900F90DF91CF911F910F91FF900D
:10466000EF90DF90CF90BF90AF9008958F929F9280
:10467000AF92BF92CF92DF92EF92FF920F931F9370
:10468000CF93DF931F921F92CDB7DEB76C014A0123
:104690005901FC0121814081CE0102967C0100E09C
:1046A00010E0C6010E948A22811102C080E02AC067
:1046B0004A814F5F4A83F6012181E12CF12C8E0162
:1046C0000F5F1F4FB401C6010E948A22882371F335
:1046D0009A8169816F7770E0F501AF014A195B0932
:1046E000292F30E02617370749F0D601A20FB31F54
:1046F00014962C9121939F5F9F77EFCFF501E40FE4
:10470000F51F10820F900F90DF91CF911F910F91A5
:10471000FF90EF90DF90CF90BF90AF909F908F90E1
:104720000895FC0120812F5F50E030E080E090E0B0
:104730006AE04181241709F1DF01A20FB11D14962F
:104740004C91403219F4311105C014C04D3211F4AE
:10475000332371F030ED340F3A3078F4DC016A9F86
:10476000C0016B9F900D1124840F911DC09701C053
:1047700051E031E02F5F2F77DCCF552319F0919571
:10478000819591090895CF93C82F80EE8C0F8F35B6
:1047900010F46C2F0DC065E284E19BE00E94034998
:1047A0004AE050E06C2F84E19BE00E942E4A65E2D3
:1047B00084E19BE0CF910C9403490F931F93CF9317
:1047C000DF93EC011881098184E19BE00E94144988
:1047D0004AE050E0612F84E19BE00E942E4A6BEC9E
:1047E00072E084E19BE00E9401494AE050E0602FC2
:1047F00084E19BE00E942E4A6EE384E19BE00E94EC
:104800000349101749F0FE01E10FF11D84810E9458
:10481000C3231F5F1F77F5CF84E19BE0DF91CF912A
:104820001F910F910C9414490F9300E020E040E099
:1048300060E086E799E00E947F480F9108950F930A
:1048400000E020E040E060E08BE899E00E947F48D3
:104850008CE799E00F910C9447250F9300E020E03E
:1048600040E060E081E999E00E947F480F9108955F
:104870000F9300E020E040E060E087E999E00E94CB
:104880007F480F9108950F9300E020E040E060E042
:104890008FE999E00E947F4810929E0910929D092D
:1048A0000F9108950F9300E020E040E060E08BEA74
:1048B00099E00E947F4887EA99E00F910C943E2985
:1048C0000F9300E020E040E060E085EB99E00E947B
:1048D0007F480F91089580E008950F9300E020E055
:1048E00040E060E08BEB99E00E947F480F910895D3
:1048F00083ED99E00E9464288091DD0990E008959D
:10490000FB01DA0184918D9331968111FBCF0895DB
:1049100080E090E0089580E090E008950F931F9369
:10492000CF93DF93D901EB010A811B812C813D815B
:10493000FC0101871287238734871092DA091092CD
:10494000D9090190F081E02D0484F585E02D9D01C9
:1049500060E070E0DF91CF911F910F91199408955D
:10496000089580E090E00895089581E02091E409A1
:104970003091E5092530310509F080E0089503966E
:104980000C9478248091E4099091E509059721F42D
:1049900085ED99E00C94034908958091E409909184
:1049A000E509059721F485ED99E00C9401490895F6
:1049B0008091E4099091E509059731F064E070E099
:1049C00083ED99E00E94D6278091060A9091050A0E
:1049D000891B8F7719F061E070E002C064E070E03D
:1049E00083ED99E00E94D6278091DD0990E008953B
:1049F000FF920F931F93CF93DF93CDB7DEB72C9722
:104A00000FB6F894DEBF0FBECDBF8C010D5F1F4FF8
:104A1000AE014F5F5F4F6CEC73E0C8010E948024D1
:104A2000FF24F3942091E4093091E5092530310504
:104A300009F0F12C20E040E0BE016F5F7F4F85E080
:104A40009AE00E94F222F82259F024E030E03093FC
:104A5000E5092093E409B80183ED99E00E948827D5
:104A60008F2D2C960FB6F894DEBF0FBECDBFDF9111
:104A7000CF911F910F91FF90089560E070E085E065
:104A80009AE00E946F22992787FD90950895CF9311
:104A9000DF93EC018FE294E09983888389E594E0C9
:104AA0009C838B83CE0107960E947548D09375092D
:104AB000C0937409DF91CF9108950F9300E020E037
:104AC00040E060E081EC99E00E947F480F910895FA
:104AD0000F931F93CF93DF93CDB7DEB72D970FB60C
:104AE000F894DEBF0FBECDBF8C018091DE0982300D
:104AF00001F118F4813041F0BBC0833009F467C084
:104B0000843009F479C0B4C040E063EF73E083ED12
:104B100099E00E94EE27E091D909F091DA093097E7
:104B200009F49AC0808180538A3008F495C061E30B
:104B300094C020E030E040E050E0BE01635F7F4F72
:104B400083ED99E00E94A927882309F491C08D85FF
:104B50008823D1F140E068EE73E083ED99E00E9494
:104B6000EE276FE174E085ED99E00E9401496091C4
:104B7000D9097091DA096115710529F085ED99E07F
:104B80000E94014906C065ED79E0C80107960E94C0
:104B90003B4862E285ED99E00E9403496CE285EDB5
:104BA00099E00E9403496091DB097091DC094AE0B9
:104BB00050E085ED99E00E94014A6DE085ED99E0B5
:104BC0000E94034983E015C063E070E040C020E02C
:104BD00030E040E050E0BE01635F7F4F83ED99E03D
:104BE0000E94A927882309F443C08D85882361F397
:104BF00084E08093DE093CC0AE014F5F5F4F6EEDF5
:104C000073E0C80103960E94802420E030E0AE01EA
:104C10004F5F5F4FBE01635F7F4F83ED99E00E945E
:104C2000A927882329F18D85882371F285E090E0FA
:104C30009093E5098093E40921E041E0BE016F5FB4
:104C40007F4F85E09AE00E94F22261E070E083ED00
:104C500099E00E94D6270CC060E385ED99E00E94A0
:104C600003496DE085ED99E00E94034982E0C1CFE0
:104C70002D960FB6F894DEBF0FBECDBFDF91CF915A
:104C80001F910F9108950F931F93CF93DF93EC0122
:104C90005093DC094093DB093E872D877093DA0936
:104CA0006093D9098C010D5F1F4F4EE050E0B801B1
:104CB00083ED99E00E947C28B80183ED99E00E9481
:104CC0006A27CE010E9468258091DD0990E0DF917E
:104CD000CF911F910F910895CF93DF93EC0123960D
:104CE0004FE050E0BE0183ED99E00E947C2868EE21
:104CF00073E080E090E00E944D4367E274E085ED50
:104D000099E00E94014968EE73E080E090E00E9423
:104D10004D4341E063ED73E083ED99E00E94EE279F
:104D200084E090E09093E5098093E40985E09AE0BF
:104D30000E94862282EF99E00E94372F64E670E09D
:104D400080E090E00E944D4361E070E083ED99E0E7
:104D50000E94D6278091060A9091050A891B8F77B9
:104D600029F7BE0183ED99E00E9488278091DD0933
:104D700090E0DF91CF910895CF938091050A9091B3
:104D8000060A8150891B8F77B9F085E09AE00E946E
:104D90005D22C82F9091050A8091060A9150981BB8
:104DA0009F77943621F482EF99E00E94372F8C2F61
:104DB000992787FD909502C080E090E0CF910895FB
:104DC0008091060A9091050A891B8F7741F085E052
:104DD0009AE00E94862282EF99E00C94372F61E0DE
:104DE00070E083ED99E00C94D6272091DF09309193
:104DF000E0092E30310549F02331310541F02130F1
:104E0000310539F46093060A08950C9468250C94D2
:104E1000E0260895CF93DF93EC01BC016D5F7F4FD7
:104E200043E150E083ED99E00E947C28CE01DF91C0
:104E3000CF910C94E02603970C94F82403970C94DC
:104E4000F5260F9300E020E040E060E087EC99E079
:104E50000E947F480F9108950F9300E020E040E00A
:104E600060E08DEC99E00E947F480F910895CF9209
:104E7000DF92FF920F931F93CF93DF931F92CDB7D3
:104E8000DEB78C016B01F601F490FF2059F0D801D8
:104E9000ED91FC910280F381E02D6F2DC8014983D3
:104EA00019954981BFEFCB1ADB0AF110ECCF4423EF
:104EB00031F068E974E0C80102960E94014981E07E
:104EC00090E00F90DF91CF911F910F91FF90DF90B5
:104ED000CF900895FC0183899489892B59F08589A5
:104EE0009689892B51F08789908D892B81F4A2E0D6
:104EF000B0E005C0A0E0B0E002C0A1E0B0E0AA0FC1
:104F0000BB1FAE0FBF1F54967C936E9353970895AB
:104F1000FC01838994898617970769F085899689AA
:104F20008617970759F08789908D8617970781F420
:104F3000A2E0B0E005C0A0E0B0E002C0A1E0B0E0B7
:104F4000AA0FBB1FAE0FBF1F54961C921E92539701
:104F50000895EF92FF920F931F93CF93DF938B01EE
:104F6000E9014115510531F4209721F440911402D3
:104F7000509115027C0122E3E20EF11CBA01C70137
:104F80000E94E022F8018083811108C0209731F04F
:104F9000BE01C7010E94E022F801808381E0DF9119
:104FA000CF911F910F91FF90EF900895FC01613018
:104FB000710531F08091DF099091E009029749F085
:104FC000628781E090E095878487128E118E8387B7
:104FD00008951092E5091092E409F2CF0F931F9300
:104FE000CF93DF9300D0CDB7DEB78C01C2964B8351
:104FF00069837A830E948622D801ED91FC91048016
:10500000F581E02D4B8169817A81C8010F900F9065
:105010000F90DF91CF911F910F911994CF92DF9252
:10502000FF920F931F93CF93DF931F92CDB7DEB7FD
:105030008C01F62EC12CD12CF801EC0DFD1D8389BD
:105040009489009759F0DC01ED91FC910280F38185
:10505000E02D6F2D49831995498101C080E0B4E0AE
:10506000CB16D10431F0E2E0CE0ED11C882321F31F
:1050700019C0811117C0D80159968D919C915A97EA
:10508000009781F0DC01ED91FC910190F081E02D21
:105090006F2D0F90DF91CF911F910F91FF90DF90B7
:1050A000CF9019940F90DF91CF911F910F91FF90A6
:1050B000DF90CF900895FC012685222319F06787A1
:1050C000408B08950C940E28CF93DF93EC018E85CE
:1050D000882379F09F858889981759F0CE01C29668
:1050E0000E94DD2348896F85CE010E940E281F860D
:1050F000188ADF91CF910895FC01728F618F12861B
:1051000081E08387558744871786108A0895CF9258
:10511000DF92EF92FF920F931F93CF93DF93EC01F7
:105120000E941E436B017C010B8D1C8D2D8D3E8DCD
:10513000601B710B820B930BCB8EDC8EED8EFE8E83
:10514000DF91CF911F910F91FF90EF90DF90CF9063
:105150000895CF93DF93EC011D821C8281E694E0D9
:10516000998388838BE694E09B838A83CE014F9654
:105170000E941030D8A7CFA31F86188A81E08A87A3
:105180001B8681E090E09D878C87CE010E94872856
:105190001C8A1B8A1E8A1D8A188E1F8ADF91CF9156
:1051A000089583ED99E00C94A9280F931F93CF9352
:1051B000DF931F92CDB7DEB78C01FC018685882373
:1051C00029F0862F69830E94C3236981C8014F9605
:1051D0000F90DF91CF911F910F910C943F2F029769
:1051E0000C94D5280F9300E020E040E060E089E8CF
:1051F0009AE00E947F480F9108950F9300E020E00D
:1052000040E060E08FE89AE00E947F480F910895A7
:105210000F9300E020E040E060E085E99AE00E9422
:105220007F480F9108950F9300E020E040E060E098
:105230008BE99AE00E947F480F91089580E090E00A
:10524000089580E090E0089581E02091E409309194
:10525000E5092530310509F080E0089581E02091CD
:10526000E4093091E5092530310509F080E0089521
:1052700080E090E0089502960C94782423E734E0CF
:10528000FC013183208329E834E033832283909327
:10529000A6098093A50908950F931F93CF93DF93D9
:1052A00000D01F92CDB7DEB78C018091DE0982302D
:1052B00099F060F4813009F079C041E060E374E076
:1052C00083ED99E00E94EE2782E034C08330C1F183
:1052D000843009F44EC06AC08DE089838AE08A83F5
:1052E0001B8220E030E0AE014F5F5F4FBE016C5F7C
:1052F0007F4F83ED99E00E94A927882309F456C0C7
:105300008C818823D1F040E06EE174E083ED99E078
:105310000E94EE276091DB097091DC094AE050E0C1
:1053200085ED99E00E94014A6DE085ED99E00E94CB
:10533000034983E08093DE0939C063E070E032C046
:1053400020E030E040E050E0BE016C5F7F4F83ED35
:1053500099E00E94A927882349F18C81882369F369
:1053600041E062E174E083ED99E00E94EE2784E081
:10537000E1CF20E030E040E050E0BE016C5F7F4FC5
:1053800083ED99E00E94A927882381F08C818823EE
:10539000A1F2B8016E5F7F4F83ED99E00E946A270A
:1053A00061E070E083ED99E00E94D6270F900F90A6
:1053B0000F900F90DF91CF911F910F910895209141
:1053C000DF093091E0092130310521F02431310528
:1053D00021F008956093060A08950C944C29CF9308
:1053E000DF93EC017093DC096093DB09BC016E5F15
:1053F0007F4F44E150E083ED99E00E947C28CE018C
:105400000E944C298091DD0990E0DF91CF910895B1
:105410000F931F93CF93DF93CDB7DEB72F970FB6C0
:10542000F894DEBF0FBECDBF8C010E5F1F4FAE01E3
:105430004F5F5F4F69E074E0C8010E948024BE01A5
:105440006F5F7F4F85E09AE00E94E022882331F071
:1054500084E090E09093E5098093E409AE014F5F0A
:105460005F4F6FEF73E0C8010E948024BE016F5F41
:105470007F4F85E09AE00E94E0228823A9F021E096
:1054800041E0BE016F5F7F4F85E09AE00E94F2220B
:1054900082EF99E00E94372F85E090E09093E50934
:1054A0008093E40981E001C080E02F960FB6F89464
:1054B000DEBF0FBECDBFDF91CF911F910F91089539
:1054C00002970C94DF2902970C94082A02960C94F8
:1054D00078240F931F939B018A0143E954E06DE800
:1054E00074E085E09AE00E94362381E090E01F910D
:1054F0000F910895FC012681211109C021E0268326
:1055000041E065E974E085E09AE00E94F22260E003
:1055100070E085E09AE00E946F22992787FD9095C0
:10552000089524EB34E0FC01318320832CEC34E03B
:10553000338322839093B2098093B1090895CF9366
:10554000DF931F92CDB7DEB78091DE09813019F06D
:105550008230D1F032C082E08093DE0940E06BE51A
:1055600074E083ED99E00E94EE276091D909709173
:10557000DA0985ED99E00E94014967E974E085ED5B
:1055800099E00E94014919C020E030E04AE954E066
:10559000BE016F5F7F4F83ED99E00E94A9278823AA
:1055A00061F08981882319F061E070E002C063E056
:1055B00070E083ED99E00E94D6270F90DF91CF91A4
:1055C0000895CF93DF93EC012091E4093091E50930
:1055D000235031092230310518F082E090E013C0E9
:1055E0007093DA096093D909BC016E5F7F4F44E084
:1055F00050E083ED99E00E947C28CE010E949F2A12
:105600008091DD0990E0DF91CF9108950F931F9372
:10561000CF93DF93EC018B018091050A9091060AEC
:105620008150891B8F7791E0853008F090E09F834F
:1056300021E041E06CE974E085E09AE00E94F2220A
:10564000811103C0F801108203C081E0F80180835A
:1056500085E09AE00E9491239D838C8363EA74E045
:1056600085E09AE00E94E0228887198681E0DF9138
:10567000CF911F910F910895CF93DF931F92CDB7D4
:10568000DEB72091DE09213019F0223061F01EC012
:1056900041E064E474E083ED99E00E94EE2782E04B
:1056A0008093DE0913C0BE016F5F7F4F0E94062BFF
:1056B000882361F08981811103C064E070E002C039
:1056C00061E070E083ED99E00E94D6270F90DF91B2
:1056D000CF910895CF93DF93EC011E82BC016E5FE2
:1056E0007F4F46E050E083ED99E00E947C28CE0198
:1056F0000E943C2B8091DD0990E0DF91CF910895CD
:105700000F931F93CF93DF931F92CDB7DEB78C011A
:105710008091DE09813019F08230D9F033C082E007
:105720008093DE0940E06BE374E083ED99E00E9432
:10573000EE27F801648175814AE050E085ED99E03B
:105740000E94014A68E974E085ED99E00E940149F0
:1057500019C020E030E040E050E0BE016F5F7F4FB5
:1057600083ED99E00E94A927882361F0898188232D
:1057700019F061E070E002C063E070E083ED99E051
:105780000E94D6270F90DF91CF911F910F9108951E
:1057900083ED99E00C94D528CF93DF931F92CDB77A
:1057A000DEB78091DE09813019F0823081F028C0A7
:1057B00082E08093DE096AE183ED99E00E94D528BA
:1057C00068E974E085ED99E00E94014919C020E084
:1057D00030E040E050E0BE016F5F7F4F83ED99E025
:1057E0000E94A927882361F08981882319F061E04C
:1057F00070E002C063E070E083ED99E00E94D6277C
:105800000F90DF91CF910895CF93DF93EC01BC010E
:105810006E5F7F4F45E050E083ED99E00E947C2869
:10582000CE010E94CC2BE881F9810088F189E02D1E
:10583000CE011995892B39F464E670E080E090E0A0
:105840000E944D43F0CF8091DD0990E0DF91CF9130
:1058500008952091DF093091E00925303105A1F04C
:105860003CF42130310559F02430310559F00895C8
:105870002630310559F02730310551F008956093F5
:10588000060A08950C949F2A0C94CC2B0C943C2B64
:105890000C94802B0F931F93CF93DF93EC018E8199
:1058A00081110AC081E08E8321E041E065E974E066
:1058B00085E09AE00E94F22285E09AE00E945D2253
:1058C000082F8985882341F0198663EA74E085E012
:1058D0009AE00E94E0228887888581112BC08F8101
:1058E000882359F19091050A8091060A9150981BDE
:1058F0009F77112707FD10959F3709F045C085E078
:105900009AE00E9486221F8281E08987BE016E5F35
:105910007F4F40E050E083ED99E00E947C2882EFC9
:1059200099E00E94372F6AE070E080E090E00E94EA
:105930004D432AC063EA74E002C069EA74E085E07E
:105940009AE00E94E02281111AC085E09AE00E944C
:105950008622BE016E5F7F4F40E050E083ED99E00C
:105960000E947C2882EF99E00E94372F6AE070E065
:1059700080E090E00E944D4380E090E006C0802FE0
:10598000992787FD909501C0C801DF91CF911F91A4
:105990000F9108950F931F93CF93DF938C01C5E070
:1059A000D0E085E09AE00E94862282EF99E00E9492
:1059B000372F6AE070E080E090E00E944D4321972D
:1059C00081F7B8016E5F7F4F47E050E083ED99E0CB
:1059D0000E947C28C801DF91CF911F910F910C94F8
:1059E000802B02970C94292CCF93DF93EC01E88154
:1059F000F9810684F785E02D19958E819F81DF91CD
:105A0000CF910895FC0177836683089502960C94E4
:105A10007824BC016E5F7F4F83ED99E00C946A2778
:105A20000F931F93CF93DF93EC018B0140E068E964
:105A300074E083ED99E00E94EE27B80185ED99E0CE
:105A40000E94014960ED74E085ED99E00E940149F2
:105A5000E881F9810484F585E02D61E070E0CE01F4
:105A6000199581E090E0DF91CF911F910F910895FA
:105A7000EF92FF920F931F93CF93DF93CDB7DEB7D3
:105A80002F970FB6F894DEBF0FBECDBF8C017C01FF
:105A900082E0E80EF11CAE014F5F5F4F63E874E0F7
:105AA000C7010E948024BE016F5F7F4F85E09AE0AE
:105AB0000E94E022882349F0D801ED91FC910484F2
:105AC000F585E02D62E070E044C0AE014F5F5F4FAE
:105AD0006CE774E0C7010E948024BE016F5F7F4FB6
