:100000000C9408030C9439030C9439030C943903B1
:100010000C9439030C9439030C9439030C94390370
:100020000C9439030C94DD340C9405350C942D3567
:100030000C9439030C9485510C9439030C943903B6
:100040000C9439030C9439030C9439030C94390340
:100050000C9439030C9439030C9439030C943447F1
:100060000C9439030C94784A0C94AE4A0C943903DE
:100070000C9439030C9439030C9439030C94390310
:100080000C9439030C9439030C9439030C94390300
:100090000C94254B0C945B4B0C9439030C94561127
:1000A0000C9439030C9439030C9439030C943903E0
:1000B0000C9439030C9439030C9439030C943903D0
:1000C0000C9439030C9439030C9439030C943903C0
:1000D0000C9439030C9439030C9439030C943903B0
:1000E0000C9439035A485D484C4850485648944847
:1000F000614865486B486F48734879487D48814836
:10010000944887488B488F480C94D5280C949D12AE
:100110000C94D0300C944C280C948F490C94A13042
:100120000C948A2C0C94743B0C94BC2C0C94B93B0E
:100130000C94872C0C94193B0C94C5270C94B92C67
:100140000C945D480C940B3B0C948B480C947028D9
:100150000C9450480C94772D0C94D02C0C943E3B6E
:100160000C94C12F0C94AB2C0C94A10F0C94E112A5
:100170000C948E3B0C94042A0C948F480C944828C1
:100180000C946B480C94E22F0C941E3B0C94F827B3
:100190000C94FE3C0C948C300C941A210C94350D6C
:1001A0000C94653D0C9473480C9449280C94513B75
:1001B0000C9423280C94F90F0C94692C0C946D3D2D
:1001C0000C946F480C94BE320C949C2F0C94872D89
:1001D0000C946B3B0C9420280C94DB270C94044962
:1001E0000C94952C0C941C3B0C94A90F0C944C482B
:1001F0000C9457280C941D490C9490280C94564844
:100200000C94B1490C94A02C0C94463B0C94D7321E
:100210000C94BF310C9494480C94CF320C94B32AB4
:100220000C9405280C94FE2D0C943E3D0C94D43E69
:100230000C94503D0C94093D0C945A480C94741045
:100240000C94012E0C94B62C0C94022F0C94D32CED
:100250000C94AC270C94FB2D0C9465480C94472807
:100260000C94C42A0C948F4B0C94A02D0C94D71290
:100270000C94F32B0C94B62A0C94CC0F0C94C13232
:100280000C9487120C94283D0C94203D0C9440371C
:100290000C94113E0C944C4C0C9478130C94A83094
:1002A0000C948D2A0C94EA270C94542A0C94B913BC
:1002B0000C9426280C94B53B0C9464050C948E3C4D
:1002C0000C945A280C9462300C94122E0C94A73281
:1002D0000C949A300C94243D0C94103D0C94853D64
:1002E0000C940F490C94D0270C9461480C942D4C1D
:1002F0000C94DB290C94B8120C94854B0C94F82DBB
:100300000C946F160C94923B0C94BC0F0C94B92A6D
:100310000C9481480C94602F0C947D480C94283BDD
:100320000C94BB320C9415370C9479480C94D84A31
:100330000C94B5190C9499370C946D2C0C9455357C
:100340000C94AE3D0C94B7270C94F33C0C94D24B18
:100350000C949E300C944D280C94E43D0C94A22AED
:100360000C9403280C94792E0C9428320C94713D33
:100370000C94CB0F0C94763E0C9465280C94893029
:100380000C94CB3D0C94CF3C0C94CF2A0C94313C74
:100390000C94BE050C94F5280C9431490C948748B4
:1003A0000C9430330C9489320C94C62C0C94E613C4
:1003B0000C94E24A7C3C3E5E2B3D3F2F5B5D3B2C28
:1003C0002A225C00434C4F5345440041542B514971
:1003D000434C4F534500434F4E4E4543540D0A0086
:1003E00041542B51494F50454E3D0041542B5149EA
:1003F000444E5349503D00434F4E4E4543540D0A21
:1004000000434C4F5345440D0A0041542B5149536E
:1004100045525645520041542B51494C504F52546D
:100420003D22544350222C0041542B51494C4F4300
:1004300049500041542B434D47443D0041542B4308
:100440004D474C3D2252454320554E524541442292
:100450002C310041542B434D47533D22002B434C3C
:1004600049503A0042555359004E4F204341525291
:10047000494552002B434F4C503A0052494E4700D9
:10048000415448004154410041542B434C434300E4
:100490004154440000030205000305010406020460
:1004A0001F1C1F1E1F1E1F1F1E1F1E1F00000A0BCA
:1004B00002090C0D0E0807030401000000000000F3
:1004C000000000000000000000000000000000002C
:1004D00000000000000000001211100000000000E9
:1004E000000000000000000000000000000000000C
:1004F0000000010210202008081020401020408039
:1005000002010201080402010102040810204080D7
:100510008040201008040201800402018040201065
:1005200008040201080402010102040810204080AE
:10053000010204081020408005050505070508088C
:100540000808020202020A0A08080404040401015D
:100550000101010101010303030303030303040772
:1005600007070C0C0C0C0C0C0C0C02020202060609
:100570000606060606060B0B0B0B0B0B0B0B0000FF
:1005800020002300260029002C002F00320000014B
:1005900000000301060109010000220025002800D7
:1005A0002B002E003100340002010000050108017B
:1005B0000B0100002100240027002A002D0030003C
:1005C000330001010000040107010A010200640573
:1005D000350D74106F16B519AC27B727C527D0276E
:1005E000DB27EA27F8270528F528B92AC42A692C29
:1005F0008A2C952CA02CAB2CC1325535403799371D
:100600000B3BF33CFE3CD43EE24A8F4B2D4CBE05E7
:1006100011241FBECFEFD1E2DEBFCDBF00E00CBF83
:1006200016E0A0E0B2E0E4E0FFEA00E00BBF02C0A9
:1006300007900D92AE36B107D9F72DE0AEE6B6E0E1
:1006400001C01D92A136B207E1F715E0CEE0D6E079
:1006500000E006C022970109FE010BBF0E947954F9
:10066000CE3CD10780E00807A9F70E943D4C0C94CE
:1006700070570C940000CF93DF93EC016FE875E0A6
:100680000E9453526FE875E0CE0106960E945352C5
:100690006FE875E0CE010C960E9453526FE875E04A
:1006A000CE0142960E9453526FE875E0CE01489603
:1006B0000E9453526FE875E0CE014E960E9453524D
:1006C0006FE875E0CE0184960E9453526FE875E0A2
:1006D000CE018A960E945352CE01C0960E940C4CC5
:1006E0006FE875E0CE01C8960E9453526FE875E03E
:1006F000CE01CE96DF91CF910C945352CF93DF93DE
:1007000000D000D0CDB7DEB761E08AE00E94954806
:1007100061E084E00E94954826E040E855E260E010
:1007200070E083EF9BE00E94164A61E084E00E9443
:10073000CE480E9442098DEB96E00E94130B84EA9A
:1007400096E00E94574520E042E060E181E097E0BA
:100750000E9434366DE272E083EF9BE00E94D14C40
:100760008AE996E00E947D08811106C06CE372E080
:1007700083EF9BE00E94D14C69E572E081E097E055
:100780000E94984C65E672E083EF9BE00E94D14C9A
:1007900081E097E00E94133661E772E081E097E024
:1007A0000E94984C6FE772E083EF9BE00E94D14C6F
:1007B0006CE370E08DEB96E00E94D00D882399F0F9
:1007C00068E972E083EF9BE00E94D14C81E097E002
:1007D0000E94133665EA72E081E097E00E94984C2F
:1007E000109282062AC062EB72E083EF9BE00E94C7
:1007F000D14C63EC72E083EF9BE00E94D14C81E02E
:1008000097E00E94133662EB72E081E097E00E946D
:10081000984C81E0809382066EEC72E0CE010196E6
:100820000E945352BE016F5F7F4F87E896E00E949F
:100830006707CE0101960E94E5510E947E476093B2
:100840008306709384068093850690938606269689
:100850000FB6F894DEBF0FBECDBFDF91CF910895E4
:100860008F929F92AF92BF92CF92DF92EF92FF92C0
:100870000F931F93CF93DF93CDB7DEB7E0970FB6FB
:10088000F894DEBF0FBECDBF61E084E00E94CE4889
:100890008EE696E00E94440980917B06882309F445
:1008A000D3C08CE996E00E949E0664ED72E0CE0112
:1008B00001960E94535264ED72E0CE0107960E94A9
:1008C000535264ED72E0CE010D960E94535264EDD6
:1008D00072E0CE0143960E94535260E874E0CE016C
:1008E00049960E9453526EE676E0CE014F960E94E2
:1008F000535269ED72E0CE0185960E9453526EEC20
:1009000072E0CE018B960E945352CE0101964C01AB
:1009100006965C0106966C0106967C018E01075EC8
:100920001F4F9E01215E3F4FAE014B5D5F4FBE01E9
:10093000655D7F4F8DEB96E00E949E0E8C01CE018F
:100940008B960E94E551CE0185960E94E551CE011D
:100950004F960E94E551CE0149960E94E551C7018C
:100960000E94E551C6010E94E551C5010E94E55172
:10097000C4010E94E55181E097E01016110664F56C
:100980000E940C3640E061E081E097E00E941A3658
:100990008DEB96E00E94EB0C019779F46EED72E01E
:1009A00081E097E00E94984C8EE996E00E94D00981
:1009B0008CE996E00E94040640C06DEE72E081E092
:1009C00097E00E94984C8EE996E00E94D5098CE948
:1009D00096E00E942E0631C00E940C3681E097E01E
:1009E0000E9413366FEF72E081E097E00E94984C0E
:1009F00041E061E081E097E00E941A366EE073E02A
:100A000081E097E00E94984C8EE996E00E94DA0916
:100A10008CE996E00E94FA056DEB76E0CE01019636
:100A20000E942A0DBE016F5F7F4F8AE996E00E9407
:100A30009208CE0101960E94E55168EE73E080E0D5
:100A400090E00E94AD470CC081E097E00E940C3618
:100A50008EE996E00E94DF0981E097E00E943E085F
:100A60000E947E470091830610918406209185069E
:100A700030918606601B710B820B930B61367A4EA8
:100A80008105910570F080918206882351F00E94C3
:100A90007E476093830670938406809385069093C7
:100AA0008606E0960FB6F894DEBF0FBECDBFDF918D
:100AB000CF911F910F91FF90EF90DF90CF90BF905B
:100AC000AF909F908F900895AF92CF92EF920F9337
:100AD00000E020E040E060E089E197E00E94164CF1
:100AE0008CE1A82E9BE1C92E2AE1E22E09E128E142
:100AF00047E166E181E097E00E94EF3688E193E00C
:100B000090930207809301078DEB96E00E943B03D0
:100B100080EB96E00E94173C27E030E046E050E092
:100B200065E070E08EE996E00E94960968E070E06A
:100B30008CE996E00E94F60564E070E08AE996E0B0
:100B40000E9479086FE875E087E896E00E945352AA
:100B50006FE875E08DE896E00E9453526FE875E00B
:100B600083E996E00E9453526FE875E08CE796E0C7
:100B70000F91EF90CF90AF900C9453528CE796E08A
:100B80000E94E55183E996E00E94E5518DE896E0E8
:100B90000E94E55187E896E00E94E5518BEF96E0D0
:100BA0000E94E55185EF96E00E94E55187EE96E0C0
:100BB0000E94E55181EE96E00E94E5518BED96E0B2
:100BC0000E94E55185ED96E00E94E5518FEC96E09C
:100BD0000E94E55189EC96E00E94E55183EC96E095
:100BE0000E94E5518DEB96E00C94E551FC01718378
:100BF0006083089528EE33E040E050E068EE73E053
:100C0000FC0180810C94544ECF93DF93EC0120E0E3
:100C100030E0A90160EA7FE088810E94544E6CE2D6
:100C200071E080E090E00E94AD4720E030E0A90153
:100C300060ED77E088810E94544E6CE271E080E0C4
:100C400090E00E94AD4728EC30E040E050E060EAE0
:100C50007FE08881DF91CF910C94544ECF93DF9346
:100C6000EC0120E030E0A90168EC70E088810E948E
:100C7000544E68EC70E080E090E00E94AD4720E0C8
:100C800030E0A90160EA7FE088810E94544E68EC60
:100C900070E080E090E00E94AD4720E030E0A901E4
:100CA00060ED77E088810E94544E68EC70E080E04F
:100CB00090E00E94AD4720E030E0A90160EA7FE0CB
:100CC00088810E94544E68EC70E080E090E00E94C1
:100CD000AD4720E030E0A90168EE73E088810E9412
:100CE000544E68EC70E080E090E00E94AD4720E058
:100CF00030E0A90160EA7FE088810E94544E68ECF0
:100D000070E080E090E00E94AD4720E030E0A90173
:100D100060ED77E088810E94544E68EC70E080E0DE
:100D200090E00E94AD4728EC30E040E050E060EAFF
:100D30007FE08881DF91CF910C94544E20E233E024
:100D400040E050E060EA7FE0FC0180810C94544E6A
:100D5000EF92FF920F931F93CF93DF93CDB7DEB740
:100D60002C970FB6F894DEBF0FBECDBF7C016CE1AF
:100D700073E0CE0107960E94535200E010E0B801E4
:100D80008DE397E00E949A0F482FB801CE01079695
:100D90000E9467530F5F1F4F0630110581F76BEDFF
:100DA00072E0CE0101960E945352BE016F5F7F4FE9
:100DB000CE0107960E94A4538C01CE0101960E9499
:100DC000E551012B59F426E030E042E050E0BE014D
:100DD000695F7F4FC7010E94A85305C063E273E0BB
:100DE000C7010E945352CE0107960E94E551C701E8
:100DF0002C960FB6F894DEBF0FBECDBFDF91CF911A
:100E00001F910F91FF90EF900895CF93DF93C0E073
:100E1000D0E04FEFBE018DE397E00E949D0F219639
:100E2000C730D105B1F7DF91CF910895EF92FF92CE
:100E30000F931F93CF93DF93CDB7DEB72C970FB6E9
:100E4000F894DEBF0FBECDBF8C017B016BED72E06D
:100E5000CE0101960E945352B701CE0101960E9425
:100E60003A53BC01CE0107960E948052CE010196F2
:100E70000E94E551C8010E94050700E010E0B8019A
:100E8000CE0107960E948653482FB8018DE397E064
:100E90000E949D0F0F5F1F4F0630110581F740E044
:100EA00066E070E08DE397E00E949D0FCE0107960B
:100EB0000E94E5512C960FB6F894DEBF0FBECDBF51
:100EC000DF91CF911F910F91FF90EF9008950C94B7
:100ED000695206960C946952AF92BF92CF92DF92FC
:100EE000EF92FF920F931F93CF93DF93CDB7DEB7AF
:100EF000E0970FB6F894DEBF0FBECDBF5C01CDA268
:100F0000DEA2EFA2F8A609A71AA72BA740E060E08F
:100F10000E941A368DA19EA164E670E00E940454DE
:100F20004AE0BC01CE0101960E94CE524AE06FA178
:100F3000CE0107960E94A1524AE068A5CE014396D1
:100F40000E94A152BE016D5E7F4FCE010D960E94A0
:100F500080526EE773E0CE010D960E944D53BE01A4
:100F6000695F7F4F0E943A536EE773E00E944D53D2
:100F7000BE016F5F7F4F0E943A53BC01CE014F9676
:100F80000E948052CE010D960E94E551CE014396FB
:100F90000E94E551CE0107960E94E551CE010196CF
:100FA0000E94E551BE01615E7F4FC5010E948A4CDF
:100FB00040E068E0C5010E941A364AE06BA5CE0108
:100FC00001960E94A1524AE06AA5CE0107960E94AE
:100FD000A1524AE069A5CE0143960E94A152BE01EA
:100FE0006D5E7F4FCE010D960E94805269E374E0E2
:100FF000CE010D960E944D53BE01695F7F4F0E9446
:101000003A5369E374E00E944D53BE016F5F7F4F16
:101010000E943A53BC01CE0149960E948052CE01F3
:101020000D960E94E551CE0143960E94E551CE01F6
:1010300007960E94E551CE0101960E94E551BE013E
:10104000675E7F4FC5010E948A4CCE0149960E947F
:10105000E551CE014F960E94E551E0960FB6F89407
:10106000DEBF0FBECDBFDF91CF911F910F91FF90DB
:10107000EF90DF90CF90BF90AF900895AF92BF9266
:10108000CF92DF92EF92FF920F931F93CF93DF9354
:10109000CDB7DEB72C970FB6F894DEBF0FBECDBF2D
:1010A0005C010E940C3664EA76E0CE0101960E9453
:1010B0009E46C980DA80EB80FC800D811E812F81E5
:1010C000388549855A856B857C85C5010E946C07EA
:1010D0002C960FB6F894DEBF0FBECDBFDF91CF9137
:1010E0001F910F91FF90EF90DF90CF90BF90AF9046
:1010F0000895FC01718360830895CF93DF93EC0121
:1011000061E08AE00E94CE4868818EEF97E00E94FD
:10111000BA14C82F61E084E00E94CE488C2FDF9182
:10112000CF910895EF92FF920F931F93CF93DF9388
:10113000CDB7DEB7CE55D1090FB6F894DEBF0FBEDE
:10114000CDBF7B0161E08AE00E94CE488EE0E9E1FC
:10115000F2E0DE01A55BBF4F01900D928A95E1F7A9
:10116000EBE4F0E0EC0FFD1F3E9686E0DF011D9200
:101170008A95E9F7BE01655B7F4F8EEF97E00E948D
:1011800059168823F9F021E0AE01455B5F4F6EEF01
:1011900077E0CE0101960E94D315BE016F5F7F4FAD
:1011A000CE014C960E943A4ECE014C960E94ED53D1
:1011B0008B01CE014C960E94E551CE0101960E9412
:1011C000A71302C000E010E023E1AE01455B5F4FD2
:1011D0006EEF77E0CE0101960E94D31566E273E0D0
:1011E000CE0101960E94984CCE0101960E94A71351
:1011F0000F5F1F4F4AE0BE01695C7F4FC8010E942C
:10120000055723E1AE01495C5F4F6EEF77E0CE01F9
:101210004C960E94D315B701CE014C960E948A4C81
:10122000CE014C960E94A713BE01655B7F4F8EEFE7
:1012300097E00E94641623E1AE01455B5F4F6EEFBD
:1012400077E0CE0101960E94D3154AE050E0B80144
:10125000CE0101960E94984DCE0101960E94A713DF
:1012600061E084E00E94CE48C25ADF4F0FB6F89486
:10127000DEBF0FBECDBFDF91CF911F910F91FF90C9
:10128000EF90089581E00895CF93DF93EC0126E07D
:1012900040E855E260E070E080E99CE00E94164A78
:1012A00044E150E060E070E080E99CE00E94114E73
:1012B0004CE050E0BE0180E99CE00E94174E1D8684
:1012C0000C9779F581E08D8760E873E083EF9BE010
:1012D0000E94D14C61E973E083EF9BE00E94D14C06
:1012E00068E973E083EF9BE00E94984C4AE050E08D
:1012F0006CE070E083EF9BE00E94A04D67EA73E032
:1013000083EF9BE00E94984CBE0183EF9BE00E941C
:10131000D14C60E873E083EF9BE00E94D14C81E008
:1013200002C01D8680E0DF91CF910895CF93DF93B7
:10133000EC01862F688379835B834A833D832C830A
:1013400061E00E94954861E08A810E94954861E0D1
:101350008C81DF91CF910C9495480F931F93CF937D
:10136000DF93EC01042F122F662311F061E001C01E
:1013700060E088810E94CE48002311F061E001C046
:1013800060E08A810E94CE48112311F061E001C023
:1013900060E08C81DF91CF911F910F910C94CE482A
:1013A00020E041E060E00C94AD0920E040E061E025
:1013B0000C94AD0921E040E060E00C94AD0920E020
:1013C00040E060E00C94AD098F929F92AF92BF9283
:1013D000CF92DF92EF92FF920F931F93CF93DF9301
:1013E00000D000D0CDB7DEB76B0124E030E040E0A4
:1013F00050E0CE0101960E94A853CE0101960E94B2
:10140000ED534B015C01CE0101960E94E55126E0AF
:1014100030E044E050E0B601CE0101960E94A853AE
:10142000CE0101960E94ED53162FCE0101960E9427
:10143000E55128E030E046E050E0B601CE010196EB
:101440000E94A853CE0101960E94ED53F62ECE01C4
:1014500001960E94E5512AE030E048E050E0B601F4
:10146000CE0101960E94A853CE0101960E94ED5331
:10147000062FCE0101960E94E5512CE030E04AE0B3
:1014800050E0B601CE0101960E94A853CE0101960C
:101490000E94ED53E62ECE0101960E94E5512EE00A
:1014A00030E04CE050E0B601CE0101960E94A85316
:1014B000CE0101960E94ED53C62ECE0101960E94E8
:1014C000E5512F2D412FB40184EA96E00E940C468D
:1014D0006EEA73E083EF9BE00E94D14C26960FB634
:1014E000F894DEBF0FBECDBFDF91CF911F910F915A
:1014F000FF90EF90DF90CF90BF90AF909F908F9034
:101500000895FF920F931F93CF93DF93EB018B010D
:10151000F12CF80161918F0140E150E083EF9BE0F5
:101520000E94C54D69E374E083EF9BE00E94984CF4
:10153000F394F5E0FF12EDCF40E150E06D8183EFD1
:101540009BE0DF91CF911F910F91FF900C94CC4DB8
:101550000F931F93CF93DF9300D000D0CDB7DEB7AA
:101560008C016FEB73E083EF9BE00E94984C6AE084
:1015700072E0C8010E94810A66EC73E083EF9BE091
:101580000E94984C60EB7BE0CE0101960E94B33A3A
:10159000BE016F5F7F4F83EF9BE00E94E34C6CECDA
:1015A00073E083EF9BE00E94984C60EB7BE0CE0100
:1015B00001960E94FB3ABE016F5F7F4F83EF9BE075
:1015C0000E94E34C63ED73E083EF9BE00E94984C34
:1015D00060EB7BE0CE0101960E94E33ABE016F5FB3
:1015E0007F4F83EF9BE00E94E34C6EED73E083EF4F
:1015F0009BE00E94984C60EB7BE0CE0101960E943C
:10160000CB3ABE016F5F7F4F83EF9BE00E94E34CBC
:1016100026960FB6F894DEBF0FBECDBFDF91CF91F7
:101620001F910F910895CF92DF92EF92FF920F9347
:101630001F93CF93DF93CDB7DEB76E970FB6F894B5
:10164000DEBF0FBECDBF6C010EE420EC43E06AE0CC
:10165000CE0149960E94164C8B8D9C8DAD8DBE8D12
:10166000F60182AB93ABA4ABB5AB80E99FE197AB3E
:1016700086AB68EE73E083EF9BE00E94D14C2BE6D3
:1016800036E03A8329838091210790912207A09127
:101690002307B09124078B839C83AD83BE83388757
:1016A0002F838091270790912807A0912907B09157
:1016B0002A0789879A87AB87BC873E872D878091C9
:1016C0002D0790912E07A0912F07B09130078F879B
:1016D000988BA98BBA8B3C8B2B8B40913307509105
:1016E000340760913507709136074D8B5E8B6F8B99
:1016F000788FCE0101967C018E01095F1F4F9E01FC
:10170000235F3F4FAE014D5E5F4F6AE072E080EBBA
:101710009BE00E94673AC6010E94A80A6E960FB627
:10172000F894DEBF0FBECDBFDF91CF911F910F9117
:10173000FF90EF90DF90CF900895CF92DF92EF92DD
:10174000FF920F931F93CF93DF93CDB7DEB72C9704
:101750000FB6F894DEBF0FBECDBF8C0169EA74E00E
:10176000CE0101960E945352085C1F4FBE016F5F6D
:101770007F4FC8010E94A4537C01CE0101960E94B4
:10178000E551F7FC37C09701265F3F4FA7014A5F3D
:101790005F4FB801CE0107960E94A853BE01695F52
:1017A0007F4FCE0101960E948052BE016F5F7F4F36
:1017B00087E896E00E941607CE0101960E94E55147
:1017C00061E074E0CE0101960E945352BE01695F50
:1017D0007F4FCE0101960E943A53BC0183EF9BE0FC
:1017E0000E94BF4CCE0101960E94E551CE010796A2
:1017F0000E94E55164E174E0CE0101960E945352CB
:10180000BE016F5F7F4FC8010E94A4537C01CE01CF
:1018100001960E94E551F7FC31C061E975E0CE0107
:1018200001960E945352A701BE016F5F7F4FC8010E
:101830000E9488536C01CE0101960E94E551A701D8
:10184000495F5F4F9601B801CE0107960E94A853E9
:10185000BE01695F7F4FCE0101960E948052BE019A
:101860006F5F7F4F87E896E00E946707CE01019681
:101870000E94E551CE0107960E94E5516CE174E0AB
:10188000CE0101960E945352BE016F5F7F4FC80187
:101890000E94A4537C01CE0101960E94E551F7FC01
:1018A00031C061E975E0CE0101960E945352A70153
:1018B000BE016F5F7F4FC8010E9488536C01CE014B
:1018C00001960E94E551A701485F5F4F9601B8015C
:1018D000CE0107960E94A853BE01695F7F4FCE01DB
:1018E00001960E948052BE016F5F7F4F87E896E0AD
:1018F0000E946907CE0101960E94E551CE0107962C
:101900000E94E55165E274E0CE0101960E945352B7
:10191000BE016F5F7F4FC8010E94A4537C01CE01BE
:1019200001960E94E551F7FC47C061E975E0CE01E0
:1019300001960E945352A701BE016F5F7F4FC801FD
:101940000E9488536C01CE0101960E94E551A701C7
:10195000475F5F4F9601B801CE0107960E94A853DA
:101960006FE274E0CE0101960E945352BE01695F9E
:101970007F4FCE0101960E943A53BC0183EF9BE05A
:101980000E94BF4CCE0101960E94E551BE01695FE5
:101990007F4FCE0101960E948052BE016F5F7F4F44
:1019A00089E996E00E94E409CE0101960E94E55182
:1019B000CE0107960E94E5512C960FB6F894DEBF33
:1019C0000FBECDBFDF91CF911F910F91FF90EF9090
:1019D000DF90CF9008950F931F93CF93DF9300D0A4
:1019E00000D0CDB7DEB78C016BE374E083EF9BE0F2
:1019F0000E94D14C085C1F4FB80183EF9BE00E940E
:101A0000BF4C6BE374E083EF9BE00E94D14C62E536
:101A100074E0CE0101960E945352BE016F5F7F4F6A
:101A2000C8010E94A4538C01CE0101960E94E55189
:101A300081E090E01016110614F480E090E0269604
:101A40000FB6F894DEBF0FBECDBFDF91CF911F91CF
:101A50000F910895CF93DF93EC01625C7F4F0E945A
:101A60008052CE01DF91CF9108950F9300E020E0E6
:101A700040E060E087E397E00E94164C01EB20EC29
:101A800043E06AE081E397E00E94164C0BE021E01E
:101A900048EC6AE08BE297E00E94164C0AEF28ECD3
:101AA00043E06AE085E297E00E94164C00E020EEF9
:101AB0004FEF6FEF8FE197E00E94164C0F91089562
:101AC0004F925F926F927F928F929F92AF92BF924E
:101AD000CF92DF92EF92FF920F931F93CF93DF93FA
:101AE00000D000D0CDB7DEB75C018B010E947E47ED
:101AF0006B017C0188EE93E0089F2001099F500C48
:101B0000189F500C1124612C712C00E010E08BE622
:101B1000882E86E0982E0E947E476C197D098E09DA
:101B20009F09641575058605970550F080EB96E0D2
:101B30000E948E3C81E001301105D9F080E019C08F
:101B4000F50146A957A99A82898282A993A9A4A9D5
:101B5000B5A98B839C83AD83BE83BE016F5F7F4F2E
:101B600080EB96E00E94313C8C0181309105F1F2CE
:101B7000D2CF26960FB6F894DEBF0FBECDBFDF9151
:101B8000CF911F910F91FF90EF90DF90CF90BF907A
:101B9000AF909F908F907F906F905F904F9008953F
:101BA0004F925F926F927F928F929F92AF92BF926D
:101BB000CF92DF92EF92FF920F931F93CF93DF9319
:101BC00000D000D0CDB7DEB78C017B010E947E47EC
:101BD0002B013C01B701C8010E94600D882309F464
:101BE00096C088EE93E0E89E6001E99ED00CF89ED6
:101BF000D00C1124E12CF12CA12CB12C9BE6892EC8
:101C000096E0992E0E947E47641975098609970906
:101C10006C157D058E059F0508F06DC0F80146A97D
:101C200057A99A82898282A993A9A4A9B5A98B836D
:101C30009C83AD83BE83BE016F5F7F4F80EB96E0D8
:101C40000E94313C5C0181309105E1F66CE574E065
:101C500080EB96E00E94984C67E876E0CE01019612
:101C60000E94A806BE016F5F7F4F80EB96E00E9446
:101C70008A4CCE0101960E94E55168E774E080EB42
:101C800096E00E94D14C62E874E080EB96E00E94FE
:101C9000984CB801605D7F4F80EB96E00E94E34C6A
:101CA00069E874E080EB96E00E94D14C80EB96E00E
:101CB0000E94AB4C780188E3E80EF11C80EB96E0C3
:101CC0000E94CF3C8823B9F080EB96E00E946B3BEA
:101CD000892BA1F360EB76E0CE0101960E943A4E8B
:101CE000BE016F5F7F4FC7010E946952CE0101960E
:101CF0000E94E551E3CF80EB96E00E948E3CC80144
:101D00000E949D0B81E0AA94AB2809F080E0269602
:101D10000FB6F894DEBF0FBECDBFDF91CF911F91FC
:101D20000F91FF90EF90DF90CF90BF90AF909F907A
:101D30008F907F906F905F904F9008952F923F9279
:101D40004F925F926F927F928F929F92AF92BF92CB
:101D5000CF92DF92EF92FF920F931F93CF93DF9377
:101D6000CDB7DEB72E970FB6F894DEBF0FBECDBF4E
:101D70003C012B011A013E872D876FE875E0CE01EB
:101D800007960E945352F30146A957A98BE696E0A5
:101D90009A83898382A993A9A4A9B5A98B839C83DB
:101DA000AD83BE83BE016F5F7F4F80EB96E00E94E4
:101DB000313C892B09F497C064E174E0CE010196AF
:101DC0000E945352B201CE0101960E943A536BE930
:101DD00074E00E944D53B1010E943A5362EA74E0EC
:101DE0000E944D536D857E850E943A5368EA74E0E7
:101DF0000E944D53B8010E943A5360EB74E00E9478
:101E00004D53B7010E943A5367EB74E00E944D5363
:101E1000B6010E943A536EEB74E00E944D53B50137
:101E20000E943A5364EC74E00E944D53B4010E9446
:101E30003A53BC01CE0107960E946952CE01019629
:101E40000E94E5516AEC74E080EB96E00E94984CA9
:101E5000BE01695F7F4F80EB96E00E948A4C68E785
:101E600074E080EB96E00E94D14C62E874E080EB75
:101E700096E00E94984CB301605D7F4F80EB96E046
:101E80000E94E34C6EED74E080EB96E00E94D14C32
:101E900080EB96E00E94AB4CF8E36F0E711C80EB78
:101EA00096E00E94CF3C8823B9F080EB96E00E9438
:101EB0006B3B892BA1F360EB76E0CE0101960E948B
:101EC0003A4EBE016F5F7F4FC3010E946952CE013F
:101ED00001960E94E551E3CF80EB96E00E948E3C94
:101EE00001E010E009C0BE01695F7F4FC301CE96DB
:101EF0000E9469520FEF1FEFCE0107960E94E55135
:101F0000C8012E960FB6F894DEBF0FBECDBFDF918D
:101F1000CF911F910F91FF90EF90DF90CF90BF90E6
:101F2000AF909F908F907F906F905F904F903F9079
:101F30002F900895CB010C944A57CB01642F0C9439
:101F4000525780916E0790E020916F07821B910994
:101F5000089520916F0780916E07281750F4E22FA3
:101F6000F0E0E059F84F808190E02F5F20936F07F9
:101F700008958FEF9FEF0895E0916F0780916E07AE
:101F8000E81730F4F0E0E059F84F808190E00895D0
:101F90008FEF9FEF08950895CF92DF92EF92FF9217
:101FA0000F931F93CF93DF937C01CB018A01209184
:101FB0004A07222389F0EB016B01C40ED51ECC1514
:101FC000DD0569F06991D701ED91FC910190F081F7
:101FD000E02DC7011995F3CF642F0E942D11C80180
:101FE000DF91CF911F910F91FF90EF90DF90CF90F5
:101FF0000895CF93DF931F92CDB7DEB76983209109
:102000004A072223D1F020914B07203240F021E0F3
:1020100030E0FC013383228380E090E015C08091A2
:102020004C07E82FF0E0E35BF84F998190838F5FD6
:1020300080934C0780934B0705C061E0CE01019669
:102040000E942D1181E090E00F90DF91CF910895D3
:10205000FC011382128248EE53E060E070E044839A
:1020600055836683778384EF94E09183808308951A
:1020700010926F0710926E0710924C0710924B0748
:102080000C947810862F413208F040E260E777E048
:102090000E94961010926F0780936E07089521E0BA
:1020A0000C94421081E080934A0760936D07109270
:1020B0004C0710924B0708950C9452100F93062F63
:1020C00021E040914B076DE477E080916D070E941D
:1020D000DA1010924C0710924B0710924A070F919A
:1020E000089561E00C945E108EE397E00C94281044
:1020F0001092FD0781E08093FB071092FA0761E0E0
:1021000084E10E94CE4861E085E10E94CE48E9EB7F
:10211000F0E080818E7F808380818D7F808388E462
:102120008093B80085E48093BC000895413208F0A4
:102130003FC09091FD079111FCCF91E09093FD0776
:102140002093FB072FEF209390071092D507240FC1
:102150002093D4079093FC079091FC07880F892B5C
:102160008093FC078091FA07813041F41092FA07BE
:102170008091FC078093BB0085EC01C085EE8093C5
:10218000BC008091FD078130E1F38091D507841771
:1021900010F44091D50726ED37E0FB01D9018A2FD5
:1021A000821B841718F48D918193F9CF842F0895A1
:1021B00080E008950F93413208F046C09091FD07EA
:1021C0009111FCCF92E09093FD070093FB079FEFE6
:1021D000909390071092D5074093D407FB0166EDCA
:1021E00077E0DB019A2F961B941718F491919D9339
:1021F000F9CF1092FC079091FC07880F892B8093F0
:10220000FC078091FA07813041F41092FA0780911F
:10221000FC078093BB0085EC01C085EE8093BC0079
:10222000222321F08091FD078230E1F38091900715
:102230008F3F61F080919007803251F0809190073C
:10224000803341F483E007C081E005C080E003C033
:1022500082E001C084E00F910895613298F42091EA
:10226000FD07243089F46093B207FC0184EB97E00A
:10227000DC012A2F281B261718F421912D93F9CF62
:1022800080E0089581E0089582E0089585ED8093CF
:10229000BC008091BC0084FDFCCF1092FD07089526
:1022A00085EC8093BC001092FD0708951F920F9259
:1022B0000FB60F9211240BB60F922F933F934F93AB
:1022C0005F936F937F938F939F93AF93BF93EF939E
:1022D000FF938091B900887F803609F49CC068F52F
:1022E000883209F45BC090F4803109F454C038F4AA
:1022F000882309F4F5C0883009F44DC0F5C0883151
:1023000009F44CC0803209F45DC0EEC0803409F499
:1023100068C048F4803309F455C0883309F0E4C03C
:1023200080939007A8C0803509F44FC0883509F420
:102330005DC0883409F0D8C0D5C0883909F4C6C05A
:10234000A8F4883709F467C038F4883609F463C004
:10235000803709F460C0C8C0883809F4B7C0803934
:1023600009F45FC0803809F0BFC05BC0803B09F44E
:1023700085C038F4803A09F466C0883A09F47EC012
:10238000B3C0803C09F4A6C0883C09F4A3C0883BD4
:1023900009F489C0A9C08091FC0710C09091D507AD
:1023A0008091D407981770F5E091D50781E08E0FE2
:1023B0008093D507F0E0EA52F84F80818093BB000C
:1023C00085EC85C0809390078DC0E091D50781E0B2
:1023D0008E0F8093D5078091BB00F0E0EA52F84F52
:1023E00080839091D5078091D4076DC0E091D50787
:1023F00081E08E0F8093D5078091BB00F0E0EA5218
:10240000F84F80838091FB0781116CC081E080933D
:10241000FA0784EA60C083E08093FD071092910779
:10242000CFCF80919107803208F050C0E0919107A2
:1024300081E08E0F809391078091BB00F0E0EE5613
:10244000F84F8083BDCF80919107803230F4E091C6
:102450009107F0E0EE56F84F10820E94461160910D
:10246000910770E0E091F607F091F70782E997E0B5
:102470001995109291070E94501136C084E0809304
:10248000FD071092B3071092B207E091F807F091A0
:10249000F90719958091B207811105C081E08093F9
:1024A000B2071092B407E091B30781E08E0F8093DA
:1024B000B307F0E0EC54F84F80818093BB0090911B
:1024C000B3078091B207981708F47ACF85E8809314
:1024D000BC000AC085EC8093BC001092FD0704C0CC
:1024E000109290070E944611FF91EF91BF91AF911A
:1024F0009F918F917F916F915F914F913F912F911C
:102500000F900BBE0F900FBE0F901F901895CF939A
:10251000DF931F92CDB7DEB76983DC01ED91FC91AB
:102520000280F381E02D41E050E0BE016F5F7F4FFC
:1025300019950F90DF91CF910895CF93DF93EC0120
:10254000898D9A8D009759F0FC01138212820E94A6
:102550007B1FE98DFA8D22813381232B31F081E0BD
:1025600090E09B838A8380E090E0DF91CF91089593
:10257000FC01818D928D009711F00C94D61C08956A
:10258000CF93DF931F92CDB7DEB741E050E0BE019D
:102590006F5F7F4F0E94E71A019719F4898190E0DD
:1025A00002C08FEF9FEF0F90DF91CF910895FC0154
:1025B000818D928D009711F00C94C0128FEF9FEFD8
:1025C00008950F931F93CF93DF938C01FC01818DAE
:1025D000928D0097B9F00E94C012EC018F3FFFEF7F
:1025E0009F0799F0F801818D928DFC0142855385FA
:1025F0006485758541505109610971090E943A1C31
:10260000CE0105C080E090E002C08FEF9FEFDF9128
:10261000CF911F910F910895CF92DF92EF92FF9289
:102620000F931F93CF93DF93EC017B016A011B8211
:102630001A8208EE13E020E030E00C831D832E8325
:102640003F8384E095E0998388838DE190E00E9448
:102650007D549A8F898F009779F02DE1F701DC0185
:1026600001900D922A95E1F74CE050E0B601CE01C1
:102670000C960E94DC56188EDF91CF911F910F911E
:10268000FF90EF90DF90CF900895FC0113821282AB
:1026900048EE53E060E070E04483558366837783BF
:1026A00084E095E091838083128E118E14860895C4
:1026B000DC015996ED91FC915A97309729F062858B
:1026C00073858485958508956FEF7FEFCB0108951D
:1026D000DC015996ED91FC915A97309729F0638966
:1026E000748985899689089560E070E0CB0108952A
:1026F000CF92DF92EF92FF92CF93DF93EC01898D1F
:102700009A8D892BD9F0CE010E9468136B017C0150
:10271000CE010E945813A7019601261B370B480BC8
:10272000590BDA01C901811530E89307A105B105FC
:1027300038F08FEF9FE7A0E0B0E002C080E090E0CB
:10274000DF91CF91FF90EF90DF90CF900895CF93DE
:10275000DF93EC01898D9A8D009741F00E941D1D39
:10276000898D9A8D0E9415551A8E198EDF91CF9101
:1027700008951F93CF93DF93CDB7DEB76D970FB654
:10278000F894DEBF0FBECDBFAB011C821B8224E1DB
:1027900035E03A8329831E8221E0BC01CE010196F7
:1027A0000E94511E11E0811102C010E004C0CE0150
:1027B00001960E941D1D812F6D960FB6F894DEBF05
:1027C0000FBECDBFDF91CF911F910895442339F003
:1027D0000E94521F91E0811103C090E001C091E07E
:1027E000892F0895CF93DF93FB0120813181FC0174
:1027F000E20FF31FE081EF3211F42F5F3F4FDA0158
:10280000E0E0F0E0EC01C20FD31FC881CF3249F005
:10281000CC2339F031962F5F3F4FCD93EC30F1054B
:1028200089F7E40FF51F1082FC01E20FF31F4081CE
:102830004F3211F42F5F3F4FFB0131832083FC01A6
:10284000E20FF31F81E09081911101C080E0DF91E0
:10285000CF9108954F925F926F927F928F929F9245
:10286000AF92BF92CF92DF92EF92FF920F931F939E
:10287000CF93DF93CDB7DEB7C954D1090FB6F89423
:10288000DEBF0FBECDBF5C016B013A01490119A249
:1028900018A284E195E09F8F8E8F1BA21C821B8261
:1028A0009A8389831E822A961FAE1EAE2A978B01B9
:1028B0007E018EE1E80EF11C44244394AE01455C98
:1028C0005F4FBE01685B7F4FC5010E94F213582E17
:1028D000482F44259401BE01655C7F4FC801F30178
:1028E0001995811108C00C151D0519F0C8010E9429
:1028F0001D1D80E027C05520B9F021E0AE01455CE8
:102900005F4FB801C7010E94511E582E0C151D05BE
:1029100099F0C8010E941D1D552059F3902F812F59
:102920008701E92EF82ECACF0C151D0519F0C80134
:102930000E941D1D81E006C08823D9F28E010F5F21
:102940001F4FECCFC75BDF4F0FB6F894DEBF0FBE53
:10295000CDBFDF91CF911F910F91FF90EF90DF904E
:10296000CF90BF90AF909F908F907F906F905F902F
:102970004F9008950F931F93CF93DF93EC01462F51
:1029800061E00E94AC17811102C080E01DC08E0181
:10299000045F1F4F41E0BE01C8010E94C22488238A
:1029A00059F0B801CE018A960E94971A91E08111E0
:1029B00001C090E0892F08C040E0BE01C8010E941C
:1029C000C224882311F3EDCFDF91CF911F910F9196
:1029D0000895FC01DB0112968D919C9113979383CE
:1029E000828384E195E09183808314968C9114977F
:1029F000848315968C911597858316964D915D91DC
:102A00006D917C91199746835783608771871A96D9
:102A10004D915D916D917C911D974287538764879D
:102A200075871E964D915D916D917C91519746876A
:102A30005787608B718B52968C915297828B5396ED
:102A40004D915D916D917C915697438B548B658B25
:102A5000768B57964D915D916D917C915A97478BEE
:102A6000508F618F728F5B968D919C915C97948F44
:102A7000838F08954F925F926F927F928F929F9271
:102A8000AF92BF92CF92DF92EF92FF920F931F937C
:102A9000CF93DF93CDB7DEB7C754D1090FB6F89403
:102AA000DEBF0FBECDBF6C014A013901665D7F4FAD
:102AB0005E018EE1A80EB11CC5010E94E9141C82C2
:102AC0001B8284E195E09A8389831E828401FE0142
:102AD00031967F015A2C4B2C6FE270E0C8010E94A6
:102AE000CA560097E9F1F80120812F3219F40F5FDF
:102AF0001F4FF2CF801B8D3008F08CE0A82EB12C38
:102B0000A501B801CE01CB960E94DC56EBE3F0E0C4
:102B1000EC0FFD1FEA0DFB1D1082C7010E941D1D59
:102B200021E0AE01455C5F4F652D742DC7010E9409
:102B3000511E811109C0F6011382128284E195E0D1
:102B400091838083158216C00A0D1B1D852D942D3F
:102B50000E941D1DC2015E2C4F2CE92EF82EBCCF09
:102B600008191909F30111830083652D742DC6011D
:102B70000E94E914C601C95BDF4F0FB6F894DEBFAF
:102B80000FBECDBFDF91CF911F910F91FF90EF90BE
:102B9000DF90CF90BF90AF909F908F907F906F907D
:102BA0005F904F900895BF92CF92DF92EF92FF9285
:102BB0000F931F93CF93DF93CDB7DEB7C955D109DC
:102BC0000FB6F894DEBF0FBECDBF7C016A01B22EF6
:102BD0009E01285A3F4FCE01CB960E943A156A9625
:102BE0000EAD1FAD6A970C0D1D1DF801808181117E
:102BF0000AC0BE01655C7F4FCE0101960E94E914B8
:102C00004EE753E03EC019A218A284E195E09F8FE1
:102C10008E8F1BA221968FAD2197811104C0C70111
:102C20000E94451334C082502B2DA801823048F4F5
:102C300068E278E0CE014E960E94511E81110EC0CE
:102C4000EECFBE01655C7F4FCE014E960E94511EB5
:102C5000882329F3CE01CB960E941D1D8B2D8670F3
:102C600041F049A95AA96BA97CA9CE014E960E94B0
:102C70003A1CBE01625E7F4FCE0101960E94E914AC
:102C8000A801BE016F5F7F4FC7010E940C13C701EF
:102C9000C75ADF4F0FB6F894DEBF0FBECDBFDF912E
:102CA000CF911F910F91FF90EF90DF90CF90BF9049
:102CB0000895FB01BC01665D7F4F20E030E049EBE9
:102CC00053E1CF010C942A14FB01BC01665D7F4FD8
:102CD00020E030E046EE53E1CF010C942A1410922C
:102CE000030810920408109207081092090882E065
:102CF00090E0A0E0B0E080930A0890930B08A093C6
:102D00000C08B0930D081092210810922B08109215
:102D10002A0884E195E0909329088093280810926E
:102D20002D0808959FB7F8942091A20B8091A00BD5
:102D3000213019F48DBB9FBF08958FBF0895209156
:102D4000A20B222399F03FB7F8942091A20B2130D7
:102D500059F42DB32093A00B4DB32091A10B2095D6
:102D600024232DBB3FBF02C03093A00B8CBD9DBD63
:102D700008958EBD00000DB407FEFDCF8EB50895F9
:102D80008FEF0C94B91661E0FC0184810E94CE485B
:102D900080914708882339F0109247088091A20B50
:102DA00081110C9492160895CF93DF93EC018091DA
:102DB0004708811109C081E0809347088091480845
:102DC000909149080E949F1660E08C81DF91CF911D
:102DD0000C94CE48CF93DF93EC018E81882389F049
:102DE0008F8198859C012F5F3F4F38872F838230DA
:102DF000924018F40E94C016F3CFCE010E94C31671
:102E00001E82DF91CF910895673028F026E1FC0102
:102E1000258380E00895623081F030F4662359F014
:102E20006130B1F480E515C0643059F040F0653090
:102E300079F482E50EC080E505C081E503C081E537
:102E400008C082E58093480881E08093490808958E
:102E500083E5809348081092490881E008950F9314
:102E60001F93CF93DF93EB010E947E478B010E945B
:102E7000C0168F3F49F00E947E47601B710B6C1794
:102E80007D07A8F380E001C081E0DF91CF911F9121
:102E90000F910895CF92DF92FF920F931F93CF93DC
:102EA000DF9300D01F92CDB7DEB76C01F62E2983D9
:102EB0003A834B835C830E94EA16C6010E94D416B3
:102EC0006CE271E0C6010E942F178F2D80640E9472
:102ED000B91608E110E05C814B813A812981DA0161
:102EE000C901002E04C0B695A795979587950A94B9
:102EF000D2F729833A834B835C830E94B91608502A
:102F0000110929813A814B815C81083F8FEF1807B5
:102F100031F7FF2029F0E8E0FE1621F08FEF03C023
:102F200085E901C087E80E94B91610E00E94C0162A
:102F3000F601828787FF04C01F3F11F01F5FF6CFA5
:102F40000F900F900F900F90DF91CF911F910F91E5
:102F5000FF90DF90CF900895BF92CF92DF92EF92D3
:102F6000FF920F931F93CF93DF93EC01B62E1B8636
:102F700019861E821D824C830E947E478B0161E070
:102F80008C810E94954861E08C810E94CE480E940D
:102F90001B3782E5809348081092490880914808C1
:102FA000909149080E949F162AE0F22E8FEF0E940E
:102FB000B916FA94D9F78091A20B81110E9492164A
:102FC000CE010E94D41620E030E0A90160E0CE01DD
:102FD0000E944A17F82E8A8781E0F81649F00E946D
:102FE0007E47601B710B613D774068F381E04BC009
:102FF0002AEA31E040E050E068E0CE010E944A1742
:1030000082FF02C0FB860DC094E0F92E0E94C0161C
:103010008A87FA94D9F78A3A11F082E034C082E0C4
:103020008B878B85823031F4C12CD12CE12C80E44C
:10303000F82E03C0C12CD12C760120E030E0A9018C
:1030400067E3CE010E944A17A701960169E2CE010B
:103050000E944A178A87882349F00E947E47601B96
:10306000710B613D774048F388E00DC08B8582305D
:1030700031F520E030E0A9016AE3CE010E944A1751
:10308000882381F086E08D83CE010E94C31680E004
:10309000DF91CF911F910F91FF90EF90DF90CF9034
:1030A000BF9008950E94C016807C803C11F483E09C
:1030B0008B870E94C0160E94C0160E94C016CE01C7
:1030C0000E94C3166B2DCE01DF91CF911F910F91FE
:1030D000FF90EF90DF90CF90BF900C9404170F9368
:1030E0001F93CF93DF93EC010E947E478B010E94D8
:1030F000C0168A878F3F49F40E947E47601B710B80
:103100006D327140A0F38FE003C08E3F39F08DE047
:103110008D83CE010E94C31680E001C081E0DF9163
:10312000CF911F910F910895CF92DF92EF92FF926E
:103130000F931F93CF93DF93EC01690101151105E4
:1031400009F462C0C801820F931F8130924008F0D9
:103150005DC08E81882371F088819981AA81BB81AD
:10316000481759076A077B0729F48F819885C81685
:10317000D90610F5488359836A837B838B85833016
:1031800039F039E0440F551F661F771F3A95D1F784
:103190009A01AB0161E1CE010E944A17882319F020
:1031A00083E08D8333C0CE010E946F18882371F1B4
:1031B00018861F8281E08E838F8198858C159D05EE
:1031C00040F40E94C0168F819885019698878F835E
:1031D000F3CF6701E00EF11ECE14DF0431F00E9440
:1031E000C016F60181936F01F7CF8F819885800F0C
:1031F000911F98878F832985222319F0811592408A
:1032000018F0CE010E94EA1681E004C0CE010E94AF
:10321000C31680E0DF91CF911F910F91FF90EF9047
:10322000DF90CF900895EF92FF920F931F93790153
:1032300000E012E020E030E00E9494181F910F910E
:10324000FF90EF900895CF92DF92EF92FF920F934D
:103250001F93CF93DF931F921F92CDB7DEB78C01E0
:10326000862F49835A830E94B9164981C42E5A81F8
:10327000D52EE12CF12CF60181916F010E94B91637
:10328000FFEFEF1AFF0AE11482E0F806A1F78FEFD3
:103290000E94B9168FEF0E94B9160E94C016F8015D
:1032A00082878F71853039F081E18583C8010E9462
:1032B000C31680E001C081E00F900F90DF91CF91A5
:1032C0001F910F91FF90EF90DF90CF9008950F9393
:1032D0001F93CF93DF93EC018901411551056105DF
:1032E000710511F482E132C08B85833039F089E0B9
:1032F000440F551F661F771F8A95D1F79A01AB01BE
:1033000068E1CE010E944A17882311F084E01EC0B4
:10331000A8016EEFCE010E9423198823C1F068E551
:1033200072E0CE010E942F17811102C085E10EC00C
:1033300020E030E0A9016DE0CE010E944A17811122
:1033400004C00E94C016882339F084E18D83CE0129
:103350000E94C31680E004C0CE010E94C31681E023
:10336000DF91CF911F910F91089580E580934808D8
:10337000109249080895CF93DF93EC019C012A5FD6
:103380003F4F41E050E060E070E08B8D9C8D0E94EB
:1033900057238823A1F04F89588D698D7A8D452B4D
:1033A000462B472B71F44E815F81688579854F8B61
:1033B000588F698F7A8F8C8180688C8302C080E0FF
:1033C00001C081E0DF91CF910895CF92DF92EF921B
:1033D000FF921F93CF93DF93EC010E94BB198111E1
:1033E00002C080E04BC0EB8DFC8DCE80DF80E88496
:1033F000F98482E0C81AD108E108F108058404C004
:10340000CC0CDD1CEE1CFF1C0A94D2F746855785B8
:1034100060897189C40ED51EE61EF71E148181E0F5
:10342000C81AD108E108F108112361F0C701B601FB
:10343000610F711D811D911D0E94A121882389F2B8
:103440001150F2CFEB8DFC8DC12C82E0D82EE12CF7
:10345000F12C058404C0CC0CDD1CEE1CFF1C0A946E
:10346000D2F74B895C896D897E894C0D5D1D6E1D7F
:103470007F1D4B8B5C8B6D8B7E8B81E0DF91CF91C1
:103480001F91FF90EF90DF90CF900895CF93DF933F
:10349000EC01462F6E857F85888999890E94662177
:1034A000882341F08A8920E2829FC00111248D5A2D
:1034B000974F02C080E090E0DF91CF910895282FD0
:1034C000FB018BE030E231938150E9F7A22FB92F55
:1034D00020E037E09D91992319F19E3219F0E4EB39
:1034E000F3E008C03A3011F128E03AE0F3CF31962A
:1034F0004917E1F044914111FACF3217B8F04FED7E
:10350000490F4E3598F441E0420FFB01E20FF11DE7
:103510002FE9290F2A3108F490529083242FDACF13
:1035200081E0FB019081903209F480E008950F93CF
:103530001F93CF93DF93EC018B018D81882311F0D2
:1035400080E040C0FB0187898031B1F482E08D8347
:103550001F8A188E198E1A8E408D518D60E070E092
:1035600095E0440F551F661F771F9A95D1F74B8B37
:103570005C8B6D8B7E8B15C0803211F783E08D8361
:10358000FB01428D538D648D758D4F8B588F698FE4
:103590007A8F9E012D5E3F4FC8010E944B228823E7
:1035A00079F21C8F0B8F81E08C831E821F8218861C
:1035B00019861A861B861C861D861E861F86188AFB
:1035C000198A1A8ADF91CF911F910F9108952F9236
:1035D0003F924F925F926F927F928F929F92AF92A3
:1035E000BF92CF92DF92EF92FF920F931F93CF93F0
:1035F000DF93EC016B015A018D81811103C08FEFC4
:103600009FEFDAC08C8180FFFACF4B895C896D898E
:103610007E898A859B85AC85BD852501612C712CB1
:103620008A019B01081B190B2A0B3B0B041515057E
:103630002605370518F45A01A81AB90A25011E01F2
:1036400026E0220E311C4114510409F47BC04A8546
:103650005B856C857D854A0181E09822ED818A0138
:103660009B01F9E03695279517950795FA95D1F7BF
:103670008B8D9C8DE23051F4FC01628D738D848DB5
:10368000958D600F711F821F931F3EC0FC017480D7
:103690007A94702281149104C9F4711017C0452BDB
:1036A000462B472B49F48F89988DA98DBA8D8E832F
:1036B0009F83A887B9870AC04E815F816885798515
:1036C00091010E94C721882309F499CFEB8DFC8DCD
:1036D0006E817F8188859985625071098109910980
:1036E000058404C0660F771F881F991F0A94D2F7BC
:1036F0000685178520893189600F711F821F931FEE
:10370000670D711D811D911D20E032E028193909D6
:1037100032012415350508F439012C8126FD04C039
:103720006114F2E07F06A1F50091100210911102E0
:1037300020911202309113026017710782079307DC
:1037400019F426C0C50138C0760183019401AB018C
:10375000BC0180915108909152080E9494188823CE
:1037600009F44DCFC60CD71C04C0E81BF90BCE0ED4
:10377000DF1E8A859B85AC85BD85860D971DA11DA5
:10378000B11D8A879B87AC87BD87461857085BCFDA
:1037900040E00E946621882309F431CFC4018D5A8C
:1037A000974FD6019C01260D371DFC01E217F30748
:1037B000E1F241914D93FACFDF91CF911F910F919B
:1037C000FF90EF90DF90CF90BF90AF909F908F9041
:1037D0007F906F905F904F903F902F900895FF9251
:1037E0000F931F93CF93DF931F92CDB7DEB78C015A
:1037F000FC018581823018F480E090E034C0F8014B
:103800004285538564857585A5E0769567955795BE
:103810004795AA95D1F7F42FFF70FF2E41E050E0B5
:10382000BE016F5F7F4FC8010E94E71A019719F42C
:10383000298130E002C02FEF3FEF2F3F3F4FE1F2F1
:10384000F8014285538564857585415E5F4F6F4FF2
:103850007F4F4287538764877587F0E2FF9EC001E0
:1038600011248D5A974F0F90DF91CF911F910F9197
:10387000FF9008954F925F926F927F92AF92BF92A6
:10388000CF92DF92EF92FF920F931F93CF93DF932C
:10389000EC016A017B012D81222309F457C08B8939
:1038A0009C89AD89BE8984179507A607B70708F4D8
:1038B0004DC04EC08A859B85AC85BD85EB8DFC8D4A
:1038C000E585F0E03996AC01BD014150510961092F
:1038D00071090E2E04C076956795579547950A9401
:1038E000D2F797018601015011092109310904C05D
:1038F0003695279517950795EA95D2F7041715077A
:1039000026073707B0F58F89988DA98DBA8D8E83DC
:103910009F83A887B987280139015E0186E0A80E38
:10392000B11C411451046104710461F14E815F8145
:103930006885798595018B8D9C8D0E94C72191E0CA
:10394000491A5108610871088111EBCF80E01FC04E
:103950002230C1F0C114D104E104F10409F0AACF6E
:103960001E821F82188619861A861B861C861D8653
:103970000DC0892B8A2B8B2B31F2041B150B260BC8
:10398000370BC9CFCA86DB86EC86FD8681E0DF91E6
:10399000CF911F910F91FF90EF90DF90CF90BF904C
:1039A000AF907F906F905F904F9008950F931F930B
:1039B000CF93DF93EC018D818823C9F18C8187FF40
:1039C00030C061E0CE010E94461A8C01009779F167
:1039D0008D81823048F44B895C896D897E89F8013C
:1039E000448F558F668F778F4F89588D698D7A8D6B
:1039F000F801538F428F758B648BE0914A08F091E8
:103A00004B08309759F0B8016A5E7F4FC80148965D
:103A10001995F801808D918D938B828B8C818F7796
:103A20008C83DF91CF911F910F910C942B2180E01B
:103A3000DF91CF911F910F910895CF93DF93EC0108
:103A40000E94D61C882319F01D8281E001C080E00D
:103A5000DF91CF9108954F925F926F927F92AF92D4
:103A6000BF92CF92DF92EF92FF920F931F93CF936B
:103A7000DF9300D01F92CDB7DEB75C016A017B01F6
:103A8000FC0185818130F1F4848181FF1BC0F50147
:103A900083899489A589B68984179507A607B707EE
:103AA00088F0892B8A2B8B2B09F479C0F50142848D
:103AB000538464847584B701A601C5010E943A1C31
:103AC000811102C080E06CC0F501838D948DC1141A
:103AD000D104E104F10471F44789508D618D728D38
:103AE0000E946C24882371F3F501178A108E118EC1
:103AF000128E3AC0F50146815781608571859E011D
:103B00002F5F3F4F0E94C7218823E1F249815A81EC
:103B10006B817C81F501838D948DFC012789203197
:103B200029F408EF1FEF20E030E004C008EF1FEF9A
:103B30002FEF3FE04017510762077307A8F40E9478
:103B40006C24882309F4BECFF50146815781608536
:103B500071850FEF1FEF2FEF3FE0838D948D0E9453
:103B6000B622882309F4AECFF501C38AD48AE58A48
:103B7000F68A848180688483C5010E94D61C8823CC
:103B800009F4A0CFB701A6014C145D046E047F04B4
:103B900010F4B301A201C5010E943A1C01C081E0EA
:103BA0000F900F900F900F90DF91CF911F910F9179
:103BB000FF90EF90DF90CF90BF90AF907F906F908D
:103BC0005F904F900895FF920F931F93CF93DF93D1
:103BD000EC01F42E80E2689FF0011124ED5AF74FBA
:103BE0008385817129F0842F827411F080E053C0A5
:103BF0006A8B8091100290911102A0911202B091F3
:103C000013028E879F87A88BB98B4489558960E002
:103C100070E0BA0155274427028D138D20E030E073
:103C2000402B512B622B732B4F8B588F698F7A8FC0
:103C30008385887151F4048D158D268D378D0B8BFE
:103C40001C8B2D8B3E8B81E00CC0803179F69E0160
:103C50002D5E3F4F8B8D9C8D0E944B22882331F22D
:103C600084E08D838F2D8F708C831E821F82188637
:103C700019861A861B861C861D86F6FE0BC040E040
:103C800050E0BA01CE01DF91CF911F910F91FF90CB
:103C90000C942B1D81E0DF91CF911F910F91FF902C
:103CA0000895AF92BF92CF92DF92EF92FF920F935F
:103CB0001F93CF93DF93CDB7DEB72B970FB6F89452
:103CC000DEBF0FBECDBF7C016B01CA01B22EF70172
:103CD00025812111B9C0BE016F5F7F4F0E945F1A1D
:103CE000882309F4B1C0F601838D948DF701948F78
:103CF000838FF6011682178210861186128613862C
:103D000014861586A12CF601028513852485358538
:103D100083899489A589B689081719072A073B075B
:103D2000E8F545E036952795179507954A95D1F71B
:103D30000F70C6010E94EF1B009709F485C0FC01BB
:103D40002081222311F0253EB9F4A1100EC0F70105
:103D5000028B4091100250911102609112027091F9
:103D6000130246875787608B718BFC018081AA24E0
:103D7000A3948111C8CF12C04BE050E0BC01CE012A
:103D800001960E94B456892B09F0BDCF8B2D80730C
:103D9000803309F459C04B2D602F52C08B2D827196
:103DA000823109F051C0AA2041F061E0C7010E94B0
:103DB000461A8C01009779F447C0F601858182305C
:103DC00009F442C0C6010E94E5198823E9F1F70110
:103DD000128A03E518E080E2F80111928A95E9F76A
:103DE0008BE0FE013196D80101900D928A95E1F7A2
:103DF000E0914A08F0914B08309739F0B801625FC2
:103E00007F4FC8014096199509C081E298E2F801F8
:103E1000918B808B80E098E097878687F801808976
:103E20009189938B828B918F808F86859785978BD5
:103E3000868B0E942B21882339F04B2DF701628954
:103E4000C7010E94E31D01C080E02B960FB6F894D5
:103E5000DEBF0FBECDBFDF91CF911F910F91FF90BD
:103E6000EF90DF90CF90BF90AF900895CF93DF9306
:103E7000EC0140E050E0BA010E942B1D882371F054
:103E800061E0CE010E94461A009741F025EEFC0148
:103E900020831D82DF91CF910C942B2180E0DF9154
:103EA000CF910895CF93DF93CDB7DEB76D970FB65F
:103EB000F894DEBF0FBECDBFAB011C821B8224E194
:103EC00035E03A8329831E8222E0BC01CE010196AF
:103ED0000E94511E882329F0CE0101960E94361FB0
:103EE00001C080E06D960FB6F894DEBF0FBECDBF67
:103EF000DF91CF9108952F923F924F925F926F92F0
:103F00007F928F929F92AF92BF92CF92DF92EF9269
:103F1000FF920F931F93CF93DF9300D01F921F92B6
:103F2000CDB7DEB78C017B013A01DC0115968C918F
:103F300015978130C9F414968C9181FF15C082FFCA
:103F40001BC0F801438954896589768982859385E8
:103F5000A485B58584179507A607B70769F0C8013A
:103F60000E943A1C811108C081E090E0F80193831F
:103F7000828380E090E046C1630180C0D8015B96F7
:103F80008D919C915C97FC01F481F150B501A401E5
:103F900029E076956795579547952A95D1F7F423AB
:103FA000FD8321E09222FF2309F474C080E092E0B7
:103FB0008819990956018C159D0508F45C01D801F2
:103FC0005B96ED91FC915C9716962D903D904D90EF
:103FD0005C901997B2E02B1A31084108510805840A
:103FE00004C0220C331C441C551C0A94D2F786854D
:103FF0009785A089B189280E391E4A1E5B1EED8166
:104000002E0E311C411C511CA114F2E0BF0609F018
:1040100088C08091100290911102A0911202B0917B
:10402000130282159305A405B50559F48FEF9FEF90
:10403000DC018093100290931102A0931202B093BE
:1040400013029701B201A101809151089091520889
:104050000E946719882309F487CF9EEFF91ACA18BE
:10406000DB08F80182859385A485B5858A0D9B1DA3
:10407000A11DB11D82879387A487B587D8011A96A1
:104080008D909D90AD90BC901D97C114D10409F006
:1040900075CF8AC08114910409F088CF16964D918E
:1040A0005D916D917C9119974115510561057105DF
:1040B00059F457968D919D910D90BC91A02D00972C
:1040C000A105B10541F521C09E012F5F3F4F0E9420
:1040D000C721882309F44ECF89819A81AB81BC81A5
:1040E000F801238D348DF9012789203129F448EF17
:1040F0005FEF60E070E004C048EF5FEF6FEF7FE0DC
:1041000084179507A607B70730F0C8010E94BB19AE
:1041100081114CCF29CFF80186839783A087B1877F
:1041200045CF8114910429F5D8011A964D915D91DE
:104130006D917C911D9753968D919D910D90BC91A1
:10414000A02D481759076A077B0798F00E942B217A
:10415000882309F409CF2092100230921102409274
:10416000120250921302809150088160809350088F
:1041700008C041E0C201B1010E946621882309F410
:10418000F3CEC4018D5A974FD7019C012A0D3B1DD8
:10419000FC01E217F30719F04D914193FACFE81BA8
:1041A000F90BEE0EFF1E5BCF53968D919D910D90F6
:1041B000BC91A02DF801248188159905AA05BB059D
:1041C00038F4838A948AA58AB68A206824830CC02E
:1041D00080914A0890914B08892B31F06114710449
:1041E00019F02068F8012483D80114968C9183FD7E
:1041F00002C0C30107C0C8010E94D61C882309F46D
:10420000B3CEF7CF0F900F900F900F900F90DF91DC
:10421000CF911F910F91FF90EF90DF90CF90BF90C3
:10422000AF909F908F907F906F905F904F903F9056
:104230002F900895CF93DF931F92CDB7DEB7698398
:1042400041E050E0BE016F5F7F4F0E947B1F0F90E7
:10425000DF91CF91089580915008882399F1409182
:10426000100250911102609112027091130223E525
:1042700038E080915108909152080E946719882374
:1042800019F140914C0850914D0860914E08709181
:104290004F08411551056105710591F023E538E09E
:1042A00080915108909152080E946719882361F00B
:1042B00010924C0810924D0810924E0810924F0820
:1042C0001092500881E0089580E00895CF92DF9227
:1042D000EF92FF92CF936B017C01C42F809110026B
:1042E00090911102A0911202B09113028C159D05BC
:1042F000AE05BF05D1F00E942B21811102C080E0E4
:104300001AC023E538E0B701A601809151089091C9
:1043100052080E941319882391F3C0921002D09280
:104320001102E0921202F0921302809150088C2B3D
:104330008093500881E0CF91FF90EF90DF90CF9075
:104340000895CF92DF92EF92FF926B017C010E9461
:104350002B218823B1F0E3E5F8E011928AE0E33500
:10436000F807D9F7C0921002D0921102E09212021F
:10437000F09213028091500881608093500881E090
:1043800001C080E0FF90EF90DF90CF9008958F9272
:104390009F92AF92BF92CF92DF92EF92FF920F93D4
:1043A0001F93CF93DF938C016A017B01E901FC012C
:1043B00081859285A385B4850196A11DB11D8417C1
:1043C0009507A607B70710F480E058C0F8014389A5
:1043D0005489658976898789803129F4BB27AF2D77
:1043E0009E2D8D2D09C0D701C60127E0B695A79552
:1043F000979587952A95D1F74C015D01840E951EFE
:10440000A61EB71EC501B401809010029090110243
:10441000A0901202B0901302681579058A059B05D9
:1044200089F4F8018789803199F4DD24EE24FF2492
:10443000F601EE0FFF1FED5AF74F80819181A0E04A
:10444000B0E017C040E00E9466218111EACFBCCFE6
:10445000E894C7F8DD24EE24FF24F601EE0FFF1FD9
:10446000EE0FFF1FED5AF74F80819181A281B3813A
:10447000BF7088839983AA83BB8381E0DF91CF914A
:104480001F910F91FF90EF90DF90CF90BF90AF9072
:104490009F908F9008954F925F926F927F92AF920C
:1044A000BF92CF92DF92EF92FF920F931F93CF9321
:1044B000DF9300D01F92CDB7DEB78C0149835A83BA
:1044C0006B837C835901C12CD12C7601412C42E0B5
:1044D000542E612C712C49815A816B817C819E0103
:1044E0002F5F3F4FC8010E94C721882359F1D30194
:1044F000C201F801058404C0880F991FAA1FBB1FC1
:104500000A94D2F7C80ED91EEA1EFB1E49815A81B1
:104510006B817C818789803129F488EF9FEFA0E04F
:10452000B0E004C088EF9FEFAFEFBFE04817590736
:104530006A077B0780F2F501C082D182E282F382B2
:1045400081E001C080E00F900F900F900F90DF91FD
:10455000CF911F910F91FF90EF90DF90CF90BF9080
:10456000AF907F906F905F904F9008954F925F92C1
:104570006F927F928F929F92AF92BF92CF92DF9273
:10458000EF92FF920F931F93CF93DF93EC016A0199
:104590007B0128013901423051056105710508F49C
:1045A00074C049855A856B857C854F5F5F4F6F4F1F
:1045B0007F4F4C155D056E057F0508F466C08B883E
:1045C0009C88AD88BE888F89803129F477276F2D2C
:1045D0005E2D4D2D09C0B701A601E7E076956795E0
:1045E00057954795EA95D1F7840E951EA61EB71EDE
:1045F00040911002509111026091120270911302C9
:1046000084169506A606B70671F48F89803199F451
:10461000DD24EE24FF24F601EE0FFF1FED5AF74FC5
:104620005182408218C040E0C501B4010E94662159
:104630008111EBCF2AC0E894C7F8DD24EE24FF24D3
:10464000F601EE0FFF1FEE0FFF1FED5AF74F4082EE
:1046500051826282738280915008816080935008F9
:104660008A89823080F08D819E81AF81B885880DE6
:10467000991DAA1DBB1D80934C0890934D08A093D3
:104680004E08B0934F0881E001C080E0DF91CF91E8
:104690001F910F91FF90EF90DF90CF90BF90AF9060
:1046A0009F908F907F906F905F904F9008952F9282
:1046B0003F924F925F926F927F929F92AF92BF9282
:1046C000CF92DF92EF92FF920F931F93CF93DF93DE
:1046D000CDB7DEB760970FB6F894DEBF0FBECDBF83
:1046E0005C014D875E876F87788B1901D9014D90EA
:1046F0005D906D907C90411451046104710431F01F
:10470000BFEF4B1A5B0A6B0A7B0A10C0FC014080AA
:10471000518062807380992493940D851E852F8526
:104720003889013011052105310509F0912CD50199
:1047300019962D913D914D915C911C972F5F3F4FA4
:104740004F4F5F4F29873A874B875C877301620120
:104750001D821E821F821886F50181859285A385A0
:10476000B4850D811E812F813885081719072A0706
:104770003B0708F056C029853A854B855C852C158A
:104780003D054E055F0550F4A2E0CA2ED12CE12C68
:10479000F12CB2E04B2E512C612C712C9E012F5F1D
:1047A0003F4FB701A601C5010E94C7218823C9F167
:1047B00049815A816B817C81D701C6010196A11D77
:1047C000B11D452B462B472B19F02C013D010FC085
:1047D000AC01BD0144195509660977090D851E858F
:1047E0002F853889401751076207730779F02D81AB
:1047F0003E814F8158852F5F3F4F4F4F5F4F2D8335
:104800003E834F8358876C017D01A6CF0FEF1FEFCA
:104810002FEF3FE0B701A601C5010E94B62281112A
:1048200018C080E041C0D701C6010197A109B109B4
:104830008D839E83AF83B88797018601AC01BD014C
:10484000C5010E94B622882361F3CD80DE80EF800F
:10485000F8844C145D046E047F0428F3D1014D915B
:104860005D916D917C91411551056105710599F43A
:10487000F10140825182628273829920A1F0FFEFA0
:104880004F1A5F0A6F0A7F0AD5014D925D926D92B1
:104890007C92139708C093018201C5010E94B62241
:1048A0008111E6CFBECF81E060960FB6F894DEBFEF
:1048B0000FBECDBFDF91CF911F910F91FF90EF9071
:1048C000DF90CF90BF90AF909F907F906F905F9060
:1048D0004F903F902F900895AF92BF92CF92DF926A
:1048E000EF92FF920F931F93CF93DF9300D01F920D
:1048F000CDB7DEB75C016A017B0182E090E0A0E009
:10490000B0E0F50180839183A283B3839E012F5F82
:104910003F4FB701A601C5010E94C721882311F1AD
:1049200000E010E09801B701A601C5010E94B6227F
:104930008823C1F0C980DA80EB80FC80F50187898B
:10494000803129F488EF9FEFA0E0B0E004C088EF49
:104950009FEFAFEFBFE0C816D906EA06FB06B0F23C
:1049600081E001C080E00F900F900F900F90DF91D9
:10497000CF911F910F91FF90EF90DF90CF90BF905C
:10498000AF9008958F929F92AF92BF92CF92DF9295
:10499000EF92FF920F931F93CF93DF93EC01142FAD
:1049A0007093520860935108442341F1453010F050
:1049B00080E0EFC040E060E070E0CB010E94662143
:1049C0008823B1F320E1129FF0011124EF5FF54F2E
:1049D00080818F7769F784859585A685B78584362C
:1049E0009105A105B10520F3C084D184E284F3844C
:1049F000C114D104E104F10421F4DACFC12CD12C8B
:104A0000760140E0C701B6010E946621882381F249
:104A100080915E0890915F088115924049F630912F
:104A20006308332329F28091610890916208892BF1
:104A300009F4BECF20916008222309F4B9CF3A8B44
:104A40002C831D8630E041E050E06D85062FCA01C1
:104A5000062E02C0880F991F0A94E2F7281739071B
:104A600031F081E0860F8D87683078F3A1CF2091F7
:104A7000690830916A082115310519F040E050E0CD
:104A800008C02091770830917808409179085091BA
:104A90007A082D833E834F835887809161089091D7
:104AA000620846015701880E991EA11CB11C8B8A11
:104AB0009C8AAD8ABE8AE0916408F0916508F98FFE
:104AC000E88FA0916308B0E00E946E54680D791DD4
:104AD0008A1D9B1D6A8F7B8F8C8F9D8F15E0EE0F3B
:104AE000FF1F1A95E1F7E150FE4FEF2FFF27E695E4
:104AF000DC01CB018E0F9F1FA11DB11D8E879F87EB
:104B0000A88BB98B809066089090670881149104F7
:104B100019F0A12CB12C08C08090730890907408F3
:104B2000A0907508B0907608A7019601281B390B54
:104B30004A0B5B0BDA01C901880D991DAA1DBB1D2B
:104B400004C0B695A795979587950A95D2F789875A
:104B50009A87AB87BC87853F3FE09307A105B105E6
:104B600010F48CE014C0853F9F4FA105B10510F4EF
:104B700080E10DC080917F0890918008A09181080C
:104B8000B09182088A8F9B8FAC8FBD8F80E28F8B14
:104B900081E0DF91CF911F910F91FF90EF90DF9017
:104BA000CF90BF90AF909F908F900895FC0110829E
:104BB0001182738362830895FC0181818F5F8F77F7
:104BC0009081891779F09181DF01A90FB11D1496A9
:104BD0006C93DF01A80FB11D14961C92818381E0B4
:104BE00090E0089580E090E00895FC01908181813B
:104BF000981759F08081DF01A80FB11D14968C9190
:104C000090819F5F9F779083089580E00895FC01D5
:104C100091818081891718F48181908103C08181FD
:104C200090818058891B90E0681779072CF4808167
:104C3000E80FF11D8481089580E00895FC01218131
:104C400020830895DF92EF92FF920F931F93CF93EB
:104C5000DF93FB0150815523A1F1D12CE0E0F0E07E
:104C600034C0DD20D1F1A0E0D12CE0E0F0E05F5FC6
:104C70005F77AA2341F1521731F1DC01A50FB11D75
:104C80001496CC91D0E0DB01AE0FBF1FAC91BB27D7
:104C9000A7FDB095CA17DB0721F7D11001C0352F4A
:104CA0003196DB01AE0FBF1FAC91A11112C00115EF
:104CB000110511F0F8013083E114F10411F0F7014E
:104CC000508381E00DC04F5F4F77421741F0542F62
:104CD000D4CFA1E0DD24D394CACFA1E0C8CF80E037
:104CE000DF91CF911F910F91FF90EF90DF9008958A
:104CF000EF92FF920F931F93FC0121814081E12CE1
:104D0000F12C00E010E00E9422261F910F91FF90ED
:104D1000EF900895AF92BF92CF92DF92EF92FF9201
:104D20000F931F93CF93DF931F921F92CDB7DEB7E0
:104D30006C01B42EA22EFC0121814081CE0101968E
:104D40007C018E010E5F1F4FC6010E942226882320
:104D5000B9F0AA2051F0BB2021F089818F5F8F77B5
:104D600001C08A81F601808307C0BB2039F08981A8
:104D70008F5F8F77F601818381E003C08A81FACF4C
:104D800080E00F900F90DF91CF911F910F91FF90D6
:104D9000EF90DF90CF90BF90AF9008958F929F9249
:104DA000AF92BF92CF92DF92EF92FF920F931F9339
:104DB000CF93DF931F921F92CDB7DEB76C014A01EC
:104DC0005901FC0121814081CE0102967C0100E065
:104DD00010E0C6010E942226811102C080E02AC094
:104DE0004A814F5F4A83F6012181E12CF12C8E012B
:104DF0000F5F1F4FB401C6010E942226882371F362
:104E00009A8169816F7770E0F501AF014A195B09FA
:104E1000292F30E02617370749F0D601A20FB31F1C
:104E200014962C9121939F5F9F77EFCFF501E40FAC
:104E3000F51F10820F900F90DF91CF911F910F916E
:104E4000FF90EF90DF90CF90BF90AF909F908F90AA
:104E50000895FC0120812F5F50E030E080E090E079
:104E60006AE04181241709F1DF01A20FB11D1496F8
:104E70004C91403219F4311105C014C04D3211F477
:104E8000332371F030ED340F3A3078F4DC016A9F4F
:104E9000C0016B9F900D1124840F911DC09701C01C
:104EA00051E031E02F5F2F77DCCF552319F091953A
:104EB000819591090895CF93C82F80EE8C0F8F357F
:104EC00010F46C2F0DC065E283EF9BE00E949A4CBA
:104ED0004AE050E06C2F83EF9BE00E94C54D65E2F5
:104EE00083EF9BE0CF910C949A4C0F931F93CF9339
:104EF000DF93EC011881098183EF9BE00E94AB4CAA
:104F00004AE050E0612F83EF9BE00E94C54D60EBCB
:104F100072E083EF9BE00E94984C4AE050E0602FE3
:104F200083EF9BE00E94C54D6EE383EF9BE00E9400
:104F30009A4C101749F0FE01E10FF11D84810E9487
:104F40005B271F5F1F77F5CF83EF9BE0DF91CF914A
:104F50001F910F910C94AB4C0F9300E020E040E0C8
:104F600060E085E59AE00E94164C0F9108950F933A
:104F700000E020E040E060E08AE69AE00E94164C03
:104F80008BE59AE00F910C94DF280F9300E020E06E
:104F900040E060E080E79AE00E94164C0F9108958F
:104FA0000F9300E020E040E060E086E79AE00E9496
:104FB000164C0F9108950F9300E020E040E060E070
:104FC0008EE79AE00E94164C10927D0A10927C0A9D
:104FD0000F9108950F9300E020E040E060E08AE840
:104FE0009AE00E94164C86E89AE00F910C94D62C19
:104FF0000F9300E020E040E060E084E99AE00E9446
:10500000164C0F91089580E008950F9300E020E082
:1050100040E060E08AE99AE00E94164C0F91089502
:1050200082EB9AE00E94FC2B8091BC0A90E00895EC
:10503000FB01DA0184918D9331968111FBCF0895A4
:1050400080E090E0089580E090E008950F931F9332
:10505000CF93DF93D901EB010A811B812C813D8124
:10506000FC0101871287238734871092B90A1092B6
:10507000B80A0190F081E02D0484F585E02D9D01B2
:1050800060E070E0DF91CF911F910F911994089526
:10509000089580E090E00895089581E02091C30A8A
:1050A0003091C40A2530310509F080E00895039657
:1050B0000C9410288091C30A9091C40A059721F49A
:1050C00084EB9AE00C949A4C08958091C30A9091D5
:1050D000C40A059721F484EB9AE00C94984C089547
:1050E0008091C30A9091C40A059731F064E070E0A2
:1050F00082EB9AE00E946E2B8091E50A9091E40A7F
:10510000891B8F7719F061E070E002C064E070E005
:1051100082EB9AE00E946E2B8091BC0A90E0089589
:10512000FF920F931F93CF93DF93CDB7DEB72C97EA
:105130000FB6F894DEBF0FBECDBF8C010D5F1F4FC1
:10514000AE014F5F5F4F64EC73E0C8010E94182806
:10515000FF24F3942091C30A3091C40A253031050D
:1051600009F0F12C20E040E0BE016F5F7F4F84EE3C
:105170009AE00E948A26F82259F024E030E0309329
:10518000C40A2093C30AB80182EB9AE00E94202B44
:105190008F2D2C960FB6F894DEBF0FBECDBFDF91DA
:1051A000CF911F910F91FF90089560E070E084EE21
:1051B0009AE00E940726992787FD90950895CF933E
:1051C000DF93EC0188E295E09983888382E595E09E
:1051D0009C838B83CE0107960E940C4CD093540A7B
:1051E000C093530ADF91CF9108950F9300E020E020
:1051F00040E060E080EA9AE00E94164C0F9108952A
:105200000F931F93CF93DF93CDB7DEB72D970FB6D4
:10521000F894DEBF0FBECDBF8C018091BD0A8230F5
:1052200001F118F4813041F0BBC0833009F467C04C
:10523000843009F479C0B4C040E06BEE73E082EBD7
:105240009AE00E94862BE091B80AF091B90A309753
:1052500009F49AC0808180538A3008F495C061E3D4
:1052600094C020E030E040E050E0BE01635F7F4F3B
:1052700082EB9AE00E94412B882309F491C08D852E
:105280008823D1F140E060EE73E082EB9AE00E9467
:10529000862B68E175E084EB9AE00E94984C60915F
:1052A000B80A7091B90A6115710529F084EB9AE08A
:1052B0000E94984C06C064EB7AE0C80107960E94F1
:1052C000D24B62E284EB9AE00E949A4C6CE284EB4F
:1052D0009AE00E949A4C6091BA0A7091BB0A4AE027
:1052E00050E084EB9AE00E94984D6DE084EB9AE0E8
:1052F0000E949A4C83E015C063E070E040C020E05B
:1053000030E040E050E0BE01635F7F4F82EB9AE007
:105310000E94412B882309F443C08D85882361F3C3
:1053200084E08093BD0A3CC0AE014F5F5F4F66EDE5
:1053300073E0C80103960E94182820E030E0AE0117
:105340004F5F5F4FBE01635F7F4F82EB9AE00E9429
:10535000412B882329F18D85882371F285E090E027
:105360009093C40A8093C30A21E041E0BE016F5FBD
:105370007F4F84EE9AE00E948A2661E070E082EB23
:105380009AE00E946E2B0CC060E384EB9AE00E94CE
:105390009A4C6DE084EB9AE00E949A4C82E0C1CF77
:1053A0002D960FB6F894DEBF0FBECDBFDF91CF9123
:1053B0001F910F9108950F931F93CF93DF93EC01EB
:1053C0005093BB0A4093BA0A3E872D877093B90A5F
:1053D0006093B80A8C010D5F1F4F4EE050E0B8019A
:1053E00082EB9AE00E94142CB80182EB9AE00E94B2
:1053F000022BCE010E9400298091BC0A90E0DF912F
:10540000CF911F910F910895CF93DF93EC012396D5
:105410004FE050E0BE0182EB9AE00E94142C68EE4F
:1054200073E080E090E00E94AD4760E275E084EBBD
:105430009AE00E94984C68EE73E080E090E00E9451
:10544000AD4741E06BEC73E082EB9AE00E94862B63
:1054500084E090E09093C40A8093C30A84EE9AE0BB
:105460000E941E2681ED9AE00E94CF3264E670E031
:1054700080E090E00E94AD4761E070E082EB9AE04E
:105480000E946E2B8091E50A9091E40A891B8F7728
:1054900029F7BE0182EB9AE00E94202B8091BC0A82
:1054A00090E0DF91CF910895CF938091E40A90919D
:1054B000E50A8150891B8F77B9F084EE9AE00E944B
:1054C000F525C82F9091E40A8091E50A9150981B28
:1054D0009F77943621F481ED9AE00E94CF328C2F91
:1054E000992787FD909502C080E090E0CF910895C4
:1054F0008091E50A9091E40A891B8F7741F084EE50
:105500009AE00E941E2681ED9AE00C94CF3261E071
:1055100070E082EB9AE00C946E2B2091BE0A3091E1
:10552000BF0A2E30310549F02331310541F02130D9
:10553000310539F46093E50A08950C9400290C9420
:10554000782A0895CF93DF93EC01BC016D5F7F4F04
:1055500043E150E082EB9AE00E94142CCE01DF91EF
:10556000CF910C94782A03970C94902803970C946D
:105570008D2A0F9300E020E040E060E086EA9AE0A8
:105580000E94164C0F9108950F9300E020E040E038
:1055900060E08CEA9AE00E94164C0F910895CF9239
:1055A000DF92FF920F931F93CF93DF931F92CDB79C
:1055B000DEB78C016B01F601F490FF2059F0D801A1
:1055C000ED91FC910280F381E02D6F2DC80149839C
:1055D00019954981BFEFCB1ADB0AF110ECCF4423B8
:1055E00031F061E975E0C80102960E94984C81E0B3
:1055F00090E00F90DF91CF911F910F91FF90DF907E
:10560000CF900895FC0183899489892B59F085896D
:105610009689892B51F08789908D892B81F4A2E09E
:10562000B0E005C0A0E0B0E002C0A1E0B0E0AA0F89
:10563000BB1FAE0FBF1F54967C936E935397089574
:10564000FC01838994898617970769F08589968973
:105650008617970759F08789908D8617970781F4E9
:10566000A2E0B0E005C0A0E0B0E002C0A1E0B0E080
:10567000AA0FBB1FAE0FBF1F54961C921E925397CA
:105680000895EF92FF920F931F93CF93DF938B01B7
:10569000E9014115510531F4209721F4409114029C
:1056A000509115027C0122E3E20EF11CBA01C70100
:1056B0000E947826F8018083811108C0209731F07C
:1056C000BE01C7010E947826F801808381E0DF9146
:1056D000CF911F910F91FF90EF900895FC016130E1
:1056E000710531F08091BE0A9091BF0A029749F08E
:1056F000628781E090E095878487128E118E838780
:1057000008951092C40A1092C30AF2CF0F931F9308
:10571000CF93DF9300D0CDB7DEB78C01C2964B8319
:1057200069837A830E941E26D801ED91FC91048042
:10573000F581E02D4B8169817A81C8010F900F902E
:105740000F90DF91CF911F910F911994CF92DF921B
:10575000FF920F931F93CF93DF931F92CDB7DEB7C6
:105760008C01F62EC12CD12CF801EC0DFD1D838986
:105770009489009759F0DC01ED91FC910280F3814E
:10578000E02D6F2D49831995498101C080E0B4E077
:10579000CB16D10431F0E2E0CE0ED11C882321F3E8
:1057A00019C0811117C0D80159968D919C915A97B3
:1057B000009781F0DC01ED91FC910190F081E02DEA
:1057C0006F2D0F90DF91CF911F910F91FF90DF9080
:1057D000CF9019940F90DF91CF911F910F91FF906F
:1057E000DF90CF900895FC012685222319F067876A
:1057F000408B08950C94A62BCF93DF93EC018E85FC
:10580000882379F09F858889981759F0CE01C29630
:105810000E94752748896F85CE010E94A62B1F869E
:10582000188ADF91CF910895FC01728F618F1286E3
:1058300081E08387558744871786108A0895CF9221
:10584000DF92EF92FF920F931F93CF93DF93EC01C0
:105850000E947E476B017C010B8D1C8D2D8D3E8D32
:10586000601B710B820B930BCB8EDC8EED8EFE8E4C
:10587000DF91CF911F910F91FF90EF90DF90CF902C
:105880000895CF93DF93EC011D821C828AE595E099
:105890009983888384E695E09B838A83CE014F9623
:1058A0000E94A833D8A7CFA31F86188A81E08A87D1
:1058B0001B8681E090E09D878C87CE010E941F2C83
:1058C0001C8A1B8A1E8A1D8A188E1F8ADF91CF911F
:1058D000089582EB9AE00C94412C0F931F93CF9381
:1058E000DF931F92CDB7DEB78C01FC01868588233C
:1058F00029F0862F69830E945B276981C8014F9632
:105900000F90DF91CF911F910F910C94D732029796
:105910000C946D2C0F9300E020E040E060E088E6FE
:105920009BE00E94164C0F9108950F9300E020E039
:1059300040E060E08EE69BE00E94164C0F910895D7
:105940000F9300E020E040E060E084E79BE00E94ED
:10595000164C0F9108950F9300E020E040E060E0C6
:105960008AE79BE00E94164C0F91089580E090E03A
:10597000089580E090E0089581E02091C30A30917D
:10598000C40A2530310509F080E0089581E02091B6
:10599000C30A3091C40A2530310509F080E008952A
:1059A00080E090E0089502960C9410282CE635E0F3
:1059B000FC013183208322E835E0338322839093F6
:1059C000850A8093840A08950F931F93CF93DF93E2
:1059D00000D01F92CDB7DEB78C018091BD0A823016
:1059E00099F060F4813009F079C041E068E274E038
:1059F00082EB9AE00E94862B82E034C08330C1F1B2
:105A0000843009F44EC06AC08DE089838AE08A83BD
:105A10001B8220E030E0AE014F5F5F4FBE016C5F44
:105A20007F4F82EB9AE00E94412B882309F456C0F5
:105A30008C818823D1F040E066E174E082EB9AE04B
:105A40000E94862B6091BA0A7091BB0A4AE050E02E
:105A500084EB9AE00E94984D6DE084EB9AE00E94FE
:105A60009A4C83E08093BD0A39C063E070E032C095
:105A700020E030E040E050E0BE016C5F7F4F82EB01
:105A80009AE00E94412B882349F18C81882369F395
:105A900041E06AE074E082EB9AE00E94862B84E0A9
:105AA000E1CF20E030E040E050E0BE016C5F7F4F8E
:105AB00082EB9AE00E94412B882381F08C8188231D
:105AC000A1F2B8016E5F7F4F82EB9AE00E94022B39
:105AD00061E070E082EB9AE00E946E2B0F900F90D5
