:100000000C94AE030C94DF030C94DF030C94DF0319
:100010000C94DF030C94DF030C94DF030C94DF03D8
:100020000C94DF030C940D240C9435240C945D2463
:100030000C94DF030C9487410C94DF030C94DF03D2
:100040000C94DF030C94DF030C94DF030C94DF03A8
:100050000C94DF030C94DF030C94DF030C94BD3588
:100060000C94DF030C9446390C947C390C94DF0318
:100070000C94DF030C94DF030C94DF030C94DF0378
:100080000C94DF030C94DF030C94DF030C94DF0368
:100090000C94F3390C94293A0C94DF030C94D51387
:1000A0000C94DF030C94DF030C94DF030C94DF0348
:1000B0000C94DF030C94DF030C94DF030C94DF0338
:1000C0000C94DF030C94DF030C94DF030C94DF0328
:1000D0000C94DF030C94DF030C94A03A0C94D63AF2
:1000E0000C94DF03E336E636D536D936DF361D37D6
:1000F000EA36EE36F436F836FC36023706370A377B
:100100001D371037143718370C9420120C94001C2C
:100110000C947D0E0C9470260C94E3360C949A2C5F
:100120000C94D01B0C944A120C94B52A0C9405180C
:100130000C94902A0C94482C0C94031C0C94C73BF0
:100140000C94B9210C94552A0C94152D0C9433174A
:100150000C94E6360C9485240C942E1D0C940020EF
:100160000C94231B0C945B2D0C941E2E0C94A01746
:100170000C94121F0C948A170C94A71C0C94EA364A
:100180000C94E61B0C94E7160C94CA1F0C94532C89
:100190000C94032B0C94D82A0C94B71B0C94D721E5
:1001A0000C945D3A0C94CE1F0C94A6390C948419CF
:1001B0000C94533A0C94F8360C94BB2C0C94951771
:1001C0000C94E9190C9453170C94F61B0C943419E5
:1001D0000C94E6190C94321E0C946A2C0C94A91DF4
:1001E0000C94B71C0C94C0170C9407220C94EB21B0
:1001F0000C94CF2C0C949B2A0C94C9260C94EC1BC9
:100200000C9402370C9450170C94DB1B0C9414378D
:100210000C9456170C945A2C0C9477170C940B19B9
:100220000C94BD190C94991B0C9478120C94281200
:100230000C94F3120C94632A0C941D370C94F82C34
:100240000C9435170C9425180C94CC1E0C94AF2CE0
:100250000C94FF210C942B1D0C94FF190C94340664
:100260000C94EE360C94921F0C94BC1F0C94003B23
:100270000C94E91B0C94882C0C94E3190C946022C8
:100280000C94EF200C943D2C0C946E2C0C947B2B36
:100290000C9458210C947D170C94D81F0C941A17A9
:1002A0000C9400170C9479170C94AE060C947C17E0
:1002B0000C94B0390C94DC160C9487170C944138CC
:1002C0000C94DC2A0C943B120C94D9360C94D11F5C
:1002D0000C94722A0C94D82B0C940A3B0C94FF2A91
:1002E0000C94901E0C94D2190C9463380C94F11E4B
:1002F0000C94EE210C94722C0C94BA1B0C949D1B44
:100300000C94882A0C9410370C944D3B0C94FC36BA
:100310000C94B91F0C94B6370C94E3370C944B1221
:100320000C9428170C94DF360C94B72C0C94F436EC
:100330000C94662A0C940A370C94D5360C94C51B81
:100340000C9478170C94CF370C94682A0C94F516FB
:100350000C94C1370C942E2D0C9418370C94C02D8E
:100360000C94D01C0C94281D0C94311D0C94F1217C
:100370000C9406370C94A83B0C9445260C94F41965
:100380000C94BE2A0C94192C0C940B170C94421D3F
:1003900046494E4745525052494E54002323232389
:1003A000232323232323232323232323232323231D
:1003B000232300436F6E6E656374696F6E3A20632A
:1003C0006C6F736500486F73743A20002048545472
:1003D000502F312E3100474554202F6361732F6316
:1003E0006865636B2E7068703F00434C4F53454403
:1003F0000041542B5149434C4F534500434F4E4EFF
:100400004543540D0A0041542B51494F50454E3D30
:100410000041542B5149444E5349503D00434F4EE7
:100420004E4543540D0A00434C4F5345440D0A00BA
:1004300041542B51495345525645520041542B517A
:10044000494C504F52543D22544350222C004154A9
:100450002B51494C4F4349500041542B434D474485
:100460003D0041542B434D474C3D225245432055BE
:100470004E52454144222C310041542B434D4753A9
:100480003D22002B434C49503A0042555359004EEF
:100490004F2043415252494552002B434F4C503A52
:1004A0000052494E470041544800415441004154D4
:1004B0002B434C434300415444001F1C1F1E1F1E6E
:1004C0001F1F1E1F1E1F00000A0B02090C0D0E0825
:1004D000070304010000000000000000000000000D
:1004E000000000000000000000000000000000000C
:1004F00000001211100000000000000000000000C9
:1005000000000000000000000000000001021020B8
:100510002008081020401020408002010201080439
:1005200002010102040810204080804020100804CD
:100530000201800402018040201008040201080426
:10054000020101020408102040800102040810206A
:100550004080050505050705080808080202020293
:100560000A0A08080404040401010101010101014F
:100570000303030303030303040707070C0C0C0C1A
:100580000C0C0C0C02020202060606060606060603
:100590000B0B0B0B0B0B0B0B00002000230026009A
:1005A00029002C002F003200000100000301060189
:1005B000090100002200250028002B002E00310038
:1005C000340002010000050108010B0100002100B8
:1005D000240027002A002D00300033000101000014
:1005E000040107010A01024E414E494E495459493E
:1005F0004E46CDCCCC3D0AD7233C17B7D13877CC6B
:100600002B329595E6241FB14F0A000020410000CF
:10061000C84200401C4620BCBE4CCA1B0E5AAEC588
:100620009D7400407A10F35A00A0724E1809001011
:10063000A5D4E80000E87648170000E40B54020057
:1006400000CA9A3B000000E1F50500008096980082
:10065000000040420F000000A086010000001027AB
:1006600000000000E803000000006400000000003B
:100670000A00000000000100000000002C76D8886D
:10068000DC674F0823DFC1DFAE59E1B1B796E5E380
:10069000E453C63AE651997696E8E6C28426EB8999
:1006A0008C9B62ED407C6FFCEFBC9C9F40F2BAA536
:1006B0006FA5F490055A2AF75C936B6CF9676DC1CE
:1006C0001BFCE0E40D47FEF520E6B500D0ED902ED2
:1006D0000300943577050080841E080000204E0A30
:1006E000000000C80C333333330F986E128311416E
:1006F000EF8D2114893BE65516CFFEE6DB18D18439
:100700004B381BF77C1D901DA4BBE424203284725F
:100710005E228100C9F124ECA1E53D2734067D0E5F
:10072000F312DC16E716F51600170B171A17281721
:1007300035172518E919F419991BBA1BC51BD01BCD
:10074000DB1BF12185247026C926552A3D2C482C17
:100750001E2EB0395D3A0A3BA83BAE0611241FBEDF
:10076000CFEFD1E2DEBFCDBF00E00CBF15E0A0E0CF
:10077000B2E0E8E3FBE900E00BBF02C007900D9296
:10078000AC3EB107D9F72FE0ACEEB5E001C01D9249
:10079000AD31B207E1F717E0CAE5D7E000E006C0E7
:1007A00022970109FE010BBF0E94E746CC31D10719
:1007B00080E00807A9F70E94B83B0C948A4D0C947E
:1007C00000001F93CF93DF9300D000D0CDB7DEB7EA
:1007D00061E08AE00E941E3761E084E00E941E37DB
:1007E00061E085E30E941E3726E040E855E260E0C4
:1007F00070E080E19DE00E94C83868EC70E080E025
:1008000090E00E94363661E084E00E94573765E14F
:1008100072E0CE0101960E945542BE016F5F7F4F8C
:1008200082E196E00E945F0A182FCE0101960E9495
:10083000E741112319F061E272E002C06EE272E05A
:1008400080E19DE00E94833C60E872E080E19DE0F1
:100850000E94383C0E94D8114AE050E0BC0180E17F
:100860009DE00E94523D8BE696E00E94CC0D8AE20C
:1008700096E00E94760882E596E00E94A83420E087
:1008800042E060E183E79AE00E9464256FE372E052
:1008900083E79AE00E94383C6BE472E080E19DE0DF
:1008A0000E94833C83E79AE00E94432567E572E05B
:1008B00083E79AE00E94383C65E672E080E19DE0C3
:1008C0000E94833C6EE772E080E19DE00E94383C2C
:1008D0000E94D8114AE050E0BC0180E19DE00E94F6
:1008E000523D62E070E08BE696E00E94270F6EE7D3
:1008F00072E0882301F180E19DE00E94383C0E9473
:10090000D8114AE050E0BC0180E19DE00E94523DD8
:100910006FE872E080E19DE00E94833C83E79AE00B
:100920000E9443256CE972E083E79AE00E94383C1C
:1009300010920C0637C080E19DE00E94383C0E9476
:10094000D8114AE050E0BC0180E19DE00E94523D98
:1009500069EA72E080E19DE00E94833C6AEB72E00C
:1009600080E19DE00E94833C83E79AE00E9443255A
:1009700069EA72E083E79AE00E94383C81E0809364
:100980000C0665EC72E0CE0101960E945542BE0154
:100990006F5F7F4F87E396E00E94E907CE010196E3
:1009A0000E94E74160E872E080E19DE00E94383CEF
:1009B0000E94D8114AE050E0BC0180E19DE00E9415
:1009C000523D0E94073660930D0670930E06809389
:1009D0000F069093100626960FB6F894DEBF0FBE52
:1009E000CDBFDF91CF911F9108958F929F92AF92CB
:1009F000BF92CF92DF92EF92FF920F931F93CF930C
:100A0000DF93CDB7DEB7EC970FB6F894DEBF0FBE1D
:100A1000CDBF6BEC72E080E19DE00E94383C0E940B
:100A2000D8114AE050E0BC0180E19DE00E94523DB7
:100A300061E084E00E9457371092F8056CEE75E093
:100A400082E196E00E94970A28EC30E040E050E016
:100A50006FEF75E08AE296E00E94340A8091F80513
:100A6000882309F4E2C08AE496E00E9482076DE0E0
:100A700075E0CE01C7960E9455426DE075E0CE014B
:100A8000C1960E945542AE014F5C5F4FBE01695C4A
:100A90007F4F89E496E00E94940C65E076E0CE01F9
:100AA00001960E94A3426FEF75E0CE0107960E9467
:100AB000A342BE01695C7F4FCE010D960E94A34206
:100AC000BE016F5C7F4FCE0143960E94A34267E355
:100AD00076E0CE0185960E948C076CEE75E0CE0123
:100AE00049960E94A34262EF75E0CE014F960E94A4
:100AF000A34267E376E0CE018B960E94EB07CE011E
:100B000001964C0106965C0106966C0106967C01E6
:100B10008E010B5D1F4F9E01275E3F4FAE01415E70
:100B20005F4FBE01655D7F4F8BE696E00E94E60F4A
:100B30008C01CE018B960E94E741CE014F960E9418
:100B4000E741CE0149960E94E741CE0185960E9479
:100B5000E741C7010E94E741C6010E94E741C50184
:100B60000E94E741C4010E94E74183E79AE0101622
:100B7000110664F50E943C2540E061E083E79AE0BD
:100B80000E944A258BE696E00E94560E019779F462
:100B90006BED72E083E79AE00E94383C8CE496E0CB
:100BA0000E94800C8AE496E00E94E8062FC06AEE5C
:100BB00072E083E79AE00E94383C8CE496E00E9461
:100BC000850C8AE496E00E94120720C00E943C2512
:100BD00083E79AE00E9443256CEF72E083E79AE096
:100BE0000E94383C41E061E083E79AE00E944A2598
:100BF0006BE073E083E79AE00E94383C8CE496E077
:100C00000E948A0C8AE496E00E94DE0668EE73E099
:100C100080E090E00E943636CE01C1960E94E74106
:100C2000CE01C7960E94E7410CC083E79AE00E947C
:100C30003C258CE496E00E948F0C83E79AE00E94AA
:100C4000950BEC960FB6F894DEBF0FBECDBFDF91CB
:100C5000CF911F910F91FF90EF90DF90CF90BF90B9
:100C6000AF909F908F900895AF92CF92EF920F9395
:100C700000E020E040E060E08BE89AE00E94913BD9
:100C80008CE1A82E9BE1C92E2AE1E22E09E128E1A0
:100C900047E166E183E79AE00E941F2685E193E041
:100CA0009093740A8093730A8BE696E00E94873BC8
:100CB0008EE596E00E94612B27E030E046E050E0B0
:100CC00065E070E08CE496E00E94460C68E070E01D
:100CD0008AE496E00E94DA066DE075E087E396E02C
:100CE0000E9455426DE075E08DE396E00E9455420A
:100CF0006DE075E083E496E00E9455428AE296E05A
:100D00000E9467086DEA7DE08AE196E00E94F51195
:100D100082E196E00E94510A6DE075E08FEF95E068
:100D20000E9455426DE075E085E096E00E945542D4
:100D30006DE075E089EF95E00E9455426DE075E049
:100D40008CEE95E00E9455426DE075E082EF95E0F3
:100D50000F91EF90CF90AF900C94554282EF95E0B9
:100D60000E94E7418CEE95E00E94E74189EF95E013
:100D70000E94E74185E096E00E94E7418FEF95E011
:100D80000E94E74182E196E00E94E74180E396E01D
:100D90000E94E7418AE296E00E94E74183E496E000
:100DA0000E94E7418DE396E00E94E74187E396E0E9
:100DB0000C94E741FC0171836083089528EE33E0D1
:100DC00040E050E068EE73E0FC0180810C94563EF8
:100DD000CF93DF93EC0120E030E0A90160EA7FE0EF
:100DE00088810E94563E6CE271E080E090E00E94B3
:100DF000363620E030E0A90160ED77E088810E947E
:100E0000563E6CE271E080E090E00E94363628ECBD
:100E100030E040E050E060EA7FE08881DF91CF91F0
:100E20000C94563ECF93DF93EC0120E030E0A90113
:100E300068EC70E088810E94563E68EC70E080E0CB
:100E400090E00E94363620E030E0A90160EA7FE0C1
:100E500088810E94563E68EC70E080E090E00E943D
:100E6000363620E030E0A90160ED77E088810E940D
:100E7000563E68EC70E080E090E00E94363620E05C
:100E800030E0A90160EA7FE088810E94563E68EC6C
:100E900070E080E090E00E94363620E030E0A9016A
:100EA00068EE73E088810E94563E68EC70E080E056
:100EB00090E00E94363620E030E0A90160EA7FE051
:100EC00088810E94563E68EC70E080E090E00E94CD
:100ED000363620E030E0A90160ED77E088810E949D
:100EE000563E68EC70E080E090E00E94363628ECD8
:100EF00030E040E050E060EA7FE08881DF91CF9110
:100F00000C94563E20E233E040E050E060EA7FE09F
:100F1000FC0180810C94563EEF92FF920F931F9339
:100F2000CF93DF93CDB7DEB72C970FB6F894DEBF23
:100F30000FBECDBF7C0169E173E0CE0107960E9430
:100F4000554200E010E0B8018FEA9AE00E941D12BD
:100F5000482FB801CE0107960E94FB430F5F1F4F39
:100F60000630110581F765E873E0CE0101960E9415
:100F70005542BE016F5F7F4FCE0107960E943844F5
:100F80008C01CE0101960E94E741012B59F426E025
:100F900030E042E050E0BE01695F7F4FC7010E9430
:100FA0003C4405C060E273E0C7010E945542CE0197
:100FB00007960E94E741C7012C960FB6F894DEBF52
:100FC0000FBECDBFDF91CF911F910F91FF90EF909A
:100FD00008950C948C42CF93DF93EC010E94A342BE
:100FE000CE01DF91CF91089560E875E20E9405126D
:100FF0000895EF92FF920F931F93CF93DF9300D04A
:1010000000D0CDB7DEB78B0160E973E0C80106966A
:101010000E944D4326E040E855E260E070E08DEA32
:101020009DE00E94C8388DEA9DE00E94413844E668
:1010300050E060E070E08DEA9DE00E94D93D4AE218
:101040006DEA7DE0CE0101960E942E3EBE016F5FEB
:101050007F4FC8010E948C42CE0101960E94E74159
:1010600065E873E0CE0101960E945542BE016F5FB4
:101070007F4FC8010E9438447C01CE0101960E9436
:10108000E741F7FC15C065E973E080E19DE00E944F
:10109000833CB80180E19DE00E94713C65E973E00A
:1010A00080E19DE00E94833C81E0F801848702C0DA
:1010B000F801148626960FB6F894DEBF0FBECDBF9A
:1010C000DF91CF911F910F91FF90EF900895CF93F3
:1010D000DF93EC016DE075E00E9455426DE075E034
:1010E000CE010696DF91CF910C94554281E0089590
:1010F0002F923F924F925F926F927F928F929F9228
:10110000AF92BF92CF92DF92EF92FF920F931F9315
:10111000CF93DF93CDB7DEB7A7970FB6F894DEBFB6
:101120000FBECDBF8C016A017B0126E040E855E28D
:1011300060E070E08AE49EE00E94C8388AE49EE0A5
:101140000E9441380E9407362B013C016DE075E09A
:10115000CE014F960E945542180186E0280E311CA0
:101160000E94073664197509860997096C157D0573
:101170008E059F0508F057C14AE06AE47EE0CE0183
:1011800001960E942E3EBE016F5F7F4FCE014F96AB
:101190000E948C42CE0101960E94E7416BE773E00A
:1011A000CE0101960E945542BE016F5F7F4FCE0176
:1011B0004F960E9438445C01CE0101960E94E7419F
:1011C000B7FCCECFA12CB12C812C912CEFEF8E1A35
:1011D0009E0A61E873E0CE0101960E945542A40187
:1011E000BE016F5F7F4FCE014F960E941C444C01A1
:1011F000CE0101960E94E741F1E0AF16B10449F437
:10120000B4016F5F7F4FCE014F960E941A448FA3A7
:101210003CC082E0A816B104B1F1E4E0AE16B1041E
:10122000B9F44DA15EA14F5F5F4F9401BE01615EB5
:101230007F4FCE0101960E943C44BE016F5F7F4FFD
:10124000C8010E948C42CE0101960E94E7411BC05A
:10125000F6E0AF16B104C9F494014DA15EA14F5F51
:101260005F4FBE01615E7F4FCE0101960E943C44FC
:10127000BE016F5F7F4FC1010E948C42CE0101967B
:101280000E94E74102C09EA28DA28FEFA81AB80A61
:10129000EAE0AE16B10409F099CFFFA1F13421F4D0
:1012A00081E0F801848702C0F80114862BE030E069
:1012B0004AE050E0B801CE0107960E943C4422E08B
:1012C00030E040E050E0B801CE0149960E943C4435
:1012D000CE0149960E9481444B015C0129E030E037
:1012E00042E050E0B801CE0143960E943C44CE015A
:1012F00043960E94814420E030E040E752E40E949F
:10130000F5449B01AC01C501B4010E948D44AB01C1
:10131000BC0126E0CE010D960E941D43BE01635F15
:101320007F4FCE0101960E94A342BE01695F7F4FAD
:10133000CE0101960E94AF43BC01C8010E948C42BD
:10134000CE0101960E94E741CE010D960E94E74131
:10135000CE0143960E94E741CE0149960E94E741A3
:10136000CE0107960E94E7412CE030E04BE050E0D0
:10137000B101CE0107960E943C4423E030E040E0FA
:1013800050E0B101CE0149960E943C44CE014996FD
:101390000E9481444B015C012AE030E043E050E0D0
:1013A000B101CE0143960E943C44CE0143960E9477
:1013B000814420E030E040E752E40E94F5449B0184
:1013C000AC01C501B4010E948D44AB01BC0126E013
:1013D000CE010D960E941D43BE01635F7F4FCE017B
:1013E00001960E94A342BE01695F7F4FCE01019624
:1013F0000E94AF43BC01C1010E948C42CE01019604
:101400000E94E741CE010D960E94E741CE0143962E
:101410000E94E741CE0149960E94E741CE0107961E
:101420000E94E7419DCE8AE49EE00E942A39CE01C7
:101430004F960E94E741A7960FB6F894DEBF0FBE05
:10144000CDBFDF91CF911F910F91FF90EF90DF9073
:10145000CF90BF90AF909F908F907F906F905F9054
:101460004F903F902F9008950F931F93CF93DF934A
:10147000EC018B01BA01A9010E947808BE01C801E4
:101480000E948C42BE016A5F7F4FC80106960E948F
:101490008C428C85F8018487DF91CF911F910F9149
:1014A0000895CF93DF93EC016DE075E00E94554203
:1014B0008DE190E09F838E83DF91CF9108950F930C
:1014C0001F93CF93DF9300D000D0CDB7DEB78C0150
:1014D000CE0101960E94A342BE016F5F7F4FC801FB
:1014E0000E948C42CE0101960E94E74163E873E0BE
:1014F000C8010E94DC4381110CC065E172E0C801A3
:101500000E94DC43882339F08AE196E00E94F407C8
:1015100003C081E001C080E026960FB6F894DEBFDC
:101520000FBECDBFDF91CF911F910F9108950F9303
:101530001F93CF93DF93EC018B0160E08E810E94BB
:10154000573760E08E810E941E378E810E948D3752
:10155000009749F4B80181E196E0DF91CF911F91A6
:101560000F910C94D00B019749F4B8018AE196E0F1
:10157000DF91CF911F910F910C94F907DF91CF91DB
:101580001F910F910895AF92BF92CF92DF92EF9289
:10159000FF920F931F93CF93DF93CDB7DEB7E09702
:1015A0000FB6F894DEBF0FBECDBF5C01CDA2DEA2A8
:1015B000EFA2F8A609A71AA72BA740E060E00E94B7
:1015C0004A258DA19EA164E670E00E9472464AE021
:1015D000BC01CE0101960E94F1424AE06FA1CE010A
:1015E00007960E94C4424AE068A5CE0143960E9435
:1015F000C442BE016D5E7F4FCE010D960E94A34294
:1016000068E873E0CE010D960E94C243BE01695F97
:101610007F4F0E94AF4368E873E00E94C243BE015F
:101620006F5F7F4F0E94AF43BC01CE014F960E9477
:10163000A342CE010D960E94E741CE0143960E943F
:10164000E741CE0107960E94E741CE0101960E9434
:10165000E741BE01615E7F4FC5010E942A3C40E028
:1016600068E0C5010E944A254AE06BA5CE010196BB
:101670000E94C4424AE06AA5CE0107960E94C44275
:101680004AE069A5CE0143960E94C442BE016D5E48
:101690007F4FCE010D960E94A3426DE872E0CE010D
:1016A0000D960E94C243BE01695F7F4F0E94AF4307
:1016B0006DE872E00E94C243BE016F5F7F4F0E94DF
:1016C000AF43BC01CE0149960E94A342CE010D96C4
:1016D0000E94E741CE0143960E94E741CE01079662
:1016E0000E94E741CE0101960E94E741BE01675E7C
:1016F0007F4FC5010E942A3CCE0149960E94E741D6
:10170000CE014F960E94E741E0960FB6F894DEBFF7
:101710000FBECDBFDF91CF911F910F91FF90EF9042
:10172000DF90CF90BF90AF900895AF92BF92CF92CD
:10173000DF92EF92FF920F931F93CF93DF93CDB77A
:10174000DEB72C970FB6F894DEBF0FBECDBF5C019D
:101750000E943C2562E576E0CE0101960E94273585
:10176000C980DA80EB80FC800D811E812F81388555
:1017700049855A856B857C85C5010E94C30A2C96D4
:101780000FB6F894DEBF0FBECDBFDF91CF911F9192
:101790000F91FF90EF90DF90CF90BF90AF900895A2
:1017A000FF920F931F93CF93DF9300D000D0CDB75C
:1017B000DEB78B0163E873E0C80106960E94AC4275
:1017C00026E040E855E260E070E08DEA9DE00E948E
:1017D000C83844E150E060E070E08DEA9DE00E948E
:1017E000D93D6DEA7DE0CE0101960E94143EBE0116
:1017F0006F5F7F4FC8010E948C42CE0101960E940C
:10180000E741F801848195810C9791F5FF24F394C9
:10181000F4866AE873E080E19DE00E94833C6BE916
:1018200073E080E19DE00E94833C62EA73E080E126
:101830009DE00E94383CF801648175814AE050E0E7
:1018400080E19DE00E94953D61EB73E080E19DE0C9
:101850000E94383CB80180E19DE00E94713C6AE83A
:1018600073E080E19DE00E94833CF801F48602C0B1
:10187000F801148626960FB6F894DEBF0FBECDBFD2
:10188000DF91CF911F910F91FF900895CF93DF9338
:10189000EC01862F688379835B834A833D832C83A5
:1018A00061E00E941E3761E08A810E941E3761E07C
:1018B0008C81DF91CF910C941E370F931F93CF93A0
:1018C000DF93EC01042F122F662311F061E001C0B9
:1018D00060E088810E945737002311F061E001C069
:1018E00060E08A810E945737112311F061E001C046
:1018F00060E08C81DF91CF911F910F910C9457374D
:1019000020E041E060E00C945D0C20E040E061E00C
:101910000C945D0C21E040E060E00C945D0C20E054
:1019200040E060E00C945D0CEF92FF920F931F93E8
:10193000CF93DF93CDB7DEB7A4970FB6F894DEBF91
:101940000FBECDBF8B017A0162E576E0CE01019634
:101950000E94273569817A814AE0CE010D960E9466
:10196000F1424AE06B81CE0143960E94C4424AE0B4
:101970006C81CE014F960E94C442BE01615E7F4FD2
:10198000CE0149960E94A34263E672E0CE014996D9
:101990000E94C243BE016D5E7F4F0E94AF4363E66B
:1019A00072E00E94C243BE01635F7F4F0E94AF435B
:1019B000BC01C8010E948C42CE0149960E94E741B9
:1019C000CE014F960E94E741CE0143960E94E74127
:1019D000CE010D960E94E7414AE06F81CE010D963F
:1019E0000E94C4424AE06E81CE0143960E94C442E6
:1019F0004AE06D81CE014F960E94C442BE01615EF5
:101A00007F4FCE0149960E94A34263E672E0CE0169
:101A100049960E94C243BE016D5E7F4F0E94AF4354
:101A200063E672E00E94C243BE01635F7F4F0E9483
:101A3000AF43BC01C7010E948C42CE0149960E946F
:101A4000E741CE014F960E94E741CE0143960E94A6
:101A5000E741CE010D960E94E741A4960FB6F89497
:101A6000DEBF0FBECDBFDF91CF911F910F91FF90D1
:101A7000EF900895FF920F931F93CF93DF93EB01A5
:101A80008B01F12CF80161918F0140E150E080E180
:101A90009DE00E94773D6DE872E080E19DE00E944C
:101AA000383CF394F5E0FF12EDCF40E150E06D815A
:101AB00080E19DE0DF91CF911F910F91FF900C94F9
:101AC0007E3D0F931F93CF93DF9300D000D0CDB70F
:101AD000DEB78C0169EC73E080E19DE00E94383C48
:101AE0006AE072E0C8010E943A0D60ED73E080E1A7
:101AF0009DE00E94383C6DEC7CE0CE0101960E9496
:101B0000FD29BE016F5F7F4F80E19DE00E94953C03
:101B100066ED73E080E19DE00E94383C6DEC7CE076
:101B2000CE0101960E94452ABE016F5F7F4F80E182
:101B30009DE00E94953C6DED73E080E19DE00E9488
:101B4000383C6DEC7CE0CE0101960E942D2ABE014E
:101B50006F5F7F4F80E19DE00E94953C68EE73E0EF
:101B600080E19DE00E94383C6DEC7CE0CE01019666
:101B70000E94152ABE016F5F7F4F80E19DE00E94A9
:101B8000953C26960FB6F894DEBF0FBECDBFDF9111
:101B9000CF911F910F910895CF92DF92EF92FF9214
:101BA0000F931F93CF93DF93CDB7DEB76E970FB62A
:101BB000F894DEBF0FBECDBF6C010EE420EC43E015
:101BC0006AE0CE0149960E94913B8B8D9C8DAD8D34
:101BD000BE8DF60182839383A483B58380E99FE160
:101BE0009783868362EF73E080E19DE00E94833CEF
:101BF00029EE35E03A8329838091930A9091940AE3
:101C0000A091950AB091960A8B839C83AD83BE8385
:101C100038872F838091990A90919A0AA0919B0A04
:101C2000B0919C0A89879A87AB87BC873E872D87AE
:101C300080919F0A9091A00AA091A10AB091A20A56
:101C40008F87988BA98BBA8B3C8B2B8B4091A50AE5
:101C50005091A60A6091A70A7091A80A4D8B5E8BDD
:101C60006F8B788FCE0101967C018E01095F1F4F2B
:101C70009E01235F3F4FAE014D5E5F4F6AE072E011
:101C80008DEC9CE00E94B129C6010E94610D6E9608
:101C90000FB6F894DEBF0FBECDBFDF91CF911F917D
:101CA0000F91FF90EF90DF90CF900895CF93DF9347
:101CB000EC016CE973E080E19DE00E945F3C2896B6
:101CC000BE0180E19DE00E94833C65E372E0CE01AD
:101CD0000E945149EC010E94D8114AE050E0BC0139
:101CE00080E19DE00E94523D81E090E0CD2B11F01B
:101CF00080E090E0DF91CF9108950F9300E020E025
:101D000040E060E089EA9AE00E94913B01EB20EC20
:101D100043E06AE083EA9AE00E94913B0BE021E015
:101D200048EC6AE08DE99AE00E94913B0AEF28ECCA
:101D300043E06AE087E99AE00E94913B00E020EEF0
:101D40004FEF6FEF81E99AE00E94913B0F91089568
:101D50004F925F926F927F928F929F92AF92BF92BB
:101D6000CF92DF92EF92FF920F931F93CF93DF9367
:101D700000D000D0CDB7DEB75C018B010E940736E2
:101D80006B017C0188EE93E0089F2001099F500CB5
:101D9000189F500C1124612C712C00E010E089EE8A
:101DA000882E85E0982E0E9407366C197D098E09D1
:101DB0009F09641575058605970550F08EE596E038
:101DC0000E94D82B81E00130110551F180E028C03C
:101DD000F501468157819A82898282819381A4810B
:101DE000B5818B839C83AD83BE83BE016F5F7F4FC4
:101DF0008EE596E00E947B2B8C016EE772E080E11D
:101E00009DE00E94383C0E94D8114AE050E0BC019D
:101E100080E19DE00E94523D0130110579F2C3CF6F
:101E200026960FB6F894DEBF0FBECDBFDF91CF91DF
:101E30001F910F91FF90EF90DF90CF90BF90AF90E8
:101E40009F908F907F906F905F904F9008954F92EA
:101E50005F926F927F928F929F92AF92BF92CF923A
:101E6000DF92EF92FF920F931F93CF93DF9300D0F7
:101E700000D0CDB7DEB78C017B010E9407362B0165
:101E80003C01B701C8010E94A80E882309F487C04D
:101E900088EE93E0E89E6001E99ED00CF89ED00C9D
:101EA0001124E12CF12CA12CB12C99EE892E95E076
:101EB000992E0E94073664197509860997096C15D1
:101EC0007D058E059F0508F061C0F80146815781A8
:101ED0009A82898282819381A481B5818B839C833C
:101EE000AD83BE83BE016F5F7F4F8EE596E00E949B
:101EF0007B2B5C0181309105E1F660E174E08EE5B9
:101F000096E00E94383C67E376E0CE0101960E949D
:101F10008C07BE016F5F7F4F8EE596E00E942A3CE2
:101F2000CE0101960E94E7416CE274E08EE596E0F6
:101F30000E94833C66E374E08EE596E00E94383CA4
:101F4000B8018EE596E00E94953C6DE374E08EE565
:101F500096E00E94833C8EE596E00E944B3C085F31
:101F60001F4F8EE596E00E94192C882379F08EE5AC
:101F700096E00E94B52A892BA1F320E034E0A80165
:101F800060E08EE596E00E94DF3DEBCF8EE596E0C7
:101F90000E94D82B81E0AA94AB2809F080E0269615
:101FA0000FB6F894DEBF0FBECDBFDF91CF911F916A
:101FB0000F91FF90EF90DF90CF90BF90AF909F90E8
:101FC0008F907F906F905F904F9008952F923F92E7
:101FD0004F925F926F927F928F929F92AF92BF9239
:101FE000CF92DF92EF92FF920F931F93CF93DF93E5
:101FF000CDB7DEB72E970FB6F894DEBF0FBECDBFBC
:102000003C012B011A013E872D876DE075E0CE0162
:1020100007960E945542F3014681578189EE95E06B
:102020009A83898382819381A481B5818B839C83E8
:10203000AD83BE83BE016F5F7F4F8EE596E00E9449
:102040007B2B892B09F494C16FE474E0CE010796D1
:102050000E94AC42BE01695F7F4FCE0101960E9493
:10206000A342B201CE0101960E94AF43BC01CE0152
:1020700007960E948C42CE0101960E94E741BE0164
:10208000695F7F4FCE0101960E94A34267E574E02D
:10209000CE0101960E94C243BC01CE0107960E9468
:1020A0008C42CE0101960E94E741BE01695F7F4FDD
:1020B000CE0101960E94A342B801CE0101960E9472
:1020C000AF43BC01CE0107960E948C42CE0101961F
:1020D0000E94E741BE01695F7F4FCE0101960E94D9
:1020E000A3426FE574E0CE0101960E94C243BC0199
:1020F000CE0107960E948C42CE0101960E94E741D4
:10210000BE01695F7F4FCE0101960E94A342B101DB
:10211000CE0101960E94AF43BC01CE0107960E94FA
:102120008C42CE0101960E94E741BE01695F7F4F5C
:10213000CE0101960E94A34266E674E0CE010196AC
:102140000E94C243BC01CE0107960E948C42CE0180
:1021500001960E94E741BE01695F7F4FCE01019663
:102160000E94A3426D857E85CE0101960E94AF43F9
:10217000BC01CE0107960E948C42CE0101960E94BE
:10218000E741BE01695F7F4FCE0101960E94A342E5
:102190006CE674E0CE0101960E94C243BC01CE0100
:1021A00007960E948C42CE0101960E94E741BE0133
:1021B000695F7F4FCE0101960E94A342B701CE0115
:1021C00001960E94AF43BC01CE0107960E948C424B
:1021D000CE0101960E94E741BE01695F7F4FCE01AB
:1021E00001960E94A34263E774E0CE0101960E942B
:1021F000C243BC01CE0107960E948C42CE010196DB
:102200000E94E741BE01695F7F4FCE0101960E94A7
:10221000A342B601CE0101960E94AF43BC01CE019C
:1022200007960E948C42CE0101960E94E741BE01B2
:10223000695F7F4FCE0101960E94A3426AE774E076
:10224000CE0101960E94C243BC01CE0107960E94B6
:102250008C42CE0101960E94E741BE01695F7F4F2B
:10226000CE0101960E94A342B501CE0101960E94C3
:10227000AF43BC01CE0107960E948C42CE0101966D
:102280000E94E741BE01695F7F4FCE0101960E9427
:10229000A34260E874E0CE0101960E94C243BC01F3
:1022A000CE0107960E948C42CE0101960E94E74122
:1022B000BE01695F7F4FCE0101960E94A342B40127
:1022C000CE0101960E94AF43BC01CE0107960E9449
:1022D0008C42CE0101960E94E74166ED73E08EE5E7
:1022E00096E00E94053CBE01695F7F4F8EE596E057
:1022F0000E942A3C6CEC73E08EE596E00E945F3C05
:1023000065EC73E08EE596E00E94053CB3018EE536
:1023100096E00E94953C63EB73E08EE596E00E94A8
:102320005F3C8EE596E00E944B3CF8E06F0E711C1E
:102330008EE596E00E94192C882379F08EE596E0D0
:102340000E94B52A892BA1F320E034E0A3016DE0BF
:102350008EE596E00E94DF3DEBCF8EE596E00E9491
:10236000D82B8EE596E00E94FF2A01E010E002C023
:102370000FEF1FEFCE0107960E94E741C8012E968E
:102380000FB6F894DEBF0FBECDBFDF91CF911F9186
:102390000F91FF90EF90DF90CF90BF90AF909F9004
:1023A0008F907F906F905F904F903F902F90089507
:1023B000CF93DF931F921F92CDB7DEB78091170F97
:1023C0009091180F9E012F5F3F4F009719F42D51E8
:1023D0003F4002C0281B390B3A83298389819A81A7
:1023E0000F900F90DF91CF910895FC01CB011682E1
:1023F0001782108611864FEF5FEFBA01428753872D
:10240000648775879787868708950F931F93CF9367
:10241000DF93EC018B0168EC70E080E090E00E94BB
:102420003636A80160E070E026E08E859F85DF915A
:10243000CF911F910F910C94C838CB010C94904907
:102440008091E00A90E02091E10A821B91090895B1
:102450002091E10A8091E00A281750F4E22FF0E081
:10246000EE51F54F808190E02F5F2093E10A0895AF
:102470008FEF9FEF0895E091E10A8091E00AE8175D
:1024800030F4F0E0EE51F54F808190E008958FEF49
:102490009FEF08950895CF92DF92EF92FF920F93EE
:1024A0001F93CF93DF937C01CB018A012091BC0A5B
:1024B000222389F0EB016B01C40ED51ECC15DD057E
:1024C00069F06991D701ED91FC910190F081E02DC7
:1024D000C7011995F3CF642F0E94AC13C801DF9197
:1024E000CF911F910F91FF90EF90DF90CF900895C3
:1024F000CF93DF931F92CDB7DEB769832091BC0ADB
:102500002223D1F02091BD0A203240F021E030E0BA
:10251000FC013383228380E090E015C08091BE0AE5
:10252000E82FF0E0E154F54F998190838F5F80931D
:10253000BE0A8093BD0A05C061E0CE0101960E94EB
:10254000AC1381E090E00F90DF91CF910895FC01F2
:102550001382128248EE53E060E070E044835583BA
:10256000668377838AE894E091838083089510924C
:10257000E10A1092E00A1092BE0A1092BD0A0C9471
:10258000F712862F413208F040E262EE7AE00E94B4
:1025900015131092E10A8093E00A089521E00C944B
:1025A000C11281E08093BC0A6093DF0A1092BE0AD8
:1025B0001092BD0A08950C94D1120F93062F21E0BA
:1025C0004091BD0A6FEB7AE08091DF0A0E945913B7
:1025D0001092BE0A1092BD0A1092BC0A0F91089583
:1025E00061E00C94DD1280EB9AE00C94A71210923B
:1025F0006F0B81E080936D0B10926C0B61E084E1B6
:102600000E94573761E085E10E945737E9EBF0E01F
:1026100080818E7F808380818D7F808388E480931A
:10262000B80085E48093BC000895413208F03FC0B3
:1026300090916F0B9111FCCF91E090936F0B2093D1
:102640006D0B2FEF2093020B1092470B240F20935A
:10265000460B90936E0B90916E0B880F892B809395
:102660006E0B80916C0B813041F410926C0B809159
:102670006E0B8093BB0085EC01C085EE8093BC009F
:1026800080916F0B8130E1F38091470B841710F438
:102690004091470B28E43BE0FB01D9018A2F821BC4
:1026A000841718F48D918193F9CF842F089580E0D9
:1026B00008950F93413208F046C090916F0B91112D
:1026C000FCCF92E090936F0B00936D0B9FEF909374
:1026D000020B1092470B4093460BFB0168E47BE032
:1026E000DB019A2F961B941718F491919D93F9CFC3
:1026F00010926E0B90916E0B880F892B80936E0B4E
:1027000080916C0B813041F410926C0B80916E0BB8
:102710008093BB0085EC01C085EE8093BC00222332
:1027200021F080916F0B8230E1F38091020B8F3F9B
:1027300061F08091020B803251F08091020B803366
:1027400041F483E007C081E005C080E003C082E07F
:1027500001C084E00F910895613298F420916F0BCD
:10276000243089F46093240BFC0186E29BE0DC01B9
:102770002A2F281B261718F421912D93F9CF80E0DA
:10278000089581E0089582E0089585ED8093BC006E
:102790008091BC0084FDFCCF10926F0B089585ECF6
:1027A0008093BC0010926F0B08951F920F920FB68A
:1027B0000F9211240BB60F922F933F934F935F9379
:1027C0006F937F938F939F93AF93BF93EF93FF93F9
:1027D0008091B900887F803609F49CC068F5883202
:1027E00009F45BC090F4803109F454C038F48823B4
:1027F00009F4F5C0883009F44DC0F5C0883109F4FA
:102800004CC0803209F45DC0EEC0803409F468C069
:1028100048F4803309F455C0883309F0E4C080934C
:10282000020BA8C0803509F44FC0883509F45DC09B
:10283000883409F0D8C0D5C0883909F4C6C0A8F4D6
:10284000883709F467C038F4883609F463C08037E4
:1028500009F460C0C8C0883809F4B7C0803909F4E9
:102860005FC0803809F0BFC05BC0803B09F485C001
:1028700038F4803A09F466C0883A09F47EC0B3C0DF
:10288000803C09F4A6C0883C09F4A3C0883B09F445
:1028900089C0A9C080916E0B10C09091470B8091A8
:1028A000460B981770F5E091470B81E08E0F8093EF
:1028B000470BF0E0E85BF44F80818093BB0085EC30
:1028C00085C08093020B8DC0E091470B81E08E0F95
:1028D0008093470B8091BB00F0E0E85BF44F80836E
:1028E0009091470B8091460B6DC0E091470B81E0C2
:1028F0008E0F8093470B8091BB00F0E0E85BF44FB4
:10290000808380916D0B81116CC081E080936C0B92
:1029100084EA60C083E080936F0B1092030BCFCFEB
:102920008091030B803208F050C0E091030B81E0EE
:102930008E0F8093030B8091BB00F0E0EC5FF44FAF
:102940008083BDCF8091030B803230F4E091030B84
:10295000F0E0EC5FF44F10820E94C5136091030B0E
:1029600070E0E091680BF091690B84E09BE01995B1
:102970001092030B0E94CF1336C084E080936F0B3C
:102980001092250B1092240BE0916A0BF0916B0BC7
:1029900019958091240B811105C081E08093240B4F
:1029A0001092260BE091250B81E08E0F8093250B72
:1029B000F0E0EA5DF44F80818093BB009091250B9D
:1029C0008091240B981708F47ACF85E88093BC0097
:1029D0000AC085EC8093BC0010926F0B04C010926B
:1029E000020B0E94C513FF91EF91BF91AF919F9190
:1029F0008F917F916F915F914F913F912F910F90A8
:102A00000BBE0F900FBE0F901F901895FC01108207
:102A10001182738362830895FC0181818F5F8F77B8
:102A20009081891779F09181DF01A90FB11D14966A
:102A30006C93DF01A80FB11D14961C92818381E075
:102A400090E0089580E090E00895FC0190818181FC
:102A5000981759F08081DF01A80FB11D14968C9151
:102A600090819F5F9F779083089580E00895FC0197
:102A700091818081891718F48181908103C08181BF
:102A800090818058891B90E0681779072CF4808129
:102A9000E80FF11D8481089580E00895FC012181F3
:102AA00020830895DF92EF92FF920F931F93CF93AD
:102AB000DF93FB0150815523A1F1D12CE0E0F0E040
:102AC00034C0DD20D1F1A0E0D12CE0E0F0E05F5F88
:102AD0005F77AA2341F1521731F1DC01A50FB11D37
:102AE0001496CC91D0E0DB01AE0FBF1FAC91BB2799
:102AF000A7FDB095CA17DB0721F7D11001C0352F0C
:102B00003196DB01AE0FBF1FAC91A11112C00115B0
:102B1000110511F0F8013083E114F10411F0F7010F
:102B2000508381E00DC04F5F4F77421741F0542F23
:102B3000D4CFA1E0DD24D394CACFA1E0C8CF80E0F8
:102B4000DF91CF911F910F91FF90EF90DF9008954B
:102B5000EF92FF920F931F93FC0121814081E12CA2
:102B6000F12C00E010E00E9452151F910F91FF9090
:102B7000EF900895AF92BF92CF92DF92EF92FF92C3
:102B80000F931F93CF93DF931F921F92CDB7DEB7A2
:102B90006C01B42EA22EFC0121814081CE01019650
:102BA0007C018E010E5F1F4FC6010E9452158823C3
:102BB000B9F0AA2051F0BB2021F089818F5F8F7777
:102BC00001C08A81F601808307C0BB2039F089816A
:102BD0008F5F8F77F601818381E003C08A81FACF0E
:102BE00080E00F900F90DF91CF911F910F91FF9098
:102BF000EF90DF90CF90BF90AF9008958F929F920B
:102C0000AF92BF92CF92DF92EF92FF920F931F93FA
:102C1000CF93DF931F921F92CDB7DEB76C014A01AD
:102C20005901FC0121814081CE0102967C0100E026
:102C300010E0C6010E945215811102C080E02AC036
:102C40004A814F5F4A83F6012181E12CF12C8E01EC
:102C50000F5F1F4FB401C6010E945215882371F304
:102C60009A8169816F7770E0F501AF014A195B09BC
:102C7000292F30E02617370749F0D601A20FB31FDE
:102C800014962C9121939F5F9F77EFCFF501E40F6E
:102C9000F51F10820F900F90DF91CF911F910F9130
:102CA000FF90EF90DF90CF90BF90AF909F908F906C
:102CB0000895FC0120812F5F50E030E080E090E03B
:102CC0006AE04181241709F1DF01A20FB11D1496BA
:102CD0004C91403219F4311105C014C04D3211F439
:102CE000332371F030ED340F3A3078F4DC016A9F11
:102CF000C0016B9F900D1124840F911DC09701C0DE
:102D000051E031E02F5F2F77DCCF552319F09195FB
:102D1000819591090895CF93C82F80EE8C0F8F3540
:102D200010F46C2F0DC065E280E19DE00E943A3CFA
:102D30004AE050E06C2F80E19DE00E94773D65E223
:102D400080E19DE0CF910C943A3C0F931F93CF9379
:102D5000DF93EC011881098180E19DE00E944B3CEA
:102D60004AE050E0612F80E19DE00E94773D67EAF4
:102D700072E080E19DE00E94383C4AE050E0602F24
:102D800080E19DE00E94773D6EE380E19DE00E943E
:102D90003A3C101749F0FE01E10FF11D84810E94B9
:102DA0008B161F5F1F77F5CF80E19DE0DF91CF91FC
:102DB0001F910F910C944B3C0F9300E020E040E0FA
:102DC00060E082E79BE00E94913B0F9108950F9392
:102DD00000E020E040E060E087E89BE00E94913B5B
:102DE00088E79BE00F910C940F180F9300E020E010
:102DF00040E060E08DE89BE00E94913B0F910895D8
:102E00000F9300E020E040E060E083E99BE00E9457
:102E1000913B0F9108950F9300E020E040E060E0C7
:102E20008BE99BE00E94913B10929A0B1092990BB8
:102E30000F9108950F9300E020E040E060E087EA02
:102E40009BE00E94913B83EA9BE00F910C94061C4F
:102E50000F9300E020E040E060E081EB9BE00E9407
:102E6000913B0F91089580E008950F9300E020E0DA
:102E700040E060E087EB9BE00E94913B0F9108955A
:102E80008FEC9BE00E942C1B8091D90B90E0089561
:102E9000FB01DA0184918D9331968111FBCF089566
:102EA00080E090E0089580E090E008950F931F93F4
:102EB000CF93DF93D901EB010A811B812C813D81E6
:102EC000FC0101871287238734871092D60B10925A
:102ED000D50B0190F081E02D0484F585E02D9D0156
:102EE00060E070E0DF91CF911F910F9119940895E8
:102EF000089580E090E00895089581E02091E00B2E
:102F00003091E10B2530310509F080E008950396FA
:102F10000C9440178091E00B9091E10B059721F400
:102F200081ED9BE00C943A3C08958091E00B9091E8
:102F3000E10B059721F481ED9BE00C94383C08955A
:102F40008091E00B9091E10B059731F064E070E027
:102F50008FEC9BE00E949E1A8091020C9091010CD4
:102F6000891B8F7719F061E070E002C064E070E0C7
:102F70008FEC9BE00E949E1A8091D90B90E00895FF
:102F8000FF920F931F93CF93DF93CDB7DEB72C97AC
:102F90000FB6F894DEBF0FBECDBF8C010D5F1F4F83
:102FA000AE014F5F5F4F6AEE73E0C8010E944817A1
:102FB000FF24F3942091E00B3091E10B2530310593
:102FC00009F0F12C20E040E0BE016F5F7F4F81E00F
:102FD0009CE00E94BA15F82259F024E030E03093CA
:102FE000E10B2093E00BB8018FEC9BE00E94501A9C
:102FF0008F2D2C960FB6F894DEBF0FBECDBFDF919C
:10300000CF911F910F91FF90089560E070E081E0F3
:103010009CE00E943715992787FD90950895CF93DE
:10302000DF93EC0186EA94E09983888380ED94E055
:103030009C838B83CE0107960E94873BD093710BB4
:10304000C093700BDF91CF9108950F9300E020E0C3
:1030500040E060E08DEB9BE00E94913B0F91089572
:103060000F931F93CF93DF93CDB7DEB72D970FB696
:10307000F894DEBF0FBECDBF8C018091DA0B823099
:1030800001F118F4813041F0BBC0833009F467C00E
:10309000843009F479C0B4C040E061E174E08FECA1
:1030A0009BE00E94B61AE091D50BF091D60B3097B9
:1030B00009F49AC0808180538A3008F495C061E396
:1030C00094C020E030E040E050E0BE01635F7F4FFD
:1030D0008FEC9BE00E94711A882309F491C08D85C2
:1030E0008823D1F140E066E074E08FEC9BE00E9421
:1030F000B61A66E974E081ED9BE00E94383C60916D
:10310000D50B7091D60B6115710529F081ED9BE00F
:103110000E94383C06C061ED7BE0C80107960E9422
:103120004D3B62E281ED9BE00E943A3C6CE281ED16
:103130009BE00E943A3C6091D70B7091D80B4AE01B
:1031400050E081ED9BE00E944A3D6DE081ED9BE007
:103150000E943A3C83E015C063E070E040C020E08C
:1031600030E040E050E0BE01635F7F4F8FEC9BE0BA
:103170000E94711A882309F443C08D85882361F366
:1031800084E08093DA0B3CC0AE014F5F5F4F6CEF81
:1031900073E0C80103960E94481720E030E0AE01BA
:1031A0004F5F5F4FBE01635F7F4F8FEC9BE00E94DC
:1031B000711A882329F18D85882371F285E090E0CA
:1031C0009093E10B8093E00B21E041E0BE016F5F43
:1031D0007F4F81E09CE00E94BA1561E070E08FECC7
:1031E0009BE00E949E1A0CC060E381ED9BE00E9470
:1031F0003A3C6DE081ED9BE00E943A3C82E0C1CF19
:103200002D960FB6F894DEBF0FBECDBFDF91CF91E4
:103210001F910F9108950F931F93CF93DF93EC01AC
:103220005093D80B4093D70B3E872D877093D60BC6
:103230006093D50B8C010D5F1F4F4EE050E0B8013D
:103240008FEC9BE00E94441BB8018FEC9BE00E9436
:10325000321ACE010E9430188091D90B90E0DF9194
:10326000CF911F910F910895CF93DF93EC01239697
:103270004FE050E0BE018FEC9BE00E94441B68EEE3
:1032800073E080E090E00E9436366EE974E081EDF4
:103290009BE00E94383C68EE73E080E090E00E9482
:1032A000363641E061EF73E08FEC9BE00E94B61A86
:1032B00084E090E09093E10B8093E00B81E09CE050
:1032C0000E944E158EEE9BE00E94FF2164E670E0A6
:1032D00080E090E00E94363661E070E08FEC9BE089
:1032E0000E949E1A8091020C9091010C891B8F778D
:1032F00029F7BE018FEC9BE00E94501A8091D90BF8
:1033000090E0DF91CF910895CF938091010C90913F
:10331000020C8150891B8F77B9F081E09CE00E94FC
:103320002515C82F9091010C8091020C9150981B8B
:103330009F77943621F48EEE9BE00E94FF218C2F24
:10334000992787FD909502C080E090E0CF91089585
:103350008091020C9091010C891B8F7741F081E0E4
:103360009CE00E944E158EEE9BE00C94FF2161E0E4
:1033700070E08FEC9BE00C949E1A2091DB0B309157
:10338000DC0B2E30310549F02331310541F021307D
:10339000310539F46093020C08950C9430180C94A4
:1033A000A8190895CF93DF93EC01BC016D5F7F4FA7
:1033B00043E150E08FEC9BE00E94441BCE01DF9183
:1033C000CF910C94A81903970C94C01703970C94F1
:1033D000BD190F9300E020E040E060E083EC9BE04B
:1033E0000E94913B0F9108950F9300E020E040E090
:1033F00060E089EC9BE00E94913B0F910895CF9291
:10340000DF92FF920F931F93CF93DF931F92CDB75D
:10341000DEB78C016B01F601F490FF2059F0D80162
:10342000ED91FC910280F381E02D6F2DC80149835D
:1034300019954981BFEFCB1ADB0AF110ECCF442379
:1034400031F06FE075E0C80102960E94383C81E0DF
:1034500090E00F90DF91CF911F910F91FF90DF903F
:10346000CF900895FC0183899489892B59F085892F
:103470009689892B51F08789908D892B81F4A2E060
:10348000B0E005C0A0E0B0E002C0A1E0B0E0AA0F4B
:10349000BB1FAE0FBF1F54967C936E935397089536
:1034A000FC01838994898617970769F08589968935
:1034B0008617970759F08789908D8617970781F4AB
:1034C000A2E0B0E005C0A0E0B0E002C0A1E0B0E042
:1034D000AA0FBB1FAE0FBF1F54961C921E9253978C
:1034E0000895EF92FF920F931F93CF93DF938B0179
:1034F000E9014115510531F4209721F44091100262
:10350000509111027C0122E3E20EF11CBA01C701C5
:103510000E94A815F8018083811108C0209731F01E
:10352000BE01C7010E94A815F801808381E0DF91E8
:10353000CF911F910F91FF90EF900895FC016130A2
:10354000710531F08091DB0B9091DC0B029749F013
:10355000628781E090E095878487128E118E838741
:1035600008951092E10B1092E00BF2CF0F931F938E
:10357000CF93DF9300D0CDB7DEB78C01C2964B83DB
:1035800069837A830E944E15D801ED91FC910480E5
:10359000F581E02D4B8169817A81C8010F900F90F0
:1035A0000F90DF91CF911F910F911994CF92DF92DD
:1035B000FF920F931F93CF93DF931F92CDB7DEB788
:1035C0008C01F62EC12CD12CF801EC0DFD1D838948
:1035D0009489009759F0DC01ED91FC910280F38110
:1035E000E02D6F2D49831995498101C080E0B4E039
:1035F000CB16D10431F0E2E0CE0ED11C882321F3AA
:1036000019C0811117C0D80159968D919C915A9774
:10361000009781F0DC01ED91FC910190F081E02DAB
:103620006F2D0F90DF91CF911F910F91FF90DF9041
:10363000CF9019940F90DF91CF911F910F91FF9030
:10364000DF90CF900895FC012685222319F067872B
:10365000408B08950C94D61ACF93DF93EC018E859E
:10366000882379F09F858889981759F0CE01C296F2
:103670000E94A51648896F85CE010E94D61A1F8622
:10368000188ADF91CF910895FC01728F618F1286A5
:1036900081E08387558744871786108A0895CF92E3
:1036A000DF92EF92FF920F931F93CF93DF93EC0182
:1036B0000E9407366B017C010B8D1C8D2D8D3E8D7C
:1036C000601B710B820B930BCB8EDC8EED8EFE8E0E
:1036D000DF91CF911F910F91FF90EF90DF90CF90EE
:1036E0000895CF93DF93EC011D821C8288ED94E056
:1036F0009983888382EE94E09B838A83CE014F96E0
:103700000E94D822D8A7CFA31F86188A81E08A8773
:103710001B8681E090E09D878C87CE010E944F1B25
:103720001C8A1B8A1E8A1D8A188E1F8ADF91CF91E0
:1037300008958FEC9BE00C94711B0F931F93CF9314
:10374000DF931F92CDB7DEB78C01FC0186858823FD
:1037500029F0862F69830E948B166981C8014F96D4
:103760000F90DF91CF911F910F910C940722029738
:103770000C949D1B0F9300E020E040E060E085E8A2
:103780009CE00E94913B0F9108950F9300E020E090
:1037900040E060E08BE89CE00E94913B0F9108952F
:1037A0000F9300E020E040E060E081E99CE00E94AF
:1037B000913B0F9108950F9300E020E040E060E01E
:1037C00087E99CE00E94913B0F91089580E090E092
:1037D000089580E090E0089581E02091E00B309121
:1037E000E10B2530310509F080E0089581E020915A
:1037F000E00B3091E10B2530310509F080E00895B0
:1038000080E090E0089502960C9440172AEE34E090
:10381000FC013183208320E035E0338322839093C1
:10382000A20B8093A10B08950F931F93CF93DF9367
:1038300000D01F92CDB7DEB78C018091DA0B8230B9
:1038400099F060F4813009F079C041E06EE474E0F1
:103850008FEC9BE00E94B61A82E034C08330C1F145
:10386000843009F44EC06AC08DE089838AE08A837F
:103870001B8220E030E0AE014F5F5F4FBE016C5F06
:103880007F4F8FEC9BE00E94711A882309F456C089
:103890008C818823D1F040E06CE374E08FEC9BE0F6
:1038A0000E94B61A6091D70B7091D80B4AE050E095
:1038B00081ED9BE00E944A3D6DE081ED9BE00E941E
:1038C0003A3C83E08093DA0B39C063E070E032C0A9
:1038D00020E030E040E050E0BE016C5F7F4F8FECB5
:1038E0009BE00E94711A882349F18C81882369F337
:1038F00041E060E374E08FEC9BE00E94B61A84E044
:10390000E1CF20E030E040E050E0BE016C5F7F4F4F
:103910008FEC9BE00E94711A882381F08C818823B0
:10392000A1F2B8016E5F7F4F8FEC9BE00E94321ACC
:1039300061E070E08FEC9BE00E949E1A0F900F9068
:103940000F900F90DF91CF911F910F9108952091CB
:10395000DB0B3091DC0B2130310521F024313105B6
:1039600021F008956093020C08950C94141CCF93D9
:10397000DF93EC017093D80B6093D70BBC016E5FA3
:103980007F4F44E150E08FEC9BE00E94441BCE014E
:103990000E94141C8091D90B90E0DF91CF91089583
:1039A0000F931F93CF93DF93CDB7DEB72F970FB64B
:1039B000F894DEBF0FBECDBF8C010E5F1F4FAE016E
:1039C0004F5F5F4F67E274E0C8010E944817BE0175
:1039D0006F5F7F4F81E09CE00E94A815882331F043
:1039E00084E090E09093E10B8093E00BAE014F5F99
:1039F0005F4F6DE174E0C8010E944817BE016F5F20
:103A00007F4F81E09CE00E94A8158823A9F021E067
:103A100041E0BE016F5F7F4F81E09CE00E94BA15DC
:103A20008EEE9BE00E94FF2185E090E09093E10BF9
:103A30008093E00B81E001C080E02F960FB6F894F0
:103A4000DEBF0FBECDBFDF91CF911F910F910895C3
:103A500002970C94A71C02970C94D01C02960C940D
:103A600040170F931F939B018A014AE055E064E0E1
:103A700075E081E09CE00E94FE1581E090E01F91DE
:103A80000F910895FC012681211109C021E02683B0
:103A900041E06CE075E081E09CE00E94BA1560E0D6
:103AA00070E081E09CE00E943715992787FD909592
:103AB000089529E235E0FC013183208321E435E0DB
:103AC000338322839093AE0B8093AD0B0895CF93F5
:103AD000DF931F92CDB7DEB78091DA0B813019F0FA
:103AE0008230D1F032C082E08093DA0B40E069E7A7
:103AF00074E08FEC9BE00E94B61A6091D50B709138
:103B0000D60B81ED9BE00E94383C6EE075E081EDC4
:103B10009BE00E94383C19C020E030E04AE952E0C6
:103B2000BE016F5F7F4F8FEC9BE00E94711A88236C
:103B300061F08981882319F061E070E002C063E0E0
:103B400070E08FEC9BE00E949E1A0F90DF91CF9166
:103B50000895CF93DF93EC012091E00B3091E10BBE
:103B6000235031092230310518F082E090E013C073
:103B70007093D60B6093D50BBC016E5F7F4F44E012
:103B800050E08FEC9BE00E94441BCE010E94671D19
:103B90008091D90B90E0DF91CF9108950F931F93FF
:103BA000CF93DF93EC018B018091010C9091020C7B
:103BB0008150891B8F7791E0853008F090E09F83DA
:103BC00021E041E061E175E081E09CE00E94BA15EE
:103BD000811103C0F801108203C081E0F8018083E5
:103BE00081E09CE00E9459169D838C8368E175E01A
:103BF00081E09CE00E94A8158887198681E0DF910A
:103C0000CF911F910F910895CF93DF931F92CDB75E
:103C1000DEB72091DA0B213019F0223061F01EC09E
:103C200041E062E674E08FEC9BE00E94B61A82E00D
:103C30008093DA0B13C0BE016F5F7F4F0E94CE1DD1
:103C4000882361F08981811103C064E070E002C0C3
:103C500061E070E08FEC9BE00E949E1A0F90DF9174
:103C6000CF910895CF93DF93EC011E82BC016E5F6C
:103C70007F4F46E050E08FEC9BE00E94441BCE015A
:103C80000E94041E8091D90B90E0DF91CF9108959E
:103C90000F931F93CF93DF931F92CDB7DEB78C01A5
:103CA0008091DA0B813019F08230D9F033C082E094
:103CB0008093DA0B40E069E574E08FEC9BE00E94B2
:103CC000B61AF801648175814AE050E081ED9BE00D
:103CD0000E944A3D6FE075E081ED9BE00E94383C18
:103CE00019C020E030E040E050E0BE016F5F7F4F40
:103CF0008FEC9BE00E94711A882361F089818823F0
:103D000019F061E070E002C063E070E08FEC9BE0CE
:103D10000E949E1A0F90DF91CF911F910F910895ED
:103D20008FEC9BE00C949D1BCF93DF931F92CDB73C
:103D3000DEB78091DA0B813019F0823081F028C033
:103D400082E08093DA0B6AE18FEC9BE00E949D1B7E
:103D50006FE075E081ED9BE00E94383C19C020E0E7
:103D600030E040E050E0BE016F5F7F4F8FEC9BE0A2
:103D70000E94711A882361F08981882319F061E01B
:103D800070E002C063E070E08FEC9BE00E949E1A3E
:103D90000F90DF91CF910895CF93DF93EC01BC0199
:103DA0006E5F7F4F45E050E08FEC9BE00E94441B2C
:103DB000CE010E94941EE881F9810088F189E02DEE
:103DC000CE011995892B39F464E670E080E090E02B
:103DD0000E943636F0CF8091D90B90E0DF91CF91E1
:103DE00008952091DB0B3091DC0B25303105A1F0DB
:103DF0003CF42130310559F02430310559F0089553
:103E00002630310559F02730310551F0089560937F
:103E1000020C08950C94671D0C94941E0C94041EBF
:103E20000C94481E0F931F93CF93DF93EC018E8168
:103E300081110AC081E08E8321E041E06CE075E0F1
:103E400081E09CE00E94BA1581E09CE00E9425156B
:103E5000082F8985882341F0198668E175E081E0A3
:103E60009CE00E94A8158887888581112BC08F81CE
:103E7000882359F19091010C8091020C9150981B6C
:103E80009F77112707FD10959F3709F045C081E006
:103E90009CE00E944E151F8281E08987BE016E5F03
:103EA0007F4F40E050E08FEC9BE00E94441B8EEE81
:103EB0009BE00E94FF216AE070E080E090E00E94B9
:103EC00036362AC068E175E002C06EE175E081E037
:103ED0009CE00E94A81581111AC081E09CE00E941C
:103EE0004E15BE016E5F7F4F40E050E08FEC9BE0CF
:103EF0000E94441B8EEE9BE00E94FF216AE070E06E
:103F000080E090E00E94363680E090E006C0802F8E
:103F1000992787FD909501C0C801DF91CF911F912E
:103F20000F9108950F931F93CF93DF938C01C5E0FA
:103F3000D0E081E09CE00E944E158EEE9BE00E9456
:103F4000FF216AE070E080E090E00E943636219721
:103F500081F7B8016E5F7F4F47E050E08FEC9BE048
:103F60000E94441BC801DF91CF911F910F910C94C7
:103F7000481E02970C94F11ECF93DF93EC01E88169
:103F8000F9810684F785E02D19958E819F81DF9157
:103F9000CF910895FC0177836683089502960C946F
:103FA0004017BC016E5F7F4F8FEC9BE00C94321A80
:103FB0000F931F93CF93DF93EC018B0140E066EBEF
:103FC00074E08FEC9BE00E94B61AB80181ED9BE093
:103FD0000E94383C65E475E081ED9BE00E94383C2E
:103FE000E881F9810484F585E02D61E070E0CE017F
:103FF000199581E090E0DF91CF911F910F91089585
:10400000EF92FF920F931F93CF93DF93CDB7DEB75D
:104010002F970FB6F894DEBF0FBECDBF8C017C0189
:1040200082E0E80EF11CAE014F5F5F4F61EA74E081
:10403000C7010E944817BE016F5F7F4F81E09CE07F
:104040000E94A815882349F0D801ED91FC910484C1
:10405000F585E02D62E070E044C0AE014F5F5F4F38
:104060006AE974E0C7010E944817BE016F5F7F4F85
:1040700081E09CE00E94A815882349F0D801ED91C9
:10408000FC910484F585E02D63E070E02AC0AE0168
:104090004F5F5F4F6FE874E0C7010E944817BE0191
:1040A0006F5F7F4F81E09CE00E94A815811111C0D5
:1040B000AE014F5F5F4F6AE874E0C7010E94481786
:1040C000BE016F5F7F4F81E09CE00E94A8158823AE
:1040D00079F0D801ED91FC910484F585E02D60E044
:1040E00070E0C801199581E09CE00E944E151FC048
:1040F000AE014F5F5F4F63E874E0C7010E9448174D
:10410000BE016F5F7F4F81E09CE00E94A81588236D
:1041100081F081E09CE00E944E15D801ED91FC9168
:104120000484F585E02D62E070E0C801199581E016
:1041300001C080E02F960FB6F894DEBF0FBECDBF52
:10414000DF91CF911F910F91FF90EF900895FC01A7
:104150008FE595E09183808387E795E09383828361
:1041600015821482F093B00BE093AF0B08950F9378
:104170001F939B018A014AE055E068E475E081E005
:104180009CE00E94FE1581E09CE00E944E1581E0BB
:104190001F910F9108952091DA0B213019F02230F0
:1041A00061F0089541E06EEA74E08FEC9BE00E94BC
:1041B000B61A82E08093DA0B0895FC0144815581A0
:1041C0006091D50B7091D60B0E94B720882331F0F7
:1041D00061E070E08FEC9BE00C949E1A08950F93C1
:1041E0001F93CF93DF93EC017093D60B6093D50BA5
:1041F0005D834C8309ED1BE0F801108281E0809320
:10420000DA0BBE016E5F7F4F4BE050E08FEC9BE01E
:104210000E94441BCE010E94CB20F801808190E0D7
:10422000DF91CF911F910F9108950F931F93CF931B
:10423000DF931F92CDB7DEB78C018091DA0B81300E
:1042400019F0823061F02EC041E06AEA74E08FEC30
:104250009BE00E94B61A82E08093DA0B23C020E034
:1042600030E040E050E0BE016F5F7F4F8FEC9BE09D
:104270000E94711A8823B1F0D801ED91FC91048459
:10428000F585E02D63E070E0C801199589818823E8
:1042900019F061E070E002C063E070E08FEC9BE039
:1042A0000E949E1A0F90DF91CF911F910F91089558
:1042B0000F931F93CF93DF938C01C9EDDBE018823E
:1042C00081E08093DA0BB8016E5F7F4F49E050E0E8
:1042D0008FEC9BE00E94441BC8010E94152188813D
:1042E00090E0DF91CF911F910F9108950F931F934D
:1042F000CF93DF931F92CDB7DEB78C018091DA0B9D
:10430000813019F0823061F02EC041E066EA74E03D
:104310008FEC9BE00E94B61A82E08093DA0B23C0F8
:1043200020E030E040E050E0BE016F5F7F4F8FEC57
:104330009BE00E94711A8823B1F0D801ED91FC91A5
:104340000484F585E02D60E070E0C801199589814D
:10435000882319F061E070E002C063E070E08FEC48
:104360009BE00E949E1A0F90DF91CF911F910F91B9
:1043700008950F931F93CF93DF938C01C9EDDBE07A
:10438000188281E08093DA0BB8016E5F7F4F4AE0BC
:1043900050E08FEC9BE00E94441BC8010E947621F4
:1043A000888190E0DF91CF911F910F910895209126
:1043B000DB0B3091DC0B2A30310541F02B3031051D
:1043C00039F02930310531F40C9415210C94762103
:1043D0000C94CB20089502970C94002002970C9423
:1043E000D7210F9300E020E040E060E087EA9CE006
:1043F0000E94913B8DE99CE00F910C94591DDC01CA
:10440000ED91FC910280F381E02D61E11994CF934D
:10441000DF93EC0188899989892B59F1E881F98129
:104420000280F381E02D613151F467E7CE011995E7
:10443000E881F9810280F381E02D6EEE16C06331D0
:1044400051F467E7CE011995E881F9810280F38183
:10445000E02D6CEE0AC0CE01673741F41995E88172
:10446000F9810280F381E02D68E8CE01DF91CF91E0
:10447000199480E090E0DF91CF910895DC011696C9
:10448000ED91FC911797208115968C918095822350
:104490008083089520E001972FEF8F3F9207D9F78F
:1044A0000895611102C00C943E22DC011696ED9134
:1044B000FC911797208115968C91282B20830895C5
:1044C000DF92EF92FF920F931F93CF93DF93EC0154
:1044D000D62EEFB6F8940E943E22888999890596D7
:1044E0000E944A2208E010E0FF24F3948F2D8D21D2
:1044F00029F061E0CE010E94512203C0CE010E944A
:104500003E22888999890E944A22FF0C0150110994
:1045100069F761E0CE010E945122EFBE8889998936
:104520000E944A2281E090E0DF91CF911F910F918C
:10453000FF90EF90DF900895CF93DF93EC0161E05F
:1045400083E00E941E3761E083E00E945737EFE06E
:10455000F5E0E491ED83E5E5F5E0E491F0E0EE0FC0
:10456000FF1FEE54FA4F859194919F838E83DF91C4
:10457000CF910895CF93DF93EC0160E08AE00E9431
:104580001E3761E08AE00E945737E6E1F5E0E491EA
:10459000EA83ECE5F5E0E491F0E0EE0FFF1FE8566A
:1045A000FA4F859194919C838B83DF91CF910895ED
:1045B000CF93DF93EC018FE795E0998388831B8687
:1045C0001A861D861C861F861E86198A188ABE01B9
:1045D000CE0143960E940615CE010E949C22CE0178
:1045E000DF91CF910C94BA22FC01DB018C9192896E
:1045F0008F3F31F491FF0AC082E08927828B04C08B
:10460000873721F49160928B80E0089590FF10C06D
:104610008E3E11F481E107C08C3E11F483E103C0AA
:10462000883811F487E78C93828991E08927828BFF
:1046300081E008957F928F929F92AF92BF92CF9226
:10464000DF92EF92FF920F931F93CF93DF931F920E
:10465000CDB7DEB78C012F933F934F935F936F934A
:104660007F93AF93BF931982DC011396ED91FC9178
:104670001497808112969C91892309F08BC0912C0C
:10468000882483946801B3E1CB0ED11CF80184899E
:10469000828593850E944A22D80153968C91539724
:1046A00054969C918150891B8F77AA24A3948630BD
:1046B00010F0A12C05C0911003C0C8010E943E2239
:1046C00038E0E32EF12C77247394F80184859585E6
:1046D0000E944A22D8011396ED91FC911497808193
:1046E00012969C9189239981882319F0972999839F
:1046F00004C0872D809589238983AA2069F09110B1
:104700000BC0872D837129F061E0C8010E945122FE
:1047100003C0C8010E943E22770CB1E0EB1AF108F9
:10472000A1F6AA2009F459C0911009C0F8018485A6
:1047300095850E944A2261E0C8010E945122F80139
:1047400082898260828B99249394BE016F5F7F4F30
:10475000C8010E94F422811134C022E3E22EF12C20
:1047600081E090E00E944A22D8011396ED91FC91DD
:104770001497808112969C91892309F487CFB1E028
:10478000EB1AF10869F7A11030C089818A3069F10C
:10479000803259F1BF91AF917F916F915F914F91AD
:1047A0003F912F910F90DF91CF911F910F91FF902B
:1047B000EF90DF90CF90BF90AF909F908F907F90C1
:1047C00008956981C6010E940C15882009F4C5CF9F
:1047D000D8015496BC90812CC0CFD8011E968D91E3
:1047E0009C911F970E944A22B0CFF8018085918545
:1047F000009781F24489DC01ED91FC910190F081F8
:10480000E02D6B2D1995C6CF8091AD0C9091AE0C1B
:10481000009711F00C941A2308951F920F920FB66F
:104820000F9211240BB60F922F933F934F935F93E8
:104830006F937F938F939F93AF93BF93EF93FF9368
:104840000E940424FF91EF91BF91AF919F918F91AE
:104850007F916F915F914F913F912F910F900BBE80
:104860000F900FBE0F901F9018951F920F920FB6CA
:104870000F9211240BB60F922F933F934F935F9398
:104880006F937F938F939F93AF93BF93EF93FF9318
:104890000E940424FF91EF91BF91AF919F918F915E
:1048A0007F916F915F914F913F912F910F900BBE30
:1048B0000F900FBE0F901F9018951F920F920FB67A
:1048C0000F9211240BB60F922F933F934F935F9348
:1048D0006F937F938F939F93AF93BF93EF93FF93C8
:1048E0000E940424FF91EF91BF91AF919F918F910E
:1048F0007F916F915F914F913F912F910F900BBEE0
:104900000F900FBE0F901F9018950F9300E020E0BE
:1049100040E060E087EB9CE00E94913B8FEA9CE0E6
:104920000F910C94A720CF93DF93EC0160E08E8170
:104930000E94573781E090E00E945E3661E08E81F0
:104940000E94573781E090E00E945E3660E08E81E1
:104950000E94573784E690E0DF91CF910C945E3649
:10496000CF92DF92EF92FF920F931F93CF93DF933B
:104970007C01C0E0D0E0C62ED12C87010C0F1D1F9A
:1049800061E0F80187810E941E37B6010C2E02C03B
:10499000759567950A94E2F76170F80187810E9426
:1049A00057372196C430D10541F7C701DF91CF9128
:1049B0001F910F91FF90EF90DF90CF900C94932474
:1049C000CF92DF92EF92FF920F931F93CF93DF93DB
:1049D0007C01C0E0D0E0C62ED12C87010C0F1D1F3A
:1049E00061E0F80187810E941E37B6010C2E02C0DB
:1049F000759567950A94E2F76170F80187810E94C6
:104A000057372196C830D10541F7C701DF91CF91C3
:104A10001F910F91FF90EF90DF90CF900C94932413
:104A20001F93CF93DF93EC01162F642F8C810E948C
:104A300057378D818F3F19F060E00E9457378F857F
:104A4000612F84FF06C0CE01DF91CF911F910C949E
:104A5000E02470E084E0759567958A95E1F7CE01D2
:104A60000E94B024612FCE01DF91CF911F910C9451
:104A7000B02440E00C94102561E00E94392580EDBF
:104A800097E00C945E3662E00E94392580ED97E055
:104A90000C945E36443008F043E0FC012389421751
:104AA00010F04FEF420FFC01E40FF11D2489260F97
:104AB0002068622F0C943925FC016089262F246020
:104AC000208B6C600C943925CF93DF93EC0142303E
:104AD00018F08F8588608F874B8B1C8A80E48D8BC4
:104AE0006E8B70E0605C7F4F6F8B222329F041302A
:104AF00019F48F8584608F8780E593EC0E945E3681
:104B000060E08C810E94573760E08E810E945737A9
:104B10008D818F3F19F060E00E9457376F8564FDEB
:104B20001DC063E0CE010E94B02484E991E10E949F
:104B30005E3663E0CE010E94B02484E991E10E94D8
:104B40005E3663E0CE010E94B02486E990E00E94C8
:104B50005E3662E0CE010E94B02416C06062CE01D3
:104B60000E94392584E991E10E945E366F8560627A
:104B7000CE010E94392586E990E00E945E366F855D
:104B80006062CE010E9439256F856062CE010E946D
:104B9000392584E0888BCE010E945C25CE010E94DD
:104BA0003C2582E0898B66E0CE01DF91CF910C94A9
:104BB00039256F927F928F92AF92CF92EF920F939F
:104BC0001F93CF93DF93CDB7DEB73C01162F842F11
:104BD0005E854F8538899989F3018483258306830F
:104BE000E782C086A1868286538744873587968769
:104BF00061E00E941E37F30185818F3F19F061E06B
:104C00000E941E3761E0F30186810E941E37112346
:104C100019F0F301178603C080E1F301878720E0D4
:104C200041E060E1C301DF91CF911F910F91EF90BF
:104C3000CF90AF908F907F906F900C9464258F925F
:104C4000AF92CF92EF920F93DC0113961C921E92BB
:104C50001297E9E8F5E0ED93FC931F921F921F92E3
:104C60001F928A2CAC2CCE2CE02E022F242F462F04
:104C700061E00E94D9250F900F900F900F900F9137
:104C8000EF90CF90AF908F90089541E00E94102553
:104C900081E090E00895CF93CFB7F8948091C00C55
:104CA000811116C061E085E30E94573761E085E31A
:104CB0000E941E378CB580618CBD8CB580648CBD24
:104CC00061E084E30E941E3761E083E30E941E37A7
:104CD0008091C00C8F5F8093C00CCFBFCF9108959F
:104CE0000F9300E020E040E060E081EC9CE00E9457
:104CF000913B0F910895FB0142815381648175813D
:104D0000FC0142835383648375831782168208955E
:104D1000CF93FB0181918111FDCFFB0180E090E0F9
:104D200020E030E0CAE06191662309F124303105CA
:104D300064F56E3271F48F3F910509F034F5DA01B4
:104D4000A20FB31F12968C932F5F3F4F80E090E02D
:104D5000EACFDC01CA9FC001CB9F900D11247727B9
:104D600067FD709560537109860F971FDCCF8F3FE9
:104D7000910509F054F4243031053CF4FA01E20FB6
:104D8000F31F828381E090E002C080E090E0CF9149
:104D900008950F9300E020E040E060E087EC9CE0A5
:104DA0000E94913B0F910895AF92BF92CF92DF92F4
:104DB000EF92FF920F931F93CF93DF9300D0CDB765
:104DC000DEB76C017B010E940736F60177836683AC
:104DD0008601085F1F4FB6016A5F7F4F42E050E0D7
:104DE000C8010E94BB2C81E090E09A83898342E055
:104DF00050E0BE016F5F7F4FC8010E94BB2C80E076
:104E000091E09A83898342E050E0BE016F5F7F4F5B
:104E1000C8010E94BB2C1A82198242E050E0BE01F8
:104E20006F5F7F4FC8010E94BB2C42E050E0BE0183
:104E30006F5F7F4FC8010E94BB2C42E050E0BE0173
:104E40006F5F7F4FC8010E94BB2C6701F601808114
:104E5000882311F1F7016F018191811115C056016D
:104E6000AE18BF081A141B0494F4AB8241E050E062
:104E7000BE016D5F7F4FC8010E94BB2CA501B70129
:104E8000C8010E94BB2C03C08E3229F7E8CF7601FF
:104E9000FFEFEF1AFF0ADACF1B8241E050E0BE01BC
:104EA0006D5F7F4FC8010E94BB2CE12CFF24F3945F
:104EB000FA82E98242E050E0BE016F5F7F4FC80195
:104EC0000E94BB2CFA82E98242E050E0BE016F5F93
:104ED0007F4FC8010E94BB2C81E090E00F900F90A3
:104EE0000F90DF91CF911F910F91FF90EF90DF9086
:104EF000CF90BF90AF9008954F925F926F927F9244
:104F00008F929F92AF92BF92CF92DF92EF92FF92D9
:104F10000F931F93CF93DF93CDB7DEB763970FB691
:104F2000F894DEBF0FBECDBF7C015B016A010E9419
:104F300007362B013C018701085F1F4F4501A12C5B
:104F4000B12CC8010E945B2D1816190694F00E941E
:104F50000736641975098609970986169706A80603
:104F6000B906D0F062E370E080E090E00E9436364F
:104F7000E8CFF7014281538164817581818D928DE3
:104F8000A38DB48D481759076A077B0741F4858DB7
:104F9000968DC59721F406C08FEF9FEFF9C08EEF75
:104FA0009FEFF6C0C8010E946E2C0C970CF4EEC067
:104FB0004CE050E0BE016F5F7F4FC8010E94F82CAB
:104FC0008B819C819827892798279A8B898BF70159
:104FD0004681578129813A814217530711F497FD81
:104FE00006C0C8010E94882C8CEF9FEFD1C08F7043
:104FF0009270892B31F0C8010E94882C8BEF9FEFB3
:10500000C7C0AF80B884BA24AB24BA24A114B104B9
:1050100019F0E12CF12C23C0C8010E94882C8AEFE2
:105020009FEFB6C041E050E0BE01635F7F4FC80113
:105030000E94F82C8D8581111BC08D858111F2CFC6
:10504000C8010E94CF2CC8010E94CF2CC8010E9429
:10505000CF2CC8010E94CF2CFFEFEF1AFF0A8D81E1
:105060009E81982789279827E816F906D8F20AC062
:105070008D859FEF980F9D878823F9F2C8010E94C4
:10508000CF2CF6CFE12CF12C41E050E0BE016D5E5B
:105090007F4FC8010E94F82C8B89982F907C61F477
:1050A000882371F08B899FEF980F9B8B882341F0A9
:1050B000C8010E94CF2CF6CFC8010E94CF2C1B8ABA
:1050C0008B898111E1CF42E050E0BE01615F7F4FEB
:1050D000C8010E94F82C42E050E0BE01635F7F4FA0
:1050E000C8010E94F82CC8010E94CF2CC8010E9460
:1050F000CF2CC8010E94CF2CC8010E94CF2C42E0C7
:1051000050E0BE016F5E7F4FC8010E94F82C8F8572
:1051100098898115914029F48D859E85811591404E
:1051200019F0812C912C16C089899A898115944097
:1051300031F0C8010E94882C87EF9FEF29C0B6018B
:105140006E5F7F4F44E050E0C8010E94F82C81E080
:1051500090E01EC089899A89982789279827881600
:10516000990638F4C8010E94CF2C2FEF821A920AB8
:10517000F1CF8FEFE81AF80AEA14FB0409F084CFA4
:10518000C8010E94882C86EF9FEF02C08DEF9FEF31
:1051900063960FB6F894DEBF0FBECDBFDF91CF91FF
:1051A0001F910F91FF90EF90DF90CF90BF90AF9045
:1051B0009F908F907F906F905F904F9008958F9207
:1051C0009F92AF92BF92CF92DF92EF92FF920F9396
:1051D0001F93CF93DF9300D000D0CDB7DEB78C0103
:1051E0005B016A010E9488264C01009709F05DC0AE
:1051F000F80142815381648175818091C90C90913D
:10520000CA0CA091CB0CB091CC0C481759076A0777
:105210007B0709F44EC00E9407367801F8E0EF0ED4
:10522000F11C6F7077277C5FC7010E942E2D8130A3
:1052300009F043C089EE95E09A838983F801828161
:105240009381A481B5818B839C83AD83BE8345E329
:1052500050E0BE016F5F7F4FC7010E94AF2C892BCA
:1052600019F4812C912C1DC0B501C8010E94D426CF
:10527000892BB9F3C7010E94B72C892B91F333E036
:10528000A32EB12CA60168E873E1C8010E947C2717
:105290004C01F1E0AF1AB10821F08F3F2FEF9207D8
:1052A00089F3C7010E949A2C08C088248394912C0A
:1052B00004C09EEF892E99249A94C40126960FB6B5
:1052C000F894DEBF0FBECDBFDF91CF911F910F913C
:1052D000FF90EF90DF90CF90BF90AF909F908F9016
:1052E00008952091BF0C222399F03FB7F8942091A4
:1052F000BF0C213059F42DB32093BD0C4DB3209138
:10530000BE0C209524232DBB3FBF02C03093BD0CA3
:105310008CBD9DBD08958091BF0C882361F09FB71F
:10532000F8942091BF0C8091BD0C213019F48DBBF5
:105330009FBF08958FBF089544E050E0BC0181E015
:1053400090E00C94973244E050E0BC0185E090E09E
:105350000C94973244E050E0BC018FE090E00C9454
:1053600097328F929F92AF92BF92CF92DF92EF923D
:10537000FF920F931F93CF93DF931F921F92CDB78E
:10538000DEB74C016A01590187EF9CE069837A839B
:105390000E942F3280E590E00E94712946E050E0A3
:1053A00069817A8189E090E00E949732C601029675
:1053B0000E94AA29C80102960E949C29C701029650
:1053C0000E94A3290E948B29F501428153816481A7
:1053D0007581F40142835383648375830F900F902A
:1053E000DF91CF911F910F91FF90EF90DF90CF90C1
:1053F000BF90AF909F908F900895CF93DF93EC0173
:105400000E94873B80E590E00E947129BE016E5F9B
:105410007F4F44E050E08FE090E00E94C8330E944C
:105420008B29CE01DF91CF910895CF93DF93EC01CB
:105430000E94873B80E590E00E947129BE016E5F6B
:105440007F4F44E050E085E090E00E94C8330E9426
:105450008B29CE01DF91CF910895CF93DF93EC019B
:105460000E94873B80E590E00E947129BE016E5F3B
:105470007F4F44E050E081E090E00E94C8330E94FA
:105480008B29CE01DF91CF91089529EE35E0FC0103
:1054900031832083FB014281538164817581FC014A
:1054A000428353836483758308950F9300E020E063
:1054B00040E060E08DED9CE00E94913B8DEC9CE033
:1054C0000F910C94873B81E086270895862F0895DD
:1054D000DC01ED91FC91048CF58DE02D199591E0A6
:1054E00089270895CF93DF931F92CDB7DEB76983E5
:1054F000DC01ED91FC910280F381E02D41E050E070
:10550000BE016F5F7F4F19950F90DF91CF91089586
:1055100021E0FC018485843009F420E0822F089585
:10552000FC019485FB018485981303C081E09430CD
:1055300009F480E008950F931F93CF93DF93EC015C
:105540008A018C85843021F00E94CC2F892B39F47C
:1055500081E090E09B838A8380E090E001C0C801F5
:10556000DF91CF911F910F910895FC0184858430C4
:1055700011F00C94C33080E090E00895CF93DF9356
:105580001F92CDB7DEB741E050E0BE016F5F7F4FA5
:10559000FC0184850E946230181619061CF489816A
:1055A00090E002C08FEF9FEF0F90DF91CF910895B1
:1055B000FC0184850C9462300F931F93CF93DF938B
:1055C0001F92CDB7DEB78C01DC01ED91FC91048018
:1055D000F581E02D1995892B51F0BE016F5F7F4F4A
:1055E000F80184850E94EE30898190E002C08FEF3F
:1055F0009FEF0F90DF91CF911F910F910895FC01C4
:1056000084850C941E31CF92DF92EF92FF920F931C
:105610001F93CF93DF93CDB7DEB7AF970FB6F89454
:10562000DEBF0FBECDBF7C018B016A01CE010196AA
:105630000E94873BCE0109960E94AB2DCE018A962F
:105640000E94873B6DEC7CE0CE0184960E94452A47
:10565000BE016C5D7F4FCE0101960E947B26AE019C
:10566000465D5F4FB801CE0101960E94DF28813070
:105670009105C1F4D701ED91FC910484F585E02DED
:1056800089EE95E09DA38CA30CA51DA52EA53FA595
:105690000EA31FA328A739A7A601BE016C5D7F4FEB
:1056A000C7011995AF960FB6F894DEBF0FBECDBFF8
:1056B000DF91CF911F910F91FF90EF90DF90CF90EE
:1056C0000895FC011382128248EE53E060E070E01E
:1056D000448355836683778381E995E09183808352
:1056E00084E084870895FC018485843011F00C9453
:1056F000A52E80E00895DF92EF92FF920F931F9303
:10570000CF93DF93EC017B018A018C85843009F013
:1057100045C0D12C8D2D0E94A52E811102C0DC86A2
:1057200007C08B7F8831D9F3D39484E0D812F2CFAD
:105730008C85843099F120911202309113022F5FF1
:105740003F4F11F420E030EC30931302209312020B
:10575000409112025091130220E061E00E94F72E66
:10576000B7016E5F7F4FA8018C850E944C2F81117D
:1057700003C084E08C8712C0CE010E94732B873156
:1057800051F061E070E080E090E00E943636CE019A
:105790000E94732BECCF81E090E002C080E090E0AB
:1057A000DF91CF911F910F91FF90EF90DF900895BF
:1057B000CF92DF92EF92FF92CF93DF93EC018C8533
:1057C000843081F10E94A52F0E9407366B017C0175
:1057D000CE010E94732B882359F00E9407366C1962
:1057E0007D098E099F09683E73408105910598F0F7
:1057F000CE010E94732B882319F08C850E94CC2E39
:10580000EC85F0E0EE0FFF1FEB52F34F1182108298
:1058100084E08C8707C061E070E080E090E00E9447
:105820003636D6CFDF91CF91FF90EF90DF90CF90BB
:105830000895CF93DF93EC018C858430D1F0CE01B5
:105840000E94732B8431A9F0882399F0883189F064
:105850008C3169F4E881F9810480F581E02DCE0175
:10586000199521E0892B09F420E0822F03C081E003
:1058700001C080E0DF91CF9108950F9300E020E018
:1058800040E060E083EE9CE00E94913B0F91089520
:105890000F9300E020E040E060E089EE9CE00E9491
:1058A000913B0F910895DC01ED91FC91008CF18DFD
:1058B000E02D199429EE35E0FC0131832083FB01B2
:1058C0004189528963897489FC01428353836483CB
:1058D00075830895FC01858996890895FC01818D61
:1058E000928D0895CF93DF931F92CDB7DEB7698372
:1058F000DC01ED91FC910280F381E02D41E050E06C
:10590000BE016F5F7F4F19950F90DF91CF91089582
:10591000CF93DF93EC01898D9A8D892B41F0E8813B
:10592000F9810680F781E02DCE011995F4CFDF9142
:10593000CF910895CF93DF93EC018C85843061F093
:105940000E94CC2EEC85F0E0EE0FFF1FEB52F34FE0
:105950001182108284E08C87DF91CF910895FC0141
:10596000108E178A6E5F7F4F84850C946731FC011F
:1059700084850C94AE31CF93DF93EC019A018F892B
:10598000988DAB01BC018C850E941F312F89388D09
:10599000280F391F388F2F8BDF91CF9108950F93E8
:1059A0001F93CF93DF931F92CDB7DEB78C01FC011D
:1059B000818D928D892B59F041E050E0BE016F5FDF
:1059C0007F4F84850E946230181619061CF08FEFF5
:1059D0009FEF08C0F801818D928D0197928F818F82
:1059E000898190E00F90DF91CF911F910F910895E1
:1059F000CF93DF93EC01898D9A8D009719F48FEF87
:105A00009FEF10C04817590708F0AC018C850E9421
:105A10006230181619069CF7298D3A8D281B390B10
:105A20003A8F298FDF91CF910895CF93DF931F9203
:105A3000CDB7DEB7FC01218D328D232B49F0BE019D
:105A40006F5F7F4F84850E94EE30898190E002C0B5
:105A50008FEF9FEF0F90DF91CF910895FF920F93FB
:105A60001F93CF93DF93EC018B018C858430E1F49D
:105A7000F12C8F2D0E94A52E811102C0FC8606C03C
:105A80008831E1F3F39484E0F812F3CF8C8584300D
:105A900059F01E870D871A8E198E20E0A80162E04A
:105AA0000E94F72E81E001C080E0DF91CF911F912D
:105AB0000F91FF9008950F931F93CF93DF93CDB76E
:105AC000DEB728970FB6F894DEBF0FBECDBF8C01AE
:105AD000DC01ED91FC910284F385E02D1995F8012C
