:100000000C9402030C9433030C9433030C943303C9
:100010000C9433030C9433030C9433030C94330388
:100020000C9433030C944D310C9475310C949D3128
:100030000C9433030C942D4D0C9433030C94330324
:100040000C9433030C9433030C9433030C94330358
:100050000C9433030C9433030C9433030C94DC4260
:100060000C9433030C9420460C9456460C943303A2
:100070000C9433030C9433030C9433030C94330328
:100080000C9433030C9433030C9433030C94330318
:100090000C94CD460C9403470C9433030C94C60D7A
:1000A0000C9433030C9433030C9433030C943303F8
:1000B0000C9433030C9433030C9433030C943303E8
:1000C0000C9433030C9433030C9433030C943303D8
:1000D0000C9433030C9433030C9433030C943303C8
:1000E0000C94330302440544F443F843FE433C4478
:1000F00009440D44134417441B4421442544294416
:100100003C442F44334437440C9496240C94F728F1
:100110000C942C290C9427240C94C7240C94AE37EF
:100120000C9405290C94DB370C948A460C943C0CF7
:100130000C9490390C94DD390C9423270C94983747
:100140000C94982E0C948C370C94D5470C94054441
:100150000C94F92E0C942F2E0C9479390C94F92CC4
:100160000C94E1390C94A1380C94C5440C94102AD9
:100170000C94172F0C941E3A0C943F390C94E63AC9
:100180000C945A240C94B9240C9463280C94190CE4
:100190000C94FA280C94AC440C946E390C94E02422
:1001A0000C9436290C94D9440C9409340C94110CF9
:1001B0000C9426270C9459450C9437440C946824CD
:1001C0000C943B3A0C9463390C94F8430C948533AB
:1001D0000C942F440C94B7440C947B370C940D442E
:1001E0000C9429100C9437470C9440240C94F4433D
:1001F0000C9465250C94822A0C9429290C94FE37C2
:100200000C94C0390C9412270C947A470C940C2C43
:100210000C9429380C94FC2C0C940D0F0C94C531C3
:100220000C94D02B0C9475240C9480390C94742667
:100230000C940E2D0C9434270C941C240C94292718
:100240000C9473240C94543A0C944B240C94722BFD
:100250000C941B290C94443B0C942C0C0C943344AC
:100260000C9435240C9421440C94522C0C94DD28CD
:100270000C9425160C94F7290C94813A0C94FE43A7
:100280000C9443290C94470F0C946B2A0C94D5249E
:100290000C9494390C9425440C94690C0C94280FFC
:1002A0000C94FD260C943F270C9439050C94CA2419
:1002B0000C94182D0C94B8240C942B2F0C940944F6
:1002C0000C94F70E0C9445250C94D5390C94112DF3
:1002D0000C94E40C0C94682A0C94DF120C94712A90
:1002E0000C9426290C94BC240C942D470C94174490
:1002F0000C9429440C941B440C94E7290C94C426B8
:100300000C94C1370C94BD240C9413440C94F5390F
:100310000C94FE380C943C440C942E0A0C946E2AD7
:100320000C94A02F0C940A2D0C9437450C94D22CCD
:100330000C94E4370C9402440C943B0C0C9402385B
:100340000C94E80F0C9490240C94312C0C94B03342
:100350000C94F4470C9400250C948A1D0C948E3751
:100360000C9425380C94402D0C9480460C94312F1D
:100370000C94AE390C9489370C942E2F0C94D928F8
:100380000C9498390C9410290C94E92A0C94402967
:100390000C94B7240C943F2F0C944B260C947B05A3
:1003A0000C94472F0C94B6370C9456100C9493244D
:1003B0000C94510F7C3C3E5E2B3D3F2F5B5D3B2CF4
:1003C0002A225C00434C4F5345440041542B514971
:1003D000434C4F534500434F4E4E4543540D0A0086
:1003E00041542B51494F50454E3D0041542B5149EA
:1003F000444E5349503D00434F4E4E4543540D0A21
:1004000000434C4F5345440D0A0041542B5149536E
:1004100045525645520041542B51494C504F52546D
:100420003D22544350222C0041542B51494C4F4300
:1004300049500041542B434D47443D0041542B4308
:100440004D474C3D2252454320554E524541442292
:100450002C310041542B434D47533D22002B434C3C
:1004600049503A0042555359004E4F204341525291
:10047000494552002B434F4C503A0052494E4700D9
:10048000415448004154410041542B434C434300E4
:10049000415444001F1C1F1E1F1E1F1F1E1F1E1F16
:1004A00000000A0B02090C0D0E08070304010000EE
:1004B000000000000000000000000000000000003C
:1004C00000000000000000000000000012111000F9
:1004D000000000000000000000000000000000001C
:1004E0000000000000000102102020080810204039
:1004F00010204080020102010804020101020408E8
:100500001020408080402010080402018004020175
:1005100080402010080402010804020101020408BE
:1005200010204080010204081020408005050505C8
:10053000070508080808020202020A0A080804045B
:100540000404010101010101010103030303030389
:100550000303040707070C0C0C0C0C0C0C0C020218
:10056000020206060606060606060B0B0B0B0B0B15
:100570000B0B000020002300260029002C002F0078
:100580003200000100000301060109010000220001
:10059000250028002B002E0031003400020100004D
:1005A000050108010B0100002100240027002A009A
:1005B0002D003000330001010000040107010A0191
:1005C000020039052E0AE40CDF1225161C2427240C
:1005D000352440244B245A24682475246525292772
:1005E0003427D928FA28052910291B29312FC5318C
:1005F000B03309347B3763396E39443B8A46374719
:10060000D5477B0511241FBECFEFD1E2DEBFCDBFA2
:1006100000E00CBF15E0A0E0B2E0ECE1F5EA00E09C
:100620000BBF02C007900D92A23CB107D9F72CE096
:10063000A2ECB5E001C01D92AB39B207E1F715E0BD
:10064000C2E0D6E000E006C022970109FE010BBF20
:100650000E949B4FC23CD10780E00807A9F70E9487
:10066000E5470C947C520C940000CF93DF93EC018F
:1006700064EE74E00E94FB4D64EE74E0CE010696D9
:100680000E94FB4D64EE74E0CE010C960E94FB4D7F
:1006900064EE74E0CE0142960E94FB4D64EE74E07D
:1006A000CE0148960E94FB4D64EE74E0CE014E965A
:1006B0000E94FB4D64EE74E0CE0184960E94FB4DD7
:1006C00064EE74E0CE018A960E94FB4DCE01C09686
:1006D0000E94B44764EE74E0CE01C8960E94FB4DC0
:1006E00064EE74E0CE01CE96DF91CF910C94FB4D79
:1006F00061E08AE00E943D4461E084E00E943D4464
:1007000026E040E855E260E070E08DE29BE00E9468
:10071000BE4561E084E00E9476440E94260888EF8E
:1007200095E00E945A098FED95E00E94C74120E0B4
:1007300042E060E18CE396E00E94A43285ED95E012
:100740000E946107811106C06DE272E08DE29BE0BC
:100750000E9479486AE472E08CE396E00E94404887
:1007600066E572E08DE29BE00E9479488CE396E0BA
:100770000E94833262E672E08CE396E00E94404879
:1007800060E772E08DE29BE00E9479486CE370E0E4
:1007900088EF95E00E94590A882399F069E872E091
:1007A0008DE29BE00E9479488CE396E00E948332C0
:1007B00066E972E08CE396E00E9440481092D00512
:1007C00019C063EA72E08DE29BE00E94794864EB15
:1007D00072E08DE29BE00E9479488CE396E00E94F3
:1007E000833263EA72E08CE396E00E94404881E045
:1007F0008093D0050E9426436093D1057093D20563
:100800008093D3059093D40508958F929F92AF92D1
:10081000BF92CF92DF92EF92FF920F931F93CF93ED
:10082000DF93CDB7DEB7E0970FB6F894DEBF0FBE0B
:10083000CDBF61E084E00E94764482EC95E00E94A6
:1008400028088091CF05882309F4D3C087ED95E06F
:100850000E944B066FEB72E0CE0101960E94FB4DA9
:100860006FEB72E0CE0107960E94FB4D6FEB72E0DA
:10087000CE010D960E94FB4D6FEB72E0CE014396C8
:100880000E94FB4D6BEB73E0CE0149960E94FB4D3D
:1008900062EC75E0CE014F960E94FB4D64EC72E075
:1008A000CE0185960E94FB4D69EC72E0CE018B96DD
:1008B0000E94FB4DCE0101964C0106965C01069606
:1008C0006C0106967C018E01075E1F4F9E01215E22
:1008D0003F4FAE014B5D5F4FBE01655D7F4F88EFBF
:1008E00095E00E94150B8C01CE018B960E948D4DD8
:1008F000CE0185960E948D4DCE014F960E948D4D62
:10090000CE0149960E948D4DC7010E948D4DC601B2
:100910000E948D4DC5010E948D4DC4010E948D4DD8
:100920008CE396E01016110664F50E947C3240E0DC
:1009300061E08CE396E00E948A3288EF95E00E94A5
:10094000E409019779F46FEC72E08CE396E00E9481
:10095000404889ED95E00E94B40887ED95E00E943B
:10096000B10540C06EED72E08CE396E00E94404815
:1009700089ED95E00E94B90887ED95E00E94DB05BE
:1009800031C00E947C328CE396E00E94833260EF9B
:1009900072E08CE396E00E94404841E061E08CE325
:1009A00096E00E948A326FEF72E08CE396E00E943C
:1009B000404889ED95E00E94BE0887ED95E00E94D1
:1009C000A70568EF75E0CE0101960E94230ABE01DB
:1009D0006F5F7F4F85ED95E00E947607CE0101960F
:1009E0000E948D4D68EE73E080E090E00E945543D8
:1009F0000CC08CE396E00E947C3289ED95E00E9469
:100A0000C3088CE396E00E9422070E9426430091CF
:100A1000D1051091D2052091D3053091D405601BEA
:100A2000710B820B930B61367A4E8105910570F044
:100A30008091D005882351F00E9426436093D10510
:100A40007093D2058093D3059093D405E0960FB6AA
:100A5000F894DEBF0FBECDBFDF91CF911F910F91F4
:100A6000FF90EF90DF90CF90BF90AF909F908F90CE
:100A70000895AF92CF92EF920F9300E020E040E014
:100A800060E084E596E00E94BE478CE1A82E9BE1E1
:100A9000C92E2AE1E22E09E128E147E166E18CE373
:100AA00096E00E945F3389E093E090933D06809347
:100AB0003C0688EF95E00E9435038BEE95E00E949E
:100AC000873827E030E046E050E065E070E089EDEF
:100AD00095E00E947A0868E070E087ED95E00E945A
:100AE000A30564E070E085ED95E00F91EF90CF9065
:100AF000AF900C945D0786E396E00E948D4D80E3F5
:100B000096E00E948D4D82E296E00E948D4D8CE130
:100B100096E00E948D4D86E196E00E948D4D80E129
:100B200096E00E948D4D8AE096E00E948D4D84E013
:100B300096E00E948D4D8EEF95E00E948D4D88EFDE
:100B400095E00C948D4DFC0171836083089528EE2F
:100B500033E040E050E068EE73E0FC0180810C94EB
:100B6000FC49CF93DF93EC0120E030E0A90160EA7B
:100B70007FE088810E94FC496CE271E080E090E0B7
:100B80000E94554320E030E0A90160ED77E08881C4
:100B90000E94FC496CE271E080E090E00E945543C5
:100BA00028EC30E040E050E060EA7FE08881DF91AF
:100BB000CF910C94FC49CF93DF93EC0120E030E01F
:100BC000A90168EC70E088810E94FC4968EC70E043
:100BD00080E090E00E94554320E030E0A90160EA07
:100BE0007FE088810E94FC4968EC70E080E090E042
:100BF0000E94554320E030E0A90160ED77E0888154
:100C00000E94FC4968EC70E080E090E00E9455434F
:100C100020E030E0A90160EA7FE088810E94FC4981
:100C200068EC70E080E090E00E94554320E030E006
:100C3000A90168EE73E088810E94FC4968EC70E0CD
:100C400080E090E00E94554320E030E0A90160EA96
:100C50007FE088810E94FC4968EC70E080E090E0D1
:100C60000E94554320E030E0A90160ED77E08881E3
:100C70000E94FC4968EC70E080E090E00E945543DF
:100C800028EC30E040E050E060EA7FE08881DF91CE
:100C9000CF910C94FC4920E233E040E050E060EA60
:100CA0007FE0FC0180810C94FC49AF92BF92CF920F
:100CB000DF92EF92FF920F931F93CF93DF93CDB705
:100CC000DEB7E0970FB6F894DEBF0FBECDBF5C0174
:100CD000CDA2DEA2EFA2F8A609A71AA72BA740E093
:100CE00062E00E948A326DA17EA14AE0CE010196A7
:100CF0000E94764E4AE06FA1CE0107960E94494EAF
:100D00004AE068A5CE0143960E94494EBE016D5E41
:100D10007F4FCE010D960E94284E6DE073E0CE010C
:100D20000D960E94F54EBE01695F7F4F0E94E24E14
:100D30006DE073E00E94F54EBE016F5F7F4F0E9431
:100D4000E24EBC01CE014F960E94284ECE010D9678
:100D50000E948D4DCE0143960E948D4DCE01079687
:100D60000E948D4DCE0101960E948D4DBE01615EA7
:100D70007F4FC5010E94324841E062E0C5010E94F8
:100D80008A324AE06BA5CE0101960E94494E4AE0A4
:100D90006AA5CE0107960E94494E4AE069A5CE0198
:100DA00043960E94494EBE016D5E7F4FCE010D9667
:100DB0000E94284E6DEE74E0CE010D960E94F54E15
:100DC000BE01695F7F4F0E94E24E6DEE74E00E94AB
:100DD000F54EBE016F5F7F4F0E94E24EBC01CE0117
:100DE00049960E94284ECE010D960E948D4DCE014F
:100DF00043960E948D4DCE0107960E948D4DCE01E7
:100E000001960E948D4DBE01675E7F4FC5010E9415
:100E10003248CE0149960E948D4DCE014F960E94D8
:100E20008D4DE0960FB6F894DEBF0FBECDBFDF91BB
:100E3000CF911F910F91FF90EF90DF90CF90BF90D7
:100E4000AF900895AF92BF92CF92DF92EF92FF9250
:100E50000F931F93CF93DF93CDB7DEB72C970FB6C9
:100E6000F894DEBF0FBECDBF5C010E947C326FEDF7
:100E700075E0CE0101960E944642C980DA80EB807F
:100E8000FC800D811E812F81388549855A856B85AF
:100E90007C85C5010E9455062C960FB6F894DEBFDE
:100EA0000FBECDBFDF91CF911F910F91FF90EF90BB
:100EB000DF90CF90BF90AF900895FC017183608365
:100EC0000895CF93DF93EC0161E08AE00E947644BD
:100ED000688188E397E00E942A11C82F61E084E0CE
:100EE0000E9476448C2FDF91CF910895EF92FF926C
:100EF0000F931F93CF93DF93CDB7DEB7CE55D109B4
:100F00000FB6F894DEBF0FBECDBF7B0161E08AE073
:100F10000E9476448EE0E9E1F2E0DE01A55BBF4F7E
:100F200001900D928A95E1F7EBE4F0E0EC0FFD1FE4
:100F30003E9686E0DF011D928A95E9F7BE01655B6A
:100F40007F4F88E397E00E94C9128823F9F021E0DF
:100F5000AE01455B5F4F68E377E0CE0101960E94EA
:100F60004312BE016F5F7F4FCE014C960E94E24953
:100F7000CE014C960E942F4F8B01CE014C960E94C1
:100F80008D4DCE0101960E94171002C000E010E0C6
:100F900023E1AE01455B5F4F68E377E0CE01019648
:100FA0000E9443126FE073E0CE0101960E94404818
:100FB000CE0101960E9417100F5F1F4F4AE0BE013D
:100FC000695C7F4FC8010E94275223E1AE01495C52
:100FD0005F4F68E377E0CE014C960E944312B70161
:100FE000CE014C960E943248CE014C960E941710BA
:100FF000BE01655B7F4F88E397E00E94D41223E136
:10100000AE01455B5F4F68E377E0CE0101960E9439
:1010100043124AE050E0B801CE0101960E944049D7
:10102000CE0101960E94171061E084E00E94764490
:10103000C25ADF4F0FB6F894DEBF0FBECDBFDF91AF
:10104000CF911F910F91FF90EF90089581E0089547
:10105000CF93DF93EC0126E040E855E260E070E0DA
:101060008AEC9BE00E94BE4544E150E060E070E005
:101070008AEC9BE00E94B9494CE050E0BE018AEC4A
:101080009BE00E94BF491D860C9779F581E08D8712
:1010900061E173E08DE29BE00E94794862E273E0D7
:1010A0008DE29BE00E94794869E273E08DE29BE06B
:1010B0000E9440484AE050E06CE070E08DE29BE026
:1010C0000E94484968E373E08DE29BE00E9440483B
:1010D000BE018DE29BE00E94794861E173E08DE200
:1010E0009BE00E94794881E002C01D8680E0DF918C
:1010F000CF910895CF93DF93EC01862F6883798396
:101100005B834A833D832C8361E00E943D4461E020
:101110008A810E943D4461E08C81DF91CF910C94E3
:101120003D440F931F93CF93DF93EC01042F122FB5
:10113000662311F061E001C060E088810E9476447E
:10114000002311F061E001C060E08A810E947644D2
:10115000112311F061E001C060E08C81DF91CF913B
:101160001F910F910C94764420E041E060E00C94D4
:10117000910820E040E061E00C94910821E040E01B
:1011800060E00C94910820E040E060E00C9491084D
:10119000FF920F931F93CF93DF93EB018B01F12C01
:1011A000F80161918F0140E150E08DE29BE00E94E7
:1011B0006D496DEE74E08DE29BE00E944048F3942F
:1011C000F5E0FF12EDCF40E150E06D818DE29BE054
:1011D000DF91CF911F910F91FF900C9474490F9361
:1011E0001F93CF93DF9300D000D0CDB7DEB78C0133
:1011F0006FE373E08DE29BE00E9440486AE072E09A
:10120000C8010E94C80866E473E08DE29BE00E947A
:1012100040486AEE7AE0CE0101960E942337BE0173
:101220006F5F7F4F8DE29BE00E948B486CE473E020
:101230008DE29BE00E9440486AEE7AE0CE01019682
:101240000E946B37BE016F5F7F4F8DE29BE00E9473
:101250008B4863E573E08DE29BE00E9440486AEEB4
:101260007AE0CE0101960E945337BE016F5F7F4F37
:101270008DE29BE00E948B486EE573E08DE29BE07F
:101280000E9440486AEE7AE0CE0101960E943B3708
:10129000BE016F5F7F4F8DE29BE00E948B482696D8
:1012A0000FB6F894DEBF0FBECDBFDF91CF911F9177
:1012B0000F910895CF92DF92EF92FF920F931F93B9
:1012C000CF93DF93CDB7DEB76E970FB6F894DEBF3E
:1012D0000FBECDBF6C010EE420EC43E06AE0CE010E
:1012E00049960E94BE478B8D9C8DAD8DBE8DF601BB
:1012F00082AB93ABA4ABB5AB80E99FE197AB86AB78
:1013000068E673E08DE29BE00E94794820EC35E0CE
:101310003A83298380915C0690915D06A0915E06D8
:10132000B0915F068B839C83AD83BE8338872F8308
:101330008091620690916306A0916406B091650663
:1013400089879A87AB87BC873E872D8780916806FF
:1013500090916906A0916A06B0916B068F87988B71
:10136000A98BBA8B3C8B2B8B40916E0650916F06EC
:1013700060917006709171064D8B5E8B6F8B788FCC
:10138000CE0101967C018E01095F1F4F9E01235FF4
:101390003F4FAE014D5E5F4F6AE072E08AEE9AE029
:1013A0000E94D736C6010E94EF086E960FB6F894D9
:1013B000DEBF0FBECDBFDF91CF911F910F91FF9088
:1013C000EF90DF90CF9008950F931F93CF93DF930B
:1013D00000D000D0CDB7DEB78C0161E873E08DE2BC
:1013E0009BE00E947948085C1F4FB8018DE29BE0AA
:1013F0000E94674861E873E08DE29BE00E947948B3
:1014000068E973E0CE0101960E94FB4DBE016F5F5B
:101410007F4FC8010E942B4F8C01CE0101960E9484
:101420008D4D81E090E01016110614F480E090E0FC
:1014300026960FB6F894DEBF0FBECDBFDF91CF91D9
:101440001F910F910895CF93DF93EC01625C7F4F62
:101450000E94284ECE01DF91CF9108950F9300E0B6
:1014600020E040E060E082E796E00E94BE4701EBAA
:1014700020EC43E06AE08CE696E00E94BE470BE079
:1014800021E048EC6AE086E696E00E94BE470AEF5B
:1014900028EC43E06AE080E696E00E94BE4700E068
:1014A00020EE4FEF6FEF8AE596E00E94BE470F9166
:1014B00008954F925F926F927F928F929F92AF9218
:1014C000BF92CF92DF92EF92FF920F931F93CF9331
:1014D000DF9300D000D0CDB7DEB78C017B010E9436
:1014E00026432B013C0188EE93E0E89E6001E99ED3
:1014F000D00CF89ED00C1124E12CF12CA12CB12C95
:1015000080EC882E85E0982E0E9426436419750988
:10151000860997096C157D058E059F0508F065C045
:10152000F80146A957A99A82898282A993A9A4A9F8
:10153000B5A98B839C83AD83BE83BE016F5F7F4F54
:101540008BEE95E00E94A1385C0181309105E1F6B7
:1015500062EA73E08BEE95E00E9479486DEB73E0F0
:101560008BEE95E00E944048B801605D7F4F8BEEA6
:1015700095E00E948B4864EC73E08BEE95E00E944E
:1015800079488BEE95E00E945348085C1F4F8BEE24
:1015900095E00E943F39882341F18BEE95E00E944F
:1015A000DB37892BA1F36BEE75E0CE0101960E942B
:1015B000E249BE016F5F7F4FC8010E94114ECE010C
:1015C00001960E948D4D66ED73E08DE29BE00E94D6
:1015D0007948B8018DE29BE00E94674866ED73E0B0
:1015E0008DE29BE00E947948D2CF8BEE95E00E947D
:1015F000FE3881E0AA94AB2809F080E026960FB669
:10160000F894DEBF0FBECDBFDF91CF911F910F9138
:10161000FF90EF90DF90CF90BF90AF909F908F9012
:101620007F906F905F904F9008952F923F924F92CE
:101630005F926F927F928F929F92AF92BF92CF9262
:10164000DF92EF92FF920F931F93CF93DF93CDB76B
:10165000DEB72E970FB6F894DEBF0FBECDBF3C01AC
:101660002B011A013E872D8764EE74E0CE010796A8
:101670000E94FB4DF30146A957A980EC95E09A839F
:10168000898382A993A9A4A9B5A98B839C83AD83DF
:10169000BE83BE016F5F7F4F8BEE95E00E94A13845
:1016A000892B09F497C069EE73E0CE0101960E9480
:1016B000FB4DB201CE0101960E94E24E61EF73E054
:1016C0000E94F54EB1010E94E24E68EF73E00E9465
:1016D000F54E6D857E850E94E24E6EEF73E00E94AE
:1016E000F54EB8010E94E24E66E074E00E94F54EAD
:1016F000B7010E94E24E6DE074E00E94F54EB60123
:101700000E94E24E64E174E00E94F54EB5010E9431
:10171000E24E6AE174E00E94F54EB4010E94E24E8E
:10172000BC01CE0107960E94114ECE0101960E9487
:101730008D4D60E274E08BEE95E00E944048BE0162
:10174000695F7F4F8BEE95E00E94324863EB73E058
:101750008BEE95E00E9479486DEB73E08BEE95E09F
:101760000E944048B301605D7F4F8BEE95E00E9480
:101770008B4863E374E08BEE95E00E9479488BEE32
:1017800095E00E945348F8E36F0E711C8BEE95E0D4
:101790000E943F398823B9F08BEE95E00E94DB3739
:1017A000892BA1F36BEE75E0CE0101960E94E24910
:1017B000BE016F5F7F4FC3010E94114ECE010196A3
:1017C0000E948D4DE3CF8BEE95E00E94FE3801E044
:1017D00010E009C0BE01695F7F4FC301CE960E9431
:1017E000114E0FEF1FEFCE0107960E948D4DC801DD
:1017F0002E960FB6F894DEBF0FBECDBFDF91CF910E
:101800001F910F91FF90EF90DF90CF90BF90AF901E
:101810009F908F907F906F905F904F903F902F9010
:1018200008958091A80690E02091A906821B910955
:1018300008952091A9068091A806281750F4E22F58
:10184000F0E0E655F94F808190E02F5F2093A906E4
:1018500008958FEF9FEF0895E091A9068091A80663
:10186000E81730F4F0E0E655F94F808190E00895F4
:101870008FEF9FEF08950895CF92DF92EF92FF923E
:101880000F931F93CF93DF937C01CB018A012091AB
:101890008406222389F0EB016B01C40ED51ECC1502
:1018A000DD0569F06991D701ED91FC910190F0811E
:1018B000E02DC7011995F3CF642F0E949D0DC8013B
:1018C000DF91CF911F910F91FF90EF90DF90CF901C
:1018D0000895CF93DF931F92CDB7DEB76983209130
:1018E00084062223D1F020918506203240F021E0A9
:1018F00030E0FC013383228380E090E015C08091CA
:101900008606E82FF0E0E957F94F998190838F5FC1
:10191000809386068093850605C061E0CE0101961E
:101920000E949D0D81E090E00F90DF91CF9108958E
:10193000FC011382128248EE53E060E070E04483C1
:1019400055836683778389E494E091838083089547
:101950001092A9061092A80610928606109285068B
:101960000C94E80C862F413208F040E26AEA76E0F7
:101970000E94060D1092A9068093A806089521E002
:101980000C94B20C81E0809384066093A7061092B9
:1019900086061092850608950C94C20C0F93062FAC
:1019A00021E04091850667E876E08091A7060E94D5
:1019B0004A0D1092860610928506109284060F91A9
:1019C000089561E00C94CE0C88E796E00C94980C96
:1019D0001092370781E0809335071092340761E059
:1019E00084E10E94764461E085E10E947644E9EB5F
:1019F000F0E080818E7F808380818D7F808388E48A
:101A00008093B80085E48093BC000895413208F0CB
:101A10003FC0909137079111FCCF91E09093370729
:101A2000209335072FEF2093CA0610920F07240F3B
:101A300020930E079093360790913607880F892BD5
:101A40008093360780913407813041F41092340737
:101A5000809136078093BB0085EC01C085EE8093B2
:101A6000BC00809137078130E1F380910F07841724
:101A700010F440910F0720E137E0FB01D9018A2FD4
:101A8000821B841718F48D918193F9CF842F0895C8
:101A900080E008950F93413208F046C090913707D7
:101AA0009111FCCF92E090933707009335079FEF99
:101AB0009093CA0610920F0740930E07FB0160E156
:101AC00077E0DB019A2F961B941718F491919D9360
:101AD000F9CF1092360790913607880F892B8093A3
:101AE000360780913407813041F410923407809199
:101AF00036078093BB0085EC01C085EE8093BC0067
:101B0000222321F0809137078230E1F38091CA06C9
:101B10008F3F61F08091CA06803251F08091CA06F1
:101B2000803341F483E007C081E005C080E003C05A
:101B300082E001C084E00F910895613298F4209111
:101B40003707243089F46093EC06FC018EEE96E0B2
:101B5000DC012A2F281B261718F421912D93F9CF89
:101B600080E0089581E0089582E0089585ED8093F6
:101B7000BC008091BC0084FDFCCF10923707089513
:101B800085EC8093BC001092370708951F920F9246
:101B90000FB60F9211240BB60F922F933F934F93D2
:101BA0005F936F937F938F939F93AF93BF93EF93C5
:101BB000FF938091B900887F803609F49CC068F556
:101BC000883209F45BC090F4803109F454C038F4D1
:101BD000882309F4F5C0883009F44DC0F5C0883178
:101BE00009F44CC0803209F45DC0EEC0803409F4C1
:101BF00068C048F4803309F455C0883309F0E4C064
:101C00008093CA06A8C0803509F44FC0883509F40E
:101C10005DC0883409F0D8C0D5C0883909F4C6C081
:101C2000A8F4883709F467C038F4883609F463C02B
:101C3000803709F460C0C8C0883809F4B7C080395B
:101C400009F45FC0803809F0BFC05BC0803B09F475
:101C500085C038F4803A09F466C0883A09F47EC039
:101C6000B3C0803C09F4A6C0883C09F4A3C0883BFB
:101C700009F489C0A9C08091360710C090910F0760
:101C800080910E07981770F5E0910F0781E08E0F95
:101C900080930F07F0E0E05FF84F80818093BB00F6
:101CA00085EC85C08093CA068DC0E0910F0781E066
:101CB0008E0F80930F078091BB00F0E0E05FF84F3C
:101CC000808390910F0780910E076DC0E0910F0700
:101CD00081E08E0F80930F078091BB00F0E0E05F02
:101CE000F84F80838091350781116CC081E080932B
:101CF000340784EA60C083E0809337071092CB06F4
:101D0000CFCF8091CB06803208F050C0E091CB0657
:101D100081E08E0F8093CB068091BB00F0E0E4530E
:101D2000F94F8083BDCF8091CB06803230F4E091B3
:101D3000CB06F0E0E453F94F10820E94B60D60919B
:101D4000CB0670E0E0913007F09131078CEC96E023
:101D500019951092CB060E94C00D36C084E0809386
:101D600037071092ED061092EC06E0913207F091E1
:101D7000330719958091EC06811105C081E08093AD
:101D8000EC061092EE06E091ED0681E08E0F809356
:101D9000ED06F0E0E251F94F80818093BB00909115
:101DA000ED068091EC06981708F47ACF85E88093C9
:101DB000BC000AC085EC8093BC001092370704C0B9
:101DC0001092CA060E94B60DFF91EF91BF91AF919C
:101DD0009F918F917F916F915F914F913F912F9143
:101DE0000F900BBE0F900FBE0F901F901895CF93C2
:101DF000DF931F92CDB7DEB76983DC01ED91FC91D3
:101E00000280F381E02D41E050E0BE016F5F7F4F23
:101E100019950F90DF91CF910895CF93DF93EC0147
:101E2000898D9A8D009759F0FC01138212820E94CD
:101E3000EB1BE98DFA8D22813381232B31F081E078
:101E400090E09B838A8380E090E0DF91CF910895BA
:101E5000FC01818D928D009711F00C944619089524
:101E6000CF93DF931F92CDB7DEB741E050E0BE01C4
:101E70006F5F7F4F0E945717019719F4898190E097
:101E800002C08FEF9FEF0F90DF91CF910895FC017B
:101E9000818D928D009711F00C94300F8FEF9FEF92
:101EA00008950F931F93CF93DF938C01FC01818DD5
:101EB000928D0097B9F00E94300FEC018F3FFFEF39
:101EC0009F0799F0F801818D928DFC014285538521
:101ED0006485758541505109610971090E94AA18EC
:101EE000CE0105C080E090E002C08FEF9FEFDF9150
:101EF000CF911F910F910895CF92DF92EF92FF92B1
:101F00000F931F93CF93DF93EC017B016A011B8238
:101F10001A8208EE13E020E030E00C831D832E834C
:101F20003F8389E594E0998388838DE190E00E9466
:101F30009F4F9A8F898F009779F02DE1F701DC018F
:101F400001900D922A95E1F74CE050E0B601CE01E8
:101F50000C960E94FE51188EDF91CF911F910F9128
:101F6000FF90EF90DF90CF900895FC0113821282D2
:101F700048EE53E060E070E04483558366837783E6
:101F800089E594E091838083128E118E14860895E2
:101F9000DC015996ED91FC915A97309729F06285B2
:101FA00073858485958508956FEF7FEFCB01089544
:101FB000DC015996ED91FC915A97309729F063898D
:101FC000748985899689089560E070E0CB01089551
:101FD000CF92DF92EF92FF92CF93DF93EC01898D46
:101FE0009A8D892BD9F0CE010E94D80F6B017C010C
:101FF000CE010E94C80FA7019601261B370B480B84
:10200000590BDA01C901811530E89307A105B10523
:1020100038F08FEF9FE7A0E0B0E002C080E090E0F2
:10202000DF91CF91FF90EF90DF90CF900895CF9305
:10203000DF93EC01898D9A8D009741F00E948D19F4
:10204000898D9A8D0E9437501A8E198EDF91CF910B
:1020500008951F93CF93DF93CDB7DEB76D970FB67B
:10206000F894DEBF0FBECDBFAB011C821B8229E6F8
:1020700034E03A8329831E8221E0BC01CE0101961F
:102080000E94C11A11E0811102C010E004C0CE010B
:1020900001960E948D19812F6D960FB6F894DEBFC0
:1020A0000FBECDBFDF91CF911F910895442339F02A
:1020B0000E94C21B91E0811103C090E001C091E039
:1020C000892F0895CF93DF93FB0120813181FC019B
:1020D000E20FF31FE081EF3211F42F5F3F4FDA017F
:1020E000E0E0F0E0EC01C20FD31FC881CF3249F02D
:1020F000CC2339F031962F5F3F4FCD93EC30F10573
:1021000089F7E40FF51F1082FC01E20FF31F4081F5
:102110004F3211F42F5F3F4FFB0131832083FC01CD
:10212000E20FF31F81E09081911101C080E0DF9107
:10213000CF9108954F925F926F927F928F929F926C
:10214000AF92BF92CF92DF92EF92FF920F931F93C5
:10215000CF93DF93CDB7DEB7C954D1090FB6F8944A
:10216000DEBF0FBECDBF5C016B013A01490119A270
:1021700018A289E694E09F8F8E8F1BA21C821B827F
:102180009A8389831E822A961FAE1EAE2A978B01E0
:102190007E018EE1E80EF11C44244394AE01455CBF
:1021A0005F4FBE01685B7F4FC5010E946210582ED1
:1021B000482F44259401BE01655C7F4FC801F3019F
:1021C0001995811108C00C151D0519F0C8010E9450
:1021D0008D1980E027C05520B9F021E0AE01455CA3
:1021E0005F4FB801C7010E94C11A582E0C151D057A
:1021F00099F0C8010E948D19552059F3902F812F15
:102200008701E92EF82ECACF0C151D0519F0C8015B
:102210000E948D1981E006C08823D9F28E010F5FDC
:102220001F4FECCFC75BDF4F0FB6F894DEBF0FBE7A
:10223000CDBFDF91CF911F910F91FF90EF90DF9075
:10224000CF90BF90AF909F908F907F906F905F9056
:102250004F9008950F931F93CF93DF93EC01462F78
:1022600061E00E941C14811102C080E01DC08E013B
:10227000045F1F4F41E0BE01C8010E943221882344
:1022800059F0B801CE018A960E94071791E081119A
:1022900001C090E0892F08C040E0BE01C8010E9443
:1022A0003221882311F3EDCFDF91CF911F910F9150
:1022B0000895FC01DB0112968D919C9113979383F5
:1022C000828389E694E09183808314968C9114979D
:1022D000848315968C911597858316964D915D9103
:1022E0006D917C91199746835783608771871A9601
:1022F0004D915D916D917C911D97428753876487C5
:1023000075871E964D915D916D917C915197468791
:102310005787608B718B52968C915297828B539614
:102320004D915D916D917C915697438B548B658B4C
:10233000768B57964D915D916D917C915A97478B15
:10234000508F618F728F5B968D919C915C97948F6B
:10235000838F08954F925F926F927F928F929F9298
:10236000AF92BF92CF92DF92EF92FF920F931F93A3
:10237000CF93DF93CDB7DEB7C754D1090FB6F8942A
:10238000DEBF0FBECDBF6C014A013901665D7F4FD4
:102390005E018EE1A80EB11CC5010E9459111C827C
:1023A0001B8289E694E09A8389831E828401FE0160
:1023B00031967F015A2C4B2C6FE270E0C8010E94CD
:1023C000EC510097E9F1F80120812F3219F40F5FE9
:1023D0001F4FF2CF801B8D3008F08CE0A82EB12C5F
:1023E000A501B801CE01CB960E94FE51EBE3F0E0CF
:1023F000EC0FFD1FEA0DFB1D1082C7010E948D1915
:1024000021E0AE01455C5F4F652D742DC7010E9430
:10241000C11A811109C0F6011382128289E694E083
:1024200091838083158216C00A0D1B1D852D942D66
:102430000E948D19C2015E2C4F2CE92EF82EBCCFC4
:1024400008191909F30111830083652D742DC60144
:102450000E945911C601C95BDF4F0FB6F894DEBF69
:102460000FBECDBFDF91CF911F910F91FF90EF90E5
:10247000DF90CF90BF90AF909F908F907F906F90A4
:102480005F904F900895BF92CF92DF92EF92FF92AC
:102490000F931F93CF93DF93CDB7DEB7C955D10903
:1024A0000FB6F894DEBF0FBECDBF7C016A01B22E1D
:1024B0009E01285A3F4FCE01CB960E94AA116A96E0
:1024C0000EAD1FAD6A970C0D1D1DF80180818111A5
:1024D0000AC0BE01655C7F4FCE0101960E94591172
:1024E0004DE053E03EC019A218A289E694E09F8F08
:1024F0008E8F1BA221968FAD2197811104C0C70139
:102500000E94B50F34C082502B2DA801823048F4B0
:1025100062E677E0CE014E960E94C11A81110EC08C
:10252000EECFBE01655C7F4FCE014E960E94C11A70
:10253000882329F3CE01CB960E948D198B2D8670AE
:1025400041F049A95AA96BA97CA9CE014E960E94D7
:10255000AA18BE01625E7F4FCE0101960E945911FA
:10256000A801BE016F5F7F4FC7010E947C0FC701AA
:10257000C75ADF4F0FB6F894DEBF0FBECDBFDF9155
:10258000CF911F910F91FF90EF90DF90CF90BF9070
:102590000895FB01BC01665D7F4F20E030E049E219
:1025A00050E1CF010C949A10FB01BC01665D7F4F96
:1025B00020E030E046E550E1CF010C949A101092F3
:1025C0003D0710923E07109241071092430782E0A8
:1025D00090E0A0E0B0E08093440790934507A0937B
:1025E0004607B093470710925B0710926507109259
:1025F000640789E694E090936307809362071092E2
:10260000670708959FB7F8942091DC0A8091DA0A51
:10261000213019F48DBB9FBF08958FBF089520917D
:10262000DC0A222399F03FB7F8942091DC0A21308C
:1026300059F42DB32093DA0A4DB32091DB0A20958B
:1026400024232DBB3FBF02C03093DA0A8CBD9DBD51
:1026500008958EBD00000DB407FEFDCF8EB5089520
:102660008FEF0C94291361E0FC0184810E94764471
:1026700080918107882339F0109281078091DC0ACC
:1026800081110C9402130895CF93DF93EC01809194
:102690008107811109C081E08093810780918207C1
:1026A000909183070E940F1360E08C81DF91CF919E
:1026B0000C947644CF93DF93EC018E81882389F0CC
:1026C0008F8198859C012F5F3F4F38872F83823001
:1026D000924018F40E943013F3CFCE010E943313BE
:1026E0001E82DF91CF910895673028F026E1FC012A
:1026F000258380E00895623081F030F4662359F03C
:102700006130B1F480E515C0643059F040F06530B7
:1027100079F482E50EC080E505C081E503C081E55E
:1027200008C082E58093820781E080938307089543
:1027300083E5809382071092830781E008950F93C9
:102740001F93CF93DF93EB010E9426438B010E94DE
:1027500030138F3F49F00E942643601B710B6C17AA
:102760007D07A8F380E001C081E0DF91CF911F9148
:102770000F910895CF92DF92FF920F931F93CF9303
:10278000DF9300D01F92CDB7DEB76C01F62E298300
:102790003A834B835C830E945A13C6010E94441300
:1027A0006CE271E0C6010E949F138F2D80640E942D
:1027B000291308E110E05C814B813A812981DA011B
:1027C000C901002E04C0B695A795979587950A94E0
:1027D000D2F729833A834B835C830E9429130850E4
:1027E000110929813A814B815C81083F8FEF1807DD
:1027F00031F7FF2029F0E8E0FE1621F08FEF03C04B
:1028000085E901C087E80E94291310E00E94301377
:10281000F601828787FF04C01F3F11F01F5FF6CFCC
:102820000F900F900F900F90DF91CF911F910F910C
:10283000FF90DF90CF900895BF92CF92DF92EF92FA
:10284000FF920F931F93CF93DF93EC01B62E1B865D
:1028500019861E821D824C830E9426438B0161E0F3
:102860008C810E943D4461E08C810E9476440E94EC
:102870008B3382E5809382071092830780918207D1
:10288000909183070E940F132AE0F22E8FEF0E948F
:102890002913FA94D9F78091DC0A81110E9402135E
:1028A000CE010E94441320E030E0A90160E0CE0197
:1028B0000E94BA13F82E8A8781E0F81649F00E9428
:1028C0002643601B710B613D774068F381E04BC08C
:1028D0002AEA31E040E050E068E0CE010E94BA13FD
:1028E00082FF02C0FB860DC094E0F92E0E943013D7
:1028F0008A87FA94D9F78A3A11F082E034C082E0EC
:102900008B878B85823031F4C12CD12CE12C80E473
:10291000F82E03C0C12CD12C760120E030E0A901B3
:1029200067E3CE010E94BA13A701960169E2CE01C6
:102930000E94BA138A87882349F00E942643601BAD
:10294000710B613D774048F388E00DC08B85823084
:1029500031F520E030E0A9016AE3CE010E94BA130C
:10296000882381F086E08D83CE010E94331380E0BE
:10297000DF91CF911F910F91FF90EF90DF90CF905B
:10298000BF9008950E943013807C803C11F483E056
:102990008B870E9430130E9430130E943013CE01A7
:1029A0000E9433136B2DCE01DF91CF911F910F91B8
:1029B000FF90EF90DF90CF90BF900C9474130F9323
:1029C0001F93CF93DF93EC010E9426438B010E945B
:1029D00030138A878F3F49F40E942643601B710B96
:1029E0006D327140A0F38FE003C08E3F39F08DE06F
:1029F0008D83CE010E94331380E001C081E0DF911E
:102A0000CF911F910F910895CF92DF92EF92FF9295
:102A10000F931F93CF93DF93EC016901011511050B
:102A200009F462C0C801820F931F8130924008F000
:102A30005DC08E81882371F088819981AA81BB81D4
:102A4000481759076A077B0729F48F819885C816AC
:102A5000D90610F5488359836A837B838B8583303D
:102A600039F039E0440F551F661F771F3A95D1F7AB
:102A70009A01AB0161E1CE010E94BA13882319F0DB
:102A800083E08D8333C0CE010E94DF14882371F16F
:102A900018861F8281E08E838F8198858C159D0515
:102AA00040F40E9430138F819885019698878F8318
:102AB000F3CF6701E00EF11ECE14DF0431F00E9467
:102AC0003013F60181936F01F7CF8F819885800FC6
:102AD000911F98878F832985222319F081159240B1
:102AE00018F0CE010E945A1381E004C0CE010E946A
:102AF000331380E0DF91CF911F910F91FF90EF9002
:102B0000DF90CF900895EF92FF920F931F9379017A
:102B100000E012E020E030E00E9404151F910F91C8
:102B2000FF90EF900895CF92DF92EF92FF920F9374
:102B30001F93CF93DF931F921F92CDB7DEB78C0107
:102B4000862F49835A830E9429134981C42E5A81B2
:102B5000D52EE12CF12CF60181916F010E942913F1
:102B6000FFEFEF1AFF0AE11482E0F806A1F78FEFFA
:102B70000E9429138FEF0E9429130E943013F8013D
:102B800082878F71853039F081E18583C8010E9489
:102B9000331380E001C081E00F900F90DF91CF915F
:102BA0001F910F91FF90EF90DF90CF9008950F93BA
:102BB0001F93CF93DF93EC01890141155105610506
:102BC000710511F482E132C08B85833039F089E0E0
:102BD000440F551F661F771F8A95D1F79A01AB01E5
:102BE00068E1CE010E94BA13882311F084E01EC070
:102BF000A8016EEFCE010E9493158823C1F068E50D
:102C000072E0CE010E949F13811102C085E10EC0C7
:102C100020E030E0A9016DE0CE010E94BA138111DD
:102C200004C00E943013882339F084E18D83CE01E3
:102C30000E94331380E004C0CE010E94331381E070
:102C4000DF91CF911F910F91089580E580938207C6
:102C5000109283070895CF93DF93EC019C012A5FC4
:102C60003F4F41E050E060E070E08B8D9C8D0E9412
:102C7000C71F8823A1F04F89588D698D7A8D452B08
:102C8000462B472B71F44E815F81688579854F8B88
:102C9000588F698F7A8F8C8180688C8302C080E026
:102CA00001C081E0DF91CF910895CF92DF92EF9242
:102CB000FF921F93CF93DF93EC010E942B1681119B
:102CC00002C080E04BC0EB8DFC8DCE80DF80E884BD
:102CD000F98482E0C81AD108E108F108058404C02B
:102CE000CC0CDD1CEE1CFF1C0A94D2F746855785E0
:102CF00060897189C40ED51EE61EF71E148181E01D
:102D0000C81AD108E108F108112361F0C701B60122
:102D1000610F711D811D911D0E94111E882389F272
:102D20001150F2CFEB8DFC8DC12C82E0D82EE12C1E
:102D3000F12C058404C0CC0CDD1CEE1CFF1C0A9495
:102D4000D2F74B895C896D897E894C0D5D1D6E1DA6
:102D50007F1D4B8B5C8B6D8B7E8B81E0DF91CF91E8
:102D60001F91FF90EF90DF90CF900895CF93DF9366
:102D7000EC01462F6E857F85888999890E94D61D32
:102D8000882341F08A8920E2829FC0011124835761
:102D9000984F02C080E090E0DF91CF910895282FF6
:102DA000FB018BE030E231938150E9F7A22FB92F7C
:102DB00020E037E09D91992319F19E3219F0E4EB60
:102DC000F3E008C03A3011F128E03AE0F3CF319651
:102DD0004917E1F044914111FACF3217B8F04FEDA5
:102DE000490F4E3598F441E0420FFB01E20FF11D0F
:102DF0002FE9290F2A3108F490529083242FDACF3B
:102E000081E0FB019081903209F480E008950F93F6
:102E10001F93CF93DF93EC018B018D81882311F0F9
:102E200080E040C0FB0187898031B1F482E08D836E
:102E30001F8A188E198E1A8E408D518D60E070E0B9
:102E400095E0440F551F661F771F9A95D1F74B8B5E
:102E50005C8B6D8B7E8B15C0803211F783E08D8388
:102E6000FB01428D538D648D758D4F8B588F698F0B
:102E70007A8F9E012D5E3F4FC8010E94BB1E8823A2
:102E800079F21C8F0B8F81E08C831E821F82188643
:102E900019861A861B861C861D861E861F86188A22
:102EA000198A1A8ADF91CF911F910F9108952F925D
:102EB0003F924F925F926F927F928F929F92AF92CA
:102EC000BF92CF92DF92EF92FF920F931F93CF9317
:102ED000DF93EC016B015A018D81811103C08FEFEB
:102EE0009FEFDAC08C8180FFFACF4B895C896D89B6
:102EF0007E898A859B85AC85BD852501612C712CD9
:102F00008A019B01081B190B2A0B3B0B04151505A5
:102F10002605370518F45A01A81AB90A25011E0119
:102F200026E0220E311C4114510409F47BC04A856D
:102F30005B856C857D854A0181E09822ED818A015F
:102F40009B01F9E03695279517950795FA95D1F7E6
:102F50008B8D9C8DE23051F4FC01628D738D848DDC
:102F6000958D600F711F821F931F3EC0FC017480FE
:102F70007A94702281149104C9F4711017C0452B02
:102F8000462B472B49F48F89988DA98DBA8D8E8356
:102F90009F83A887B9870AC04E815F81688579853C
:102FA00091010E94371E882309F499CFEB8DFC8D87
:102FB0006E817F81888599856250710981099109A7
:102FC000058404C0660F771F881F991F0A94D2F7E3
:102FD0000685178520893189600F711F821F931F15
:102FE000670D711D811D911D20E032E028193909FE
:102FF00032012415350508F439012C8126FD04C061
:103000006114F2E07F06A1F5009110021091110207
:103010002091120230911302601771078207930703
:1030200019F426C0C50138C0760183019401AB01B3
:10303000BC0180918B0790918C070E940415882316
:1030400009F44DCFC60CD71C04C0E81BF90BCE0EFB
:10305000DF1E8A859B85AC85BD85860D971DA11DCC
:10306000B11D8A879B87AC87BD87461857085BCF01
:1030700040E00E94D61D882309F431CFC401835754
:10308000984FD6019C01260D371DFC01E217F3076E
:10309000E1F241914D93FACFDF91CF911F910F91C2
:1030A000FF90EF90DF90CF90BF90AF909F908F9068
:1030B0007F906F905F904F903F902F900895FF9278
:1030C0000F931F93CF93DF931F92CDB7DEB78C0181
:1030D000FC018581823018F480E090E034C0F80172
:1030E0004285538564857585A5E0769567955795E6
:1030F0004795AA95D1F7F42FFF70FF2E41E050E0DD
:10310000BE016F5F7F4FC8010E945717019719F4E6
:10311000298130E002C02FEF3FEF2F3F3F4FE1F218
:10312000F8014285538564857585415E5F4F6F4F19
:103130007F4F4287538764877587F0E2FF9EC00107
:1031400011248357984F0F90DF91CF911F910F91CA
:10315000FF9008954F925F926F927F92AF92BF92CD
:10316000CF92DF92EF92FF920F931F93CF93DF9353
:10317000EC016A017B012D81222309F457C08B8960
:103180009C89AD89BE8984179507A607B70708F4FF
:103190004DC04EC08A859B85AC85BD85EB8DFC8D71
:1031A000E585F0E03996AC01BD0141505109610956
:1031B00071090E2E04C076956795579547950A9428
:1031C000D2F797018601015011092109310904C084
:1031D0003695279517950795EA95D2F704171507A1
:1031E00026073707B0F58F89988DA98DBA8D8E8304
:1031F0009F83A887B987280139015E0186E0A80E60
:10320000B11C411451046104710461F14E815F816C
:103210006885798595018B8D9C8D0E94371E91E084
:10322000491A5108610871088111EBCF80E01FC075
:103230002230C1F0C114D104E104F10409F0AACF95
:103240001E821F82188619861A861B861C861D867A
:103250000DC0892B8A2B8B2B31F2041B150B260BEF
:10326000370BC9CFCA86DB86EC86FD8681E0DF910D
:10327000CF911F910F91FF90EF90DF90CF90BF9073
:10328000AF907F906F905F904F9008950F931F9332
:10329000CF93DF93EC018D818823C9F18C8187FF67
:1032A00030C061E0CE010E94B6168C01009779F122
:1032B0008D81823048F44B895C896D897E89F80163
:1032C000448F558F668F778F4F89588D698D7A8D92
:1032D000F801538F428F758B648BE0918407F091D6
:1032E0008507309759F0B8016A5E7F4FC80148964C
:1032F0001995F801808D918D938B828B8C818F77BE
:103300008C83DF91CF911F910F910C949B1D80E0D6
:10331000DF91CF911F910F910895CF93DF93EC012F
:103320000E944619882319F01D8281E001C080E0C7
:10333000DF91CF9108954F925F926F927F92AF92FB
:10334000BF92CF92DF92EF92FF920F931F93CF9392
:10335000DF9300D01F92CDB7DEB75C016A017B011D
:10336000FC0185818130F1F4848181FF1BC0F5016E
:1033700083899489A589B68984179507A607B70715
:1033800088F0892B8A2B8B2B09F479C0F5014284B4
:10339000538464847584B701A601C5010E94AA18EC
:1033A000811102C080E06CC0F501838D948DC11441
:1033B000D104E104F10471F44789508D618D728D5F
:1033C0000E94DC20882371F3F501178A108E118E7C
:1033D000128E3AC0F50146815781608571859E0144
:1033E0002F5F3F4F0E94371E8823E1F249815A81A7
:1033F0006B817C81F501838D948DFC0127892031BF
:1034000029F408EF1FEF20E030E004C008EF1FEFC1
:103410002FEF3FE04017510762077307A8F40E949F
:10342000DC20882309F4BECFF501468157816085F1
:1034300071850FEF1FEF2FEF3FE0838D948D0E947A
:10344000261F882309F4AECFF501C38AD48AE58A02
:10345000F68A848180688483C5010E944619882386
:1034600009F4A0CFB701A6014C145D046E047F04DB
:1034700010F4B301A201C5010E94AA1801C081E0A5
:103480000F900F900F900F90DF91CF911F910F91A0
:10349000FF90EF90DF90CF90BF90AF907F906F90B4
:1034A0005F904F900895FF920F931F93CF93DF93F8
:1034B000EC01F42E80E2689FF0011124E357F84FED
:1034C0008385817129F0842F827411F080E053C0CC
:1034D0006A8B8091100290911102A0911202B0911A
:1034E00013028E879F87A88BB98B4489558960E02A
:1034F00070E0BA0155274427028D138D20E030E09B
:10350000402B512B622B732B4F8B588F698F7A8FE7
:103510008385887151F4048D158D268D378D0B8B25
:103520001C8B2D8B3E8B81E00CC0803179F69E0187
:103530002D5E3F4F8B8D9C8D0E94BB1E882331F2E8
:1035400084E08D838F2D8F708C831E821F8218865E
:1035500019861A861B861C861D86F6FE0BC040E067
:1035600050E0BA01CE01DF91CF911F910F91FF90F2
:103570000C949B1981E0DF91CF911F910F91FF90E7
:103580000895AF92BF92CF92DF92EF92FF920F9386
:103590001F93CF93DF93CDB7DEB72B970FB6F89479
:1035A000DEBF0FBECDBF7C016B01CA01B22EF70199
:1035B00025812111B9C0BE016F5F7F4F0E94CF16D8
:1035C000882309F4B1C0F601838D948DF701948F9F
:1035D000838FF60116821782108611861286138653
:1035E00014861586A12CF601028513852485358560
:1035F00083899489A589B689081719072A073B0783
:10360000E8F545E036952795179507954A95D1F742
:103610000F70C6010E945F18009709F485C0FC0175
:103620002081222311F0253EB9F4A1100EC0F7012C
:10363000028B409110025091110260911202709120
:10364000130246875787608B718BFC018081AA2407
:10365000A3948111C8CF12C04BE050E0BC01CE0151
:1036600001960E94D651892B09F0BDCF8B2D807316
:10367000803309F459C04B2D602F52C08B2D8271BD
:10368000823109F051C0AA2041F061E0C7010E94D7
:10369000B6168C01009779F447C0F6018581823017
:1036A00009F442C0C6010E9455168823E9F1F701CA
:1036B000128A0DE817E080E2F80111928A95E9F785
:1036C0008BE0FE013196D80101900D928A95E1F7C9
:1036D000E0918407F0918507309739F0B801625F77
:1036E0007F4FC8014096199509C081E298E2F80120
:1036F000918B808B80E098E097878687F80180899E
:103700009189938B828B918F808F86859785978BFC
:10371000868B0E949B1D882339F04B2DF70162890F
:10372000C7010E94531A01C080E02B960FB6F8948F
:10373000DEBF0FBECDBFDF91CF911F910F91FF90E4
:10374000EF90DF90CF90BF90AF900895CF93DF932D
:10375000EC0140E050E0BA010E949B19882371F00F
:1037600061E0CE010E94B616009741F025EEFC0103
:1037700020831D82DF91CF910C949B1D80E0DF910F
:10378000CF910895CF93DF93CDB7DEB76D970FB686
:10379000F894DEBF0FBECDBFAB011C821B8229E6B1
:1037A00034E03A8329831E8222E0BC01CE010196D7
:1037B0000E94C11A882329F0CE0101960E94A61BFF
:1037C00001C080E06D960FB6F894DEBF0FBECDBF8E
:1037D000DF91CF9108952F923F924F925F926F9217
:1037E0007F928F929F92AF92BF92CF92DF92EF9291
:1037F000FF920F931F93CF93DF9300D01F921F92DE
:10380000CDB7DEB78C017B013A01DC0115968C91B6
:1038100015978130C9F414968C9181FF15C082FFF1
:103820001BC0F8014389548965897689828593850F
:10383000A485B58584179507A607B70769F0C80161
:103840000E94AA18811108C081E090E0F8019383DA
:10385000828380E090E046C1630180C0D8015B961E
:103860008D919C915C97FC01F481F150B501A4010C
:1038700029E076956795579547952A95D1F7F423D2
:10388000FD8321E09222FF2309F474C080E092E0DE
:103890008819990956018C159D0508F45C01D80119
:1038A0005B96ED91FC915C9716962D903D904D9016
:1038B0005C901997B2E02B1A310841085108058431
:1038C00004C0220C331C441C551C0A94D2F7868574
:1038D0009785A089B189280E391E4A1E5B1EED818D
:1038E0002E0E311C411C511CA114F2E0BF0609F040
:1038F00088C08091100290911102A0911202B091A3
:10390000130282159305A405B50559F48FEF9FEFB7
:10391000DC018093100290931102A0931202B093E5
:1039200013029701B201A10180918B0790918C073E
:103930000E94D715882309F487CF9EEFF91ACA1879
:10394000DB08F80182859385A485B5858A0D9B1DCA
:10395000A11DB11D82879387A487B587D8011A96C8
:103960008D909D90AD90BC901D97C114D10409F02D
:1039700075CF8AC08114910409F088CF16964D91B5
:103980005D916D917C911997411551056105710506
:1039900059F457968D919D910D90BC91A02D009753
:1039A000A105B10541F521C09E012F5F3F4F0E9447
:1039B000371E882309F44ECF89819A81AB81BC815F
:1039C000F801238D348DF9012789203129F448EF3E
:1039D0005FEF60E070E004C048EF5FEF6FEF7FE003
:1039E00084179507A607B70730F0C8010E942B1669
:1039F00081114CCF29CFF80186839783A087B187A7
:103A000045CF8114910429F5D8011A964D915D9105
:103A10006D917C911D9753968D919D910D90BC91C8
:103A2000A02D481759076A077B0798F00E949B1D35
:103A3000882309F409CF209210023092110240929B
:103A400012025092130280918A07816080938A0744
:103A500008C041E0C201B1010E94D61D882309F4CB
:103A6000F3CEC4018357984FD7019C012A0D3B1D0B
:103A7000FC01E217F30719F04D914193FACFE81BCF
:103A8000F90BEE0EFF1E5BCF53968D919D910D901D
:103A9000BC91A02DF801248188159905AA05BB05C4
:103AA00038F4838A948AA58AB68A206824830CC055
:103AB0008091840790918507892B31F061147104FE
:103AC00019F02068F8012483D80114968C9183FDA5
:103AD00002C0C30107C0C8010E944619882309F427
:103AE000B3CEF7CF0F900F900F900F900F90DF9104
:103AF000CF911F910F91FF90EF90DF90CF90BF90EB
:103B0000AF909F908F907F906F905F904F903F907D
:103B10002F900895CF93DF931F92CDB7DEB76983BF
:103B200041E050E0BE016F5F7F4F0E94EB1B0F90A2
:103B3000DF91CF91089580918A07882399F1409170
:103B400010025091110260911202709113022DE83F
:103B500037E080918B0790918C070E94D7158823BE
:103B600019F14091860750918707609188077091FD
:103B70008907411551056105710591F02DE837E080
:103B800080918B0790918C070E94D715882361F054
:103B90001092860710928707109288071092890763
:103BA00010928A0781E0089580E00895CF92DF9215
:103BB000EF92FF92CF936B017C01C42F8091100292
:103BC00090911102A0911202B09113028C159D05E3
:103BD000AE05BF05D1F00E949B1D811102C080E09F
:103BE0001AC02DE837E0B701A60180918B079091AC
:103BF0008C070E948315882391F3C0921002D09203
:103C00001102E0921202F092130280918A078C2B2B
:103C100080938A0781E0CF91FF90EF90DF90CF9063
:103C20000895CF92DF92EF92FF926B017C010E9488
:103C30009B1D8823B1F0EDE8F7E0119289E0ED38A3
:103C4000F807D9F7C0921002D0921102E092120246
:103C5000F092130280918A07816080938A0781E045
:103C600001C080E0FF90EF90DF90CF9008958F9299
:103C70009F92AF92BF92CF92DF92EF92FF920F93FB
:103C80001F93CF93DF938C016A017B01E901FC0153
:103C900081859285A385B4850196A11DB11D8417E8
:103CA0009507A607B70710F480E058C0F8014389CC
:103CB0005489658976898789803129F4BB27AF2D9E
:103CC0009E2D8D2D09C0D701C60127E0B695A79579
:103CD000979587952A95D1F74C015D01840E951E25
:103CE000A61EB71EC501B40180901002909011026B
:103CF000A0901202B0901302681579058A059B0501
:103D000089F4F8018789803199F4DD24EE24FF24B9
:103D1000F601EE0FFF1FE357F84F80819181A0E07D
:103D2000B0E017C040E00E94D61D8111EACFBCCFA1
:103D3000E894C7F8DD24EE24FF24F601EE0FFF1F00
:103D4000EE0FFF1FE357F84F80819181A281B3816D
:103D5000BF7088839983AA83BB8381E0DF91CF9171
:103D60001F910F91FF90EF90DF90CF90BF90AF9099
:103D70009F908F9008954F925F926F927F92AF9233
:103D8000BF92CF92DF92EF92FF920F931F93CF9348
:103D9000DF9300D01F92CDB7DEB78C0149835A83E1
:103DA0006B837C835901C12CD12C7601412C42E0DC
:103DB000542E612C712C49815A816B817C819E012A
:103DC0002F5F3F4FC8010E94371E882359F1D3014E
:103DD000C201F801058404C0880F991FAA1FBB1FE8
:103DE0000A94D2F7C80ED91EEA1EFB1E49815A81D9
:103DF0006B817C818789803129F488EF9FEFA0E077
:103E0000B0E004C088EF9FEFAFEFBFE0481759075D
:103E10006A077B0780F2F501C082D182E282F382D9
:103E200081E001C080E00F900F900F900F90DF9124
:103E3000CF911F910F91FF90EF90DF90CF90BF90A7
:103E4000AF907F906F905F904F9008954F925F92E8
:103E50006F927F928F929F92AF92BF92CF92DF929A
:103E6000EF92FF920F931F93CF93DF93EC016A01C0
:103E70007B0128013901423051056105710508F4C3
:103E800074C049855A856B857C854F5F5F4F6F4F46
:103E90007F4F4C155D056E057F0508F466C08B8865
:103EA0009C88AD88BE888F89803129F477276F2D53
:103EB0005E2D4D2D09C0B701A601E7E07695679507
:103EC00057954795EA95D1F7840E951EA61EB71E05
:103ED00040911002509111026091120270911302F0
:103EE00084169506A606B70671F48F89803199F479
:103EF000DD24EE24FF24F601EE0FFF1FE357F84FF9
:103F00005182408218C040E0C501B4010E94D61D14
:103F10008111EBCF2AC0E894C7F8DD24EE24FF24FA
:103F2000F601EE0FFF1FEE0FFF1FE357F84F408221
:103F300051826282738280918A07816080938A07AE
:103F40008A89823080F08D819E81AF81B885880D0D
:103F5000991DAA1DBB1D8093860790938707A09388
:103F60008807B093890781E001C080E0DF91CF919D
:103F70001F910F91FF90EF90DF90CF90BF90AF9087
:103F80009F908F907F906F905F904F9008952F92A9
:103F90003F924F925F926F927F929F92AF92BF92A9
:103FA000CF92DF92EF92FF920F931F93CF93DF9305
:103FB000CDB7DEB760970FB6F894DEBF0FBECDBFAA
:103FC0005C014D875E876F87788B1901D9014D9011
:103FD0005D906D907C90411451046104710431F046
:103FE000BFEF4B1A5B0A6B0A7B0A10C0FC014080D2
:103FF000518062807380992493940D851E852F854E
:104000003889013011052105310509F0912CD501C0
:1040100019962D913D914D915C911C972F5F3F4FCB
:104020004F4F5F4F29873A874B875C877301620147
:104030001D821E821F821886F50181859285A385C7
:10404000B4850D811E812F813885081719072A072D
:104050003B0708F056C029853A854B855C852C15B1
:104060003D054E055F0550F4A2E0CA2ED12CE12C8F
:10407000F12CB2E04B2E512C612C712C9E012F5F44
:104080003F4FB701A601C5010E94371E8823C9F121
:1040900049815A816B817C81D701C6010196A11D9E
:1040A000B11D452B462B472B19F02C013D010FC0AC
:1040B000AC01BD0144195509660977090D851E85B6
:1040C0002F853889401751076207730779F02D81D2
:1040D0003E814F8158852F5F3F4F4F4F5F4F2D835C
:1040E0003E834F8358876C017D01A6CF0FEF1FEFF2
:1040F0002FEF3FE0B701A601C5010E94261F8111E5
:1041000018C080E041C0D701C6010197A109B109DB
:104110008D839E83AF83B88797018601AC01BD0173
:10412000C5010E94261F882361F3CD80DE80EF80C9
:10413000F8844C145D046E047F0428F3D1014D9182
:104140005D916D917C91411551056105710599F461
:10415000F10140825182628273829920A1F0FFEFC7
:104160004F1A5F0A6F0A7F0AD5014D925D926D92D8
:104170007C92139708C093018201C5010E94261FFB
:104180008111E6CFBECF81E060960FB6F894DEBF16
:104190000FBECDBFDF91CF911F910F91FF90EF9098
:1041A000DF90CF90BF90AF909F907F906F905F9087
:1041B0004F903F902F900895AF92BF92CF92DF9291
:1041C000EF92FF920F931F93CF93DF9300D01F9234
:1041D000CDB7DEB75C016A017B0182E090E0A0E030
:1041E000B0E0F50180839183A283B3839E012F5FAA
:1041F0003F4FB701A601C5010E94371E882311F168
:1042000000E010E09801B701A601C5010E94261F39
:104210008823C1F0C980DA80EB80FC80F5018789B2
:10422000803129F488EF9FEFA0E0B0E004C088EF70
:104230009FEFAFEFBFE0C816D906EA06FB06B0F263
:1042400081E001C080E00F900F900F900F90DF9100
:10425000CF911F910F91FF90EF90DF90CF90BF9083
:10426000AF9008958F929F92AF92BF92CF92DF92BC
:10427000EF92FF920F931F93CF93DF93EC01142FD4
:1042800070938C0760938B07442341F1453010F005
:1042900080E0EFC040E060E070E0CB010E94D61DFE
:1042A0008823B1F320E1129FF0011124E55CF64F61
:1042B00080818F7769F784859585A685B785843653
:1042C0009105A105B10520F3C084D184E284F38473
:1042D000C114D104E104F10421F4DACFC12CD12CB2
:1042E000760140E0C701B6010E94D61D882381F205
:1042F00080919807909199078115924049F63091E5
:104300009D07332329F280919B0790919C07892B6D
:1043100009F4BECF20919A07222309F4B9CF3A8B32
:104320002C831D8630E041E050E06D85062FCA01E8
:10433000062E02C0880F991F0A94E2F72817390742
:1043400031F081E0860F8D87683078F3A1CF20911E
:10435000A3073091A4072115310519F040E050E082
:1043600008C02091B1073091B2074091B307509136
:10437000B4072D833E834F83588780919B0790918C
:104380009C0746015701880E991EA11CB11C8B8AFF
:104390009C8AAD8ABE8AE0919E07F0919F07F98FB3
:1043A000E88FA0919D07B0E00E94904F680D791DA5
:1043B0008A1D9B1D6A8F7B8F8C8F9D8F15E0EE0F62
:1043C000FF1F1A95E1F7E150FE4FEF2FFF27E6950B
:1043D000DC01CB018E0F9F1FA11DB11D8E879F8712
:1043E000A88BB98B8090A0079090A10781149104AD
:1043F00019F0A12CB12C08C08090AD079090AE07A9
:10440000A090AF07B090B007A7019601281B390B09
:104410004A0B5B0BDA01C901880D991DAA1DBB1D52
:1044200004C0B695A795979587950A95D2F7898781
:104430009A87AB87BC87853F3FE09307A105B1050D
:1044400010F48CE014C0853F9F4FA105B10510F416
:1044500080E10DC08091B9079091BA07A091BB0788
:10446000B091BC078A8F9B8FAC8FBD8F80E28F8B02
:1044700081E0DF91CF911F910F91FF90EF90DF903E
:10448000CF90BF90AF909F908F900895FC011082C5
:104490001182738362830895FC0181818F5F8F771E
:1044A0009081891779F09181DF01A90FB11D1496D0
:1044B0006C93DF01A80FB11D14961C92818381E0DB
:1044C00090E0089580E090E00895FC019081818162
:1044D000981759F08081DF01A80FB11D14968C91B7
:1044E00090819F5F9F779083089580E00895FC01FD
:1044F00091818081891718F48181908103C0818125
:1045000090818058891B90E0681779072CF480818E
:10451000E80FF11D8481089580E00895FC01218158
:1045200020830895DF92EF92FF920F931F93CF9312
:10453000DF93FB0150815523A1F1D12CE0E0F0E0A5
:1045400034C0DD20D1F1A0E0D12CE0E0F0E05F5FED
:104550005F77AA2341F1521731F1DC01A50FB11D9C
:104560001496CC91D0E0DB01AE0FBF1FAC91BB27FE
:10457000A7FDB095CA17DB0721F7D11001C0352F71
:104580003196DB01AE0FBF1FAC91A11112C0011516
:10459000110511F0F8013083E114F10411F0F70175
:1045A000508381E00DC04F5F4F77421741F0542F89
:1045B000D4CFA1E0DD24D394CACFA1E0C8CF80E05E
:1045C000DF91CF911F910F91FF90EF90DF900895B1
:1045D000EF92FF920F931F93FC0121814081E12C08
:1045E000F12C00E010E00E9492221F910F91FF90A9
:1045F000EF900895AF92BF92CF92DF92EF92FF9229
:104600000F931F93CF93DF931F921F92CDB7DEB707
:104610006C01B42EA22EFC0121814081CE010196B5
:104620007C018E010E5F1F4FC6010E9492228823DB
:10463000B9F0AA2051F0BB2021F089818F5F8F77DC
:1046400001C08A81F601808307C0BB2039F08981CF
:104650008F5F8F77F601818381E003C08A81FACF73
:1046600080E00F900F90DF91CF911F910F91FF90FD
:10467000EF90DF90CF90BF90AF9008958F929F9270
:10468000AF92BF92CF92DF92EF92FF920F931F9360
:10469000CF93DF931F921F92CDB7DEB76C014A0113
:1046A0005901FC0121814081CE0102967C0100E08C
:1046B00010E0C6010E949222811102C080E02AC04F
:1046C0004A814F5F4A83F6012181E12CF12C8E0152
:1046D0000F5F1F4FB401C6010E949222882371F31D
:1046E0009A8169816F7770E0F501AF014A195B0922
:1046F000292F30E02617370749F0D601A20FB31F44
:1047000014962C9121939F5F9F77EFCFF501E40FD3
:10471000F51F10820F900F90DF91CF911F910F9195
:10472000FF90EF90DF90CF90BF90AF909F908F90D1
:104730000895FC0120812F5F50E030E080E090E0A0
:104740006AE04181241709F1DF01A20FB11D14961F
:104750004C91403219F4311105C014C04D3211F49E
:10476000332371F030ED340F3A3078F4DC016A9F76
:10477000C0016B9F900D1124840F911DC09701C043
:1047800051E031E02F5F2F77DCCF552319F0919561
:10479000819591090895CF93C82F80EE8C0F8F35A6
:1047A00010F46C2F0DC065E28DE29BE00E94424840
:1047B0004AE050E06C2F8DE29BE00E946D4965E27B
:1047C0008DE29BE0CF910C9442480F931F93CF93BF
:1047D000DF93EC01188109818DE29BE00E94534830
:1047E0004AE050E0612F8DE29BE00E946D4961EA52
:1047F00072E08DE29BE00E9440484AE050E0602F6A
:104800008DE29BE00E946D496EE38DE29BE00E9489
:104810004248101749F0FE01E10FF11D84810E940A
:10482000CB231F5F1F77F5CF8DE29BE0DF91CF9108
:104830001F910F910C9453480F9300E020E040E04B
:1048400060E08FE899E00E94BE470F9108950F93B2
:1048500000E020E040E060E084EA99E00E94BE478A
:1048600085E999E00F910C944F250F9300E020E02B
:1048700040E060E08AEA99E00E94BE470F91089507
:104880000F9300E020E040E060E080EB99E00E94C0
:10489000BE470F9108950F9300E020E040E060E0F4
:1048A00088EB99E00E94BE471092B7091092B609B2
:1048B0000F9108950F9300E020E040E060E084EC69
:1048C00099E00E94BE4780EC99E00F910C94462934
:1048D0000F9300E020E040E060E08EEC99E00E9461
:1048E000BE470F91089580E008950F9300E020E007
:1048F00040E060E084ED99E00E94BE470F9108958A
:104900008CEE99E00E946C288091F60990E0089561
:10491000FB01DA0184918D9331968111FBCF0895CB
:1049200080E090E0089580E090E008950F931F9359
:10493000CF93DF93D901EB010A811B812C813D814B
:10494000FC0101871287238734871092F3091092A4
:10495000F2090190F081E02D0484F585E02D9D01A0
:1049600060E070E0DF91CF911F910F91199408954D
:10497000089580E090E00895089581E02091FD0978
:104980003091FE092530310509F080E00895039645
:104990000C9480248091FD099091FE09059721F4E3
:1049A0008EEE99E00C94424808958091FD09909113
:1049B000FE09059721F48EEE99E00C944048089585
:1049C0008091FD099091FE09059731F064E070E057
:1049D0008CEE99E00E94DE2780911F0A90911E0ABA
:1049E000891B8F7719F061E070E002C064E070E02D
:1049F0008CEE99E00E94DE278091F60990E0089500
:104A0000FF920F931F93CF93DF93CDB7DEB72C9711
:104A10000FB6F894DEBF0FBECDBF8C010D5F1F4FE8
:104A2000AE014F5F5F4F64EC73E0C8010E948824C1
:104A3000FF24F3942091FD093091FE0925303105C2
:104A400009F0F12C20E040E0BE016F5F7F4F8EE166
:104A50009AE00E94FA22F82259F024E030E03093E4
:104A6000FE092093FD09B8018CEE99E00E94902781
:104A70008F2D2C960FB6F894DEBF0FBECDBFDF9101
:104A8000CF911F910F91FF90089560E070E08EE14B
:104A90009AE00E947722992787FD90950895CF93F9
:104AA000DF93EC018DE794E09983888387EA94E0B3
:104AB0009C838B83CE0107960E94B447D0938E09C6
:104AC000C0938D09DF91CF9108950F9300E020E00E
:104AD00040E060E08AED99E00E94BE470F910895A2
:104AE0000F931F93CF93DF93CDB7DEB72D970FB6FC
:104AF000F894DEBF0FBECDBF8C018091F7098230E4
:104B000001F118F4813041F0BBC0833009F467C073
:104B1000843009F479C0B4C040E06BEE73E08CEEF1
:104B200099E00E94F627E091F209F091F30930979D
:104B300009F49AC0808180538A3008F495C061E3FB
:104B400094C020E030E040E050E0BE01635F7F4F62
:104B50008CEE99E00E94B127882309F491C08D85DD
:104B60008823D1F140E060EE73E08CEE99E00E9482
:104B7000F6276DE674E08EEE99E00E944048609161
:104B8000F2097091F3096115710529F08EEE99E033
:104B90000E94404806C06EEE79E0C80107960E9468
:104BA0007A4762E28EEE99E00E9442486CE28EEE15
:104BB00099E00E9442486091F4097091F5094AE039
:104BC00050E08EEE99E00E9440496DE08EEE99E053
:104BD0000E94424883E015C063E070E040C020E0DE
:104BE00030E040E050E0BE01635F7F4F8CEE99E023
:104BF0000E94B127882309F443C08D85882361F37F
:104C000084E08093F7093CC0AE014F5F5F4F66EDD3
:104C100073E0C80103960E94882420E030E0AE01D2
:104C20004F5F5F4FBE01635F7F4F8CEE99E00E9444
:104C3000B127882329F18D85882371F285E090E0E2
:104C40009093FE098093FD0921E041E0BE016F5F72
:104C50007F4F8EE19AE00E94FA2261E070E08CEED4
:104C600099E00E94DE270CC060E38EEE99E00E947E
:104C700042486DE08EEE99E00E94424882E0C1CF4A
:104C80002D960FB6F894DEBF0FBECDBFDF91CF914A
:104C90001F910F9108950F931F93CF93DF93EC0112
:104CA0005093F5094093F4093E872D877093F309DB
:104CB0006093F2098C010D5F1F4F4EE050E0B80188
:104CC0008CEE99E00E948428B8018CEE99E00E9455
:104CD0007227CE010E9470258091F60990E0DF9145
:104CE000CF911F910F910895CF93DF93EC012396FD
:104CF0004FE050E0BE018CEE99E00E94842868EEFF
:104D000073E080E090E00E94554365E774E08EEE2A
:104D100099E00E94404868EE73E080E090E00E94D5
:104D2000554341E06BEC73E08CEE99E00E94F6276E
:104D300084E090E09093FE098093FD098EE19AE073
:104D40000E948E228BE09AE00E943F2F64E670E082
:104D500080E090E00E94554361E070E08CEE99E0C5
:104D60000E94DE2780911F0A90911E0A891B8F776F
:104D700029F7BE018CEE99E00E9490278091F609F8
:104D800090E0DF91CF910895CF9380911E0A90918A
:104D90001F0A8150891B8F77B9F08EE19AE00E943B
:104DA0006522C82F90911E0A80911F0A9150981B6E
:104DB0009F77943621F48BE09AE00E943F2F8C2F4E
:104DC000992787FD909502C080E090E0CF910895EB
:104DD00080911F0A90911E0A891B8F7741F08EE106
:104DE0009AE00E948E228BE09AE00C943F2F61E0C3
:104DF00070E08CEE99E00C94DE272091F809309158
:104E0000F9092E30310549F02331310541F02130C7
:104E1000310539F460931F0A08950C9470250C94A1
:104E2000E8260895CF93DF93EC01BC016D5F7F4FBF
:104E300043E150E08CEE99E00E948428CE01DF919E
:104E4000CF910C94E82603970C94002503970C94BB
:104E5000FD260F9300E020E040E060E080EE99E066
:104E60000E94BE470F9108950F9300E020E040E0BC
:104E700060E086EE99E00E94BE470F910895CF92C0
:104E8000DF92FF920F931F93CF93DF931F92CDB7C3
:104E9000DEB78C016B01F601F490FF2059F0D801C8
:104EA000ED91FC910280F381E02D6F2DC8014983C3
:104EB00019954981BFEFCB1ADB0AF110ECCF4423DF
:104EC00031F066EE74E0C80102960E94404881E02D
:104ED00090E00F90DF91CF911F910F91FF90DF90A5
:104EE000CF900895FC0183899489892B59F0858995
:104EF0009689892B51F08789908D892B81F4A2E0C6
:104F0000B0E005C0A0E0B0E002C0A1E0B0E0AA0FB0
:104F1000BB1FAE0FBF1F54967C936E93539708959B
:104F2000FC01838994898617970769F0858996899A
:104F30008617970759F08789908D8617970781F410
:104F4000A2E0B0E005C0A0E0B0E002C0A1E0B0E0A7
:104F5000AA0FBB1FAE0FBF1F54961C921E925397F1
:104F60000895EF92FF920F931F93CF93DF938B01DE
:104F7000E9014115510531F4209721F440911402C3
:104F8000509115027C0122E3E20EF11CBA01C70127
:104F90000E94E822F8018083811108C0209731F037
:104FA000BE01C7010E94E822F801808381E0DF9101
:104FB000CF911F910F91FF90EF900895FC01613008
:104FC000710531F08091F8099091F909029749F043
:104FD000628781E090E095878487128E118E8387A7
:104FE00008951092FE091092FD09F2CF0F931F93BE
:104FF000CF93DF9300D0CDB7DEB78C01C2964B8341
:1050000069837A830E948E22D801ED91FC910480FD
:10501000F581E02D4B8169817A81C8010F900F9055
:105020000F90DF91CF911F910F911994CF92DF9242
:10503000FF920F931F93CF93DF931F92CDB7DEB7ED
:105040008C01F62EC12CD12CF801EC0DFD1D8389AD
:105050009489009759F0DC01ED91FC910280F38175
:10506000E02D6F2D49831995498101C080E0B4E09E
:10507000CB16D10431F0E2E0CE0ED11C882321F30F
:1050800019C0811117C0D80159968D919C915A97DA
:10509000009781F0DC01ED91FC910190F081E02D11
:1050A0006F2D0F90DF91CF911F910F91FF90DF90A7
:1050B000CF9019940F90DF91CF911F910F91FF9096
:1050C000DF90CF900895FC012685222319F0678791
:1050D000408B08950C941628CF93DF93EC018E85B6
:1050E000882379F09F858889981759F0CE01C29658
:1050F0000E94E52348896F85CE010E9416281F86ED
:10510000188ADF91CF910895FC01728F618F12860A
:1051100081E08387558744871786108A0895CF9248
:10512000DF92EF92FF920F931F93CF93DF93EC01E7
:105130000E9426436B017C010B8D1C8D2D8D3E8DB5
:10514000601B710B820B930BCB8EDC8EED8EFE8E73
:10515000DF91CF911F910F91FF90EF90DF90CF9053
:105160000895CF93DF93EC011D821C828FEA94E0B7
:105170009983888389EB94E09B838A83CE014F9641
:105180000E941830D8A7CFA31F86188A81E08A878B
:105190001B8681E090E09D878C87CE010E948F283E
:1051A0001C8A1B8A1E8A1D8A188E1F8ADF91CF9146
:1051B00008958CEE99E00C94B1280F931F93CF9330
:1051C000DF931F92CDB7DEB78C01FC018685882363
:1051D00029F0862F69830E94CB236981C8014F96ED
:1051E0000F90DF91CF911F910F910C94472F029751
:1051F0000C94DD280F9300E020E040E060E082EABC
:105200009AE00E94BE470F9108950F9300E020E0BE
:1052100040E060E088EA9AE00E94BE470F9108955E
:105220000F9300E020E040E060E08EEA9AE00E9408
:10523000BE470F9108950F9300E020E040E060E04A
:1052400084EB9AE00E94BE470F91089580E090E0C1
:10525000089580E090E0089581E02091FD0930916B
:10526000FE092530310509F080E0089581E02091A4
:10527000FD093091FE092530310509F080E00895DF
:1052800080E090E0089502960C94802421EC34E0B4
:10529000FC013183208327ED34E033832283909314
:1052A000BF098093BE0908950F931F93CF93DF9397
:1052B00000D01F92CDB7DEB78C018091F709823004
:1052C00099F060F4813009F079C041E068E274E05F
:1052D0008CEE99E00E94F62782E034C08330C1F161
:1052E000843009F44EC06AC08DE089838AE08A83E5
:1052F0001B8220E030E0AE014F5F5F4FBE016C5F6C
:105300007F4F8CEE99E00E94B127882309F456C0A4
:105310008C818823D1F040E066E174E08CEE99E066
:105320000E94F6276091F4097091F5094AE050E077
:105330008EEE99E00E9440496DE08EEE99E00E9469
:10534000424883E08093F70939C063E070E032C0DF
:1053500020E030E040E050E0BE016C5F7F4F8CEE1B
:1053600099E00E94B127882349F18C81882369F351
:1053700041E06AE074E08CEE99E00E94F62784E058
:10538000E1CF20E030E040E050E0BE016C5F7F4FB5
:105390008CEE99E00E94B127882381F08C818823CC
:1053A000A1F2B8016E5F7F4F8CEE99E00E947227E8
:1053B00061E070E08CEE99E00E94DE270F900F9084
:1053C0000F900F90DF91CF911F910F910895209131
:1053D000F8093091F9092130310521F024313105E6
:1053E00021F0089560931F0A08950C945429CF93D7
:1053F000DF93EC017093F5096093F409BC016E5FD3
:105400007F4F44E150E08CEE99E00E948428CE0169
:105410000E9454298091F60990E0DF91CF91089580
:105420000F931F93CF93DF93CDB7DEB72F970FB6B0
:10543000F894DEBF0FBECDBF8C010E5F1F4FAE01D3
:105440004F5F5F4F61E074E0C8010E948824BE0195
:105450006F5F7F4F8EE19AE00E94E822882331F04F
:1054600084E090E09093FE098093FD09AE014F5FC8
:105470005F4F67EF73E0C8010E948824BE016F5F31
:105480007F4F8EE19AE00E94E8228823A9F021E074
:1054900041E0BE016F5F7F4F8EE19AE00E94FA22E9
:1054A0008BE09AE00E943F2F85E090E09093FE0908
:1054B0008093FD0981E001C080E02F960FB6F8943B
:1054C000DEBF0FBECDBFDF91CF911F910F91089529
:1054D00002970C94E72902970C94102A02960C94D8
:1054E00080240F931F939B018A0141EE54E06BEDE2
:1054F00074E08EE19AE00E943E2381E090E01F91EB
:105500000F910895FC012681211109C021E0268315
:1055100041E063EE74E08EE19AE00E94FA2260E0DE
:1055200070E08EE19AE00E947722992787FD90959E
:10553000089520E035E0FC013183208328E135E047
:10554000338322839093CB098093CA090895CF9324
:10555000DF931F92CDB7DEB78091F709813019F044
:105560008230D1F032C082E08093F70940E063E5F9
:1055700074E08CEE99E00E94F6276091F209709138
:10558000F3098EEE99E00E94404865EE74E08EEEDD
:1055900099E00E94404819C020E030E044E952E020
:1055A000BE016F5F7F4F8CEE99E00E94B127882388
:1055B00061F08981882319F061E070E002C063E046
:1055C00070E08CEE99E00E94DE270F90DF91CF9182
:1055D0000895CF93DF93EC012091FD093091FE09EE
:1055E000235031092230310518F082E090E013C0D9
:1055F0007093F3096093F209BC016E5F7F4F44E042
:1056000050E08CEE99E00E948428CE010E94A72AE7
:105610008091F60990E0DF91CF9108950F931F9349
:10562000CF93DF93EC018B0180911E0A90911F0AAA
:105630008150891B8F7791E0853008F090E09F833F
:1056400021E041E068EE74E08EE19AE00E94FA22E7
:10565000811103C0F801108203C081E0F80180834A
:105660008EE19AE00E9499239D838C836FEE74E013
:105670008EE19AE00E94E8228887198681E0DF9116
:10568000CF911F910F910895CF93DF931F92CDB7C4
:10569000DEB72091F709213019F0223061F01EC0E9
:1056A00041E06CE374E08CEE99E00E94F62782E022
:1056B0008093F70913C0BE016F5F7F4F0E940E2BCE
:1056C000882361F08981811103C064E070E002C029
:1056D00061E070E08CEE99E00E94DE270F90DF9190
:1056E000CF910895CF93DF93EC011E82BC016E5FD2
:1056F0007F4F46E050E08CEE99E00E948428CE0176
:105700000E94442B8091F60990E0DF91CF9108959B
:105710000F931F93CF93DF931F92CDB7DEB78C010A
:105720008091F709813019F08230D9F033C082E0DE
:105730008093F70940E063E374E08CEE99E00E9407
:10574000F627F801648175814AE050E08EEE99E019
:105750000E94404966EE74E08EEE99E00E94404857
:1057600019C020E030E040E050E0BE016F5F7F4FA5
:105770008CEE99E00E94B127882361F0898188230B
:1057800019F061E070E002C063E070E08CEE99E037
:105790000E94DE270F90DF91CF911F910F91089506
:1057A0008CEE99E00C94DD28CF93DF931F92CDB758
:1057B000DEB78091F709813019F0823081F028C07E
:1057C00082E08093F7096AE18CEE99E00E94DD287F
:1057D00066EE74E08EEE99E00E94404819C020E029
:1057E00030E040E050E0BE016F5F7F4F8CEE99E00B
:1057F0000E94B127882361F08981882319F061E034
:1058000070E002C063E070E08CEE99E00E94DE2759
:105810000F90DF91CF910895CF93DF93EC01BC01FE
:105820006E5F7F4F45E050E08CEE99E00E94842847
:10583000CE010E94D42BE881F9810088F189E02D06
:10584000CE011995892B39F464E670E080E090E090
:105850000E945543F0CF8091F60990E0DF91CF91FF
:1058600008952091F8093091F90925303105A1F00A
:105870003CF42130310559F02430310559F00895B8
:105880002630310559F02730310551F008956093E5
:105890001F0A08950C94A72A0C94D42B0C94442B23
:1058A0000C94882B0F931F93CF93DF93EC018E8181
:1058B00081110AC081E08E8321E041E063EE74E053
:1058C0008EE19AE00E94FA228EE19AE00E9465221F
:1058D000082F8985882341F019866FEE74E08EE1E8
:1058E0009AE00E94E8228887888581112BC08F81E9
:1058F000882359F190911E0A80911F0A9150981B9C
:105900009F77112707FD10959F3709F045C08EE15D
:105910009AE00E948E221F8281E08987BE016E5F1D
:105920007F4F40E050E08CEE99E00E9484288BE0AD
:105930009AE00E943F2F6AE070E080E090E00E94D1
:1059400055432AC06FEE74E002C065EF74E08EE14B
:105950009AE00E94E82281111AC08EE19AE00E942A
:105960008E22BE016E5F7F4F40E050E08CEE99E0EA
:105970000E9484288BE09AE00E943F2F6AE070E04A
:1059800080E090E00E94554380E090E006C0802FC8
:10599000992787FD909501C0C801DF91CF911F9194
:1059A0000F9108950F931F93CF93DF938C01C5E060
:1059B000D0E08EE19AE00E948E228BE09AE00E9475
:1059C0003F2F6AE070E080E090E00E94554321970D
:1059D00081F7B8016E5F7F4F47E050E08CEE99E0B1
:1059E0000E948428C801DF91CF911F910F910C94E0
:1059F000882B02970C94312CCF93DF93EC01E88134
:105A0000F9810684F785E02D19958E819F81DF91BC
:105A1000CF910895FC0177836683089502960C94D4
:105A20008024BC016E5F7F4F8CEE99E00C9472274E
:105A30000F931F93CF93DF93EC018B0140E060E95C
:105A400074E08CEE99E00E94F627B8018EEE99E0A2
:105A50000E9440486CE175E08EEE99E00E9440485B
:105A6000E881F9810484F585E02D61E070E0CE01E4
:105A7000199581E090E0DF91CF911F910F910895EA
:105A8000EF92FF920F931F93CF93DF93CDB7DEB7C3
:105A90002F970FB6F894DEBF0FBECDBF8C017C01EF
:105AA00082E0E80EF11CAE014F5F5F4F6BE774E0E0
:105AB000C7010E948824BE016F5F7F4F8EE19AE08C
:105AC0000E94E822882349F0D801ED91FC910484DA
:105AD000F585E02D62E070E044C0AE014F5F5F4F9E
