:100000000C94CC030C94FD030C94FD030C94FD03A1
:100010000C94FD030C94FD030C94FD030C94FD0360
:100020000C94FD030C943D290C9465290C948D29A6
:100030000C94FD030C945C470C94FD030C94FD039D
:100040000C94FD030C94FD030C94FD030C94FD0330
:100050000C94FD030C94FD030C94FD030C94B53B30
:100060000C94FD030C943E3F0C94743F0C94FD03E0
:100070000C94FD030C94FD030C94FD030C94FD0300
:100080000C94FD030C94FD030C94FD030C94FD03F0
:100090000C94EB3F0C9421400C94FD030C94051937
:1000A0000C94FD030C94FD030C94FD030C94FD03D0
:1000B0000C94FD030C94FD030C94FD030C94FD03C0
:1000C0000C94FD030C94FD030C94FD030C94FD03B0
:1000D0000C94FD030C94FD030C9498400C94CE40BA
:1000E0000C94FD03DB3CDE3CCD3CD13CD73C153DC4
:1000F000E23CE63CEC3CF03CF43CFA3CFE3C023D8D
:10010000153D083D0C3D103D0C9445410C941621C5
:100110000C940D110C94DB3C0C949A310C945E22DF
:100120000C94A22F0C94581C0C94F0320C94BA1C12
:100130000C94962F0C9419210C94ED1E0C941F26F0
:100140000C94A02B0C94E7310C94B5290C94EA2064
:100150000C944A1C0C94301C0C94FE240C94FF311B
:100160000C941E270C945E320C943B1C0C94AD1C1A
:100170000C94C0230C94F5200C94A91C0C943021F1
:100180000C9408300C94EE2F0C94C02F0C944B4020
:100190000C94B8310C9449310C94AC1C0C94DE3C9A
:1001A0000C9450170C9455400C94D13C0C940022A4
:1001B0000C94EC3C0C9428320C94FA3C0C942621C0
:1001C0000C94C51C0C942F300C9400210C946122CB
:1001D0000C94631C0C94FE3C0C9433210C94B71CBF
:1001E0000C94A0410C942F270C9488260C94CA31AF
:1001F0000C94982F0C94251C0C945B3E0C94103D91
:100200000C9421270C94171C0C947B170C94E92652
:100210000C940C300C94191F0C94551D0C943B1E1F
:100220000C94E9240C9490270C940C1C0C947A17D1
:100230000C9437270C94DF310C94D01C0C9462235F
:100240000C94A8170C9421240C94E63C0C949E3139
:100250000C94AB300C94E7210C9407270C94023DCE
:100260000C9462060C9423180C9472220C948A311C
:100270000C94B41E0C94EC240C9430250C94AE3DDC
:100280000C94F8400C94083D0C9433300C94A83F27
:100290000C94CD200C94A71C0C94F92B0C94C92021
:1002A0000C94FA240C9478310C946D310C94241F26
:1002B0000C94831C0C94651C0C941B270C94E20674
:1002C0000C94861C0C94A81C0C9402410C94B93D0F
:1002D0000C94852F0C94CB2F0C94E23C0C940825A5
:1002E0000C94BF410C94E52F0C94F43C0C94641EC8
:1002F0000C9458170C94C73D0C9401250C94021FC4
:100300000C9442240C9483310C945B220C94932F14
:100310000C94FC230C94C2240C946B170C94131FA4
:100320000C940B210C940C3D0C94A2310C940831CC
:100330000C941C210C94F03C0C94801C0C948B327B
:100340000C942F1F0C94CD3C0C94153D0C94E7207D
:100350000C94351D0C94EB310C9445320C94752B98
:100360000C94D7210C9458220C94F01C0C94B82FA8
:100370000C94D73C0C9453200C949E3F0C94161F65
:100380000C94DB3D0C944E330C94393E0C94D922E2
:100390004E4F5420464F554E4400232323232323FE
:1003A000232323232323232323232323232323231D
:1003B00000436F6E6E656374696F6E3A20636C6F95
:1003C000736500486F73743A200020485454502FCE
:1003D000312E3100474554202F6361732F636865C8
:1003E000636B2E7068703F00646174655F54494DA3
:1003F00045203A004441544554494D453D004D4542
:1004000054484F443D002144657669636520494462
:100410002073657420746F2000434C4F5345440093
:1004200041542B5149434C4F534500434F4E4E4589
:1004300043540D0A0041542B51494F50454E3D0045
:1004400041542B5149444E5349503D00434F4E4E69
:100450004543540D0A00434C4F5345440D0A004197
:10046000542B51495345525645520041542B514942
:100470004C504F52543D22544350222C0041542B97
:1004800051494C4F4349500041542B434D47443D43
:100490000041542B434D474C3D2252454320554E7D
:1004A00052454144222C310041542B434D47533D8A
:1004B00022002B434C49503A0042555359004E4FAD
:1004C0002043415252494552002B434F4C503A0071
:1004D00052494E4700415448004154410041542B79
:1004E000434C43430041544400000302050003050C
:1004F00001040602041F1C1F1E1F1E1F1F1E1F1E9D
:100500001F00000A0B02090C0D0E0807030401006E
:1005100000000000000000000000000000000000DB
:100520000000000000000000000000000012111098
:1005300000000000000000000000000000000000BB
:100540000000000000000001021020200808102018
:10055000401020408002010201080402010102044F
:10056000081020408080402010080402018004020E
:100570000180402010080402010804020101020465
:100580000810204080010204081020408005050565
:1005900005070508080808020202020A0A080804FA
:1005A0000404040101010101010101030303030328
:1005B000030303040707070C0C0C0C0C0C0C0C02B7
:1005C00002020206060606060606060B0B0B0B0BBE
:1005D0000B0B0B000020002300260029002C002F0D
:1005E00000320000010000030106010901000022A1
:1005F00000250028002B002E0031003400020100ED
:1006000000050108010B0100002100240027002A39
:10061000002D003000330001010000040107010A31
:1006200001024E414E494E495459494E46CDCCCC1B
:100630003D0AD7233C17B7D13877CC2B329595E6B6
:10064000241FB14F0A000020410000C84200401C96
:100650004620BCBE4CCA1B0E5AAEC59D7400407AE3
:1006600010F35A00A0724E18090010A5D4E800003B
:10067000E87648170000E40B54020000CA9A3B00D9
:100680000000E1F505000080969800000040420F50
:10069000000000A08601000000102700000000E814
:1006A00003000000006400000000000A00000000D9
:1006B000000100000000002C76D888DC674F08237A
:1006C000DFC1DFAE59E1B1B796E5E3E453C63AE6E0
:1006D00051997696E8E6C28426EB898C9B62ED40C0
:1006E0007C6FFCEFBC9C9F40F2BAA56FA5F490050F
:1006F0005A2AF75C936B6CF9676DC11BFCE0E40D43
:1007000047FEF520E6B500D0ED902E030094357736
:10071000050080841E080000204E0A000000C80C5E
:10072000333333330F986E12831141EF8D211489C7
:100730003BE65516CFFEE6DB18D1844B381BF77C21
:100740001D901DA4BBE424203284725E228100C966
:10075000F124ECA1E53D270062060D1123180C1CC5
:10076000171C251C301C3B1C4A1C581C651C551DA5
:10077000191F241FC920EA20F52000210B21212761
:10078000B529A02BF92B852F6D3178314E33A83F39
:1007900055400241A041E20611241FBECFEFD1E235
:1007A000DEBFCDBF00E00CBF16E0A0E0B2E0E6EB9C
:1007B000F7EA00E00BBF02C007900D92A830B10726
:1007C000D9F72BE0A8E0B6E001C01D92AF33B20725
:1007D000E1F717E0C6E9D7E000E006C0229701097B
:1007E000FE010BBF0E94DC4CC835D10780E0080732
:1007F000A9F70E94B0410C94C9530C9400001F93B8
:10080000CF93DF9300D000D0CDB7DEB761E08AE0B0
:100810000E94163D61E084E00E94163D61E085E3A0
:100820000E94163D26E040E855E260E070E082E379
:1008300099E00E94C03E68EC70E080E090E00E9489
:100840002E3C61E084E00E944F3D65E172E0CE0104
:1008500001960E942A48BE016F5F7F4F8EE296E0AC
:100860000E94FC0A182FCE0101960E94BC4711235A
:1008700019F061E272E002C06EE272E082E399E098
:100880000E947B4260E872E082E399E00E9430427D
:100890000E947D144AE050E0BC0182E399E00E948E
:1008A0004A4387E896E00E94060F86E496E00E949D
:1008B00013098EE696E00E94D83920E042E060E11C
:1008C00085E996E00E94942A6FE372E085E996E05C
:1008D0000E9430426BE472E082E399E00E947B4226
:1008E00085E996E00E94732A67E572E085E996E063
:1008F0000E94304265E672E082E399E00E947B420A
:100900006EE772E082E399E00E9430420E947D141B
:100910004AE050E0BC0182E399E00E944A4362E071
:1009200070E087E896E00E94B7116EE772E08823D6
:1009300001F182E399E00E9430420E947D144AE076
:1009400050E0BC0182E399E00E944A436FE872E004
:1009500082E399E00E947B4285E996E00E94732A37
:100960006CE972E085E996E00E9430421092280618
:1009700037C082E399E00E9430420E947D144AE031
:1009800050E0BC0182E399E00E944A4369EA72E0C8
:1009900082E399E00E947B426AEB72E082E399E095
:1009A0000E947B4285E996E00E94732A69EA72E020
:1009B00085E996E00E94304281E08093280665EC4C
:1009C00072E0CE0101960E942A48BE016F5F7F4F00
:1009D00083E596E00E948308CE0101960E94BC4701
:1009E00060E872E082E399E00E9430420E947D1448
:1009F0004AE050E0BC0182E399E00E944A430E9431
:100A0000FF3B6093290670932A0680932B069093F0
:100A10002C0626960FB6F894DEBF0FBECDBFDF9131
:100A2000CF911F9108958F929F92AF92BF92CF92D4
:100A3000DF92EF92FF920F931F93CF93DF93CDB787
:100A4000DEB7EC970FB6F894DEBF0FBECDBF6BECF0
:100A500072E082E399E00E9430420E947D144AE0F5
:100A600050E0BC0182E399E00E9442436BED72E0EA
:100A700082E399E00E9430420E94FF3BAB01BC013F
:100A80002AE030E082E399E00E94A34361E084E041
:100A90000E944F3D1092140668E076E08EE296E0E8
:100AA0000E94340B28EC30E040E050E06BE176E04F
:100AB00086E496E00E94D10A80911406882309F406
:100AC000E2C086E696E00E94BA0769E275E0CE01D0
:100AD000C7960E942A4869E275E0CE01C1960E943D
:100AE0002A48AE014F5C5F4FBE01695C7F4F85E6CF
:100AF00096E00E94CE0D61E276E0CE0101960E9462
:100B000078486BE176E0CE0107960E947848BE01F6
:100B1000695C7F4FCE010D960E947848BE016F5CE4
:100B20007F4FCE0143960E94784863E576E0CE0180
:100B300085960E94C40768E076E0CE0149960E943F
:100B400078486EE076E0CE014F960E94784863E5E3
:100B500076E0CE018B960E948508CE0101964C016D
:100B600006965C0106966C0106967C018E010B5D73
:100B70001F4F9E01275E3F4FAE01415E5F4FBE019A
:100B8000655D7F4F87E896E00E9483128C01CE015D
:100B90008B960E94BC47CE014F960E94BC47CE0167
:100BA00049960E94BC47CE0185960E94BC47C7016A
:100BB0000E94BC47C6010E94BC47C5010E94BC47B9
:100BC000C4010E94BC4785E996E01016110664F541
:100BD0000E946C2A40E061E085E996E00E947A2A52
:100BE00087E896E00E94CC10019779F464EE72E0F9
:100BF00085E996E00E94304288E696E00E941D0D4D
:100C000086E696E00E9420072FC063EF72E085E938
:100C100096E00E94304288E696E00E94220D86E629
:100C200096E00E944A0720C00E946C2A85E996E05F
:100C30000E94732A65E073E085E996E00E943042E5
:100C400041E061E085E996E00E947A2A64E173E080
:100C500085E996E00E94304288E696E00E94270DE2
:100C600086E696E00E94160768EE73E080E090E06A
:100C70000E942E3CCE01C1960E94BC47CE01C79671
:100C80000E94BC470CC085E996E00E946C2A88E669
:100C900096E00E942C0D85E996E00E94320CEC96BD
:100CA0000FB6F894DEBF0FBECDBFDF91CF911F917D
:100CB0000F91FF90EF90DF90CF90BF90AF909F90FB
:100CC0008F900895AF92CF92EF920F9300E020E0C3
:100CD00040E060E08DEA96E00E9489418CE1A82E18
:100CE0009BE1C92E2AE1E22E09E128E147E166E114
:100CF00085E996E00E944F2B8EE193E09093960653
:100D00008093950687E896E00E947F4169E275E04E
:100D10008FE896E00E942A488AE796E00E94913088
:100D200027E030E046E050E065E070E088E696E0DD
:100D30000E94E30C6BE070E086E696E00E941207EA
:100D400069E275E083E596E00E942A4869E275E071
:100D500089E596E00E942A4869E275E08FE596E011
:100D60000E942A4886E496E00E9404096FEC79E02C
:100D700086E396E00E949A148EE296E00E94EE0AC4
:100D800069E275E08BE196E00E942A4869E275E02D
:100D900081E296E00E942A4869E275E085E196E0EA
:100DA0000E942A4869E275E088E096E00E942A489D
:100DB00069E275E08EE096E00F91EF90CF90AF90F2
:100DC0000C942A488EE096E00E94BC4788E096E0AA
:100DD0000E94BC4785E196E00E94BC4781E296E014
:100DE0000E94BC478BE196E00E94BC478EE296E0F1
:100DF0000E94BC478CE496E00E94BC4786E496E0E3
:100E00000E94BC478FE596E00E94BC4789E596E0CA
:100E10000E94BC4783E596E00E94BC478FE896E0BD
:100E20000C94BC47FC0171836083089528EE33E085
:100E300040E050E068EE73E0FC0180810C942B44AC
:100E4000CF93DF93EC0120E030E0A90160EA7FE07E
:100E500088810E942B446CE271E080E090E00E9467
:100E60002E3C20E030E0A90160ED77E088810E940F
:100E70002B446CE271E080E090E00E942E3C28EC74
:100E800030E040E050E060EA7FE08881DF91CF9180
:100E90000C942B44CF93DF93EC0120E030E0A901C8
:100EA00068EC70E088810E942B4468EC70E080E080
:100EB00090E00E942E3C20E030E0A90160EA7FE053
:100EC00088810E942B4468EC70E080E090E00E94F2
:100ED0002E3C20E030E0A90160ED77E088810E949F
:100EE0002B4468EC70E080E090E00E942E3C20E013
:100EF00030E0A90160EA7FE088810E942B4468EC21
:100F000070E080E090E00E942E3C20E030E0A901FB
:100F100068EE73E088810E942B4468EC70E080E00A
:100F200090E00E942E3C20E030E0A90160EA7FE0E2
:100F300088810E942B4468EC70E080E090E00E9481
:100F40002E3C20E030E0A90160ED77E088810E942E
:100F50002B4468EC70E080E090E00E942E3C28EC8E
:100F600030E040E050E060EA7FE08881DF91CF919F
:100F70000C942B4420E233E040E050E060EA7FE054
:100F8000FC0180810C942B44EF92FF920F931F93EE
:100F9000CF93DF93CDB7DEB72C970FB6F894DEBFB3
:100FA0000FBECDBF7C0162E273E0CE0107960E94C6
:100FB0002A4800E010E0B80181ED96E00E94491750
:100FC000482FB801CE0107960E94D9490F5F1F4FE5
:100FD0000630110581F76BE873E0CE0101960E949F
:100FE0002A48BE016F5F7F4FCE0107960E94164AC6
:100FF0008C01CE0101960E94BC47012B59F426E0DA
:1010000030E042E050E0BE01695F7F4FC7010E94BF
:101010001A4A05C069E273E0C7010E942A48CE015E
:1010200007960E94BC47C7012C960FB6F894DEBF06
:101030000FBECDBFDF91CF911F910F91FF90EF9029
:101040000895CF93DF93C0E0D0E04FEFBE0181ED74
:1010500096E00E944C172196C730D105B1F7DF9179
:10106000CF910895EF92FF920F931F93CF93DF9349
:10107000CDB7DEB72C970FB6F894DEBF0FBECDBF4D
:101080008C017B016BE873E0CE0101960E942A4837
:10109000B701CE0101960E948D49BC01CE01079691
:1010A0000E947848CE0101960E94BC47C8010E9468
:1010B000210800E010E0B801CE0107960E94F8492F
:1010C000482FB80181ED96E00E944C170F5F1F4F2B
:1010D0000630110581F740E066E070E081ED96E0B2
:1010E0000E944C17CE0107960E94BC472C960FB663
:1010F000F894DEBF0FBECDBFDF91CF911F910F914E
:10110000FF90EF9008950C946148CF93DF93EC012A
:101110000E947848CE01DF91CF91089506960C94F5
:101120006148EF92FF920F931F93CF93DF93CDB758
:10113000DEB72C970FB6F894DEBF0FBECDBF8C0183
:101140007B01FB0114860E945416811144C061E0AA
:10115000C8010E949C1681113EC0C8010E94E5167C
:10116000811139C064E873E082E399E00E94304263
:10117000F801608171814AE050E082E399E00E94C9
:101180008D43F801608171814AE0CE0107960E948B
:10119000C6486BE873E0CE0101960E942A48BE0162
:1011A000695F7F4FCE0101960E948D49BC01C70146
:1011B0000E946148CE0101960E94BC47CE0107966D
:1011C0000E94BC4781E0F701848765E172E0C701B6
:1011D00006960E9481482C960FB6F894DEBF0FBE8B
:1011E000CDBFDF91CF911F910F91FF90EF900895A8
:1011F000CF93DF93EC0160E071EE0E94AA14CE0160
:10120000DF91CF910C940316CF93DF93EC0169E249
:1012100075E00E942A4869E275E0CE010696DF91EA
:10122000CF910C942A4881E008952F923F924F92DB
:101230005F926F927F928F929F92AF92BF92CF9266
:10124000DF92EF92FF920F931F93CF93DF93CDB76F
:10125000DEB7A7970FB6F894DEBF0FBECDBF8C01E7
:101260006A017B0126E040E855E260E070E08CE630
:101270009AE00E94C03E8CE69AE00E94393E0E94AD
:10128000FF3B2B013C0169E275E0CE014F960E94C5
:101290002A48180186E0280E311C0E94FF3B641981
:1012A0007509860997096C157D058E059F0508F05F
:1012B00057C14AE06CE67AE0CE0101960E940344F1
:1012C000BE016F5F7F4FCE014F960E946148CE01F5
:1012D00001960E94BC476EE873E0CE0101960E9421
:1012E0002A48BE016F5F7F4FCE014F960E94164A7B
:1012F0005C01CE0101960E94BC47B7FCCECFA12C69
:10130000B12C812C912CEFEF8E1A9E0A64E973E0C8
:10131000CE0101960E942A48A401BE016F5F7F4F53
:10132000CE014F960E94FA494C01CE0101960E94CF
:10133000BC47F1E0AF16B10449F4B4016F5F7F4FD1
:10134000CE014F960E94F8498FA33CC082E0A816B8
:10135000B104B1F1E4E0AE16B104B9F44DA15EA15F
:101360004F5F5F4F9401BE01615E7F4FCE010196DA
:101370000E941A4ABE016F5F7F4FC8010E946148F8
:10138000CE0101960E94BC471BC0F6E0AF16B10427
:10139000C9F494014DA15EA14F5F5F4FBE01615E34
:1013A0007F4FCE0101960E941A4ABE016F5F7F4FA8
:1013B000C1010E946148CE0101960E94BC4702C053
:1013C0009EA28DA28FEFA81AB80AEAE0AE16B10469
:1013D00009F099CFFFA1F13421F481E0F80184876D
:1013E00002C0F80114862BE030E04AE050E0B8017A
:1013F000CE0107960E941A4A22E030E040E050E019
:10140000B801CE0149960E941A4ACE0149960E941F
:101410006A4A4B015C0129E030E042E050E0B8014B
:10142000CE0143960E941A4ACE0143960E946A4A10
:1014300020E030E040E752E40E94DE4A9B01AC012C
:10144000C501B4010E94764AAB01BC0126E0CE0181
:101450000D960E94F248BE01635F7F4FCE01019658
:101460000E947848BE01695F7F4FCE0101960E94BD
:101470008D49BC01C8010E946148CE0101960E94BD
:10148000BC47CE010D960E94BC47CE0143960E94F8
:10149000BC47CE0149960E94BC47CE0107960E94E8
:1014A000BC472CE030E04BE050E0B101CE010796A4
:1014B0000E941A4A23E030E040E050E0B101CE0142
:1014C00049960E941A4ACE0149960E946A4A4B01E7
:1014D0005C012AE030E043E050E0B101CE014396E8
:1014E0000E941A4ACE0143960E946A4A20E030E0E8
:1014F00040E752E40E94DE4A9B01AC01C501B40101
:101500000E94764AAB01BC0126E0CE010D960E94F6
:10151000F248BE01635F7F4FCE0101960E9478487A
:10152000BE01695F7F4FCE0101960E948D49BC01CB
:10153000C1010E946148CE0101960E94BC47CE01C4
:101540000D960E94BC47CE0143960E94BC47CE0137
:1015500049960E94BC47CE0107960E94BC479DCE8B
:101560008CE69AE00E94223FCE014F960E94BC4733
:10157000A7960FB6F894DEBF0FBECDBFDF91CF9117
:101580001F910F91FF90EF90DF90CF90BF90AF90A1
:101590009F908F907F906F905F904F903F902F9093
:1015A00008950F931F93CF93DF93EC018B01BA0142
:1015B000A9010E941509BE01C8010E946148BE012F
:1015C0006A5F7F4FC80106960E9461488C85F801CA
:1015D0008487DF91CF911F910F910895CF93DF936F
:1015E000EC0169E275E00E942A488DE190E09F835A
:1015F0008E83DF91CF9108950F931F93CF93DF9345
:1016000000D000D0CDB7DEB78C01CE0101960E948C
:101610007848BE016F5F7F4FC8010E946148CE01CC
:1016200001960E94BC4766E973E0C8010E94BA496E
:1016300081110CC065E172E0C8010E94BA4988239B
:1016400039F086E396E00E94F80803C081E001C00B
:1016500080E026960FB6F894DEBF0FBECDBFDF91B7
:10166000CF911F910F9108950F931F93CF93DF9305
:10167000EC018B0160E08E810E944F3D60E08E8125
:101680000E94163D8E810E94853D009749F4B80165
:101690008DE296E0DF91CF911F910F910C946D0C2C
:1016A000019749F4B80186E396E0DF91CF911F914D
:1016B0000F910C949108DF91CF911F910F91089594
:1016C000AF92BF92CF92DF92EF92FF920F931F9350
:1016D000CF93DF93CDB7DEB7E0970FB6F894DEBFB8
:1016E0000FBECDBF5C01CDA2DEA2EFA2F8A609A776
:1016F0001AA72BA740E060E00E947A2A8DA19EA144
:1017000064E670E00E94674C4AE0BC01CE0101969D
:101710000E94C6484AE06FA1CE0107960E949948F0
:101720004AE068A5CE0143960E949948BE016D5ECD
:101730007F4FCE010D960E9478486BE973E0CE0191
:101740000D960E94A049BE01695F7F4F0E948D499E
:101750006BE973E00E94A049BE016F5F7F4F0E945A
:101760008D49BC01CE014F960E947848CE010D965E
:101770000E94BC47CE0143960E94BC47CE0107960B
:101780000E94BC47CE0101960E94BC47BE01615E2B
:101790007F4FC5010E94224240E068E0C5010E94DF
:1017A0007A2A4AE06BA5CE0101960E9499484AE048
:1017B0006AA5CE0107960E9499484AE069A5CE0124
:1017C00043960E949948BE016D5E7F4FCE010D96F3
:1017D0000E9478486DE872E0CE010D960E94A04903
:1017E000BE01695F7F4F0E948D496DE872E00E94E3
:1017F000A049BE016F5F7F4F0E948D49BC01CE01A1
:1018000049960E947848CE010D960E94BC47CE01B1
:1018100043960E94BC47CE0107960E94BC47CE016A
:1018200001960E94BC47BE01675E7F4FC5010E94C2
:101830002242CE0149960E94BC47CE014F960E949B
:10184000BC47E0960FB6F894DEBF0FBECDBFDF9168
:10185000CF911F910F91FF90EF90DF90CF90BF90AD
:10186000AF900895AF92BF92CF92DF92EF92FF9226
:101870000F931F93CF93DF93CDB7DEB72C970FB69F
:10188000F894DEBF0FBECDBF5C010E946C2A6EE6ED
:1018900076E0CE0101960E941F3BC980DA80EB8082
:1018A000FC800D811E812F81388549855A856B8585
:1018B0007C85C5010E94600B2C960FB6F894DEBFA4
:1018C0000FBECDBFDF91CF911F910F91FF90EF9091
:1018D000DF90CF90BF90AF900895FF920F931F932A
:1018E000CF93DF9300D000D0CDB7DEB78B0166E990
:1018F00073E0C80106960E94814826E040E855E260
:1019000060E070E08FEC99E00E94C03E44E150E05E
:1019100060E070E08FEC99E00E94E3436FEC79E0C7
:10192000CE0101960E94E943BE016F5F7F4FC8015F
:101930000E946148CE0101960E94BC47F801848153
:1019400095810C9791F5FF24F394F4866DE973E08B
:1019500082E399E00E947B426EEA73E082E399E0C1
:101960000E947B4265EB73E082E399E00E94304283
:10197000F801648175814AE050E082E399E00E94B9
:101980008D4364EC73E082E399E00E943042B80139
:1019900082E399E00E9469426DE973E082E399E095
:1019A0000E947B42F801F48602C0F8011486269654
:1019B0000FB6F894DEBF0FBECDBFDF91CF911F9160
:1019C0000F91FF900895CF93DF93EC01862F6883EA
:1019D00079835B834A833D832C8361E00E94163DBB
:1019E00061E08A810E94163D61E08C81DF91CF9198
:1019F0000C94163D0F931F93CF93DF93EC01042FAC
:101A0000122F662311F061E001C060E088810E941E
:101A10004F3D002311F061E001C060E08A810E9427
:101A20004F3D112311F061E001C060E08C81DF9136
:101A3000CF911F910F910C944F3D20E041E060E069
:101A40000C94FA0C20E040E061E00C94FA0C21E0E8
:101A500040E060E00C94FA0C20E040E060E00C9480
:101A6000FA0C8F929F92AF92BF92CF92DF92EF9239
:101A7000FF920F931F93CF93DF9300D000D0CDB789
:101A8000DEB76B0124E030E040E050E0CE0101968B
:101A90000E941A4ACE0101960E945F4A4B015C01E6
:101AA000CE0101960E94BC4726E030E044E050E0C1
:101AB000B601CE0101960E941A4ACE0101960E94FB
:101AC0005F4A162FCE0101960E94BC4728E030E005
:101AD00046E050E0B601CE0101960E941A4ACE01BE
:101AE00001960E945F4AF62ECE0101960E94BC47E5
:101AF0002AE030E048E050E0B601CE0101960E94B5
:101B00001A4ACE0101960E945F4A062FCE01019625
:101B10000E94BC472CE030E04AE050E0B601CE0124
:101B200001960E941A4ACE0101960E945F4AE62E53
:101B3000CE0101960E94BC472EE030E04CE050E020
:101B4000B601CE0101960E941A4ACE0101960E946A
:101B50005F4AC62ECE0101960E94BC472F2D412F11
:101B6000B4018EE696E00E948D3A6BEC73E082E35E
:101B700099E00E947B4226960FB6F894DEBF0FBE16
:101B8000CDBFDF91CF911F910F91FF90EF90DF902C
:101B9000CF90BF90AF909F908F900895EF92FF925B
:101BA0000F931F93CF93DF93CDB7DEB7A4970FB6F4
:101BB000F894DEBF0FBECDBF8B017A016EE676E0F2
:101BC000CE0101960E941F3B69817A814AE0CE01D5
:101BD0000D960E94C6484AE06B81CE0143960E9452
:101BE00099484AE06C81CE014F960E949948BE0107
:101BF000615E7F4FCE0149960E94784863E672E0AD
:101C0000CE0149960E94A049BE016D5E7F4F0E94A1
:101C10008D4963E672E00E94A049BE01635F7F4F79
:101C20000E948D49BC01C8010E946148CE014996BD
:101C30000E94BC47CE014F960E94BC47CE014396FE
:101C40000E94BC47CE010D960E94BC474AE06F81BE
:101C5000CE010D960E9499484AE06E81CE014396CE
:101C60000E9499484AE06D81CE014F960E949948A2
:101C7000BE01615E7F4FCE0149960E94784863E6BF
:101C800072E0CE0149960E94A049BE016D5E7F4F71
:101C90000E948D4963E672E00E94A049BE01635F25
:101CA0007F4F0E948D49BC01C7010E946148CE014F
:101CB00049960E94BC47CE014F960E94BC47CE0178
:101CC00043960E94BC47CE010D960E94BC47A49645
:101CD0000FB6F894DEBF0FBECDBFDF91CF911F913D
:101CE0000F91FF90EF900895FF920F931F93CF9362
:101CF000DF93EB018B01F12CF80161918F0140E141
:101D000050E082E399E00E946F436DE872E082E365
:101D100099E00E943042F394F5E0FF12EDCF40E1EC
:101D200050E06D8182E399E0DF91CF911F910F9197
:101D3000FF900C9476430F931F93CF93DF9300D0C3
:101D400000D0CDB7DEB78C016CED73E082E399E093
:101D50000E9430426AE072E0C8010E94740E63EE95
:101D600073E082E399E00E9430426FEE78E0CE01AA
:101D700001960E942D2FBE016F5F7F4F82E399E095
:101D80000E948D4269EE73E082E399E00E94304246
:101D90006FEE78E0CE0101960E94752FBE016F5F55
:101DA0007F4F82E399E00E948D4260EF73E082E30F
:101DB00099E00E9430426FEE78E0CE0101960E94D9
:101DC0005D2FBE016F5F7F4F82E399E00E948D42DD
:101DD0006BEF73E082E399E00E9430426FEE78E0AF
:101DE000CE0101960E94452FBE016F5F7F4F82E3B7
:101DF00099E00E948D4226960FB6F894DEBF0FBE82
:101E0000CDBFDF91CF911F910F910895CF92DF92B7
:101E1000EF92FF920F931F93CF93DF93CDB7DEB76F
:101E20006E970FB6F894DEBF0FBECDBF6C010EE407
:101E300020EC43E06AE0CE0149960E9489418B8DF7
:101E40009C8DAD8DBE8DF60182839383A483B58373
:101E500080E99FE19783868365E074E082E399E0FF
:101E60000E947B4225E036E03A8329838091B506C3
:101E70009091B606A091B706B091B8068B839C836B
:101E8000AD83BE8338872F838091BB069091BC06BB
:101E9000A091BD06B091BE0689879A87AB87BC87A3
:101EA0003E872D878091C1069091C206A091C306FE
:101EB000B091C4068F87988BA98BBA8B3C8B2B8BE8
:101EC0004091C7065091C8066091C9067091CA0634
:101ED0004D8B5E8B6F8B788FCE0101967C018E01CE
:101EE000095F1F4F9E01235F3F4FAE014D5E5F4F65
:101EF0006AE072E08FEE98E00E94E12EC6010E9437
:101F00009B0E6E960FB6F894DEBF0FBECDBFDF916D
:101F1000CF911F910F91FF90EF90DF90CF90089598
:101F2000CF92DF92EF92FF920F931F93CF93DF93A5
:101F3000CDB7DEB72C970FB6F894DEBF0FBECDBF7E
:101F40008C0164E774E0CE0101960E942A48085F84
:101F50001F4FBE016F5F7F4FC8010E94164A7C0170
:101F6000CE0101960E94BC47F7FC2EC09701265F68
:101F70003F4FA7014A5F5F4FB801CE0107960E940D
:101F80001A4ABE01695F7F4FCE0101960E947848D0
:101F9000BE016F5F7F4F83E596E00E943208CE015D
:101FA00001960E94BC4766E074E082E399E00E94DB
:101FB000FD41BE01695F7F4F82E399E00E94694263
:101FC000CE0107960E94BC476EEF73E0CE010196EA
:101FD0000E944449BE016F5F7F4FC8010E94164AAC
:101FE0007C01CE0101960E94BC47F7FC31C06BE238
:101FF00075E0CE0101960E942A48A701BE016F5FDD
:102000007F4FC8010E94FA496C01CE0101960E94DF
:10201000BC47A701495F5F4F9601B801CE01079603
:102020000E941A4ABE01695F7F4FCE0101960E944D
:102030007848BE016F5F7F4F83E596E00E9483087A
:10204000CE0101960E94BC47CE0107960E94BC4774
:102050006EE174E0CE0101960E942A48BE016F5FD6
:102060007F4FC8010E94164A7C01CE0101960E9452
:10207000BC47F7FC31C06BE275E0CE0101960E94CF
:102080002A48A701BE016F5F7F4FC8010E94FA492D
:102090006C01CE0101960E94BC47A701485F5F4FCB
:1020A0009601B801CE0107960E941A4ABE01695FE7
:1020B0007F4FCE0101960E947848BE016F5F7F4F2F
:1020C00083E596E00E948E08CE0101960E94BC47EF
:1020D000CE0107960E94BC4764EF73E0CE010196E3
:1020E0000E944449BE016F5F7F4FC8010E94164A9B
:1020F0007C01CE0101960E94BC47F7FC3EC06BE21A
:1021000075E0CE0101960E942A48A701BE016F5FCB
:102110007F4FC8010E94FA496C01CE0101960E94CE
:10212000BC47A701475F5F4F9601B801CE010796F4
:102130000E941A4A68EE73E082E399E00E94FD4132
:10214000BE01695F7F4F82E399E00E946942BE0150
:10215000695F7F4FCE0101960E947848BE016F5F94
:102160007F4F85E696E00E94310DCE0101960E94D8
:10217000BC47CE0107960E94BC472C960FB6F89438
:10218000DEBF0FBECDBFDF91CF911F910F91FF90AA
:10219000EF90DF90CF9008950F931F93CF93DF932D
:1021A00000D000D0CDB7DEB78C016AE973E082E3DE
:1021B00099E00E945742085F1F4FB80182E399E0FF
:1021C0000E94694260E973E0CE0101960E94444991
:1021D000BE016F5F7F4FC8010E94164A192FCE01C2
:1021E00001960E94BC470E947D14BC014AE050E069
:1021F00082E399E00E944A43812F8095881F8827B7
:10220000881F90E026960FB6F894DEBF0FBECDBFB4
:10221000DF91CF911F910F9108950F9300E020E07F
:1022200040E060E08BEC96E00E94894101EB20ECFD
:1022300043E06AE085EC96E00E9489410BE021E0F2
:1022400048EC6AE08FEB96E00E9489410AEF28ECA7
:1022500043E06AE089EB96E00E94894100E020EECD
:102260004FEF6FEF83EB96E00E9489410F91089545
:102270004F925F926F927F928F929F92AF92BF9296
:10228000CF92DF92EF92FF920F931F93CF93DF9342
:1022900000D000D0CDB7DEB75C018B010E94FF3BC0
:1022A0006B017C0188EE93E0089F2001099F500C90
:1022B000189F500C1124612C712C00E010E085E077
:1022C000882E86E0982E0E94FF3B6C197D098E09AE
:1022D0009F09641575058605970550F08AE796E015
:1022E0000E94083181E00130110551F180E028C0E1
:1022F000F501468157819A82898282819381A481E6
:10230000B5818B839C83AD83BE83BE016F5F7F4F9E
:102310008AE796E00E94AB308C016EE772E082E3C0
:1023200099E00E9430420E947D144AE050E0BC01D6
:1023300082E399E00E944A430130110579F2C3CF4C
:1023400026960FB6F894DEBF0FBECDBFDF91CF91BA
:102350001F910F91FF90EF90DF90CF90BF90AF90C3
:102360009F908F907F906F905F904F9008954F92C5
:102370005F926F927F928F929F92AF92BF92CF9215
:10238000DF92EF92FF920F931F93CF93DF9300D0D2
:1023900000D0CDB7DEB78C017B010E94FF3B2B0143
:1023A0003C01B701C8010E943811882309F494C088
:1023B00088EE93E0E89E6001E99ED00CF89ED00C78
:1023C0001124E12CF12CA12CB12C95E0892E96E062
:1023D000992E0E94FF3B64197509860997096C15AF
:1023E0007D058E059F0508F06BC0F8014681578179
:1023F0009A82898282819381A481B5818B839C8317
:10240000AD83BE83BE016F5F7F4F8AE796E00E9477
:10241000AB305C0181309105E1F66CE274E08AE753
:1024200096E00E94304263E576E0CE0101960E947C
:10243000C407BE016F5F7F4F8AE796E00E94224289
:10244000CE0101960E94BC4768E474E08AE796E0FA
:102450000E947B4262E574E08AE796E00E94304287
:10246000B8018AE796E00E948D4269E574E08AE748
:1024700096E00E947B428AE796E00E944342780100
:1024800088E0E80EF11C8AE796E00E944931882333
:10249000B9F08AE796E00E94E52F892BA1F36AE75D
:1024A00076E0CE0101960E94E943BE016F5F7F4F47
:1024B000C7010E946148CE0101960E94BC47E3CF4C
:1024C0008AE796E00E940831C8010E94900F81E0DF
:1024D000AA94AB2809F080E026960FB6F894DEBFE8
:1024E0000FBECDBFDF91CF911F910F91FF90EF9065
:1024F000DF90CF90BF90AF909F908F907F906F9024
:102500005F904F9008952F923F924F925F926F92FB
:102510007F928F929F92AF92BF92CF92DF92EF9273
:10252000FF920F931F93CF93DF93CDB7DEB72E9714
:102530000FB6F894DEBF0FBECDBF3C012B011A01D0
:102540003E872D8769E275E0CE0107960E942A48F2
:10255000F3014681578185E096E09A8389838281E1
:102560009381A481B5818B839C83AD83BE83BE019F
:102570006F5F7F4F8AE796E00E94AB30892B09F4AA
:102580009CC16BE674E0CE0107960E948148BE01B3
:10259000695F7F4FCE0101960E947848B201CE015B
:1025A00001960E948D49BC01CE0107960E946148A8
:1025B000CE0101960E94BC47BE01695F7F4FCE01EC
:1025C00001960E94784863E774E0CE0101960E946C
:1025D000A049BC01CE0107960E946148CE01019638
:1025E0000E94BC47BE01695F7F4FCE0101960E94E9
:1025F0007848B801CE0101960E948D49BC01CE01F8
:1026000007960E946148CE0101960E94BC47BE0118
:10261000695F7F4FCE0101960E9478486BE774E0B6
:10262000CE0101960E94A049BC01CE0107960E94EE
:102630006148CE0101960E94BC47BE01695F7F4F91
:10264000CE0101960E947848B101CE0101960E9408
:102650008D49BC01CE0107960E946148CE010196CA
:102660000E94BC47BE01695F7F4FCE0101960E9468
:10267000784862E874E0CE0101960E94A049BC014E
:10268000CE0107960E946148CE0101960E94BC4788
:10269000BE01695F7F4FCE0101960E9478486D852B
:1026A0007E85CE0101960E948D49BC01CE01079620
:1026B0000E946148CE0101960E94BC47BE01695F3D
:1026C0007F4FCE0101960E94784868E874E0CE0101
:1026D00001960E94A049BC01CE0107960E94614864
:1026E000CE0101960E94BC47BE01695F7F4FCE01BB
:1026F00001960E947848B701CE0101960E948D494B
:10270000BC01CE0107960E946148CE0101960E944D
:10271000BC47BE01695F7F4FCE0101960E94784899
:102720006FE874E0CE0101960E94A049BC01CE0181
:1027300007960E946148CE0101960E94BC47BE01E7
:10274000695F7F4FCE0101960E947848B601CE01A5
:1027500001960E948D49BC01CE0107960E946148F6
:10276000CE0101960E94BC47BE01695F7F4FCE013A
:1027700001960E94784866E974E0CE0101960E94B5
:10278000A049BC01CE0107960E946148CE01019686
:102790000E94BC47BE01695F7F4FCE0101960E9437
:1027A0007848B501CE0101960E948D49BC01CE0149
:1027B00007960E946148CE0101960E94BC47BE0167
:1027C000695F7F4FCE0101960E9478486CE974E002
:1027D000CE0101960E94A049BC01CE0107960E943D
:1027E0006148CE0101960E94BC47BE01695F7F4FE0
:1027F000CE0101960E947848B401CE0101960E9454
:102800008D49BC01CE0107960E946148CE01019618
:102810000E94BC4764ED73E08AE796E00E94FD41A8
:10282000BE01695F7F4F8AE796E00E9422426AEC10
:1028300073E08AE796E00E94574263EC73E08AE710
:1028400096E00E94FD41B3018AE796E00E948D4226
:1028500061EB73E08AE796E00E9457428AE796E0D0
:102860000E944342F8E06F0E711C8AE796E00E94D6
:1028700049318823B9F08AE796E00E94E52F892B39
:10288000A1F36AE776E0CE0101960E94E943BE011A
:102890006F5F7F4FC3010E946148CE0101960E9485
:1028A000BC47E3CF8AE796E00E9408318AE796E0CA
:1028B0000E942F3001E010E002C00FEF1FEFCE01A9
:1028C00007960E94BC47C8012E960FB6F894DEBF4B
:1028D0000FBECDBFDF91CF911F910F91FF90EF9071
:1028E000DF90CF90BF90AF909F908F907F906F9030
:1028F0005F904F903F902F900895CF93DF931F925A
:102900001F92CDB7DEB78091390B90913A0B9E01A3
:102910002F5F3F4F009719F42F533B4002C0281BF5
:10292000390B3A83298389819A810F900F90DF9127
:10293000CF910895FC01CB01168217821086118673
:102940004FEF5FEFBA014287538764877587978798
:10295000868708950F931F93CF93DF93EC018B012C
:1029600068EC70E080E090E00E942E3CA80160E0FE
:1029700070E026E08E859F85DF91CF911F910F91AA
:102980000C94C03E8F929F92AF92BF92DF92EF92D3
:10299000FF920F931F93CF93DF93EC014A015B01EA
:1029A000D22E8E859F85DC01ED91FC910190F08106
:1029B000E02D6FEE19958E859F85DC01ED91FC91E0
:1029C0000190F081E02D61E01995AE85BF85ED9114
:1029D000FC9111976B2D7727882799270190F0811B
:1029E000E02DCD011995AE85BF85ED91FC91119734
:1029F000B501882799270190F081E02DCD01199527
:102A0000AE85BF85ED91FC91119799278B2D7A2D7D
:102A1000692D0190F081E02DCD0119958E859F855E
:102A2000DC01ED91FC910190F081E02D682D19956C
:102A30008E859F85DC01ED91FC910190F081E02D68
:102A40006D2D19958E859F85A12EBB24DC01ED91FE
:102A5000FC910190F081E02D6A2D19958E859F855E
:102A6000DC01ED91FC910190F081E02D602F199532
:102A7000A00EB11CAD0CB11CD12C025011098D2C33
:102A8000912C8E859F858016910688F48E0C9F1C54
:102A9000DC01ED91FC910190F081E02DD4016C916D
:102AA0001995F4018081A80EB11CD394E8CFDC0104
:102AB000ED91FC910190F081E02D6B2D19958E85A3
:102AC0009F85DC01ED91FC910190F081E02D6A2D54
:102AD000DF91CF911F910F91FF90EF90DF90BF900A
:102AE000AF909F908F9019949F92AF92BF92CF9288
:102AF000DF92EF92FF920F931F93CF93DF93CDB7A7
:102B0000DEB764970FB6F894DEBF0FBECDBF6C0181
:102B10007B015A0100E010E0912CD6011E968D91A8
:102B20009C911F97DC01ED91FC910480F581E02DD3
:102B30001995892B69F461E070E080E090E00E94D3
:102B40002E3C0F5F1F4F0A151B0538F38FEF49C04E
:102B5000F60186859785DC01ED91FC910680F78171
:102B6000E02D1995E1E0F0E0EC0FFD1FE90DF11DFE
:102B70008083911003C089818F3E79F69394B8E0E9
:102B8000B91558F689818F3E59F58A81813041F512
:102B90006F81288530E0322F22278985282B492D07
:102BA00050E0C90108968417950708F0B6CF225067
:102BB0003109F701608380E0482F50E04217530746
:102BC00068F4F701E40FF51FAAE0B0E0AC0FBD1FF9
:102BD000A40FB51F9C9191838F5FEECF822F01C010
:102BE0008EEF64960FB6F894DEBF0FBECDBFDF91B7
:102BF000CF911F910F91FF90EF90DF90CF90BF90FA
:102C0000AF909F900895AF92BF92CF92DF92EF92D4
:102C1000FF920F931F93CF93DF93CDB7DEB76497E7
:102C20000FB6F894DEBF0FBECDBF6C01CE0101968A
:102C30005C0184E1F50111928A95E9F783E18983CA
:102C4000F60186819781208531853A832B839C8389
:102C50008D834285538564857585750107E010E095
:102C600021E0C6010E94C21448E853E1B501C60143
:102C70000E947415813031F48981873019F481E024
:102C80009A81911180E064960FB6F894DEBF0FBE72
:102C9000CDBFDF91CF911F910F91FF90EF90DF900B
:102CA000CF90BF90AF900895AF92BF92CF92DF9236
:102CB000EF92FF920F931F93CF93DF93CDB7DEB7C1
:102CC00064970FB6F894DEBF0FBECDBF6C01CE0186
:102CD00001965C0184E1F50111928A95E9F781E0A2
:102CE0008983F6014285538564857585750103E006
:102CF00010E021E0C6010E94C21448E853E1B5018A
:102D0000C6010E947415813019F08981873011F451
:102D10008A8101C08FEF64960FB6F894DEBF0FBEB4
:102D2000CDBFDF91CF911F910F91FF90EF90DF907A
:102D3000CF90BF90AF900895AF92BF92CF92DF92A5
:102D4000EF92FF920F931F93CF93DF93CDB7DEB730
:102D500064970FB6F894DEBF0FBECDBF6C01CE01F5
:102D600001965C0184E1F50111928A95E9F782E010
:102D700089836A83F601428553856485758575016B
:102D800006E110E021E0C6010E94C21448E853E1C8
:102D9000B501C6010E947415813019F08981873010
:102DA00011F48A8101C08FEF64960FB6F894DEBFEC
:102DB0000FBECDBFDF91CF911F910F91FF90EF908C
:102DC000DF90CF90BF90AF900895AF92BF92CF9217
:102DD000DF92EF92FF920F931F93CF93DF93CDB7C4
:102DE000DEB764970FB6F894DEBF0FBECDBF6C019F
:102DF0008FEF9FEFF6019183808393838283CE01CF
:102E000001965C0184E1F50111928A95E9F78BE165
:102E1000898381E08A8383EA8E83F6014285538524
:102E200064857585750106E110E021E0C6010E9408
:102E3000C21448E853E1B501C6010E9474158130FF
:102E400019F08981873099F48B8190E0982F882739
:102E50002C81822BF601918380838D8190E0982FC5
:102E600088272E81822B938382838A8101C08FEFF2
:102E700064960FB6F894DEBF0FBECDBFDF91CF9141
:102E80001F910F91FF90EF90DF90CF90BF90AF9088
:102E90000895CB010C94C14FCB01642F0C94C94F02
:102EA0008091020790E020910307821B9109089509
:102EB0002091030780910207281750F4E22FF0E0D9
:102EC000EC5FF84F808190E02F5F20930307089517
:102ED0008FEF9FEF0895E091030780910207E817B5
:102EE00030F4F0E0EC5FF84F808190E008958FEFD0
:102EF0009FEF08950895CF92DF92EF92FF920F9384
:102F00001F93CF93DF937C01CB018A012091DE06D2
:102F1000222389F0EB016B01C40ED51ECC15DD0513
:102F200069F06991D701ED91FC910190F081E02D5C
:102F3000C7011995F3CF642F0E94DC18C801DF91F7
:102F4000CF911F910F91FF90EF90DF90CF90089558
:102F5000CF93DF931F92CDB7DEB769832091DE0652
:102F60002223D1F02091DF06203240F021E030E032
:102F7000FC013383228380E090E015C08091E0065D
:102F8000E82FF0E0EF51F94F998190838F5F8093A4
:102F9000E0068093DF0605C061E0CE0101960E9445
:102FA000DC1881E090E00F90DF91CF910895FC0153
:102FB0001382128248EE53E060E070E04483558350
:102FC0006683778386EA94E09183808308951092E4
:102FD0000307109202071092E0061092DF060C948D
:102FE0002718862F413208F040E264E077E00E9423
:102FF00045181092030780930207089521E00C946E
:10300000F11781E08093DE06609301071092E006DD
:103010001092DF0608950C9401180F93062F21E0FB
:103020004091DF0661EE76E0809101070E948918E9
:103030001092E0061092DF061092DE060F910895BE
:1030400061E00C940D1882ED96E00C94D717109265
:10305000910781E080938F0710928E0761E084E1F1
:103060000E944F3D61E085E10E944F3DE9EBF0E0B9
:1030700080818E7F808380818D7F808388E48093B0
:10308000B80085E48093BC000895413208F03FC049
:10309000909191079111FCCF91E09093910720932B
:1030A0008F072FEF2093240710926907240F209396
:1030B00068079093900790919007880F892B8093D1
:1030C000900780918E07813041F410928E07809195
:1030D00090078093BB0085EC01C085EE8093BC0017
:1030E000809191078130E1F380916907841710F492
:1030F000409169072AE637E0FB01D9018A2F821B3C
:10310000841718F48D918193F9CF842F089580E06E
:1031100008950F93413208F046C0909191079111A4
:10312000FCCF92E09093910700938F079FEF9093CD
:1031300024071092690740936807FB016AE677E06D
:10314000DB019A2F961B941718F491919D93F9CF58
:103150001092900790919007880F892B8093900789
:1031600080918E07813041F410928E0780919007F4
:103170008093BB0085EC01C085EE8093BC002223C8
:1031800021F0809191078230E1F3809124078F3FF5
:1031900061F080912407803251F0809124078033C0
:1031A00041F483E007C081E005C080E003C082E015
:1031B00001C084E00F910895613298F42091910745
:1031C000243089F460934607FC0188E497E0DC0131
:1031D0002A2F281B261718F421912D93F9CF80E070
:1031E000089581E0089582E0089585ED8093BC0004
:1031F0008091BC0084FDFCCF10929107089585EC6E
:103200008093BC001092910708951F920F920FB601
:103210000F9211240BB60F922F933F934F935F930E
:103220006F937F938F939F93AF93BF93EF93FF938E
:103230008091B900887F803609F49CC068F5883297
:1032400009F45BC090F4803109F454C038F4882349
:1032500009F4F5C0883009F44DC0F5C0883109F48F
:103260004CC0803209F45DC0EEC0803409F468C0FF
:1032700048F4803309F455C0883309F0E4C08093E2
:103280002407A8C0803509F44FC0883509F45DC013
:10329000883409F0D8C0D5C0883909F4C6C0A8F46C
:1032A000883709F467C038F4883609F463C080377A
:1032B00009F460C0C8C0883809F4B7C0803909F47F
:1032C0005FC0803809F0BFC05BC0803B09F485C097
:1032D00038F4803A09F466C0883A09F47EC0B3C075
:1032E000803C09F4A6C0883C09F4A3C0883B09F4DB
:1032F00089C0A9C08091900710C090916907809102
:103300006807981770F5E091690781E08E0F809348
:103310006907F0E0E659F84F80818093BB0085ECA7
:1033200085C0809324078DC0E091690781E08E0FEE
:10333000809369078091BB00F0E0E659F84F8083E5
:1033400090916907809168076DC0E091690781E0FD
:103350008E0F809369078091BB00F0E0E659F84F2B
:10336000808380918F0781116CC081E080938E07EC
:1033700084EA60C083E08093910710922507CFCF45
:1033800080912507803208F050C0E091250781E048
:103390008E0F809325078091BB00F0E0EA5DF84F27
:1033A0008083BDCF80912507803230F4E0912507DE
:1033B000F0E0EA5DF84F10820E94F5186091250751
:1033C00070E0E0918A07F0918B0786E297E019950B
:1033D000109225070E94FF1836C084E08093910761
:1033E0001092470710924607E0918C07F0918D07E5
:1033F000199580914607811105C081E080934607A9
:1034000010924807E091470781E08E0F80934707AD
:10341000F0E0E85BF84F80818093BB009091470714
:1034200080914607981708F47ACF85E88093BC000E
:103430000AC085EC8093BC001092910704C01092E2
:1034400024070E94F518FF91EF91BF91AF919F91D2
:103450008F917F916F915F914F913F912F910F903D
:103460000BBE0F900FBE0F901F901895FC0110829D
:103470001182738362830895FC0181818F5F8F774E
:103480009081891779F09181DF01A90FB11D149600
:103490006C93DF01A80FB11D14961C92818381E00B
:1034A00090E0089580E090E00895FC019081818192
:1034B000981759F08081DF01A80FB11D14968C91E7
:1034C00090819F5F9F779083089580E00895FC012D
:1034D00091818081891718F48181908103C0818155
:1034E00090818058891B90E0681779072CF48081BF
:1034F000E80FF11D8481089580E00895FC01218189
:1035000020830895DF92EF92FF920F931F93CF9342
:10351000DF93FB0150815523A1F1D12CE0E0F0E0D5
:1035200034C0DD20D1F1A0E0D12CE0E0F0E05F5F1D
:103530005F77AA2341F1521731F1DC01A50FB11DCC
:103540001496CC91D0E0DB01AE0FBF1FAC91BB272E
:10355000A7FDB095CA17DB0721F7D11001C0352FA1
:103560003196DB01AE0FBF1FAC91A11112C0011546
:10357000110511F0F8013083E114F10411F0F701A5
:10358000508381E00DC04F5F4F77421741F0542FB9
:10359000D4CFA1E0DD24D394CACFA1E0C8CF80E08E
:1035A000DF91CF911F910F91FF90EF90DF900895E1
:1035B000EF92FF920F931F93FC0121814081E12C38
:1035C000F12C00E010E00E94821A1F910F91FF90F1
:1035D000EF900895AF92BF92CF92DF92EF92FF9259
:1035E0000F931F93CF93DF931F921F92CDB7DEB738
:1035F0006C01B42EA22EFC0121814081CE010196E6
:103600007C018E010E5F1F4FC6010E94821A882323
:10361000B9F0AA2051F0BB2021F089818F5F8F770C
:1036200001C08A81F601808307C0BB2039F08981FF
:103630008F5F8F77F601818381E003C08A81FACFA3
:1036400080E00F900F90DF91CF911F910F91FF902D
:10365000EF90DF90CF90BF90AF9008958F929F92A0
:10366000AF92BF92CF92DF92EF92FF920F931F9390
:10367000CF93DF931F921F92CDB7DEB76C014A0143
:103680005901FC0121814081CE0102967C0100E0BC
:1036900010E0C6010E94821A811102C080E02AC097
:1036A0004A814F5F4A83F6012181E12CF12C8E0182
:1036B0000F5F1F4FB401C6010E94821A882371F365
:1036C0009A8169816F7770E0F501AF014A195B0952
:1036D000292F30E02617370749F0D601A20FB31F74
:1036E00014962C9121939F5F9F77EFCFF501E40F04
:1036F000F51F10820F900F90DF91CF911F910F91C6
:10370000FF90EF90DF90CF90BF90AF909F908F9001
:103710000895FC0120812F5F50E030E080E090E0D0
:103720006AE04181241709F1DF01A20FB11D14964F
:103730004C91403219F4311105C014C04D3211F4CE
:10374000332371F030ED340F3A3078F4DC016A9FA6
:10375000C0016B9F900D1124840F911DC09701C073
:1037600051E031E02F5F2F77DCCF552319F0919591
:10377000819591090895CF93C82F80EE8C0F8F35D6
:1037800010F46C2F0DC065E282E399E00E94324292
:103790004AE050E06C2F82E399E00E946F4365E2BB
:1037A00082E399E0CF910C9432420F931F93CF9311
:1037B000DF93EC011881098182E399E00E94434282
:1037C0004AE050E0612F82E399E00E946F4367EA8C
:1037D00072E082E399E00E9430424AE050E0602FBC
:1037E00082E399E00E946F436EE382E399E00E94D6
:1037F0003242101749F0FE01E10FF11D84810E9451
:10380000BB1B1F5F1F77F5CF82E399E0DF91CF915C
:103810001F910F910C9443420F9300E020E040E091
:1038200060E084E997E00E9489410F9108950F9329
:1038300000E020E040E060E089EA97E00E948941F2
:103840008AE997E00F910C943F1D0F9300E020E070
:1038500040E060E08FEA97E00E9489410F9108956F
:103860000F9300E020E040E060E085EB97E00E94ED
:1038700089410F9108950F9300E020E040E060E05F
:103880008DEB97E00E9489411092BC071092BB0714
:103890000F9108950F9300E020E040E060E089EC94
:1038A00097E00E94894185EC97E00F910C943621B6
:1038B0000F9300E020E040E060E083ED97E00E949D
:1038C00089410F91089580E008950F9300E020E072
:1038D00040E060E089ED97E00E9489410F910895F2
:1038E00081EF97E00E945C208091FB0790E00895B3
:1038F000FB01DA0184918D9331968111FBCF0895FC
:1039000080E090E0089580E090E008950F931F9389
:10391000CF93DF93D901EB010A811B812C813D817B
:10392000FC0101871287238734871092F8071092D1
:10393000F7070190F081E02D0484F585E02D9D01CD
:1039400060E070E0DF91CF911F910F91199408957D
:10395000089580E090E00895089581E020910208A4
:10396000309103082530310509F080E00895039671
:103970000C94701C8091020890910308059721F423
:1039800083EF97E00C943242089580910208909161
:103990000308059721F483EF97E00C9430420895D3
:1039A0008091020890910308059731F064E070E07F
:1039B00081EF97E00E94CE1F809124089091230808
:1039C000891B8F7719F061E070E002C064E070E05D
:1039D00081EF97E00E94CE1F8091FB0790E0089551
:1039E000FF920F931F93CF93DF93CDB7DEB72C9742
:1039F0000FB6F894DEBF0FBECDBF8C010D5F1F4F19
:103A0000AE014F5F5F4F69E174E0C8010E94781C0E
:103A1000FF24F394209102083091030825303105EA
:103A200009F0F12C20E040E0BE016F5F7F4F83E2A0
:103A300098E00E94EA1AF82259F024E030E030932E
:103A4000030820930208B80181EF97E00E94801FCD
:103A50008F2D2C960FB6F894DEBF0FBECDBFDF9131
:103A6000CF911F910F91FF90089560E070E083E285
:103A700098E00E94671A992787FD90950895CF9343
:103A8000DF93EC0182EC94E0998388838CEE94E0E0
:103A90009C838B83CE0107960E947F41D09393072E
:103AA000C0939207DF91CF9108950F9300E020E03B
:103AB00040E060E08FED97E00E9489410F9108950A
:103AC0000F931F93CF93DF93CDB7DEB72D970FB62C
:103AD000F894DEBF0FBECDBF8C018091FC07823011
:103AE00001F118F4813041F0BBC0833009F467C0A4
:103AF000843009F479C0B4C040E060E474E081EF40
:103B000097E00E94E61FE091F707F091F8073097E1
:103B100009F49AC0808180538A3008F495C061E32B
:103B200094C020E030E040E050E0BE01635F7F4F92
:103B300081EF97E00E94A11F882309F491C08D8531
:103B40008823D1F140E065E374E081EF97E00E94C3
:103B5000E61F62EB74E083EF97E00E9430426091D1
:103B6000F7077091F8076115710529F083EF97E069
:103B70000E94304206C063EF77E0C80107960E94BA
:103B8000454162E283EF97E00E9432426CE283EFAC
:103B900097E00E9432426091F9077091FA074AE07B
:103BA00050E083EF97E00E9442436DE083EF97E09F
:103BB0000E94324283E015C063E070E040C020E024
:103BC00030E040E050E0BE01635F7F4F81EF97E05F
:103BD0000E94A11F882309F443C08D85882361F3C7
:103BE00084E08093FC073CC0AE014F5F5F4F6BE207
:103BF00074E0C80103960E94781C20E030E0AE011A
:103C00004F5F5F4FBE01635F7F4F81EF97E00E9480
:103C1000A11F882329F18D85882371F285E090E02A
:103C2000909303088093020821E041E0BE016F5F9A
:103C30007F4F83E298E00E94EA1A61E070E081EF32
:103C400097E00E94CE1F0CC060E383EF97E00E94D4
:103C500032426DE083EF97E00E94324282E0C1CFB2
:103C60002D960FB6F894DEBF0FBECDBFDF91CF917A
:103C70001F910F9108950F931F93CF93DF93EC0142
:103C80005093FA074093F9073E872D877093F80702
:103C90006093F7078C010D5F1F4F4EE050E0B801B5
:103CA00081EF97E00E947420B80181EF97E00E94B5
:103CB000621FCE010E94601D8091FB0790E0DF91A2
:103CC000CF911F910F910895CF93DF93EC0123962D
:103CD0004FE050E0BE0181EF97E00E94742068EE53
:103CE00073E080E090E00E942E3C6AEB74E083EF8A
:103CF00097E00E94304268EE73E080E090E00E941E
:103D00002E3C41E060E274E081EF97E00E94E61F04
:103D100084E090E0909303088093020883E298E0A7
:103D20000E947E1A80E198E00E942F2764E670E0EE
:103D300080E090E00E942E3C61E070E081EF97E02F
:103D40000E94CE1F8091240890912308891B8F77B1
:103D500029F7BE0181EF97E00E94801F8091FB0749
:103D600090E0DF91CF910895CF93809123089091B7
:103D700024088150891B8F77B9F083E298E00E9474
:103D8000551AC82F90912308809124089150981BB0
:103D90009F77943621F480E198E00E942F278C2FA2
:103DA000992787FD909502C080E090E0CF9108951B
:103DB0008091240890912308891B8F7741F083E23A
:103DC00098E00E947E1A80E198E00C942F2761E031
:103DD00070E081EF97E00C94CE1F2091FD073091A9
:103DE000FE072E30310549F02331310541F02130F5
:103DF000310539F46093240808950C94601D0C94E7
:103E0000D81E0895CF93DF93EC01BC016D5F7F4F07
:103E100043E150E081EF97E00E947420CE01DF91F2
:103E2000CF910C94D81E03970C94F01C03970C941C
:103E3000ED1E0F9300E020E040E060E085EE97E0AB
:103E40000E9489410F9108950F9300E020E040E027
:103E500060E08BEE97E00E9489410F910895CF9228
:103E6000DF92FF920F931F93CF93DF931F92CDB7F3
:103E7000DEB78C016B01F601F490FF2059F0D801F8
:103E8000ED91FC910280F381E02D6F2DC8014983F3
:103E900019954981BFEFCB1ADB0AF110ECCF44230F
:103EA00031F06BE275E0C80102960E94304281E079
:103EB00090E00F90DF91CF911F910F91FF90DF90D5
:103EC000CF900895FC0183899489892B59F08589C5
:103ED0009689892B51F08789908D892B81F4A2E0F6
:103EE000B0E005C0A0E0B0E002C0A1E0B0E0AA0FE1
:103EF000BB1FAE0FBF1F54967C936E9353970895CC
:103F0000FC01838994898617970769F085899689CA
:103F10008617970759F08789908D8617970781F440
:103F2000A2E0B0E005C0A0E0B0E002C0A1E0B0E0D7
:103F3000AA0FBB1FAE0FBF1F54961C921E92539721
:103F40000895EF92FF920F931F93CF93DF938B010E
:103F5000E9014115510531F4209721F440911002F7
:103F6000509111027C0122E3E20EF11CBA01C7015B
:103F70000E94D81AF8018083811108C0209731F07F
:103F8000BE01C7010E94D81AF801808381E0DF9149
:103F9000CF911F910F91FF90EF900895FC01613038
:103FA000710531F08091FD079091FE07029749F06D
:103FB000628781E090E095878487128E118E8387D7
:103FC00008951092030810920208F2CF0F931F93E6
:103FD000CF93DF9300D0CDB7DEB78C01C2964B8371
:103FE00069837A830E947E1AD801ED91FC91048046
:103FF000F581E02D4B8169817A81C8010F900F9086
:104000000F90DF91CF911F910F911994CF92DF9272
:10401000FF920F931F93CF93DF931F92CDB7DEB71D
:104020008C01F62EC12CD12CF801EC0DFD1D8389DD
:104030009489009759F0DC01ED91FC910280F381A5
:10404000E02D6F2D49831995498101C080E0B4E0CE
:10405000CB16D10431F0E2E0CE0ED11C882321F33F
:1040600019C0811117C0D80159968D919C915A970A
:10407000009781F0DC01ED91FC910190F081E02D41
:104080006F2D0F90DF91CF911F910F91FF90DF90D7
:10409000CF9019940F90DF91CF911F910F91FF90C6
:1040A000DF90CF900895FC012685222319F06787C1
:1040B000408B08950C940620CF93DF93EC018E85FE
:1040C000882379F09F858889981759F0CE01C29688
:1040D0000E94D51B48896F85CE010E9406201F864D
:1040E000188ADF91CF910895FC01728F618F12863B
:1040F00081E08387558744871786108A0895CF9279
:10410000DF92EF92FF920F931F93CF93DF93EC0117
:104110000E94FF3B6B017C010B8D1C8D2D8D3E8D14
:10412000601B710B820B930BCB8EDC8EED8EFE8EA3
:10413000DF91CF911F910F91FF90EF90DF90CF9083
:104140000895CF93DF93EC011D821C8284EF94E0ED
:10415000998388838EEF94E09B838A83CE014F9668
:104160000E940828D8A7CFA31F86188A81E08A87D3
:104170001B8681E090E09D878C87CE010E947F2086
:104180001C8A1B8A1E8A1D8A188E1F8ADF91CF9176
:10419000089581EF97E00C94A1200F931F93CF9384
:1041A000DF931F92CDB7DEB78C01FC018685882393
:1041B00029F0862F69830E94BB1B6981C8014F9635
:1041C0000F90DF91CF911F910F910C943727029799
:1041D0000C94CD200F9300E020E040E060E087EAFF
:1041E00098E00E9489410F9108950F9300E020E02C
:1041F00040E060E08DEA98E00E9489410F910895C7
:104200000F9300E020E040E060E083EB98E00E9444
:1042100089410F9108950F9300E020E040E060E0B5
:1042200089EB98E00E9489410F91089580E090E029
:10423000089580E090E0089581E020910208309197
:1042400003082530310509F080E0089581E02091D0
:104250000208309103082530310509F080E0089507
:1042600080E090E0089502960C94701C26E035E002
:10427000FC01318320832CE135E03383228390934A
:10428000C4078093C30708950F931F93CF93DF93C1
:1042900000D01F92CDB7DEB78C018091FC07823031
:1042A00099F060F4813009F079C041E06DE774E085
:1042B00081EF97E00E94E61F82E034C08330C1F1B5
:1042C000843009F44EC06AC08DE089838AE08A8315
:1042D0001B8220E030E0AE014F5F5F4FBE016C5F9C
:1042E0007F4F81EF97E00E94A11F882309F456C0F9
:1042F0008C818823D1F040E06BE674E081EF97E099
:104300000E94E61F6091F9077091FA074AE050E0B9
:1043100083EF97E00E9442436DE083EF97E00E94B5
:10432000324283E08093FC0739C063E070E032C022
:1043300020E030E040E050E0BE016C5F7F4F81EF55
:1043400097E00E94A11F882349F18C81882369F39B
:1043500041E06FE574E081EF97E00E94E61F84E0A2
:10436000E1CF20E030E040E050E0BE016C5F7F4FE5
:1043700081EF97E00E94A11F882381F08C81882320
:10438000A1F2B8016E5F7F4F81EF97E00E94621F3C
:1043900061E070E081EF97E00E94CE1F0F900F90D8
:1043A0000F900F90DF91CF911F910F910895209161
:1043B000FD073091FE072130310521F02431310510
:1043C00021F008956093240808950C944421CF931C
:1043D000DF93EC017093FA076093F907BC016E5FFD
:1043E0007F4F44E150E081EF97E00E947420CE01BE
:1043F0000E9444218091FB0790E0DF91CF910895C6
:104400000F931F93CF93DF93CDB7DEB72F970FB6E0
:10441000F894DEBF0FBECDBF8C010E5F1F4FAE0103
:104420004F5F5F4F66E574E0C8010E94781CBE01D3
:104430006F5F7F4F83E298E00E94D81A882331F0A3
:1044400084E090E09093030880930208AE014F5FF0
:104450005F4F6CE474E0C8010E94781CBE016F5F7E
:104460007F4F83E298E00E94D81A8823A9F021E0C8
:1044700041E0BE016F5F7F4F83E298E00E94EA1A3D
:1044800080E198E00E942F2785E090E09093030858
:104490008093020881E001C080E02F960FB6F89467
:1044A000DEBF0FBECDBFDF91CF911F910F91089559
:1044B00002970C94D72102970C94002202960C9438
:1044C000701C0F931F939B018A0146E255E060E246
:1044D00075E083E298E00E942E1B81E090E01F913E
:1044E0000F910895FC012681211109C021E0268346
:1044F00041E068E275E083E298E00E94EA1A60E039
:1045000070E083E298E00E94671A992787FD9095F2
:10451000089525E435E0FC01318320832DE535E065
:10452000338322839093D0078093CF070895CF934E
:10453000DF931F92CDB7DEB78091FC07813019F071
:104540008230D1F032C082E08093FC0740E068EA1C
:1045500074E081EF97E00E94E61F6091F707709189
:10456000F80783EF97E00E9430426AE275E083EF3C
:1045700097E00E94304219C020E030E04AE952E062
:10458000BE016F5F7F4F81EF97E00E94A11F8823DC
:1045900061F08981882319F061E070E002C063E076
:1045A00070E081EF97E00E94CE1F0F90DF91CF91D6
:1045B0000895CF93DF93EC01209102083091030816
:1045C000235031092230310518F082E090E013C009
:1045D0007093F8076093F707BC016E5F7F4F44E06C
:1045E00050E081EF97E00E947420CE010E94972254
:1045F0008091FB0790E0DF91CF9108950F931F9377
:10460000CF93DF93EC018B018091230890912408D4
:104610008150891B8F7791E0853008F090E09F836F
:1046200021E041E06DE275E083E298E00E94EA1A41
:10463000811103C0F801108203C081E0F80180837A
:1046400083E298E00E94891B9D838C8364E375E07C
:1046500083E298E00E94D81A8887198681E0DF916A
:10466000CF911F910F910895CF93DF931F92CDB7F4
:10467000DEB72091FC07213019F0223061F01EC016
:1046800041E061E974E081EF97E00E94E61F82E07B
:104690008093FC0713C0BE016F5F7F4F0E94FE2214
:1046A000882361F08981811103C064E070E002C059
:1046B00061E070E081EF97E00E94CE1F0F90DF91E4
:1046C000CF910895CF93DF93EC011E82BC016E5F02
:1046D0007F4F46E050E081EF97E00E947420CE01CA
:1046E0000E9434238091FB0790E0DF91CF910895E1
:1046F0000F931F93CF93DF931F92CDB7DEB78C013B
:104700008091FC07813019F08230D9F033C082E00B
:104710008093FC0740E068E874E081EF97E00E9436
:10472000E61FF801648175814AE050E083EF97E06D
:104730000E9442436BE275E083EF97E00E943042B3
:1047400019C020E030E040E050E0BE016F5F7F4FD5
:1047500081EF97E00E94A11F882361F0898188235F
:1047600019F061E070E002C063E070E081EF97E073
:104770000E94CE1F0F90DF91CF911F910F9108954E
:1047800081EF97E00C94CD20CF93DF931F92CDB7AC
:10479000DEB78091FC07813019F0823081F028C0AB
:1047A00082E08093FC076AE181EF97E00E94CD20D0
:1047B0006BE275E083EF97E00E94304219C020E081
:1047C00030E040E050E0BE016F5F7F4F81EF97E047
:1047D0000E94A11F882361F08981882319F061E07C
:1047E00070E002C063E070E081EF97E00E94CE1FAE
:1047F0000F90DF91CF910895CF93DF93EC01BC012F
:104800006E5F7F4F45E050E081EF97E00E9474209B
:10481000CE010E94C423E881F9810088F189E02D4E
:10482000CE011995892B39F464E670E080E090E0C0
:104830000E942E3CF0CF8091FB0790E0DF91CF915A
:1048400008952091FD073091FE0725303105A1F034
:104850003CF42130310559F02430310559F00895E8
:104860002630310559F02730310551F00895609315
:10487000240808950C9497220C94C4230C94342398
:104880000C9478230F931F93CF93DF93EC018E81C9
:1048900081110AC081E08E8321E041E068E275E089
:1048A00083E298E00E94EA1A83E298E00E94551A97
:1048B000082F8985882341F0198664E375E083E237
:1048C00098E00E94D81A8887888581112BC08F8133
:1048D000882359F190912308809124089150981BC6
:1048E0009F77112707FD10959F3709F045C083E298
:1048F00098E00E947E1A1F8281E08987BE016E5F68
:104900007F4F40E050E081EF97E00E94742080E10B
:1049100098E00E942F276AE070E080E090E00E941B
:104920002E3C2AC064E375E002C06AE375E083E2CE
:1049300098E00E94D81A81111AC083E298E00E9480
:104940007E1ABE016E5F7F4F40E050E081EF97E03E
:104950000E94742080E198E00E942F276AE070E0B6
:1049600080E090E00E942E3C80E090E006C0802F26
:10497000992787FD909501C0C801DF91CF911F91C4
:104980000F9108950F931F93CF93DF938C01C5E090
:10499000D0E083E298E00E947E1A80E198E00E94D5
:1049A0002F276AE070E080E090E00E942E3C219783
:1049B00081F7B8016E5F7F4F47E050E081EF97E0ED
:1049C0000E947420C801DF91CF911F910F910C9428
:1049D000782302970C942124CF93DF93EC01E88194
:1049E000F9810684F785E02D19958E819F81DF91ED
:1049F000CF910895FC0177836683089502960C9405
:104A0000701CBC016E5F7F4F81EF97E00C94621FBA
:104A10000F931F93CF93DF93EC018B0140E065EE82
:104A200074E081EF97E00E94E61FB80183EF97E002
:104A30000E94304261E675E083EF97E00E943042C9
:104A4000E881F9810484F585E02D61E070E0CE0114
:104A5000199581E090E0DF91CF911F910F9108951A
:104A6000EF92FF920F931F93CF93DF93CDB7DEB7F3
:104A70002F970FB6F894DEBF0FBECDBF8C017C011F
:104A800082E0E80EF11CAE014F5F5F4F60ED74E015
:104A9000C7010E94781CBE016F5F7F4F83E298E0E0
:104AA0000E94D81A882349F0D801ED91FC91048422
:104AB000F585E02D62E070E044C0AE014F5F5F4FCE
:104AC00069EC74E0C7010E94781CBE016F5F7F4FE4
:104AD00083E298E00E94D81A882349F0D801ED912A
:104AE000FC910484F585E02D63E070E02AC0AE01FE
:104AF0004F5F5F4F6EEB74E0C7010E94781CBE01F0
:104B00006F5F7F4F83E298E00E94D81A811111C035
:104B1000AE014F5F5F4F69EB74E0C7010E94781CE4
:104B2000BE016F5F7F4F83E298E00E94D81A88230E
:104B300079F0D801ED91FC910484F585E02D60E0D9
:104B400070E0C801199583E298E00E947E1A1FC0A8
:104B5000AE014F5F5F4F62EB74E0C7010E94781CAB
:104B6000BE016F5F7F4F83E298E00E94D81A8823CE
:104B700081F083E298E00E947E1AD801ED91FC91C9
:104B80000484F585E02D62E070E0C801199581E0AC
:104B900001C080E02F960FB6F894DEBF0FBECDBFE8
:104BA000DF91CF911F910F91FF90EF900895FC013D
:104BB0008BE795E09183808383E995E093838283FB
:104BC00015821482F093D207E093D10708950F93D2
:104BD0001F939B018A0146E255E064E675E083E29B
:104BE00098E00E942E1B83E298E00E947E1A81E0EA
:104BF0001F910F9108952091FC07213019F0223068
:104C000061F0089541E06DED74E081EF97E00E945E
:104C1000E61F82E08093FC070895FC0144815581E2
:104C20006091F7077091F8070E94E725882331F01B
:104C300061E070E081EF97E00C94CE1F08950F9330
:104C40001F93CF93DF93EC017093F8076093F707FE
:104C50005D834C830BEF17E0F801108281E08093B5
:104C6000FC07BE016E5F7F4F4BE050E081EF97E0A5
:104C70000E947420CE010E94FB25F801808190E003
:104C8000DF91CF911F910F9108950F931F93CF93B1
:104C9000DF931F92CDB7DEB78C018091FC07813086
:104CA00019F0823061F02EC041E069ED74E081EFCF
:104CB00097E00E94E61F82E08093FC0723C020E07B
:104CC00030E040E050E0BE016F5F7F4F81EF97E042
:104CD0000E94A11F8823B1F0D801ED91FC910484BA
:104CE000F585E02D63E070E0C8011995898188237E
:104CF00019F061E070E002C063E070E081EF97E0DE
:104D00000E94CE1F0F90DF91CF911F910F910895B8
:104D10000F931F93CF93DF938C01CBEFD7E01882D3
:104D200081E08093FC07B8016E5F7F4F49E050E05F
:104D300081EF97E00E947420C8010E944526888177
:104D400090E0DF91CF911F910F9108950F931F93E2
:104D5000CF93DF931F92CDB7DEB78C018091FC0714
:104D6000813019F0823061F02EC041E065ED74E0D1
:104D700081EF97E00E94E61F82E08093FC0723C04A
:104D800020E030E040E050E0BE016F5F7F4F81EFF8
:104D900097E00E94A11F8823B1F0D801ED91FC910A
:104DA0000484F585E02D60E070E0C80119958981E3
:104DB000882319F061E070E002C063E070E081EFE9
:104DC00097E00E94CE1F0F90DF91CF911F910F911E
:104DD00008950F931F93CF93DF938C01CBEFD7E010
:104DE000188281E08093FC07B8016E5F7F4F4AE034
:104DF00050E081EF97E00E947420C8010E94A6262F
:104E0000888190E0DF91CF911F910F9108952091BB
:104E1000FD073091FE072A30310541F02B30310576
:104E200039F02930310531F40C9445260C94A6262E
:104E30000C94FB25089502970C94302502970C944E
:104E400007270F9300E020E040E060E089EC98E065
:104E50000E9489418FEB98E00F910C948922DC012C
:104E6000ED91FC910280F381E02D61E11994CF93E3
:104E7000DF93EC0188899989892B59F1E881F981BF
:104E80000280F381E02D613151F467E7CE0119957D
:104E9000E881F9810280F381E02D6EEE16C0633166
:104EA00051F467E7CE011995E881F9810280F38119
:104EB000E02D6CEE0AC0CE01673741F41995E88108
:104EC000F9810280F381E02D68E8CE01DF91CF9176
:104ED000199480E090E0DF91CF910895DC0116965F
:104EE000ED91FC911797208115968C9180958223E6
:104EF0008083089520E001972FEF8F3F9207D9F725
:104F00000895611102C00C946E27DC011696ED9194
:104F1000FC911797208115968C91282B208308955A
:104F2000DF92EF92FF920F931F93CF93DF93EC01E9
:104F3000D62EEFB6F8940E946E2788899989059637
:104F40000E947A2708E010E0FF24F3948F2D8D2132
:104F500029F061E0CE010E94812703C0CE010E94AA
:104F60006E27888999890E947A27FF0C01501109C0
:104F700069F761E0CE010E948127EFBE8889998997
:104F80000E947A2781E090E0DF91CF911F910F91ED
:104F9000FF90EF90DF900895CF93DF93EC0161E0F5
:104FA00083E00E94163D61E083E00E944F3DEAE409
:104FB000F5E0E491ED83E0E9F5E0E491F0E0EE0F57
:104FC000FF1FE351FA4F859194919F838E83DF9168
:104FD000CF910895CF93DF93EC0160E08AE00E94C7
:104FE000163D61E08AE00E944F3DE1E5F5E0E49185
:104FF000EA83E7E9F5E0E491F0E0EE0FFF1FED5200
:10500000FA4F859194919C838B83DF91CF91089582
:10501000CF93DF93EC018BE995E0998388831B861E
:105020001A861D861C861F861E86198A188ABE014E
:10503000CE0143960E94361ACE010E94CC27CE01A3
:10504000DF91CF910C94EA27FC01DB018C919289CE
:105050008F3F31F491FF0AC082E08927828B04C020
:10506000873721F49160928B80E0089590FF10C003
:105070008E3E11F481E107C08C3E11F483E103C040
:10508000883811F487E78C93828991E08927828B95
:1050900081E008957F928F929F92AF92BF92CF92BC
:1050A000DF92EF92FF920F931F93CF93DF931F92A4
:1050B000CDB7DEB78C012F933F934F935F936F93E0
:1050C0007F93AF93BF931982DC011396ED91FC910E
:1050D0001497808112969C91892309F08BC0912CA2
:1050E000882483946801B3E1CB0ED11CF801848934
:1050F000828593850E947A27D80153968C91539785
:1051000054969C918150891B8F77AA24A394863052
:1051100010F0A12C05C0911003C0C8010E946E2799
:1051200038E0E32EF12C77247394F801848595857B
:105130000E947A27D8011396ED91FC9114978081F3
:1051400012969C9189239981882319F09729998334
:1051500004C0872D809589238983AA2069F0911046
:105160000BC0872D837129F061E0C8010E9481275F
:1051700003C0C8010E946E27770CB1E0EB1AF1085A
:10518000A1F6AA2009F459C0911009C0F80184853C
:1051900095850E947A2761E0C8010E948127F80165
:1051A00082898260828B99249394BE016F5F7F4FC6
:1051B000C8010E942428811134C022E3E22EF12C80
:1051C00081E090E00E947A27D8011396ED91FC913E
:1051D0001497808112969C91892309F487CFB1E0BE
:1051E000EB1AF10869F7A11030C089818A3069F1A2
:1051F000803259F1BF91AF917F916F915F914F9143
:105200003F912F910F90DF91CF911F910F91FF90C0
:10521000EF90DF90CF90BF90AF909F908F907F9056
:1052200008956981C6010E943C1A882009F4C5CFFF
:10523000D8015496BC90812CC0CFD8011E968D9178
:105240009C911F970E947A27B0CFF80180859185A5
:10525000009781F24489DC01ED91FC910190F0818D
:10526000E02D6B2D1995C6CF8091CF089091D00875
:10527000009711F00C944A2808951F920F920FB6D0
:105280000F9211240BB60F922F933F934F935F937E
:105290006F937F938F939F93AF93BF93EF93FF93FE
:1052A0000E943429FF91EF91BF91AF919F918F910F
:1052B0007F916F915F914F913F912F910F900BBE16
:1052C0000F900FBE0F901F9018951F920F920FB660
:1052D0000F9211240BB60F922F933F934F935F932E
:1052E0006F937F938F939F93AF93BF93EF93FF93AE
:1052F0000E943429FF91EF91BF91AF919F918F91BF
:105300007F916F915F914F913F912F910F900BBEC5
:105310000F900FBE0F901F9018951F920F920FB60F
:105320000F9211240BB60F922F933F934F935F93DD
:105330006F937F938F939F93AF93BF93EF93FF935D
:105340000E943429FF91EF91BF91AF919F918F916E
:105350007F916F915F914F913F912F910F900BBE75
:105360000F900FBE0F901F9018950F9300E020E054
:1053700040E060E089ED98E00E94894181ED98E08D
:105380000F910C94D725CF93DF93EC0160E08E81D1
:105390000E944F3D81E090E00E94563C61E08E818A
:1053A0000E944F3D81E090E00E94563C60E08E817B
:1053B0000E944F3D84E690E0DF91CF910C94563CE3
:1053C000CF92DF92EF92FF920F931F93CF93DF93D1
:1053D0007C01C0E0D0E0C62ED12C87010C0F1D1F30
:1053E00061E0F80187810E94163DB6010C2E02C0D3
:1053F000759567950A94E2F76170F80187810E94BC
:105400004F3D2196C430D10541F7C701DF91CF91BF
:105410001F910F91FF90EF90DF90CF900C94C329D4
:10542000CF92DF92EF92FF920F931F93CF93DF9370
:105430007C01C0E0D0E0C62ED12C87010C0F1D1FCF
:1054400061E0F80187810E94163DB6010C2E02C072
:10545000759567950A94E2F76170F80187810E945B
:105460004F3D2196C830D10541F7C701DF91CF915B
:105470001F910F91FF90EF90DF90CF900C94C32974
:105480001F93CF93DF93EC01162F642F8C810E9422
:105490004F3D8D818F3F19F060E00E944F3D8F8519
:1054A000612F84FF06C0CE01DF91CF911F910C9434
:1054B000102A70E084E0759567958A95E1F7CE0132
:1054C0000E94E029612FCE01DF91CF911F910C94B2
:1054D000E02940E00C94402A61E00E94692A80EDB6
:1054E00097E00C94563C62E00E94692A80ED97E0B8
:1054F0000C94563C443008F043E0FC0123894217E9
:1055000010F04FEF420FFC01E40FF11D2489260F2C
:105510002068622F0C94692AFC016089262F246080
:10552000208B6C600C94692ACF93DF93EC0142309E
:1055300018F08F8588608F874B8B1C8A80E48D8B59
:105540006E8B70E0605C7F4F6F8B222329F04130BF
:1055500019F48F8584608F8780E593EC0E94563C18
:1055600060E08C810E944F3D60E08E810E944F3D43
:105570008D818F3F19F060E00E944F3D6F8564FD83
:105580001DC063E0CE010E94E02984E991E10E9400
:10559000563C63E0CE010E94E02984E991E10E943B
:1055A000563C63E0CE010E94E02986E990E00E942B
:1055B000563C62E0CE010E94E02916C06062CE0136
:1055C0000E94692A84E991E10E94563C6F856062DD
:1055D000CE010E94692A86E990E00E94563C6F85C0
:1055E0006062CE010E94692A6F856062CE010E94CE
:1055F000692A84E0888BCE010E948C2ACE010E9409
:105600006C2A82E0898B66E0CE01DF91CF910C9409
:10561000692A6F927F928F92AF92CF92EF920F93FF
:105620001F93CF93DF93CDB7DEB73C01162F842FA6
:105630005E854F8538899989F301848325830683A4
:10564000E782C086A18682865387448735879687FE
:1056500061E00E94163DF30185818F3F19F061E002
:105660000E94163D61E0F30186810E94163D1123E0
:1056700019F0F301178603C080E1F301878720E06A
:1056800041E060E1C301DF91CF911F910F91EF9055
:10569000CF90AF908F907F906F900C94942A8F92C0
:1056A000AF92CF92EF920F93DC0113961C921E9251
:1056B0001297E5EAF5E0ED93FC931F921F921F927B
:1056C0001F928A2CAC2CCE2CE02E022F242F462F9A
:1056D00061E00E94092B0F900F900F900F900F9197
:1056E000EF90CF90AF908F90089541E00E94402AB4
:1056F00081E090E00895CF93CFB7F8948091E208CD
:10570000811116C061E085E30E944F3D61E085E3B1
:105710000E94163D8CB580618CBD8CB580648CBDBB
:1057200061E084E30E94163D61E083E30E94163D40
:105730008091E2088F5F8093E208CFBFCF910895F8
:105740000F9300E020E040E060E083EE98E00E94EC
:1057500089410F910895FB014281538164817581D4
:10576000FC014283538364837583178216820895F4
:10577000CF93FB0181918111FDCFFB0180E090E08F
:1057800020E030E0CAE06191662309F12430310560
:1057900064F56E3271F48F3F910509F034F5DA014A
:1057A000A20FB31F12968C932F5F3F4F80E090E0C3
:1057B000EACFDC01CA9FC001CB9F900D112477274F
:1057C00067FD709560537109860F971FDCCF8F3F7F
:1057D000910509F054F4243031053CF4FA01E20F4C
:1057E000F31F828381E090E002C080E090E0CF91DF
:1057F00008950F9300E020E040E060E089EE98E03B
:105800000E9489410F910895AF92BF92CF92DF928B
:10581000EF92FF920F931F93CF93DF9300D0CDB7FA
:10582000DEB76C017B010E94FF3BF6017783668344
:105830008601085F1F4FB6016A5F7F4F42E050E06C
:10584000C8010E94EB3181E090E09A83898342E0B5
:1058500050E0BE016F5F7F4FC8010E94EB3180E0D6
:1058600091E09A83898342E050E0BE016F5F7F4FF1
:10587000C8010E94EB311A82198242E050E0BE0159
:105880006F5F7F4FC8010E94EB3142E050E0BE01E4
:105890006F5F7F4FC8010E94EB3142E050E0BE01D4
:1058A0006F5F7F4FC8010E94EB316701F601808175
:1058B000882311F1F7016F018191811115C0560103
:1058C000AE18BF081A141B0494F4AB8241E050E0F8
:1058D000BE016D5F7F4FC8010E94EB31A501B7018A
:1058E000C8010E94EB3103C08E3229F7E8CF760160
:1058F000FFEFEF1AFF0ADACF1B8241E050E0BE0152
:105900006D5F7F4FC8010E94EB31E12CFF24F394BF
:10591000FA82E98242E050E0BE016F5F7F4FC8012A
:105920000E94EB31FA82E98242E050E0BE016F5FF3
:105930007F4FC8010E94EB3181E090E00F900F9003
:105940000F90DF91CF911F910F91FF90EF90DF901B
:10595000CF90BF90AF9008954F925F926F927F92D9
:105960008F929F92AF92BF92CF92DF92EF92FF926F
:105970000F931F93CF93DF93CDB7DEB763970FB627
:10598000F894DEBF0FBECDBF7C015B016A010E94AF
:10599000FF3B2B013C018701085F1F4F4501A12CF4
:1059A000B12CC8010E948B321816190694F00E947F
:1059B000FF3B641975098609970986169706A8069C
:1059C000B906D0F062E370E080E090E00E942E3CE7
:1059D000E8CFF7014281538164817581818D928D79
:1059E000A38DB48D481759076A077B0741F4858D4D
:1059F000968DC59721F406C08FEF9FEFF9C08EEF0B
:105A00009FEFF6C0C8010E949E310C970CF4EEC0C7
:105A10004CE050E0BE016F5F7F4FC8010E9428320A
:105A20008B819C819827892798279A8B898BF701EE
:105A30004681578129813A814217530711F497FD16
:105A400006C0C8010E94B8318CEF9FEFD1C08F70A3
:105A50009270892B31F0C8010E94B8318BEF9FEF13
:105A6000C7C0AF80B884BA24AB24BA24A114B1044F
:105A700019F0E12CF12C23C0C8010E94B8318AEF43
:105A80009FEFB6C041E050E0BE01635F7F4FC801A9
:105A90000E9428328D8581111BC08D858111F2CF26
:105AA000C8010E94FF31C8010E94FF31C8010E9455
:105AB000FF31C8010E94FF31FFEFEF1AFF0A8D810D
:105AC0009E81982789279827E816F906D8F20AC0F8
:105AD0008D859FEF980F9D878823F9F2C8010E945A
