:100000000C94C9020C94FA020C94FA020C94FA02B1
:100010000C94FA020C94FA020C94FA020C94FA0270
:100020000C94FA020C94FA020C94FA020C94FA0260
:100030000C94FA020C94303E0C94FA020C94FA02DE
:100040000C94FA020C94FA020C94FA020C94FA0240
:100050000C94FA020C94FA020C94FA020C94893271
:100060000C94FA020C9412360C9448360C94FA0252
:100070000C94FA020C94FA020C94FA020C94FA0210
:100080000C94FA020C94FA020C94FA020C94FA0200
:100090000C94BF360C94F5360C94FA020C94A3170A
:1000A0000C94FA020C94FA020C94FA020C94FA02E0
:1000B0000C94FA020C94FA020C94FA020C94FA02D0
:1000C0000C94FA020C94FA020C94FA020C94FA02C0
:1000D0000C94FA020C94FA020C946C370C94A2372C
:1000E0000C94FA02AF33B233A133A533AB33E93307
:1000F000B633BA33C033C433C833CE33D233D63336
:10010000E933DC33E033E4330C946A220C94723626
:100110000C94B2330C94AF330C9474380C94BA33FF
:100120000C9465280C94D4180C9448280C94B6337D
:100130000C94D6330C94CB290C9466290C94862706
:100140000C94D2330C94A6260C94E3270C947326BB
:100150000C94A5280C94D6370C948D340C94A533AC
:100160000C947D260C94EE220C9483100C94292A76
:100170000C9471260C947D280C949B340C942F3590
:100180000C945E280C941F370C9493280C94091639
:100190000C94BA280C94C2280C946E260C94C92690
:1001A0000C9418160C94E0330C9460260C94800583
:1001B0000C9493260C9419160C94C8330C94E433C5
:1001C0000C940A270C94DC330C9479280C94202985
:1001D0000C94E3260C94DA280C940E270C94FC055E
:1001E0000C9403290C9439290C949B260C94C0334D
:1001F0000C94C1160C94F71D0C9424280C940D3506
:100200000C9453280C94E9330C9495220C942937C0
:100210000C94AB330C9446160C9482340C94CC376B
:100220000C9493380C94EE150C94F6150C942C1B2E
:100230000C94C0260C947C360C94C6280C94A133E4
:100240000C94E7260C94AF340C9419380C94752850
:100250000C94C4330C94CE3346494E474552505209
:10026000494E54004E554C4C0046696E67657220ED
:1002700049440046494E4745525052494E54005257
:1002800046494400232323232323232323232323F7
:100290002323232323232323232300436F6E6E650D
:1002A0006374696F6E3A20636C6F736500486F7397
:1002B000743A200020485454502F312E31004745C5
:1002C00054202F6361732F636865636B2E706870B1
:1002D0003F00646174655F54494D45203A004441D4
:1002E000544554494D453D004D4554484F443D000B
:1002F00021446576696365204944207365742074E0
:100300006F20000003020500030501040602041F1C
:100310001C1F1E1F1E1F1F1E1F1E1F00000A0B0278
:10032000090C0D0E08070304010000000000000086
:1003300000000000000000000000000000000000BD
:10034000000000000000001211100000000000007A
:10035000000000000000000000000000000000009D
:1003600000010210202008081020401020408002C8
:1003700001020108040201010204081020408080EB
:10038000402010080402018004020180402010086F
:100390000402010804020101020408102040800147
:1003A0000204081020408005050505070508080817
:1003B00008020202020A0A080804040404010101F6
:1003C00001010101010303030303030303040707FE
:1003D000070C0C0C0C0C0C0C0C020202020606069C
:1003E00006060606060B0B0B0B0B0B0B0B00002077
:1003F000002300260029002C002F003200000100FD
:100400000003010601090100002200250028002B3D
:10041000002E003100340002010000050108010B2C
:100420000100002100240027002A002D00300033A5
:100430000001010000040107010A01024E414E497A
:100440004E495459494E46CDCCCC3D0AD7233C1792
:10045000B7D13877CC2B329595E6241FB14F0A00DF
:100460000020410000C84200401C4620BCBE4CCACF
:100470001B0E5AAEC59D7400407A10F35A00A0724C
:100480004E18090010A5D4E80000E87648170000CF
:10049000E40B54020000CA9A3B000000E1F505009D
:1004A0000080969800000040420F000000A08601E6
:1004B000000000102700000000E8030000000064B6
:1004C00000000000000A0000000000010000000021
:1004D000002C76D888DC674F0823DFC1DFAE59E1F6
:1004E000B1B796E5E3E453C63AE651997696E8E665
:1004F000C28426EB898C9B62ED407C6FFCEFBC9C38
:100500009F40F2BAA56FA5F490055A2AF75C936B49
:100510006CF9676DC11BFCE0E40D47FEF520E6B504
:1005200000D0ED902E0300943577050080841E08DE
:100530000000204E0A000000C80C333333330F98FC
:100540006E12831141EF8D2114893BE65516CFFEC3
:10055000E6DB18D1844B381BF77C1D901DA4BBE44F
:1005600024203284725E228100C9F124ECA1E53D91
:10057000270080058310C116D4182C1B9522EE226B
:10058000602648285328292A7C362937D6377438DC
:10059000FC0511241FBECFEFD1E2DEBFCDBF00E0CE
:1005A0000CBF15E0A0E0B2E0E4EEF5E900E00BBF1F
:1005B00002C007900D92A435B107D9F72BE0A4E54E
:1005C000B5E001C01D92A838B207E1F715E0C0E917
:1005D000D5E000E006C022970109FE010BBF0E9492
:1005E000F343C237D10780E00807A9F70E94843897
:1005F0000C94E04A0C940000CF93DF9300D000D01D
:10060000CDB7DEB761E08AE00E94EA3361E084E0C2
:100610000E94EA3361E085E30E94EA3326E040E885
:1006200055E260E070E08BE799E00E94943568EC59
:1006300070E080E090E00E94023361E084E00E947C
:1006400023348FE695E00E944A0A882319F067E177
:1006500072E002C064E272E08BE799E00E944F39D9
:1006600066E772E08BE799E00E9404390E94191353
:100670004AE050E0BC018BE799E00E941E3A88EC0A
:1006800095E00E94610E87E895E00E943C088FEAA1
:1006900095E00E94AC3020E042E060E186ED95E01C
:1006A0000E94892165E372E086ED95E00E9404399D
:1006B00061E472E08BE799E00E944F3986ED95E0A6
:1006C0000E9468216DE472E086ED95E00E94043995
:1006D0006BE572E08BE799E00E944F3964E772E0C6
:1006E0008BE799E00E9404390E9419134AE050E018
:1006F000BC018BE799E00E941E3A62E070E088EC52
:1007000095E00E942D1164E772E08823F1F08BE7F9
:1007100099E00E9404390E9419134AE050E0BC019C
:100720008BE799E00E941E3A65E872E08BE799E05A
:100730000E944F3986ED95E00E94682162E972E0DF
:1007400086ED95E00E94043934C08BE799E00E9461
:1007500004390E9419134AE050E0BC018BE799E08C
:100760000E941E3A6FE972E08BE799E00E944F39D0
:1007700060EB72E08BE799E00E944F3986ED95E0DF
:100780000E9468216FE972E086ED95E00E940439CD
:100790006BEB72E0CE0101960E94FE3EBE016F5FE0
:1007A0007F4F84E995E00E947D07CE0101960E946B
:1007B000903E66E772E08BE799E00E9404390E9460
:1007C00019134AE050E0BC018BE799E00E941E3A01
:1007D00026960FB6F894DEBF0FBECDBFDF91CF9146
:1007E00008958F929F92AF92BF92CF92DF92EF9235
:1007F000FF920F931F93CF93DF93CDB7DEB7EC97A4
:100800000FB6F894DEBF0FBECDBF61EC72E08BE790
:1008100099E00E9404390E9419134AE050E0BC019B
:100820008BE799E00E94163A61ED72E08BE799E060
:100830000E9404390E94D332AB01BC012AE030E0AF
:100840008BE799E00E94773A61E084E00E942334CC
:1008500028EC30E040E050E061E675E087E895E0A4
:100860000E94020A1092600564E575E08FE695E04B
:100870000E94690A64E672E0CE0107960E94184061
:10088000BE01695F7F4F84E595E00E94BE408823EA
:10089000B1F068E572E0CE0101960E941840BE01F9
:1008A0006F5F7F4F8AE595E00E94BE4011E08111A5
:1008B00001C010E0CE0101960E94903E01C010E000
:1008C000CE0107960E94903E1123A1F06AED72E0DE
:1008D00086ED95E00E94043989EA95E00E947D0C3E
:1008E00087EA95E00E9460066FE374E084E595E096
:1008F0000E94553F80916005882309F4E2C087EA91
:1009000095E00E94B4066FE374E0CE01C7960E94A2
:10091000FE3E6FE374E0CE01C1960E94FE3EAE0142
:100920004F5C5F4FBE01695C7F4F86EA95E00E9495
:10093000290D67E675E0CE0101960E944C3F61E605
:1009400075E0CE0107960E944C3FBE01695C7F4F67
:10095000CE010D960E944C3FBE016F5C7F4FCE01D1
:1009600043960E944C3F64E975E0CE0185960E9453
:10097000BE0664E575E0CE0149960E944C3F6AE5EB
:1009800075E0CE014F960E944C3F64E975E0CE01C0
:100990008B960E947F07CE0101964C0106965C0162
:1009A00006966C0106967C018E010B5D1F4F9E0121
:1009B000275E3F4FAE01415E5F4FBE01655D7F4FD9
:1009C00088EC95E00E94F9118C01CE018B960E9473
:1009D000903ECE014F960E94903ECE0149960E94D5
:1009E000903ECE0185960E94903EC7010E94903EA7
:1009F000C6010E94903EC5010E94903EC4010E9423
:100A0000903E86ED95E01016110664F50E94612176
:100A100040E061E086ED95E00E946F2188EC95E072
:100A20000E942710019779F46CEE72E086ED95E054
:100A30000E94043989EA95E00E94780C87EA95E0E3
:100A40000E9436062FC06AED72E086ED95E00E94A6
:100A5000043989EA95E00E947D0C87EA95E00E94BE
:100A6000600620C00E94612186ED95E00E94682109
:100A70006BEF72E086ED95E00E94043941E061E0A1
:100A800086ED95E00E946F216AE073E086ED95E0C7
:100A90000E94043989EA95E00E94820C87EA95E079
:100AA0000E942C0668EE73E080E090E00E94023322
:100AB000CE01C1960E94903ECE01C7960E94903E04
:100AC0000CC086ED95E00E94612189EA95E00E94C4
:100AD000870C86ED95E00E94890BEC960FB6F89492
:100AE000DEBF0FBECDBFDF91CF911F910F91FF9061
:100AF000EF90DF90CF90BF90AF909F908F90089530
:100B0000AF92CF92EF920F9300E020E040E060E0E0
:100B10008EEE95E00E945D388CE1A82E9BE1C92EF7
:100B20002AE1E22E09E128E147E166E186ED95E060
:100B30000E94442284E193E09093D7058093D605E8
:100B400088EC95E00E9453386FE374E080ED95E007
:100B50000E94FE3E8BEB95E00E946C2727E030E080
:100B600046E050E065E070E089EA95E00E943E0CC6
:100B70006BE070E087EA95E00E9428066FE374E07E
:100B800084E995E00E94FE3E6FE374E08AE995E017
:100B90000E94FE3E6FE374E080EA95E00E94FE3E14
:100BA00087E895E00E942D0868E17AE087E795E004
:100BB0000E9436136DE170E08FE695E00E941F0AF7
:100BC0006FE374E081E695E00E94FE3E6FE374E01F
:100BD00087E695E00E94FE3E6FE374E084E595E0D1
:100BE0000E94FE3E6FE374E08AE595E00F91EF907E
:100BF000CF90AF900C94FE3E8AE595E00E94903E27
:100C000084E595E00E94903E87E695E00E94903E44
:100C100081E695E00E94903E8FE695E00E94903E2E
:100C20008DE895E00E94903E87E895E00E94903E16
:100C300080EA95E00E94903E8AE995E00E94903E0D
:100C400084E995E00E94903E80ED95E00C94903E02
:100C5000FC0171836083089528EE33E040E050E0AA
:100C600068EE73E0FC0180810C94FF3ACF93DF9330
:100C7000EC0120E030E0A90160EA7FE088810E9479
:100C8000FF3A6CE271E080E090E00E94023320E0E5
:100C900030E0A90160ED77E088810E94FF3A6CE2C4
:100CA00071E080E090E00E94023328EC30E040E008
:100CB00050E060EA7FE08881DF91CF910C94FF3AA9
:100CC000CF93DF93EC0120E030E0A90168EC70E005
:100CD00088810E94FF3A68EC70E080E090E00E941A
:100CE000023320E030E0A90160EA7FE088810E94C1
:100CF000FF3A68EC70E080E090E00E94023320E070
:100D000030E0A90160ED77E088810E94FF3A68EC4D
:100D100070E080E090E00E94023320E030E0A90122
:100D200060EA7FE088810E94FF3A68EC70E080E032
:100D300090E00E94023320E030E0A90168EE73E009
:100D400088810E94FF3A68EC70E080E090E00E94A9
:100D5000023328EC30E040E050E060EA7FE0888138
:100D6000DF91CF910C94FF3A24EF31E040E050E066
:100D700060EA7FE0FC0180810C94FF3AEF92FF92E1
:100D80000F931F93CF93DF93CDB7DEB72C970FB69A
:100D9000F894DEBF0FBECDBF7C0168E173E0CE01E9
:100DA00007960E94FE3E00E010E0B80182E196E066
:100DB0000E94E715482FB801CE0107960E94F04027
:100DC0000F5F1F4F0630110581F768EB73E0CE010E
:100DD00001960E94FE3EBE016F5F7F4FCE010796D7
:100DE0000E942D418C01CE0101960E94903E012B64
:100DF00059F426E030E042E050E0BE01695F7F4FE9
:100E0000C7010E94314105C06FE173E0C7010E9434
:100E1000FE3ECE0107960E94903EC7012C960FB66B
:100E2000F894DEBF0FBECDBFDF91CF911F910F9120
:100E3000FF90EF900895CF93DF93C0E0D0E04FEFA5
:100E4000BE0182E196E00E94EA152196C730D105E5
:100E5000B1F7DF91CF910895EF92FF920F931F9317
:100E6000CF93DF93CDB7DEB72C970FB6F894DEBFE4
:100E70000FBECDBF8C017B0168EB73E0CE01019604
:100E80000E94FE3EB701CE0101960E946140BC0166
:100E9000CE0107960E944C3FCE0101960E94903EE3
:100EA000C8010E941B0700E010E0B801CE010796C0
:100EB0000E940F41482FB80182E196E00E94EA1596
:100EC0000F5F1F4F0630110581F740E066E070E0CC
:100ED00082E196E00E94EA15CE0107960E94903EBC
:100EE0002C960FB6F894DEBF0FBECDBFDF91CF9129
:100EF0001F910F91FF90EF9008950C94353FCF9381
:100F0000DF93EC010E944C3FCE01DF91CF91089519
:100F100006960C94353FDF92EF92FF920F931F934A
:100F2000CF93DF93CDB7DEB72C970FB6F894DEBF23
:100F30000FBECDBF7C018B0126E040E051EE60E0AA
:100F400070E088E19AE00E94943542E350E060E06E
:100F500070E088E19AE00E94B73AF80114866AE7E7
:100F600073E0C80106960E94553FC7010E94F21423
:100F7000D82E66E873E08BE799E00E944F39D110D4
:100F800052C061E0C7010E943A15D82E6FE873E0A5
:100F90008BE799E00E944F39D11045C0C7010E94EC
:100FA0008315D82E68E973E08BE799E00E944F39EA
:100FB000DD2031F069EA73E0C8010E94553F33C07B
:100FC00069E672E08BE799E00E94D138F701608111
:100FD00071814AE050E08BE799E00E94613AF701A5
:100FE000608171814AE0CE0107960E949A3F68EBCA
:100FF00073E0CE0101960E94FE3EBE01695F7F4F05
:10100000CE0101960E946140BC01C8010E94353F9B
:10101000CE0101960E94903ECE0107960E94903E1E
:1010200081E0F80184872C960FB6F894DEBF0FBEDE
:10103000CDBFDF91CF911F910F91FF90EF90DF9087
:101040000895CF93DF93EC0160E071EE0E944613A8
:10105000CE01DF91CF910C94A114CF93DF93EC01DB
:101060006FE374E00E94FE3E6FE374E0CE010696EB
:10107000DF91CF910C94FE3E81E008952F923F9234
:101080004F925F926F927F928F929F92AF92BF9298
:10109000CF92DF92EF92FF920F931F93CF93DF9344
:1010A000CDB7DEB7A7970FB6F894DEBF0FBECDBFA2
:1010B0008C016A017B0126E040E855E260E070E0C7
:1010C00085EB9AE00E94943585EB9AE00E940D35FD
:1010D0000E94D3322B013C016FE374E0CE014F96A6
:1010E0000E94FE3E44E650E060E070E085EB9AE04E
:1010F0000E94B73A180186E0280E311C0E94D332B4
:1011000064197509860997096C157D058E059F057B
:1011100008F057C14AE065EB7AE0CE0101960E94E3
:10112000D73ABE016F5F7F4FCE014F960E94353F89
:10113000CE0101960E94903E6EEA73E0CE010196C8
:101140000E94FE3EBE016F5F7F4FCE014F960E9410
:101150002D415C01CE0101960E94903EB7FCCECF9E
:10116000A12CB12C812C912CEFEF8E1A9E0A64EBEE
:1011700073E0CE0101960E94FE3EA401BE016F5FA6
:101180007F4FCE014F960E9411414C01CE01019636
:101190000E94903EF1E0AF16B10449F4B4016F5FD4
:1011A0007F4FCE014F960E940F418FA33CC082E03B
:1011B000A816B104B1F1E4E0AE16B104B9F44DA142
:1011C0005EA14F5F5F4F9401BE01615E7F4FCE0114
:1011D00001960E943141BE016F5F7F4FC8010E949E
:1011E000353FCE0101960E94903E1BC0F6E0AF163F
:1011F000B104C9F494014DA15EA14F5F5F4FBE01E0
:10120000615E7F4FCE0101960E943141BE016F5F4A
:101210007F4FC1010E94353FCE0101960E94903E52
:1012200002C09EA28DA28FEFA81AB80AEAE0AE16FD
:10123000B10409F099CFFFA1F13421F481E0F80164
:10124000848702C0F80114862BE030E04AE050E0C9
:10125000B801CE0107960E94314122E030E040E023
:1012600050E0B801CE0149960E943141CE01499625
:101270000E9481414B015C0129E030E042E050E0F6
:10128000B801CE0143960E943141CE0143960E949F
:10129000814120E030E040E752E40E94F5419B01AB
:1012A000AC01C501B4010E948D41AB01BC0126E037
:1012B000CE010D960E94C63FBE01635F7F4FCE01F7
:1012C00001960E944C3FBE01695F7F4FCE0101969F
:1012D0000E946140BC01C8010E94353FCE010196C9
:1012E0000E94903ECE010D960E94903ECE01439604
:1012F0000E94903ECE0149960E94903ECE010796F4
:101300000E94903E2CE030E04BE050E0B101CE0175
:1013100007960E94314123E030E040E050E0B10107
:10132000CE0149960E943141CE0149960E948141E9
:101330004B015C012AE030E043E050E0B101CE0116
:1013400043960E943141CE0143960E94814120E0A4
:1013500030E040E752E40E94F5419B01AC01C50139
:10136000B4010E948D41AB01BC0126E0CE010D9677
:101370000E94C63FBE01635F7F4FCE0101960E946F
:101380004C3FBE01695F7F4FCE0101960E946140D4
:10139000BC01C1010E94353FCE0101960E94903EE2
:1013A000CE010D960E94903ECE0143960E94903E43
:1013B000CE0149960E94903ECE0107960E94903E33
:1013C0009DCE85EB9AE00E94F635CE014F960E94A5
:1013D000903EA7960FB6F894DEBF0FBECDBFDF914B
:1013E000CF911F910F91FF90EF90DF90CF90BF9022
:1013F000AF909F908F907F906F905F904F903F90B5
:101400002F9008950F931F93CF93DF93EC018B01DF
:10141000BA01A9010E943E08BE01C8010E94353FE1
:10142000BE016A5F7F4FC80106960E94353F8C85DA
:10143000F8018487DF91CF911F910F9108950F9349
:101440001F93CF93DF93EC018B016FE374E00E9455
:10145000FE3E1F830E83DF91CF911F910F91089560
:10146000CF93DF93EC0160E08E810E94233460E033
:101470008E810E94EA338E810E945934019719F4BB
:1014800066EB73E002C06AE773E0CE01DF91CF91B3
:101490000C94553FCF93DF93EC010E94300A66EB2A
:1014A00073E0CE010E94D14081110DC06AE773E064
:1014B000CE010E94D140882341F087E795E0DF917B
:1014C000CF910C94210881E001C080E0DF91CF91A1
:1014D0000895DF92EF92FF920F931F93CF93DF93C4
:1014E00000D000D0CDB7DEB78C017B010E94300A5E
:1014F0006FE772E0CE0101960E941840BE016F5F57
:101500007F4FC8010E94BE40D82ECE0101960E9496
:10151000903EDD2031F0B7018EE695E00E94C40BCD
:1015200018C063E772E0CE0101960E941840BE0128
:101530006F5F7F4FC8010E94BE40182FCE010196F9
:101540000E94903E112329F0B70187E795E00E94A1
:101550008B0726960FB6F894DEBF0FBECDBFDF9186
:10156000CF911F910F91FF90EF90DF900895AF9270
:10157000BF92CF92DF92EF92FF920F931F93CF9380
:10158000DF93CDB7DEB7E0970FB6F894DEBF0FBE9E
:10159000CDBF5C01CDA2DEA2EFA2F8A609A71AA7D3
:1015A0002BA740E060E00E946F218DA19EA164E620
:1015B00070E00E947E434AE0BC01CE0101960E9489
:1015C0009A3F4AE06FA1CE0107960E946D3F4AE024
:1015D00068A5CE0143960E946D3FBE016D5E7F4FB0
:1015E000CE010D960E944C3F6BEB73E0CE010D9641
:1015F0000E947440BE01695F7F4F0E9461406BEBA7
:1016000073E00E947440BE016F5F7F4F0E94614093
:10161000BC01CE014F960E944C3FCE010D960E9418
:10162000903ECE0143960E94903ECE0107960E94C6
:10163000903ECE0101960E94903EBE01615E7F4FBA
:10164000C5010E94F63840E068E0C5010E946F21A4
:101650004AE06BA5CE0101960E946D3F4AE06AA563
:10166000CE0107960E946D3F4AE069A5CE014396E0
:101670000E946D3FBE016D5E7F4FCE010D960E94B0
:101680004C3F63E872E0CE010D960E947440BE01AB
:10169000695F7F4F0E94614063E872E00E9474407E
:1016A000BE016F5F7F4F0E946140BC01CE01499631
:1016B0000E944C3FCE010D960E94903ECE01439673
:1016C0000E94903ECE0107960E94903ECE01019668
:1016D0000E94903EBE01675E7F4FC5010E94F638B2
:1016E000CE0149960E94903ECE014F960E94903EB8
:1016F000E0960FB6F894DEBF0FBECDBFDF91CF915D
:101700001F910F91FF90EF90DF90CF90BF90AF901F
:101710000895AF92BF92CF92DF92EF92FF920F9314
:101720001F93CF93DF93CDB7DEB72C970FB6F89406
:10173000DEBF0FBECDBF5C010E9461216FEA75E084
:10174000CE0101960E94F331C980DA80EB80FC80E3
:101750000D811E812F81388549855A856B857C8551
:10176000C5010E94B70A2C960FB6F894DEBF0FBED3
:10177000CDBFDF91CF911F910F91FF90EF90DF9040
:10178000CF90BF90AF900895FF920F931F93CF9388
:10179000DF9300D000D0CDB7DEB78B0166EB73E0EE
:1017A000C80106960E94553F26E040E855E260E0F9
:1017B00070E088E19AE00E94943544E650E060E0F1
:1017C00070E088E19AE00E94B73A68E17AE0CE01E1
:1017D00001960E94BD3ABE016F5F7F4FC8010E9413
:1017E000353FCE0101960E94903EF801848195819B
:1017F0000C9791F5FF24F394F4866DEB73E08BE77F
:1018000099E00E944F396EEC73E08BE799E00E94FB
:101810004F3965ED73E08BE799E00E940439F801D8
:10182000648175814AE050E08BE799E00E94613A5B
:1018300064EE73E08BE799E00E940439B8018BE70E
:1018400099E00E943D396DEB73E08BE799E00E94CF
:101850004F39F801F48602C0F801148688E19AE055
:101860000E94F63526960FB6F894DEBF0FBECDBFA8
:10187000DF91CF911F910F91FF900895CF93DF9348
:10188000EC01862F688379835B834A833D832C83B5
:1018900061E00E94EA3361E08A810E94EA3361E0FC
:1018A0008C81DF91CF910C94EA330F931F93CF93E8
:1018B000DF93EC01042F122F662311F061E001C0C9
:1018C00060E088810E942334002311F061E001C0B0
:1018D00060E08A810E942334112311F061E001C08D
:1018E00060E08C81DF91CF911F910F910C94233494
:1018F00020E041E060E00C94550C20E040E061E025
:101900000C94550C21E040E060E00C94550C20E074
:1019100040E060E00C94550C8F929F92AF92BF9282
:10192000CF92DF92EF92FF920F931F93CF93DF93AB
:1019300000D000D0CDB7DEB76B0124E030E040E04E
:1019400050E0CE0101960E943141CE0101960E94E5
:1019500076414B015C01CE0101960E94903E26E04B
:1019600030E044E050E0B601CE0101960E943141E2
:10197000CE0101960E947641162FCE0101960E945B
:10198000903E28E030E046E050E0B601CE010196FE
:101990000E943141CE0101960E947641F62ECE0181
:1019A00001960E94903E2AE030E048E050E0B60107
:1019B000CE0101960E943141CE0101960E947641EE
:1019C000062FCE0101960E94903E2CE030E04AE0C6
:1019D00050E0B601CE0101960E943141CE01019640
:1019E0000E947641E62ECE0101960E94903E2EE0A6
:1019F00030E04CE050E0B601CE0101960E9431414A
:101A0000CE0101960E947641C62ECE0101960E941B
:101A1000903E2F2D412FB4018FEA95E00E94613155
:101A20006BEE73E08BE799E00E944F3926960FB674
:101A3000F894DEBF0FBECDBFDF91CF911F910F9104
:101A4000FF90EF90DF90CF90BF90AF909F908F90DE
:101A50000895EF92FF920F931F93CF93DF93CDB72B
:101A6000DEB7A4970FB6F894DEBF0FBECDBF8B01D3
:101A70007A016FEA75E0CE0101960E94F331698127
:101A80007A814AE0CE010D960E949A3F4AE06B812E
:101A9000CE0143960E946D3F4AE06C81CE014F9685
:101AA0000E946D3FBE01615E7F4FCE0149960E944C
:101AB0004C3F69E572E0CE0149960E947440BE0138
:101AC0006D5E7F4F0E94614069E572E00E94744044
:101AD000BE01635F7F4F0E946140BC01C8010E944C
:101AE000353FCE0149960E94903ECE014F960E940E
:101AF000903ECE0143960E94903ECE010D960E94EC
:101B0000903E4AE06F81CE010D960E946D3F4AE003
:101B10006E81CE0143960E946D3F4AE06D81CE01F9
:101B20004F960E946D3FBE01615E7F4FCE01499688
:101B30000E944C3F69E572E0CE0149960E947440D4
:101B4000BE016D5E7F4F0E94614069E572E00E94B8
:101B50007440BE01635F7F4F0E946140BC01C701BA
:101B60000E94353FCE0149960E94903ECE014F968D
:101B70000E94903ECE0143960E94903ECE010D966B
:101B80000E94903EA4960FB6F894DEBF0FBECDBF64
:101B9000DF91CF911F910F91FF90EF900895FF92E9
:101BA0000F931F93CF93DF93EB018B01F12CF8017F
:101BB00061918F0140E150E08BE799E00E94433A48
:101BC00063E872E08BE799E00E940439F394F5E052
:101BD000FF12EDCF40E150E06D818BE799E0DF919E
:101BE000CF911F910F91FF900C944A3A0F931F933E
:101BF000CF93DF9300D000D0CDB7DEB78C016CEF70
:101C000073E08BE799E00E9404396AE072E0C80152
:101C10000E94CF0D63E074E08BE799E00E940439E5
:101C200068E379E0CE0101960E940826BE016F5F4D
:101C30007F4F8BE799E00E94613969E074E08BE7A0
:101C400099E00E94043968E379E0CE0101960E9490
:101C50005026BE016F5F7F4F8BE799E00E9461398C
:101C600060E174E08BE799E00E94043968E379E071
:101C7000CE0101960E943826BE016F5F7F4F8BE731
:101C800099E00E9461396BE174E08BE799E00E9472
:101C9000043968E379E0CE0101960E942026BE0156
:101CA0006F5F7F4F8BE799E00E94613926960FB6F0
:101CB000F894DEBF0FBECDBFDF91CF911F910F9182
:101CC0000895CF92DF92EF92FF920F931F93CF93DD
:101CD000DF93CDB7DEB76E970FB6F894DEBF0FBEB9
:101CE000CDBF6C010EE420EC43E06AE0CE014996E2
:101CF0000E945D388B8D9C8DAD8DBE8DF6018283EB
:101D00009383A483B58380E99FE19783868365E20B
:101D100074E08BE799E00E944F3921E535E03A8382
:101D200029838091F6059091F705A091F805B0916F
:101D3000F9058B839C83AD83BE8338872F83809185
:101D4000FC059091FD05A091FE05B091FF058987E6
:101D50009A87AB87BC873E872D878091020690913A
:101D60000306A0910406B09105068F87988BA98B76
:101D7000BA8B3C8B2B8B40910806509109066091E1
:101D80000A0670910B064D8B5E8B6F8B788FCE01A0
:101D900001967C018E01095F1F4F9E01235F3F4F1B
:101DA000AE014D5E5F4F6AE072E088E399E00E9409
:101DB000BC25C6010E94F60D6E960FB6F894DEBFE4
:101DC0000FBECDBFDF91CF911F910F91FF90EF908C
:101DD000DF90CF900895CF92DF92EF92FF920F9312
:101DE0001F93CF93DF93CDB7DEB72C970FB6F89440
:101DF000DEBF0FBECDBF8C0164EB74E0CE01019657
:101E00000E94FE3E085F1F4FBE016F5F7F4FC801FB
:101E10000E942D417C01CE0101960E94903EF7FC6C
:101E20002EC09701265F3F4FA7014A5F5F4FB80161
:101E3000CE0107960E943141BE01695F7F4FCE01FE
:101E400001960E944C3FBE016F5F7F4F84E995E091
:101E50000E942C07CE0101960E94903E60EF72E036
:101E60008BE799E00E94D138BE01695F7F4F8BE715
:101E700099E00E943D39CE0107960E94903E68EE9F
:101E800072E0CE0101960E941840BE016F5F7F4F45
:101E9000C8010E942D417C01CE0101960E94903E16
:101EA000F7FC31C06EE374E0CE0101960E94FE3E65
:101EB000A701BE016F5F7F4FC8010E9411416C01F5
:101EC000CE0101960E94903EA701495F5F4F9601A7
:101ED000B801CE0107960E943141BE01695F7F4F74
:101EE000CE0101960E944C3FBE016F5F7F4F84E997
:101EF00095E00E947D07CE0101960E94903ECE01A2
:101F000007960E94903E60E474E0CE0101960E9424
:101F1000FE3EBE016F5F7F4FC8010E942D417C01D4
:101F2000CE0101960E94903EF7FC31C06EE374E052
:101F3000CE0101960E94FE3EA701BE016F5F7F4F5A
:101F4000C8010E9411416C01CE0101960E94903E91
:101F5000A701485F5F4F9601B801CE0107960E9426
:101F60003141BE01695F7F4FCE0101960E944C3F17
:101F7000BE016F5F7F4F84E995E00E948807CE0124
:101F800001960E94903ECE0107960E94903E6EED13
:101F900072E0CE0101960E941840BE016F5F7F4F34
:101FA000C8010E942D417C01CE0101960E94903E05
:101FB000F7FC3EC06EE374E0CE0101960E94FE3E47
:101FC000A701BE016F5F7F4FC8010E9411416C01E4
:101FD000CE0101960E94903EA701475F5F4F960198
:101FE000B801CE0107960E94314162ED72E08BE7A5
:101FF00099E00E94D138BE01695F7F4F8BE799E07D
:102000000E943D39BE01695F7F4FCE0101960E945B
:102010004C3FBE016F5F7F4F86EA95E00E948C0CBB
:10202000CE0101960E94903ECE0107960E94903EFE
:102030002C960FB6F894DEBF0FBECDBFDF91CF91C7
:102040001F910F91FF90EF90DF90CF900895EF9246
:10205000FF920F931F93CF93DF9300D000D0CDB7A3
:10206000DEB78C0164E872E08BE799E00E942B39BF
:10207000085F1F4FB8018BE799E00E943D390E942D
:1020800019134AE050E0BC018BE799E00E941E3A28
:1020900069E474E0CE0101960E94FE3EBE016F5FCE
:1020A0007F4FC8010E942D417C01CE0101960E9404
:1020B000903EF7FE16C066E574E0CE0101960E94E0
:1020C000FE3EBE016F5F7F4FC8010E942D418C0113
:1020D000CE0101960E94903E17FD06C081E090E07F
:1020E00005C080E090E002C08FEF9FEF26960FB60C
:1020F000F894DEBF0FBECDBFDF91CF911F910F913E
:10210000FF90EF9008950F9300E020E040E060E042
:102110008CE096E00E945D3801EB20EC43E06AE041
:1021200086E096E00E945D380BE021E048EC6AE032
:1021300080E096E00E945D380AEF28EC43E06AE018
:102140008AEF95E00E945D3800E020EE4FEF6FEFE0
:1021500084EF95E00E945D380F9108954F925F9251
:102160006F927F928F929F92AF92BF92CF92DF92A7
:10217000EF92FF920F931F93CF93DF9300D000D085
:10218000CDB7DEB75C018B010E94D3326B017C01BD
:1021900088EE93E0089F2001099F500C189F500C77
:1021A0001124612C712C00E010E081E5882E85E07F
:1021B000982E0E94D3326C197D098E099F096415EF
:1021C00075058605970550F08BEB95E00E94E32797
:1021D00081E00130110551F180E028C0F501468110
:1021E00057819A82898282819381A481B5818B8370
:1021F0009C83AD83BE83BE016F5F7F4F8BEB95E009
:102200000E9486278C0164E772E08BE799E00E94C8
:1022100004390E9419134AE050E0BC018BE799E0B1
:102220000E941E3A0130110579F2C3CF26960FB6EF
:10223000F894DEBF0FBECDBFDF91CF911F910F91FC
:10224000FF90EF90DF90CF90BF90AF909F908F90D6
:102250007F906F905F904F9008954F925F926F9232
:102260007F928F929F92AF92BF92CF92DF92EF9226
:10227000FF920F931F93CF93DF9300D000D0CDB781
:10228000DEB78C017B010E94D3322B013C01B701E8
:10229000C8010E94AE10882309F494C088EE93E030
:1022A000E89E6001E99ED00CF89ED00C1124E12C30
:1022B000F12CA12CB12C91E5892E95E0992E0E944C
:1022C000D33264197509860997096C157D058E0549
:1022D0009F0508F06BC0F801468157819A82898278
:1022E00082819381A481B5818B839C83AD83BE83DE
:1022F000BE016F5F7F4F8BEB95E00E9486275C01EC
:1023000081309105E1F66FE574E08BEB95E00E947A
:10231000043964E975E0CE0101960E94BE06BE0153
:102320006F5F7F4F8BEB95E00E94F638CE010196F0
:102330000E94903E6BE774E08BEB95E00E944F3972
:1023400065E874E08BEB95E00E940439B8018BEBF3
:1023500095E00E9461396CE874E08BEB95E00E9497
:102360004F398BEB95E00E941739780188E0E80E31
:10237000F11C8BEB95E00E9424288823B9F08BEBAD
:1023800095E00E94C026892BA1F36BEB75E0CE018E
:1023900001960E94BD3ABE016F5F7F4FC7010E9448
:1023A000353FCE0101960E94903EE3CF8BEB95E046
:1023B0000E94E327C8010E94EB0E81E0AA94AB289B
:1023C00009F080E026960FB6F894DEBF0FBECDBFB1
:1023D000DF91CF911F910F91FF90EF90DF90CF9001
:1023E000BF90AF909F908F907F906F905F904F9035
:1023F00008952F923F924F925F926F927F928F92A9
:102400009F92AF92BF92CF92DF92EF92FF920F9383
:102410001F93CF93DF93CDB7DEB764970FB6F894D1
:10242000DEBF0FBECDBF3C012B011A013C8B2B8BB5
:102430006FE374E0CE010D960E94FE3EF3014681EB
:10244000578181E595E09A83898382819381A48174
:10245000B5818B839C83AD83BE83BE016F5F7F4F4D
:102460008BEB95E00E948627892B09F4C2C06EE9A8
:1024700074E0CE0101960E94FE3EB201CE010196AB
:102480000E94614066EA74E00E947440B1010E94BB
:1024900061406DEA74E00E9474406B897C890E94FF
:1024A000614063EB74E00E947440B8010E94614097
:1024B0006BEB74E00E947440B7010E94614062ECD3
:1024C00074E00E947440B6010E94614069EC74E0BF
:1024D0000E947440B5010E9461406FEC74E00E945C
:1024E0007440B4010E946140BC01CE010D960E946F
:1024F000353FCE0101960E94903E6EEB72E08BEB71
:1025000095E00E94D138BE01635F7F4F8BEB95E071
:102510000E94F63864EB72E08BEB95E00E942B3959
:102520006DEA72E08BEB95E00E94D138B3018BEB42
:1025300095E00E9461396BE972E08BEB95E00E94B7
:102540002B398BEB95E00E941739F8E06F0E711C68
:102550008BEB95E00E942428882309F43FC08BEB85
:1025600095E00E94C026892B99F36FE374E0CE01B9
:1025700007960E94FE3E4DE06BEB75E0CE010196A2
:102580000E94D73ABE016F5F7F4FCE0107960E942F
:10259000353FCE0101960E94903E8B859C85019728
:1025A00051F760E070E0CE0107960E940F418A303B
:1025B00011F76BEB75E0CE0101960E94BD3ABE01AA
:1025C0006F5F7F4FC3010E94353FCE0101960E948D
:1025D000903ECE0107960E94903EBACF8BEB95E0DD
:1025E0000E94E3278BEB95E00E940A2701E010E0B0
:1025F00002C00FEF1FEFCE010D960E94903EC80162
:1026000064960FB6F894DEBF0FBECDBFDF91CF91B9
:102610001F910F91FF90EF90DF90CF90BF90AF9000
:102620009F908F907F906F905F904F903F902F90F2
:102630000895CF93DF931F921F92CDB7DEB780919D
:10264000820B9091830B9E012F5F3F4F009719F4EF
:1026500028583B4002C0281B390B3A8329838981C3
:102660009A810F900F90DF91CF910895FC01CB01DB
:1026700016821782108611864FEF5FEFBA014287EC
:102680005387648775879787868708950F931F936D
:10269000CF93DF93EC018B0142E350E060E070E008
:1026A0008E859F850E94B73AA80160E070E026E021
:1026B0008E859F85DF91CF911F910F910C9494355A
:1026C0008F929F92AF92BF92DF92EF92FF920F9301
:1026D0001F93CF93DF93EC014A015B01D22E8E85CD
:1026E0009F85DC01ED91FC910190F081E02D6FEE72
:1026F00019958E859F85DC01ED91FC910190F0810B
:10270000E02D61E01995AE85BF85ED91FC911197A3
:102710006B2D7727882799270190F081E02DCD0137
:102720001995AE85BF85ED91FC911197B50188276C
:1027300099270190F081E02DCD011995AE85BF85D7
:10274000ED91FC91119799278B2D7A2D692D019090
:10275000F081E02DCD0119958E859F85DC01ED91ED
:10276000FC910190F081E02D682D19958E859F8553
:10277000DC01ED91FC910190F081E02D6D2D19951A
:102780008E859F85A12EBB24DC01ED91FC910190EB
:10279000F081E02D6A2D19958E859F85DC01ED91E4
:1027A000FC910190F081E02D602F1995A00EB11CD5
:1027B000AD0CB11CD12C025011098D2C912C8E85A1
:1027C0009F858016910688F48E0C9F1CDC01ED918C
:1027D000FC910190F081E02DD4016C911995F401E8
:1027E0008081A80EB11CD394E8CFDC01ED91FC915F
:1027F0000190F081E02D6B2D19958E859F85DC0170
:10280000ED91FC910190F081E02D6A2DDF91CF9147
:102810001F910F91FF90EF90DF90BF90AF909F902E
:102820008F9019949F92AF92BF92CF92DF92EF92C6
:10283000FF920F931F93CF93DF93CDB7DEB76497CB
:102840000FB6F894DEBF0FBECDBF6C017B015A01FD
:1028500000E010E0912CD6011E968D919C911F975F
:10286000DC01ED91FC910480F581E02D1995892B17
:1028700069F461E070E080E090E00E9402330F5F55
:102880001F4F0A151B0538F38FEF49C0F6018685E7
:102890009785DC01ED91FC910680F781E02D19957B
:1028A000E1E0F0E0EC0FFD1FE90DF11D80839110D8
:1028B00003C089818F3E79F69394B8E0B91558F634
:1028C00089818F3E59F58A81813041F56F81288554
:1028D00030E0322F22278985282B492D50E0C9016D
:1028E00008968417950708F0B6CF22503109F701F2
:1028F000608380E0482F50E04217530768F4F701E7
:10290000E40FF51FAAE0B0E0AC0FBD1FA40FB51F88
:102910009C9191838F5FEECF822F01C08EEF6496E2
:102920000FB6F894DEBF0FBECDBFDF91CF911F91E0
:102930000F91FF90EF90DF90CF90BF90AF909F905E
:102940000895AF92BF92CF92DF92EF92FF920F93D2
:102950001F93CF93DF93CDB7DEB764970FB6F8948C
:10296000DEBF0FBECDBF6C01CE0101965C0184E1DC
:10297000F50111928A95E9F783E18983F601868151
:102980009781208531853A832B839C838D83428573
:10299000538564857585750107E010E021E0C60167
:1029A0000E94601348E853E1B501C6010E94121469
:1029B000813031F48981873019F481E09A81911155
:1029C00080E064960FB6F894DEBF0FBECDBFDF91F6
:1029D000CF911F910F91FF90EF90DF90CF90BF901C
:1029E000AF900895AF92BF92CF92DF92EF92FF9295
:1029F0000F931F93CF93DF93CDB7DEB764970FB6D6
:102A0000F894DEBF0FBECDBF6C01CE0101965C0114
:102A100084E1F50111928A95E9F781E08983F60155
:102A20004285538564857585750103E010E021E0DA
:102A3000C6010E94601348E853E1B501C6010E9437
:102A40001214813019F08981873011F48A8101C014
:102A50008FEF64960FB6F894DEBF0FBECDBFDF9147
:102A6000CF911F910F91FF90EF90DF90CF90BF908B
:102A7000AF900895AF92BF92CF92DF92EF92FF9204
:102A80000F931F93CF93DF93CDB7DEB764970FB645
:102A9000F894DEBF0FBECDBF6C01CE0101965C0184
:102AA00084E1F50111928A95E9F782E089836A83CE
:102AB000F6014285538564857585750106E110E050
:102AC00021E0C6010E94601348E853E1B501C60148
:102AD0000E941214813019F08981873011F48A81A3
:102AE00001C08FEF64960FB6F894DEBF0FBECDBF66
:102AF000DF91CF911F910F91FF90EF90DF90CF90DA
:102B0000BF90AF900895AF92BF92CF92DF92EF92B5
:102B1000FF920F931F93CF93DF93CDB7DEB76497E8
:102B20000FB6F894DEBF0FBECDBF6C018FEF9FEFE5
:102B3000F6019183808393838283CE0101965C01A9
:102B400084E1F50111928A95E9F78BE1898381E0AF
:102B50008A8383EA8E83F601428553856485758571
:102B6000750106E110E021E0C6010E94601348E80B
:102B700053E1B501C6010E941214813019F0898118
:102B8000873099F48B8190E0982F88272C81822BB5
:102B9000F601918380838D8190E0982F88272E8184
:102BA000822B938382838A8101C08FEF64960FB654
:102BB000F894DEBF0FBECDBFDF91CF911F910F9173
:102BC000FF90EF90DF90CF90BF90AF900895CB0132
:102BD0000C94D846CB01642F0C94E04680914306B8
:102BE00090E020914406821B9109089520914406AB
:102BF00080914306281750F4E22FF0E0EB5BF94F89
:102C0000808190E02F5F2093440608958FEF9FEF1F
:102C10000895E091440680914306E81730F4F0E00F
:102C2000EB5BF94F808190E008958FEF9FEF08955F
:102C30000895CF92DF92EF92FF920F931F93CF935D
:102C4000DF937C01CB018A0120911F06222389F0AA
:102C5000EB016B01C40ED51ECC15DD0569F0699141
:102C6000D701ED91FC910190F081E02DC7011995FC
:102C7000F3CF642F0E947A17C801DF91CF911F9183
:102C80000F91FF90EF90DF90CF900895CF93DF9357
:102C90001F92CDB7DEB7698320911F062223D1F0A2
:102CA00020912006203240F021E030E0FC01338307
:102CB000228380E090E015C080912106E82FF0E0AB
:102CC000EE5DF94F998190838F5F80932106809309
:102CD000200605C061E0CE0101960E947A1781E0CE
:102CE00090E00F90DF91CF910895FC011382128242
:102CF00048EE53E060E070E0448355836683778359
:102D000089ED94E091838083089510924406109297
:102D1000430610922106109220060C94C516862FA9
:102D2000413208F040E265E476E00E94E31610923A
:102D3000440680934306089521E00C948F1681E0A9
:102D400080931F066093420610922106109220067F
:102D500008950C949F160F93062F21E040912006B2
:102D600062E276E0809142060E94271710922106C7
:102D70001092200610921F060F91089561E00C94A6
:102D8000AB1683E196E00C9475161092D20681E0A2
:102D90008093D0061092CF0661E084E10E94233434
:102DA00061E085E10E942334E9EBF0E080818E7FD1
:102DB000808380818D7F808388E48093B80085E460
:102DC0008093BC000895413208F03FC09091D20634
:102DD0009111FCCF91E09093D2062093D0062FEF73
:102DE000209365061092AA06240F2093A9069093BB
:102DF000D1069091D106880F892B8093D1068091BE
:102E0000CF06813041F41092CF068091D106809395
:102E1000BB0085EC01C085EE8093BC008091D2069A
:102E20008130E1F38091AA06841710F44091AA063C
:102E30002BEA36E0FB01D9018A2F821B841718F494
:102E40008D918193F9CF842F089580E008950F9399
:102E5000413208F046C09091D2069111FCCF92E029
:102E60009093D2060093D0069FEF90936506109240
:102E7000AA064093A906FB016BEA76E0DB019A2FD4
:102E8000961B941718F491919D93F9CF1092D10647
:102E90009091D106880F892B8093D1068091CF061F
:102EA000813041F41092CF068091D1068093BB000F
:102EB00085EC01C085EE8093BC00222321F0809137
:102EC000D2068230E1F3809165068F3F61F08091F8
:102ED0006506803251F080916506803341F483E0CD
:102EE00007C081E005C080E003C082E001C084E04B
:102EF0000F910895613298F42091D206243089F41C
:102F000060938706FC0189E896E0DC012A2F281BE4
:102F1000261718F421912D93F9CF80E0089581E0D0
:102F2000089582E0089585ED8093BC008091BC00F7
:102F300084FDFCCF1092D206089585EC8093BC00EE
:102F40001092D20608951F920F920FB60F9211247D
:102F50000BB60F922F933F934F935F936F937F9393
:102F60008F939F93AF93BF93EF93FF938091B9009B
:102F7000887F803609F49CC068F5883209F45BC00C
:102F800090F4803109F454C038F4882309F4F5C072
:102F9000883009F44DC0F5C0883109F44CC0803246
:102FA00009F45DC0EEC0803409F468C048F4803391
:102FB00009F455C0883309F0E4C080936506A8C0C1
:102FC000803509F44FC0883509F45DC0883409F0B4
:102FD000D8C0D5C0883909F4C6C0A8F4883709F428
:102FE00067C038F4883609F463C0803709F460C0DC
:102FF000C8C0883809F4B7C0803909F45FC0803888
:1030000009F0BFC05BC0803B09F485C038F4803A4A
:1030100009F466C0883A09F47EC0B3C0803C09F464
:10302000A6C0883C09F4A3C0883B09F489C0A9C0A4
:103030008091D10610C09091AA068091A906981798
:1030400070F5E091AA0681E08E0F8093AA06F0E069
:10305000E555F94F80818093BB0085EC85C0809356
:1030600065068DC0E091AA0681E08E0F8093AA06C6
:103070008091BB00F0E0E555F94F80839091AA065E
:103080008091A9066DC0E091AA0681E08E0F809321
:10309000AA068091BB00F0E0E555F94F808380914E
:1030A000D00681116CC081E08093CF0684EA60C0B5
:1030B00083E08093D20610926606CFCF8091660699
:1030C000803208F050C0E091660681E08E0F809358
:1030D00066068091BB00F0E0E959F94F8083BDCFCF
:1030E00080916606803230F4E0916606F0E0E9599E
:1030F000F94F10820E9493176091660670E0E0918C
:10310000CB06F091CC0687E696E0199510926606FC
:103110000E949D1736C084E08093D20610928806E4
:1031200010928706E091CD06F091CE061995809118
:103130008706811105C081E0809387061092890679
:10314000E091880681E08E0F80938806F0E0E757D3
:10315000F94F80818093BB0090918806809187060B
:10316000981708F47ACF85E88093BC000AC085ECF4
:103170008093BC001092D20604C0109265060E9493
:103180009317FF91EF91BF91AF919F918F917F9195
:103190006F915F914F913F912F910F900BBE0F90C8
:1031A0000FBE0F901F9018951092D8061092D90656
:1031B0001092DC061092DE0682E090E0A0E0B0E023
:1031C0008093DF069093E006A093E106B093E206B9
:1031D0001092F606109200071092FF0689EE94E016
:1031E0009093FE068093FD061092020708959FB704
:1031F000F89420912A0980912809213019F48DBB77
:103200009FBF08958FBF089520912A09222399F026
:103210003FB7F89420912A09213059F42DB3209317
:1032200028094DB320912909209524232DBB3FBFA8
:1032300002C0309328098CBD9DBD08958EBD00004D
:103240000DB407FEFDCF8EB508958FEF0C941E19B7
:1032500061E0FC0184810E94233480911C07882353
:1032600039F010921C0780912A0981110C94F718EB
:103270000895CF93DF93EC0180911C07811109C061
:1032800081E080931C0780911D0790911E070E948A
:10329000041960E08C81DF91CF910C942334CF939B
:1032A000DF93EC018E81882389F08F8198859C01C2
:1032B0002F5F3F4F38872F838230924018F40E944F
:1032C0002519F3CFCE010E9428191E82DF91CF91DC
:1032D00008950F931F93CF93DF93EB010E94D33296
:1032E0008B010E9425198F3F49F00E94D332601B49
:1032F000710B6C177D07A8F380E001C081E0DF91BE
:10330000CF911F910F910895CF92DF92FF920F936B
:103310001F93CF93DF9300D01F92CDB7DEB76C0120
:10332000F62E29833A834B835C830E944F19C60192
:103330000E9439196CE271E0C6010E9469198F2D53
:1033400080640E941E1908E110E05C814B813A8183
:103350002981DA01C901002E04C0B695A795979579
:1033600087950A94D2F729833A834B835C830E9422
:103370001E190850110929813A814B815C81083F4F
:103380008FEF180731F7FF2029F0E8E0FE1621F053
:103390008FEF03C085E901C087E80E941E1910E085
:1033A0000E942519F601828787FF04C01F3F11F094
:1033B0001F5FF6CF0F900F900F900F90DF91CF917E
:1033C0001F910F91FF90DF90CF9008950F931F935F
:1033D000CF93DF93EC010E94D3328B010E94251919
:1033E0008A878F3F49F40E94D332601B710B6D3284
:1033F0007140A0F38FE003C08E3F39F08DE08D83E4
:10340000CE010E94281980E001C081E0DF91CF91B8
:103410001F910F910895CF92DF92EF92FF920F9339
:103420001F93CF93DF93EC0169010115110509F496
:1034300062C0C801820F931F8130924008F05DC0C6
:103440008E81882371F088819981AA81BB81481778
:1034500059076A077B0729F48F819885C816D90612
:1034600010F5488359836A837B838B85833039F0D9
:1034700039E0440F551F661F771F3A95D1F79A011F
:10348000AB0161E1CE010E948419882319F083E029
:103490008D8333C0CE010E94E619882371F118860E
:1034A0001F8281E08E838F8198858C159D0540F465
:1034B0000E9425198F819885019698878F83F3CF75
:1034C0006701E00EF11ECE14DF0431F00E942519D1
:1034D000F60181936F01F7CF8F819885800F911F3F
:1034E00098878F832985222319F08115924018F03F
:1034F000CE010E944F1981E004C0CE010E9428191C
:1035000080E0DF91CF911F910F91FF90EF90DF90BE
:10351000CF900895EF92FF920F931F93790100E0EF
:1035200012E020E030E00E940B1A1F910F91FF90F3
:10353000EF900895CF92DF92EF92FF920F931F9337
:10354000CF93DF931F921F92CDB7DEB78C01862FEA
:1035500049835A830E941E194981C42E5A81D52E4F
:10356000E12CF12CF60181916F010E941E19FFEFF1
:10357000EF1AFF0AE11482E0F806A1F78FEF0E942C
:103580001E198FEF0E941E190E942519F8018287CB
:103590008F71853039F081E18583C8010E94281937
:1035A00080E001C081E00F900F90DF91CF911F91DB
:1035B0000F91FF90EF90DF90CF9008950F931F939E
:1035C000CF93DF93EC018901411551056105710528
:1035D00011F482E132C08B85833039F089E0440FE9
:1035E000551F661F771F8A95D1F79A01AB0168E1D5
:1035F000CE010E948419882311F084E01EC0A80126
:103600006EEFCE010E949A1A8823C1F068E572E03D
:10361000CE010E946919811102C085E10EC020E02F
:1036200030E0A9016DE0CE010E948419811104C02F
:103630000E942519882339F084E18D83CE010E94F0
:10364000281980E004C0CE010E94281981E0DF9192
:10365000CF911F910F91089580E580931D071092DF
:103660001E070895CF93DF93EC019C012A5F3F4F23
:1036700041E050E060E070E08B8D9C8D0E94A31FC4
:103680008823A1F04F89588D698D7A8D452B462B63
:10369000472B71F44E815F81688579854F8B588FF8
:1036A000698F7A8F8C8180688C8302C080E001C032
:1036B00081E0DF91CF910895CF93DF93EC01462F06
:1036C0006E857F85888999890E94431E882341F0F1
:1036D0008A8920E2829FC0011124885D984F02C030
:1036E00080E090E0DF91CF9108954F925F926F92CA
:1036F0007F92AF92BF92CF92DF92EF92FF920F93A1
:103700001F93CF93DF93EC016A017B012D8122236C
:1037100009F457C08B899C89AD89BE8984179507A8
:10372000A607B70708F44DC04EC08A859B85AC85B7
:10373000BD85EB8DFC8DE585F0E03996AC01BD01D2
:1037400041505109610971090E2E04C076956795A3
:10375000579547950A94D2F79701860101501109B0
:103760002109310904C03695279517950795EA95E3
:10377000D2F70417150726073707B0F58F89988DFC
:10378000A98DBA8D8E839F83A887B98728013901B7
:103790005E0186E0A80EB11C41145104610471045D
:1037A00061F14E815F816885798595018B8D9C8D56
:1037B0000E947E1E91E0491A51086108710881112A
:1037C000EBCF80E01FC02230C1F0C114D104E1046E
:1037D000F10409F0AACF1E821F82188619861A8664
:1037E0001B861C861D860DC0892B8A2B8B2B31F2E4
:1037F000041B150B260B370BC9CFCA86DB86EC865C
:10380000FD8681E0DF91CF911F910F91FF90EF90A6
:10381000DF90CF90BF90AF907F906F905F904F9070
:1038200008950F931F93CF93DF93EC018D8188232D
:10383000C9F18C8187FF30C061E0CE010E945C1B22
:103840008C01009779F18D81823048F44B895C8935
:103850006D897E89F801448F558F668F778F4F89E8
:10386000588D698D7A8DF801538F428F758B648BDB
:10387000E0911F07F0912007309759F0B8016A5E78
:103880007F4FC80148961995F801808D918D938BD3
:10389000828B8C818F778C83DF91CF911F910F91D9
:1038A0000C94081E80E0DF91CF911F910F91089535
:1038B0002F923F924F925F926F927F928F929F9240
:1038C000AF92BF92CF92DF92EF92FF920F931F932E
:1038D000CF93DF9300D01F921F92CDB7DEB78C013C
:1038E0007B013A01DC0115968C9115978130C9F462
:1038F00014968C9181FF15C082FF1BC0F80143898B
:1039000054896589768982859385A485B5858417D0
:103910009507A607B70769F0C8010E94751B8111BA
:1039200008C081E090E0F8019383828380E090E01A
:1039300046C1630180C0D8015B968D919C915C97D4
:10394000FC01F481F150B501A40129E07695679559
:10395000579547952A95D1F7F423FD8321E09222CC
:10396000FF2309F474C080E092E088199909560198
:103970008C159D0508F45C01D8015B96ED91FC91D6
:103980005C9716962D903D904D905C901997B2E003
:103990002B1A310841085108058404C0220C331C3D
:1039A000441C551C0A94D2F786859785A089B18955
:1039B000280E391E4A1E5B1EED812E0E311C411C45
:1039C000511CA114F2E0BF0609F088C080911002DA
:1039D00090911102A0911202B091130282159305E9
:1039E000A405B50559F48FEF9FEFDC018093100219
:1039F00090931102A0931202B09313029701B201A7
:103A0000A10180912607909127070E94DE1A882342
:103A100009F487CF9EEFF91ACA18DB08F8018285EE
:103A20009385A485B5858A0D9B1DA11DB11D828737
:103A30009387A487B587D8011A968D909D90AD90F5
:103A4000BC901D97C114D10409F075CF8AC08114B0
:103A5000910409F088CF16964D915D916D917C91FE
:103A60001997411551056105710559F457968D91C6
:103A70009D910D90BC91A02D0097A105B10541F538
:103A800021C09E012F5F3F4F0E947E1E882309F4B4
:103A90004ECF89819A81AB81BC81F801238D348D11
:103AA000F9012789203129F448EF5FEF60E070E0E9
:103AB00004C048EF5FEF6FEF7FE084179507A6071C
:103AC000B70730F0C8010E94321B81114CCF29CFBB
:103AD000F80186839783A087B18745CF811491042D
:103AE00029F5D8011A964D915D916D917C911D97A4
:103AF00053968D919D910D90BC91A02D481759071B
:103B00006A077B0798F00E94081E882309F409CFF2
:103B1000209210023092110240921202509213022F
:103B20008091250781608093250708C041E0C2018C
:103B3000B1010E94431E882309F4F3CEC401885DBD
:103B4000984FD7019C012A0D3B1DFC01E217F3079A
:103B500019F04D914193FACFE81BF90BEE0EFF1EC1
:103B60005BCF53968D919D910D90BC91A02DF80146
:103B7000248188159905AA05BB0538F4838A948A9F
:103B8000A58AB68A206824830CC080911F07909173
:103B90002007892B31F06114710419F02068F801B5
:103BA0002483D80114968C9183FD02C0C30107C001
:103BB000C8010E94111C882309F4B3CEF7CF0F90DF
:103BC0000F900F900F900F90DF91CF911F910F9159
:103BD000FF90EF90DF90CF90BF90AF909F908F902D
:103BE0007F906F905F904F903F902F900895CF936C
:103BF000DF931F92CDB7DEB7698341E050E0BE018D
:103C00006F5F7F4F0E94581C0F90DF91CF910895F6
:103C100080912507882399F140911002509111025B
:103C2000609112027091130228E237E0809126071A
:103C3000909127070E94DE1A882319F140912107ED
:103C40005091220760912307709124074115510577
:103C50006105710591F028E237E080912607909187
:103C600027070E94DE1A882361F010922107109224
:103C7000220710922307109224071092250781E053
:103C8000089580E00895CF92DF92EF92FF92CF9354
:103C90006B017C01C42F8091100290911102A091C0
:103CA0001202B09113028C159D05AE05BF05D1F02F
:103CB0000E94081E811102C080E01AC028E237E08D
:103CC000B701A60180912607909127070E948A1AC2
:103CD000882391F3C0921002D0921102E092120256
:103CE000F0921302809125078C2B8093250781E0A9
:103CF000CF91FF90EF90DF90CF9008958F929F9299
:103D0000AF92BF92CF92DF92EF92FF920F931F93E9
:103D1000CF93DF938C016A017B01E901FC0181856E
:103D20009285A385B4850196A11DB11D84179507C1
:103D3000A607B70710F480E058C0F80143895489FA
:103D4000658976898789803129F4BB27AF2D9E2D1F
:103D50008D2D09C0D701C60127E0B695A795979587
:103D600087952A95D1F74C015D01840E951EA61EFC
:103D7000B71EC501B4018090100290901102A0906E
:103D80001202B0901302681579058A059B0589F423
:103D9000F8018789803199F4DD24EE24FF24F601AF
:103DA000EE0FFF1FE85DF84F80819181A0E0B0E049
:103DB00017C040E00E94431E8111EACFBCCFE894B7
:103DC000C7F8DD24EE24FF24F601EE0FFF1FEE0FEF
:103DD000FF1FE85DF84F80819181A281B381BF70A0
:103DE00088839983AA83BB8381E0DF91CF911F9160
:103DF0000F91FF90EF90DF90CF90BF90AF909F908A
:103E00008F9008954F925F926F927F928F929F92C0
:103E1000AF92BF92CF92DF92EF92FF920F931F93D8
:103E2000CF93DF93EC016A017B0128013901423015
:103E300051056105710508F474C049855A856B8583
:103E40007C854F5F5F4F6F4F7F4F4C155D056E0553
:103E50007F0508F466C08B889C88AD88BE888F89F2
:103E6000803129F477276F2D5E2D4D2D09C0B701C4
:103E7000A601E7E07695679557954795EA95D1F7BE
:103E8000840E951EA61EB71E40911002509111027D
:103E9000609112027091130284169506A606B70669
:103EA00071F48F89803199F4DD24EE24FF24F6012A
:103EB000EE0FFF1FE85DF84F5182408218C040E0CE
:103EC000C501B4010E94431E8111EBCF2AC0E894C2
:103ED000C7F8DD24EE24FF24F601EE0FFF1FEE0FDE
:103EE000FF1FE85DF84F40825182628273828091A9
:103EF00025078160809325078A89823080F08D8133
:103F00009E81AF81B885880D991DAA1DBB1D809328
:103F1000210790932207A0932307B093240781E001
:103F200001C080E0DF91CF911F910F91FF90EF9042
:103F3000DF90CF90BF90AF909F908F907F906F90C9
:103F40005F904F9008952F923F924F925F926F92A1
:103F50007F929F92AF92BF92CF92DF92EF92FF92A9
:103F60000F931F93CF93DF93CDB7DEB760970FB654
:103F7000F894DEBF0FBECDBF5C014D875E876F87B3
:103F8000788B1901D9014D905D906D907C90411412
:103F900051046104710431F0BFEF4B1A5B0A6B0AE4
:103FA0007B0A10C0FC01408051806280738099249C
:103FB00093940D851E852F853889013011052105C3
:103FC000310509F0912CD50119962D913D914D9116
:103FD0005C911C972F5F3F4F4F4F5F4F29873A8768
:103FE0004B875C87730162011D821E821F821886C7
:103FF000F50181859285A385B4850D811E812F8170
:104000003885081719072A073B0708F056C0298585
:104010003A854B855C852C153D054E055F0550F4B2
:10402000A2E0CA2ED12CE12CF12CB2E04B2E512C67
:10403000612C712C9E012F5F3F4FB701A601C50176
:104040000E947E1E8823C9F149815A816B817C813F
:10405000D701C6010196A11DB11D452B462B472B4B
:1040600019F02C013D010FC0AC01BD0144195509E7
:10407000660977090D851E852F85388940175107F8
:104080006207730779F02D813E814F8158852F5F3C
:104090003F4F4F4F5F4F2D833E834F8358876C01B7
:1040A0007D01A6CF0FEF1FEF2FEF3FE0B701A60175
:1040B000C5010E94021F811118C080E041C0D701D4
:1040C000C6010197A109B1098D839E83AF83B8878B
:1040D00097018601AC01BD01C5010E94021F882322
:1040E00061F3CD80DE80EF80F8844C145D046E04B3
:1040F0007F0428F3D1014D915D916D917C91411523
:1041000051056105710599F4F10140825182628285
:1041100073829920A1F0FFEF4F1A5F0A6F0A7F0A9E
:10412000D5014D925D926D927C92139708C09301D8
:104130008201C5010E94021F8111E6CFBECF81E03E
:1041400060960FB6F894DEBF0FBECDBFDF91CF9162
:104150001F910F91FF90EF90DF90CF90BF90AF90A5
:104160009F907F906F905F904F903F902F90089519
:10417000CF93DF93EC0160E08E810E94233481E0D5
:1041800090E00E942A3361E08E810E94233481E016
:1041900090E00E942A3360E08E810E94233484E6FE
:1041A00090E0DF91CF910C942A33CF92DF92EF927F
:1041B000FF920F931F93CF93DF937C01C0E0D0E079
:1041C000C62ED12C87010C0F1D1F61E0F8018781DD
:1041D0000E94EA33B6010C2E02C0759567950A94C9
:1041E000E2F76170F80187810E9423342196C43080
:1041F000D10541F7C701DF91CF911F910F91FF903A
:10420000EF90DF90CF900C94B820CF92DF92EF9296
:10421000FF920F931F93CF93DF937C01C0E0D0E018
:10422000C62ED12C87010C0F1D1F61E0F80187817C
:104230000E94EA33B6010C2E02C0759567950A9468
:10424000E2F76170F80187810E9423342196C8301B
:10425000D10541F7C701DF91CF911F910F91FF90D9
:10426000EF90DF90CF900C94B8201F93CF93DF9303
:10427000EC01162F642F8C810E9423348D818F3F97
:1042800019F060E00E9423348F85612F84FF06C0FF
:10429000CE01DF91CF911F910C94052170E084E055
:1042A000759567958A95E1F7CE010E94D520612F1B
:1042B000CE01DF91CF911F910C94D52040E00C945A
:1042C000352161E00E945E2180ED97E00C942A3355
:1042D00062E00E945E2180ED97E00C942A33443026
:1042E00008F043E0FC012389421710F04FEF420F22
:1042F000FC01E40FF11D2489260F2068622F0C9425
:104300005E21FC016089262F2460208B6C600C9458
:104310005E21CF93DF93EC01423018F08F858860E7
:104320008F874B8B1C8A80E48D8B6E8B70E0605C7A
:104330007F4F6F8B222329F0413019F48F858460E1
:104340008F8780E593EC0E942A3360E08C810E9485
:10435000233460E08E810E9423348D818F3F19F0D9
:1043600060E00E9423346F8564FD1DC063E0CE01D0
:104370000E94D52084E991E10E942A3363E0CE01B6
:104380000E94D52084E991E10E942A3363E0CE01A6
:104390000E94D52086E990E00E942A3362E0CE0197
:1043A0000E94D52016C06062CE010E945E2184E981
:1043B00091E10E942A336F856062CE010E945E21E6
:1043C00086E990E00E942A336F856062CE010E94E8
:1043D0005E216F856062CE010E945E2184E0888B41
:1043E000CE010E948121CE010E94612182E0898B51
:1043F00066E0CE01DF91CF910C945E216F927F92A7
:104400008F92AF92CF92EF920F931F93CF93DF9340
:10441000CDB7DEB73C01162F842F5E854F853889D6
:104420009989F301848325830683E782C086A18668
:104430008286538744873587968761E00E94EA33F6
:10444000F30185818F3F19F061E00E94EA3361E05A
:10445000F30186810E94EA33112319F0F3011786D4
:1044600003C080E1F301878720E041E060E1C30100
:10447000DF91CF911F910F91EF90CF90AF908F90E0
:104480007F906F900C9489218F92AF92CF92EF9290
:104490000F93DC0113961C921E921297E1EFF4E049
:1044A000ED93FC931F921F921F921F928A2CAC2CAB
:1044B000CE2CE02E022F242F462F61E00E94FE21F9
:1044C0000F900F900F900F900F91EF90CF90AF90B3
:1044D0008F90089541E00E94352181E090E0089599
:1044E000CF93CFB7F89480912B09811116C061E06A
:1044F00085E30E94233461E085E30E94EA338CB5B2
:1045000080618CBD8CB580648CBD61E084E30E94C9
:10451000EA3361E083E30E94EA3380912B098F5FE5
:1045200080932B09CFBFCF9108950F9300E020E037
:1045300040E060E08CE299E00E945D380F910895C0
:10454000FB014281538164817581FC014283538365
:1045500064837583178216820895CF93FB0181913E
:104560008111FDCFFB0180E090E020E030E0CAE067
:104570006191662309F12430310564F56E3271F4DE
:104580008F3F910509F034F5DA01A20FB31F12969F
:104590008C932F5F3F4F80E090E0EACFDC01CA9F11
:1045A000C001CB9F900D1124772767FD7095605354
:1045B0007109860F971FDCCF8F3F910509F054F4E6
:1045C000243031053CF4FA01E20FF31F828381E0CD
:1045D00090E002C080E090E0CF9108950F9300E05A
:1045E00020E040E060E082E399E00E945D380F91B6
:1045F0000895AF92BF92CF92DF92EF92FF920F9306
:104600001F93CF93DF9300D0CDB7DEB76C017B0152
:104610000E94D332F601778366838601085F1F4FBD
:10462000B6016A5F7F4F42E050E0C8010E94C62891
:1046300081E090E09A83898342E050E0BE016F5FA1
:104640007F4FC8010E94C62880E091E09A83898349
:1046500042E050E0BE016F5F7F4FC8010E94C62854
:104660001A82198242E050E0BE016F5F7F4FC8019D
:104670000E94C62842E050E0BE016F5F7F4FC80134
:104680000E94C62842E050E0BE016F5F7F4FC80124
:104690000E94C6286701F6018081882311F1F70185
:1046A0006F018191811115C05601AE18BF081A140F
:1046B0001B0494F4AB8241E050E0BE016D5F7F4F7C
:1046C000C8010E94C628A501B701C8010E94C628DA
:1046D00003C08E3229F7E8CF7601FFEFEF1AFF0A09
:1046E000DACF1B8241E050E0BE016D5F7F4FC80111
:1046F0000E94C628E12CFF24F394FA82E98242E06A
:1047000050E0BE016F5F7F4FC8010E94C628FA8249
:10471000E98242E050E0BE016F5F7F4FC8010E9416
:10472000C62881E090E00F900F900F90DF91CF911D
:104730001F910F91FF90EF90DF90CF90BF90AF90BF
:1047400008954F925F926F927F928F929F92AF9255
:10475000BF92CF92DF92EF92FF920F931F93CF936E
:10476000DF93CDB7DEB763970FB6F894DEBF0FBE09
:10477000CDBF7C015B016A010E94D3322B013C0159
:104780008701085F1F4F4501A12CB12CC8010E9471
:1047900066291816190694F00E94D3326419750917
:1047A0008609970986169706A806B906D0F062E32F
:1047B00070E080E090E00E940233E8CFF701428190
:1047C000538164817581818D928DA38DB48D48173D
:1047D00059076A077B0741F4858D968DC59721F4AB
:1047E00006C08FEF9FEFF9C08EEF9FEFF6C0C801B4
:1047F0000E9479280C970CF4EEC04CE050E0BE010A
:104800006F5F7F4FC8010E9403298B819C8198278D
:10481000892798279A8B898BF701468157812981AF
:104820003A814217530711F497FD06C0C8010E9450
:1048300093288CEF9FEFD1C08F709270892B31F04D
:10484000C8010E9493288BEF9FEFC7C0AF80B88448
:10485000BA24AB24BA24A114B10419F0E12CF12C30
:1048600023C0C8010E9493288AEF9FEFB6C041E0A1
:1048700050E0BE01635F7F4FC8010E9403298D8510
:1048800081111BC08D858111F2CFC8010E94DA28E9
:10489000C8010E94DA28C8010E94DA28C8010E94D3
:1048A000DA28FFEFEF1AFF0A8D819E81982789276A
:1048B0009827E816F906D8F20AC08D859FEF980F61
:1048C0009D878823F9F2C8010E94DA28F6CFE12CEF
:1048D000F12C41E050E0BE016D5E7F4FC8010E94A7
:1048E00003298B89982F907C61F4882371F08B8940
:1048F0009FEF980F9B8B882341F0C8010E94DA2814
:10490000F6CFC8010E94DA281B8A8B898111E1CF7A
:1049100042E050E0BE01615F7F4FC8010E94032961
:1049200042E050E0BE01635F7F4FC8010E9403294F
:10493000C8010E94DA28C8010E94DA28C8010E9432
:10494000DA28C8010E94DA2842E050E0BE016F5E1A
:104950007F4FC8010E9403298F8598898115914056
:1049600029F48D859E858115914019F0812C912C1B
:1049700016C089899A898115944031F0C8010E9436
:10498000932887EF9FEF29C0B6016E5F7F4F44E009
:1049900050E0C8010E94032981E090E01EC089898F
:1049A0009A899827892798278816990638F4C80184
:1049B0000E94DA282FEF821A920AF1CF8FEFE81ABD
:1049C000F80AEA14FB0409F084CFC8010E94932876
:1049D00086EF9FEF02C08DEF9FEF63960FB6F894BE
:1049E000DEBF0FBECDBFDF91CF911F910F91FF9022
:1049F000EF90DF90CF90BF90AF909F908F907F907F
:104A00006F905F904F9008958F929F92AF92BF9258
:104A1000CF92DF92EF92FF920F931F93CF93DF938A
:104A200000D000D0CDB7DEB78C015B016A010E94D7
:104A3000AD224C01009709F05DC0F801428153811D
:104A4000648175818091340990913509A09136096E
:104A5000B0913709481759076A077B0709F44EC018
:104A60000E94D3327801F8E0EF0EF11C6F707727C7
:104A70007C5FC7010E943929813009F043C081E57C
:104A800095E09A838983F80182819381A481B5811D
:104A90008B839C83AD83BE8345E350E0BE016F5F93
:104AA0007F4FC7010E94BA28892B19F4812C912CC1
:104AB0001DC0B501C8010E94F922892BB9F3C701B5
:104AC0000E94C228892B91F333E0A32EB12CA601BA
:104AD00068E873E1C8010E94A1234C01F1E0AF1A1C
:104AE000B10821F08F3F2FEF920789F3C7010E9491
:104AF000A52808C088248394912C04C09EEF892E99
:104B000099249A94C40126960FB6F894DEBF0FBE7E
:104B1000CDBFDF91CF911F910F91FF90EF90DF906C
:104B2000CF90BF90AF909F908F90089580912A0969
:104B3000882361F09FB7F89420912A098091280971
:104B4000213019F48DBB9FBF08958FBF089544E0B5
:104B500050E0BC0181E090E00C949B2E44E050E0DA
:104B6000BC0185E090E00C949B2E44E050E0BC0139
:104B70008FE090E00C949B2E8F929F92AF92BF9209
:104B8000CF92DF92EF92FF920F931F93CF93DF9319
:104B90001F921F92CDB7DEB74C016A01590182E620
:104BA00099E069837A830E94332E80E590E00E9429
:104BB000041946E050E069817A8189E090E00E9422
:104BC0009B2EC60102960E94B525C80102960E943E
:104BD000A725C70102960E94AE250E949625F501E1
:104BE0004281538164817581F401428353836483DC
:104BF00075830F900F90DF91CF911F910F91FF90D0
:104C0000EF90DF90CF90BF90AF909F908F900895DE
:104C1000CF93DF93EC010E94533880E590E00E942F
:104C20000419BE016E5F7F4F44E050E08FE090E0DA
:104C30000E94CC2F0E949625CE01DF91CF9108953E
:104C4000CF93DF93EC010E94533880E590E00E94FF
:104C50000419BE016E5F7F4F44E050E085E090E0B4
:104C60000E94CC2F0E949625CE01DF91CF9108950E
:104C7000CF93DF93EC010E94533880E590E00E94CF
:104C80000419BE016E5F7F4F44E050E081E090E088
:104C90000E94CC2F0E949625CE01DF91CF910895DE
:104CA00021E535E0FC0131832083FB014281538102
:104CB00064817581FC014283538364837583089505
:104CC0000F9300E020E040E060E088E499E00E947B
:104CD0005D3888E399E00F910C94533881E0862782
:104CE0000895862F0895DC01ED91FC91048CF58DDB
:104CF000E02D199591E089270895CF93DF931F92B6
:104D0000CDB7DEB76983DC01ED91FC910280F381C0
:104D1000E02D41E050E0BE016F5F7F4F19950F908D
:104D2000DF91CF91089521E0FC018485843009F45E
:104D300020E0822F0895FC019485FB01848598135F
:104D400003C081E0943009F480E008950F931F932D
:104D5000CF93DF93EC018A018C85843021F00E948F
:104D6000D72B892B39F481E090E09B838A8380E004
:104D700090E001C0C801DF91CF911F910F9108957C
:104D8000FC018485843011F00C94CE2C80E090E0FE
:104D90000895CF93DF931F92CDB7DEB741E050E087
:104DA000BE016F5F7F4FFC0184850E946D2C181639
:104DB00019061CF4898190E002C08FEF9FEF0F90DD
:104DC000DF91CF910895FC0184850C946D2C0F9395
:104DD0001F93CF93DF931F92CDB7DEB78C01DC0119
:104DE000ED91FC910480F581E02D1995892B51F00E
:104DF000BE016F5F7F4FF80184850E94F92C898185
:104E000090E002C08FEF9FEF0F90DF91CF911F9145
:104E10000F910895FC0184850C94292DCF92DF9287
:104E2000EF92FF920F931F93CF93DF93CDB7DEB72F
:104E3000AF970FB6F894DEBF0FBECDBF7C018B01DC
:104E40006A01CE0101960E945338CE0109960E9454
:104E5000B629CE018A960E94533868E379E0CE01E4
:104E600084960E945026BE016C5D7F4FCE01019654
:104E70000E94A022AE01465D5F4FB801CE010196AF
:104E80000E94042581309105C1F4D701ED91FC9178
:104E90000484F585E02D81E595E09DA38CA30CA508
:104EA0001DA52EA53FA50EA31FA328A739A7A601C0
:104EB000BE016C5D7F4FC7011995AF960FB6F89490
:104EC000DEBF0FBECDBFDF91CF911F910F91FF903D
:104ED000EF90DF90CF900895FC011382128248EE8C
:104EE00053E060E070E0448355836683778389EF05
:104EF00094E09183808384E084870895FC01848515
:104F0000843011F00C94B02A80E00895DF92EF9283
:104F1000FF920F931F93CF93DF93EC017B018A01E4
:104F20008C85843009F045C0D12C8D2D0E94B02A8B
:104F3000811102C0DC8607C08B7F8831D9F3D394FE
:104F400084E0D812F2CF8C85843099F1209114023C
:104F5000309115022F5F3F4F11F420E030EC309379
:104F6000150220931402409114025091150220E082
:104F700061E00E94022BB7016E5F7F4FA8018C8514
:104F80000E94572B811103C084E08C8712C0CE0190
:104F90000E947E27873151F061E070E080E090E070
:104FA0000E940233CE010E947E27ECCF81E090E088
:104FB00002C080E090E0DF91CF911F910F91FF90B0
:104FC000EF90DF900895CF92DF92EF92FF92CF9310
:104FD000DF93EC018C85843081F10E94B02B0E941C
:104FE000D3326B017C01CE010E947E27882359F0C9
:104FF0000E94D3326C197D098E099F09683E734067
:105000008105910598F0CE010E947E27882319F032
:105010008C850E94D72AEC85F0E0EE0FFF1FE05C44
:10502000F64F1182108284E08C8707C061E070E047
:1050300080E090E00E940233D6CFDF91CF91FF90C5
:10504000EF90DF90CF900895CF93DF93EC018C85A4
:105050008430D1F0CE010E947E278431A9F08823CC
:1050600099F0883189F08C3169F4E881F981048004
:10507000F581E02DCE01199521E0892B09F420E07E
:10508000822F03C081E001C080E0DF91CF910895BD
:105090000F9300E020E040E060E08EE499E00E94A1
:1050A0005D380F9108950F9300E020E040E060E04C
:1050B00084E599E00E945D380F910895DC01ED913F
:1050C000FC91008CF18DE02D199421E535E0FC0177
:1050D00031832083FB014189528963897489FC01F2
:1050E00042835383648375830895FC01858996897F
:1050F0000895FC01818D928D0895CF93DF931F92C7
:10510000CDB7DEB76983DC01ED91FC910280F381BC
:10511000E02D41E050E0BE016F5F7F4F19950F9089
:10512000DF91CF910895CF93DF93EC01898D9A8D14
:10513000892B41F0E881F9810680F781E02DCE01CD
:105140001995F4CFDF91CF910895CF93DF93EC01C0
:105150008C85843061F00E94D72AEC85F0E0EE0F58
:10516000FF1FE05CF64F1182108284E08C87DF9194
:10517000CF910895FC01108E178A6E5F7F4F848552
:105180000C94722DFC0184850C94B92DCF93DF9380
:10519000EC019A018F89988DAB01BC018C850E942E
:1051A0002A2D2F89388D280F391F388F2F8BDF91AB
:1051B000CF9108950F931F93CF93DF931F92CDB795
:1051C000DEB78C01FC01818D928D892B59F041E075
:1051D00050E0BE016F5F7F4F84850E946D2C1816D2
:1051E00019061CF08FEF9FEF08C0F801818D928D9A
:1051F0000197928F818F898190E00F90DF91CF91FD
:105200001F910F910895CF93DF93EC01898D9A8DB3
:10521000009719F48FEF9FEF10C04817590708F057
:10522000AC018C850E946D2C181619069CF7298DEF
:105230003A8D281B390B3A8F298FDF91CF91089532
:10524000CF93DF931F92CDB7DEB7FC01218D328D56
:10525000232B49F0BE016F5F7F4F84850E94F92C9C
:10526000898190E002C08FEF9FEF0F90DF91CF9187
:105270000895FF920F931F93CF93DF93EC018B015F
:105280008C858430E1F4F12C8F2D0E94B02A81119D
:1052900002C0FC8606C08831E1F3F39484E0F81282
:1052A000F3CF8C85843059F01E870D871A8E198EA6
:1052B00020E0A80162E00E94022B81E001C080E0B2
:1052C000DF91CF911F910F91FF9008950F931F933E
:1052D000CF93DF93CDB7DEB728970FB6F894DEBF34
:1052E0000FBECDBF8C01DC01ED91FC910284F385F2
:1052F000E02D1995F80184850E94CE2C1816190608
:1053000044F548E050E0BE016F5F7F4FD8011C9626
:105310008C910E946D2C18161906ECF4BE016F5F7B
:105320007F4FC8010F960E9469388D8190E0982FB9
:1053300088272E81820F911DF801968B858B8F8196
:1053400090E0982F88272885820F911D928F818F5A
:1053500002C080E090E028960FB6F894DEBF0FBE42
:10536000CDBFDF91CF911F910F910895FC01138262
:10537000128248EE53E060E070E044835583668318
:1053800077838DE195E09183808384E08487CF01EA
:105390000F960C945338CF92DF92EF92FF920F93B7
:1053A0001F93CF93DF93CDB7DEB7AF970FB6F894C7
:1053B000DEBF0FBECDBF7C018B016A01CE0101961D
:1053C0000E945338CE0109960E94B629CE018A96D2
:1053D0000E94533868E379E0CE0184960E945026FB
:1053E000BE016C5D7F4FCE0101960E94A022AE01EE
:1053F000465D5F4FB801CE0101960E9404258130C1
:105400009105C1F4D701ED91FC910088F189E02D5F
:1054100081E595E09DA38CA30CA51DA52EA53FA518
:105420000EA31FA328A739A7A601BE016C5D7F4F5D
:10543000C7011995AF960FB6F894DEBF0FBECDBF6A
:10544000DF91CF911F910F91FF90EF90DF90CF9060
:1054500008950F9300E020E040E060E08AE599E0E5
:105460000E945D380F910895CF92DF92EF92FF92E4
:105470000F9330E0C12CF2E1DF2EFAE7EF2EF12C92
:105480004C155D056E057F0540F4F694E794D794BE
:10549000C7943F5F3630A1F737E041E04327211141
:1054A00002C050E701C050E5242F30E03595279524
:1054B00023700C70202B252BFC012083417041832D
:1054C0000F91FF90EF90DF90CF90089590E0982F8C
:1054D000882744E050E0845F9B4F0C949B2E282F3C
:1054E00030E02C5F3F4F922F8827860F971F0C9438
:1054F000CA2E62E070E00C946F2AFB01282F30E086
:105500002C5F3F4F922F8827642F8E0F9F1F0C9484
:10551000102ECF93DF93C82FD62F472F64E070E073
:105520000E947D2A4D2F65E070E08C2FDF91CF9196
:105530000C947D2A462F62E070E00C947D2ACF9374
:10554000DF93C82FD62F472F60E170E00E947D2A9D
:105550004D2F61E170E08C2FDF91CF910C947D2A6B
:105560000F931F93CF93DF9300D0CDB7DEB7182FE3
:1055700000E021E040E059E06DE370E0CE010196EB
:105580000E94342A89819A810E94041963E070E0A4
:10559000812F0E946F2A8B830E9496258B810F900A
:1055A0000F900F90DF91CF911F910F9108950F935E
:1055B0001F93CF93DF931F921F92CDB7DEB7182FA3
:1055C00000E021E040E059E06DE370E0CE0101969B
:1055D0000E94342A89819A810E94041940E150E096
:1055E000612F82E699E00E9495306FEF812F0E9433
:1055F0009A2A0E9496250F900F90DF91CF911F91CC
:105600000F910895CF92DF92EF92FF920F931F9325
:10561000CF93DF931F921F92CDB7DEB7182FD62EF0
:105620007A01C22E8FEF860F8530A8F5812F0E9458
:10563000D72A00E021E040E059E06DE370E0CE01C0
:1056400001960E94342A89819A810E9404194D2D65
:105650004C2960E070E0812F0E947D2AE114F10462
:1056600011F0B7010AC060916009709161096F5F24
:105670007F4F7093610960936009812F0E94892A8E
:1056800041E050E0612F82E699E00E9495300E944F
:10569000962581E001C080E00F900F90DF91CF91BF
:1056A0001F910F91FF90EF90DF90CF900895CF92D0
:1056B000DF92EF92FF920F931F93CF93DF931F928E
:1056C0001F92CDB7DEB7182F7B016A01FB018081E5
:1056D0008F3F51F481818F3F99F482818F3F81F414
:1056E00083818F3F69F430C081110AC0FB01818141
:1056F000811106C08281811103C08381882321F139
:10570000C114D10409F100E021E040E059E06DE36B
:1057100070E0CE0101960E94342A89819A810E940C
:105720000419B701812F0E94662AB601812F0E94B9
:105730009F2A44E050E0612F82E699E00E94953074
:105740000E94962581E001C080E00F900F90DF91CC
:10575000CF911F910F91FF90EF90DF90CF90089520
:105760000F931F93CF93DF931F921F92CDB7DEB796
:10577000182F00E021E040E059E06DE370E0CE0139
:1057800001960E94342A89819A810E94041948E076
:1057900050E0612F82E699E00E9495300E949625A4
:1057A0000F900F90DF91CF911F910F910895BF92AD
:1057B000CF92DF92EF92FF920F931F93CF93DF93DD
:1057C00000D0CDB7DEB7B82E6B017A01413088E04A
:1057D000580718F0E12C98E0F92E00E021E040E0B5
:1057E00059E06DE370E0CE0101960E94342A898170
:1057F0009A810E9404196B2D82E699E00E94022F83
:105800008C0163E070E08B2D0E946F2A8B830E94D5
:1058100096258B81873111F08C3131F40E948832CA
:105820000E151F05D0F202C0E12CF12C00E021E0A2
:1058300040E059E06DE370E0CE0101960E94342A09
:1058400089819A810E9404199701A6016B2D82E635
:1058500099E00E94C12F40E250E06B2D82E699E072
:105860000E9495308B2D0E94792A84FD22C063E02E
:1058700070E08B2D0E946F2A811108C00E9496252E
:105880008B2D0E94D72A80E090E01AC00E949625B6
:105890000E94883200E021E040E059E06DE370E0D2
:1058A000CE0101960E94342A89819A810E940419AE
:1058B000D9CF60E18B2D0E949A2A0E949625C701BC
:1058C0000F900F900F90DF91CF911F910F91FF904C
:1058D000EF90DF90CF90BF900895AF92BF92CF929C
:1058E000DF92EF92FF920F931F93CF93DF931F925C
:1058F0001F92CDB7DEB7182F5B016A0100E021E0EF
:1059000040E059E06DE370E0CE0101960E94342A38
:1059100089819A810E940419612F82E699E00E9490
:10592000362F7C010097A1F463E070E0812F0E9484
:105930006F2A843119F1882309F121E030E08C319C
:1059400011F420E030E0EE24FF24E21AF30A16C03E
:10595000C816D9060CF476011E141F047CF400E06E
:105960009701A501612F82E699E00E94453040E44D
:1059700050E0612F82E699E00E9495300E949625C2
:10598000C7010F900F90DF91CF911F910F91FF9062
:10599000EF90DF90CF90BF90AF9008950F931F933B
:1059A000CF93DF9300D01F92CDB7DEB7182F00E062
:1059B00021E040E059E06DE370E0CE0101960E94E5
:1059C000342A89819A810E940419612F82E699E024
:1059D0000E94362F8B839C830E9496258B819C810D
:1059E0000F900F900F900F90DF91CF911F910F911B
:1059F0000895EF92FF920F931F93CF93DF931F921F
:105A00001F92CDB7DEB7182F7B0100E021E040E008
:105A100059E06DE370E0CE0101960E94342A89813D
:105A20009A810E94041901E021E030E0A701612F72
:105A300082E699E00E9445300E94962581E090E040
:105A40000F900F90DF91CF911F910F91FF90EF90EA
:105A5000089508959F92AF92BF92CF92DF92EF92F6
:105A6000FF920F931F93CF93DF931F921F92CDB797
:105A7000DEB7982E6B015A01790100E021E040E089
:105A800059E06DE370E0CE0101960E94342A8981CD
:105A90009A810E940419692D82E699E00E94022FE2
:105AA0008E159F0530F4692D82E699E00E94022F41
:105AB0007C0187019501A601692D82E699E00E948B
:105AC000522F0E949625C7010F900F90DF91CF9122
:105AD0001F910F91FF90EF90DF90CF90BF90AF900C
